{
  "_format": "hh-sol-artifact-1",
  "contractName": "LPLocker",
  "sourceName": "contracts/LPLocker/LPLocker.sol",
  "abi": [
    {
      "inputs": [
        {
          "internalType": "uint256",
          "name": "_lockerID",
          "type": "uint256"
        },
        {
          "internalType": "address",
          "name": "_owner",
          "type": "address"
        },
        {
          "internalType": "address",
          "name": "_token",
          "type": "address"
        },
        {
          "internalType": "uint256",
          "name": "_numOfTokens",
          "type": "uint256"
        },
        {
          "internalType": "uint256",
          "name": "_unlockTime",
          "type": "uint256"
        }
      ],
      "stateMutability": "nonpayable",
      "type": "constructor"
    },
    {
      "inputs": [],
      "name": "unlockTokens",
      "outputs": [],
      "stateMutability": "nonpayable",
      "type": "function"
    }
  ],
  "bytecode": "0x608060405234801561001057600080fd5b5060405161038d38038061038d83398101604081905261002f9161012b565b6040518060e00160405280868152602001856001600160a01b03168152602001846001600160a01b03168152602001838152602001428152602001828152602001600060018111156100835761008361017a565b9052805160009081556020820151600180546001600160a01b039283166001600160a01b0319918216178255604085015160028054919094169116179091556060830151600355608083015160045560a083015160055560c0830151600680549192909160ff19169083818111156100fd576100fd61017a565b02179055509050505050505050610190565b80516001600160a01b038116811461012657600080fd5b919050565b600080600080600060a0868803121561014357600080fd5b855194506101536020870161010f565b93506101616040870161010f565b6060870151608090970151959894975095949392505050565b634e487b7160e01b600052602160045260246000fd5b6101ee8061019f6000396000f3fe608060405234801561001057600080fd5b506004361061002b5760003560e01c8063f968f49314610030575b600080fd5b61003861003a565b005b6001546001600160a01b031633146100995760405162461bcd60e51b815260206004820152601d60248201527f4f6e6c79206c6f636b6572206f6e77657220697320616c6c6f7765642e00000060448201526064015b60405180910390fd5b6001546001600160a01b031633146100f35760405162461bcd60e51b815260206004820152601d60248201527f4f6e6c79206c6f636b6572206f6e77657220697320616c6c6f7765642e0000006044820152606401610090565b60025460015460035460405163a9059cbb60e01b81526001600160a01b039283166004820152602481019190915291169063a9059cbb90604401602060405180830381600087803b15801561014757600080fd5b505af115801561015b573d6000803e3d6000fd5b505050506040513d601f19601f8201168201806040525081019061017f919061018f565b506006805460ff19166001179055565b6000602082840312156101a157600080fd5b815180151581146101b157600080fd5b939250505056fea26469706673582212200cd5fd537cd9d4e2a8be56fb791e79260bc49b728076578fb493a83d06c009e064736f6c63430008070033",
  "linkReferences": {},
  "deployedLinkReferences": {}
}