{
  "_format": "hh-sol-artifact-1",
  "contractName": "LPLocker",
  "sourceName": "contracts/LPLocker/LPLocker.sol",
  "abi": [
    {
      "inputs": [
        {
          "internalType": "uint256",
          "name": "_lockerID",
          "type": "uint256"
        },
        {
          "internalType": "address",
          "name": "_owner",
          "type": "address"
        },
        {
          "internalType": "address",
          "name": "_token",
          "type": "address"
        },
        {
          "internalType": "uint256",
          "name": "_numOfTokens",
          "type": "uint256"
        },
        {
          "internalType": "uint256",
          "name": "_unlockTime",
          "type": "uint256"
        }
      ],
      "stateMutability": "nonpayable",
      "type": "constructor"
    },
    {
      "inputs": [],
      "name": "unlockTokens",
      "outputs": [],
      "stateMutability": "nonpayable",
      "type": "function"
    }
  ],
  "bytecode": "0x608060405234801561001057600080fd5b50604051610a16380380610a16833981810160405281019061003291906102a7565b6100647f76760f17cc7b67f5ebad3ab2e8bc2d9cfa9be7b70cd83a35eafadcc4bb8df6a760001b61027a60201b60201c565b6100967f9e7ed0c1d03df8a2b2e21386fcdeddd2cd7d5fc8570c3b1499a16b8de5edc4b360001b61027a60201b60201c565b6100c87f89a52e43e4e96d643054e2e5dbad106259507a5f9eb7f941c5b92df6fa05a25f60001b61027a60201b60201c565b6040518060e001604052808681526020018573ffffffffffffffffffffffffffffffffffffffff1681526020018473ffffffffffffffffffffffffffffffffffffffff1681526020018381526020014281526020018281526020016000600181111561015d577f4e487b7100000000000000000000000000000000000000000000000000000000600052602160045260246000fd5b815250600080820151816000015560208201518160010160006101000a81548173ffffffffffffffffffffffffffffffffffffffff021916908373ffffffffffffffffffffffffffffffffffffffff16021790555060408201518160020160006101000a81548173ffffffffffffffffffffffffffffffffffffffff021916908373ffffffffffffffffffffffffffffffffffffffff160217905550606082015181600301556080820151816004015560a0820151816005015560c08201518160060160006101000a81548160ff02191690836001811115610268577f4e487b7100000000000000000000000000000000000000000000000000000000600052602160045260246000fd5b02179055509050505050505050610388565b50565b60008151905061028c8161035a565b92915050565b6000815190506102a181610371565b92915050565b600080600080600060a086880312156102bf57600080fd5b60006102cd88828901610292565b95505060206102de8882890161027d565b94505060406102ef8882890161027d565b935050606061030088828901610292565b925050608061031188828901610292565b9150509295509295909350565b600061032982610330565b9050919050565b600073ffffffffffffffffffffffffffffffffffffffff82169050919050565b6000819050919050565b6103638161031e565b811461036e57600080fd5b50565b61037a81610350565b811461038557600080fd5b50565b61067f806103976000396000f3fe608060405234801561001057600080fd5b506004361061002b5760003560e01c8063f968f49314610030575b600080fd5b61003861003a565b005b6100667f48b7e7e86d43461691fdc5cdbc20408934ec47a065c4285fc88894328fa2548460001b6104dd565b6100927f66f6e661a20f4b8131f4af1915333a5eb0cb82c5d1efa01155538086e0fdc6fd60001b6104dd565b6100be7fdcbc0844fe9021930291e42d3ac608f9e7c757c798a24576ee0323fc6429f1bb60001b6104dd565b6100ea7f14fa1da2258845a49c5bb13010f3a92bb05ad2e7051e086def38103b2935000e60001b6104dd565b6100f26104e0565b73ffffffffffffffffffffffffffffffffffffffff16600060010160009054906101000a900473ffffffffffffffffffffffffffffffffffffffff1673ffffffffffffffffffffffffffffffffffffffff1614610184576040517f08c379a000000000000000000000000000000000000000000000000000000000815260040161017b90610590565b60405180910390fd5b6101b07f05e27c1bfd94895e808874c3962a57ec5393c9dd6a7f3fb6860bda304dcfe65a60001b6104dd565b6101dc7ff46e58c8df95f81dbe63330b7b795745038d52aa47cc0b95e127ea67e5d4414b60001b6104dd565b6102087f3ad915ef26024520afa1f22feb73be34e027ea2171324478138c7116540d584f60001b6104dd565b6102347f44ddad72fa2dfa31e8e8f6285e271cb65db2d2956af0a9a0953b677997643b1360001b6104dd565b61023c6104e0565b73ffffffffffffffffffffffffffffffffffffffff16600060010160009054906101000a900473ffffffffffffffffffffffffffffffffffffffff1673ffffffffffffffffffffffffffffffffffffffff16146102ce576040517f08c379a00000000000000000000000000000000000000000000000000000000081526004016102c590610590565b60405180910390fd5b6102fa7f265d0fdc4c0fa9f14b5289aab0a51f368b4cb0161671f86a23d5cf880335595060001b6104dd565b6103267f4cd527f9611ef5b61b2b2dea608b0c97d9c97844496883ff7d4dec09ca0454c260001b6104dd565b6103527f451fb00a8320a3e95a2330a4ad7ac3e10d5f131785cd736225b8f22ceca738c160001b6104dd565b600060020160009054906101000a900473ffffffffffffffffffffffffffffffffffffffff1673ffffffffffffffffffffffffffffffffffffffff1663a9059cbb600060010160009054906101000a900473ffffffffffffffffffffffffffffffffffffffff166000600301546040518363ffffffff1660e01b81526004016103dc929190610567565b602060405180830381600087803b1580156103f657600080fd5b505af115801561040a573d6000803e3d6000fd5b505050506040513d601f19601f8201168201806040525081019061042e91906104fd565b5061045b7f2e6edd222bdb0d45a2f7efc5c7a0f3708945ae1c6891014ef98ea2958b89951760001b6104dd565b6104877f1291bdddd02ff4c4cc3bf94678202c614f05e21ee80e5bcf0e636313965c116660001b6104dd565b6001600060060160006101000a81548160ff021916908360018111156104d6577f4e487b7100000000000000000000000000000000000000000000000000000000600052602160045260246000fd5b0217905550565b50565b600033905090565b6000815190506104f781610632565b92915050565b60006020828403121561050f57600080fd5b600061051d848285016104e8565b91505092915050565b61052f816105c1565b82525050565b6000610542601d836105b0565b915061054d82610609565b602082019050919050565b610561816105ff565b82525050565b600060408201905061057c6000830185610526565b6105896020830184610558565b9392505050565b600060208201905081810360008301526105a981610535565b9050919050565b600082825260208201905092915050565b60006105cc826105df565b9050919050565b60008115159050919050565b600073ffffffffffffffffffffffffffffffffffffffff82169050919050565b6000819050919050565b7f4f6e6c79206c6f636b6572206f6e77657220697320616c6c6f7765642e000000600082015250565b61063b816105d3565b811461064657600080fd5b5056fea26469706673582212208e6f643f3d7580205aa38850c48cee82cb33effeb68b31d66692034ae437c15564736f6c63430008040033",
  "linkReferences": {},
  "deployedLinkReferences": {}
}