{
  "_format": "hh-sol-artifact-1",
  "contractName": "Launchpadv2",
  "sourceName": "contracts/Launchpad/Launchpadv2.sol",
  "abi": [
    {
      "inputs": [
        {
          "internalType": "address",
          "name": "_IUniswapV2Router02",
          "type": "address"
        },
        {
          "internalType": "address",
          "name": "_teamAddr",
          "type": "address"
        },
        {
          "internalType": "address",
          "name": "_devAddr",
          "type": "address"
        }
      ],
      "stateMutability": "nonpayable",
      "type": "constructor"
    },
    {
      "anonymous": false,
      "inputs": [
        {
          "indexed": true,
          "internalType": "address",
          "name": "previousOwner",
          "type": "address"
        },
        {
          "indexed": true,
          "internalType": "address",
          "name": "newOwner",
          "type": "address"
        }
      ],
      "name": "OwnershipTransferred",
      "type": "event"
    },
    {
      "inputs": [
        {
          "components": [
            {
              "internalType": "address",
              "name": "preSaleToken",
              "type": "address"
            },
            {
              "internalType": "string",
              "name": "name",
              "type": "string"
            },
            {
              "internalType": "string",
              "name": "symbol",
              "type": "string"
            },
            {
              "internalType": "uint256",
              "name": "decimals",
              "type": "uint256"
            }
          ],
          "internalType": "struct LaunchPadLib.TokenInfo",
          "name": "_tokenInfo",
          "type": "tuple"
        },
        {
          "components": [
            {
              "internalType": "uint256",
              "name": "tokensForSale",
              "type": "uint256"
            },
            {
              "internalType": "uint256",
              "name": "tokensPCForLP",
              "type": "uint256"
            },
            {
              "internalType": "enum LaunchPadLib.PresaleType",
              "name": "typeOfPresale",
              "type": "uint8"
            },
            {
              "internalType": "uint256",
              "name": "priceOfEachToken",
              "type": "uint256"
            },
            {
              "internalType": "address",
              "name": "criteriaToken",
              "type": "address"
            },
            {
              "internalType": "uint256",
              "name": "minTokensForParticipation",
              "type": "uint256"
            },
            {
              "internalType": "enum LaunchPadLib.RefundType",
              "name": "refundType",
              "type": "uint8"
            }
          ],
          "internalType": "struct LaunchPadLib.ParticipationCriteria",
          "name": "_participationCriteria",
          "type": "tuple"
        },
        {
          "components": [
            {
              "internalType": "uint256",
              "name": "startedAt",
              "type": "uint256"
            },
            {
              "internalType": "uint256",
              "name": "expiredAt",
              "type": "uint256"
            },
            {
              "internalType": "uint256",
              "name": "lpLockupDuration",
              "type": "uint256"
            }
          ],
          "internalType": "struct LaunchPadLib.PresaleTimes",
          "name": "_presaleTimes",
          "type": "tuple"
        },
        {
          "components": [
            {
              "internalType": "uint256",
              "name": "minTokensReq",
              "type": "uint256"
            },
            {
              "internalType": "uint256",
              "name": "maxTokensReq",
              "type": "uint256"
            },
            {
              "internalType": "uint256",
              "name": "softCap",
              "type": "uint256"
            }
          ],
          "internalType": "struct LaunchPadLib.ReqestedTokens",
          "name": "_reqestedTokens",
          "type": "tuple"
        },
        {
          "components": [
            {
              "internalType": "bool",
              "name": "isEnabled",
              "type": "bool"
            },
            {
              "internalType": "uint256",
              "name": "firstReleasePC",
              "type": "uint256"
            },
            {
              "internalType": "uint256",
              "name": "vestingPeriodOfEachCycle",
              "type": "uint256"
            },
            {
              "internalType": "uint256",
              "name": "tokensReleaseEachCyclePC",
              "type": "uint256"
            }
          ],
          "internalType": "struct LaunchPadLib.ContributorsVesting",
          "name": "_contributorsVesting",
          "type": "tuple"
        },
        {
          "components": [
            {
              "internalType": "bool",
              "name": "isEnabled",
              "type": "bool"
            },
            {
              "internalType": "uint256",
              "name": "vestingTokens",
              "type": "uint256"
            },
            {
              "internalType": "uint256",
              "name": "firstReleaseTime",
              "type": "uint256"
            },
            {
              "internalType": "uint256",
              "name": "firstReleasePC",
              "type": "uint256"
            },
            {
              "internalType": "uint256",
              "name": "vestingPeriodOfEachCycle",
              "type": "uint256"
            },
            {
              "internalType": "uint256",
              "name": "tokensReleaseEachCyclePC",
              "type": "uint256"
            }
          ],
          "internalType": "struct LaunchPadLib.TeamVesting",
          "name": "_teamVesting",
          "type": "tuple"
        }
      ],
      "name": "createPresale",
      "outputs": [],
      "stateMutability": "payable",
      "type": "function"
    },
    {
      "inputs": [],
      "name": "devAddr",
      "outputs": [
        {
          "internalType": "address",
          "name": "",
          "type": "address"
        }
      ],
      "stateMutability": "view",
      "type": "function"
    },
    {
      "inputs": [
        {
          "internalType": "address",
          "name": "_address",
          "type": "address"
        }
      ],
      "name": "getPresaleRecordsByToken",
      "outputs": [
        {
          "internalType": "address[]",
          "name": "",
          "type": "address[]"
        }
      ],
      "stateMutability": "view",
      "type": "function"
    },
    {
      "inputs": [
        {
          "internalType": "address",
          "name": "",
          "type": "address"
        }
      ],
      "name": "isUserWhitelistedToStartProject",
      "outputs": [
        {
          "internalType": "bool",
          "name": "",
          "type": "bool"
        }
      ],
      "stateMutability": "view",
      "type": "function"
    },
    {
      "inputs": [],
      "name": "owner",
      "outputs": [
        {
          "internalType": "address",
          "name": "",
          "type": "address"
        }
      ],
      "stateMutability": "view",
      "type": "function"
    },
    {
      "inputs": [],
      "name": "presaleCount",
      "outputs": [
        {
          "internalType": "uint256",
          "name": "",
          "type": "uint256"
        }
      ],
      "stateMutability": "view",
      "type": "function"
    },
    {
      "inputs": [
        {
          "internalType": "uint256",
          "name": "",
          "type": "uint256"
        }
      ],
      "name": "presaleRecordByID",
      "outputs": [
        {
          "internalType": "address",
          "name": "",
          "type": "address"
        }
      ],
      "stateMutability": "view",
      "type": "function"
    },
    {
      "inputs": [],
      "name": "renounceOwnership",
      "outputs": [],
      "stateMutability": "nonpayable",
      "type": "function"
    },
    {
      "inputs": [],
      "name": "salesFeeInPercent",
      "outputs": [
        {
          "internalType": "uint8",
          "name": "",
          "type": "uint8"
        }
      ],
      "stateMutability": "view",
      "type": "function"
    },
    {
      "inputs": [],
      "name": "teamAddr",
      "outputs": [
        {
          "internalType": "address",
          "name": "",
          "type": "address"
        }
      ],
      "stateMutability": "view",
      "type": "function"
    },
    {
      "inputs": [
        {
          "internalType": "address",
          "name": "newOwner",
          "type": "address"
        }
      ],
      "name": "transferOwnership",
      "outputs": [],
      "stateMutability": "nonpayable",
      "type": "function"
    },
    {
      "inputs": [],
      "name": "uniswapV2Router02",
      "outputs": [
        {
          "internalType": "address",
          "name": "",
          "type": "address"
        }
      ],
      "stateMutability": "view",
      "type": "function"
    },
    {
      "inputs": [
        {
          "internalType": "uint256",
          "name": "_upfrontFee",
          "type": "uint256"
        },
        {
          "internalType": "uint8",
          "name": "_salesFeeInPercent",
          "type": "uint8"
        }
      ],
      "name": "updateFees",
      "outputs": [],
      "stateMutability": "nonpayable",
      "type": "function"
    },
    {
      "inputs": [],
      "name": "upfrontfee",
      "outputs": [
        {
          "internalType": "uint256",
          "name": "",
          "type": "uint256"
        }
      ],
      "stateMutability": "view",
      "type": "function"
    },
    {
      "inputs": [
        {
          "internalType": "address[]",
          "name": "_addresses",
          "type": "address[]"
        }
      ],
      "name": "whiteListUsersToStartProject",
      "outputs": [],
      "stateMutability": "nonpayable",
      "type": "function"
    },
    {
      "inputs": [],
      "name": "withdrawBNBs",
      "outputs": [],
      "stateMutability": "nonpayable",
      "type": "function"
    },
    {
      "stateMutability": "payable",
      "type": "receive"
    }
  ],
  "bytecode": "0x608060405260006001556702c68af0bb14000060029081556003805460ff191690911790553480156200003157600080fd5b50604051620061583803806200615883398101604081905262000054916200011d565b6200005f33620000b0565b600580546001600160a01b039485166001600160a01b0319918216179091556003805493851661010002610100600160a81b0319909416939093179092556004805491909316911617905562000166565b600080546001600160a01b038381166001600160a01b0319831681178455604051919092169283917f8be0079c531659141344cd1fd0a4f28419497f9722a3daafe3b4186f6b6457e09190a35050565b80516001600160a01b03811681146200011857600080fd5b919050565b60008060006060848603121562000132578283fd5b6200013d8462000100565b92506200014d6020850162000100565b91506200015d6040850162000100565b90509250925092565b615fe280620001766000396000f3fe6080604052600436106200010b5760003560e01c8063acc3ba881162000095578063dc5744ad1162000060578063dc5744ad1462000316578063e8a7c6161462000345578063eec5dab7146200035c578063f2fde38b146200037457600080fd5b8063acc3ba881462000274578063cde27a3514620002a8578063da09c72c14620002cf578063da3606be14620002f157600080fd5b8063715018a611620000d6578063715018a614620001e05780637613032414620001f85780638da5cb5b1462000232578063a7c6402c146200025257600080fd5b80630fafe2b414620001185780631c1f4ff9146200013f57806332661af714620001885780634a5ff74914620001a057600080fd5b366200011357005b600080fd5b3480156200012557600080fd5b506200013d6200013736600462001301565b62000399565b005b3480156200014c57600080fd5b50620001736200015e366004620012dd565b60086020526000908152604090205460ff1681565b60405190151581526020015b60405180910390f35b3480156200019557600080fd5b506200013d6200044e565b348015620001ad57600080fd5b50600354620001c79061010090046001600160a01b031681565b6040516001600160a01b0390911681526020016200017f565b348015620001ed57600080fd5b506200013d62000645565b3480156200020557600080fd5b50620001c762000217366004620014f8565b6006602052600090815260409020546001600160a01b031681565b3480156200023f57600080fd5b506000546001600160a01b0316620001c7565b3480156200025f57600080fd5b50600554620001c7906001600160a01b031681565b3480156200028157600080fd5b506200029962000293366004620012dd565b62000680565b6040516200017f919062001665565b348015620002b557600080fd5b50620002c060015481565b6040519081526020016200017f565b348015620002dc57600080fd5b50600454620001c7906001600160a01b031681565b348015620002fe57600080fd5b506200013d6200031036600462001511565b620006f8565b3480156200032357600080fd5b50600354620003329060ff1681565b60405160ff90911681526020016200017f565b6200013d62000356366004620013dc565b62000740565b3480156200036957600080fd5b50620002c060025481565b3480156200038157600080fd5b506200013d62000393366004620012dd565b62000e09565b6000546001600160a01b03163314620003cf5760405162461bcd60e51b8152600401620003c690620016b4565b60405180910390fd5b60005b81518110156200044a576001600860008484815181106200040357634e487b7160e01b600052603260045260246000fd5b6020908102919091018101516001600160a01b03168252810191909152604001600020805460ff191691151591909117905580620004418162001a1c565b915050620003d2565b5050565b6000546001600160a01b031633146200047b5760405162461bcd60e51b8152600401620003c690620016b4565b4780620004c15760405162461bcd60e51b81526020600482015260136024820152726e6f7468696e6720746f20776974686472617760681b6044820152606401620003c6565b60006064620004d2836046620019e0565b620004de9190620018b8565b90506000620004ee828462001a02565b6003546040519192506000916101009091046001600160a01b03169084908381818185875af1925050503d806000811462000546576040519150601f19603f3d011682016040523d82523d6000602084013e6200054b565b606091505b5050905080620005975760405162461bcd60e51b815260206004820152601660248201527563616e6e6f742073656e64207465616d20536861726560501b6044820152606401620003c6565b6004546040516000916001600160a01b03169084908381818185875af1925050503d8060008114620005e6576040519150601f19603f3d011682016040523d82523d6000602084013e620005eb565b606091505b50509050806200063e5760405162461bcd60e51b815260206004820152601860248201527f63616e6e6f742073656e64206465765465616d536861726500000000000000006044820152606401620003c6565b5050505050565b6000546001600160a01b03163314620006725760405162461bcd60e51b8152600401620003c690620016b4565b6200067e600062000eab565b565b6001600160a01b038116600090815260076020908152604091829020805483518184028101840190945280845260609392830182828015620006ec57602002820191906000526020600020905b81546001600160a01b03168152600190910190602001808311620006cd575b50505050509050919050565b6000546001600160a01b03163314620007255760405162461bcd60e51b8152600401620003c690620016b4565b6002919091556003805460ff191660ff909216919091179055565b85516001600160a01b0316620007a75760405162461bcd60e51b815260206004820152602560248201527f50726573616c652070726f6a65637420616464726573732063616e2774206265604482015264081b9d5b1b60da1b6064820152608401620003c6565b600285604001516002811115620007ce57634e487b7160e01b600052602160045260246000fd5b14156200083d5760808501516001600160a01b03166200083d5760405162461bcd60e51b8152602060048201526024808201527f437269746572696120746f6b656e20616464726573732063616e2774206265206044820152631b9d5b1b60e21b6064820152608401620003c6565b805115620008ab576000816020015111620008ab5760405162461bcd60e51b815260206004820152602760248201527f56657374696e6720746f6b656e732073686f756c64206265206d6f7265207468604482015266616e207a65726f60c81b6064820152608401620003c6565b6032856020015110158015620008c65750605f856020015111155b620009255760405162461bcd60e51b815260206004820152602860248201527f6c69717569646974792073686f756c64206265206174206c6561737420353025604482015267206f72206d6f726560c01b6064820152608401620003c6565b8451620009815760405162461bcd60e51b815260206004820152602360248201527f746f6b656e7320666f722073616c65206d757374206265206d6f72652074686160448201526206e20360ec1b6064820152608401620003c6565b8251620009e05760405162461bcd60e51b815260206004820152602660248201527f5f6d696e546f6b656e735265712073686f756c64206265206d6f7265207468616044820152656e207a65726f60d01b6064820152608401620003c6565b825160208401511162000a365760405162461bcd60e51b815260206004820152601d60248201527f5f6d6178546f6b656e73526571203e205f6d696e546f6b656e735265710000006044820152606401620003c6565b845162000a4690600290620018b8565b8360400151101562000aaa5760405162461bcd60e51b815260206004820152602660248201527f736f66746361702073686f756c64206265206174206c6561737420353025206f60448201526572206d6f726560d01b6064820152608401620003c6565b8351421062000b165760405162461bcd60e51b815260206004820152603160248201527f7374617274656441742073686f756c64206265206d6f7265207468616e203135604482015270206d696e757465732066726f6d206e6f7760781b6064820152608401620003c6565b4284602001511162000b825760405162461bcd60e51b815260206004820152602e60248201527f6578706972656441742073686f756c64206265206d6f7265207468616e206f6e60448201526d65206461792066726f6d206e6f7760901b6064820152608401620003c6565b600084604001511162000bf65760405162461bcd60e51b815260206004820152603560248201527f4c6f636b757020706572696f642073686f756c64206265202037206f72206d6f604482015274726520646179732066726f6d206e6f772074696d6560581b6064820152608401620003c6565b600085606001511162000c5f5760405162461bcd60e51b815260206004820152602a60248201527f5f70726963654f6645616368546f6b656e2073686f756c64206265206d6f7265604482015269207468616e207a65726f60b01b6064820152608401620003c6565b3360009081526008602052604081205460ff168062000c8857506000546001600160a01b031633145b90508062000ce45760025434101562000ce45760405162461bcd60e51b815260206004820152601b60248201527f496e73756666696369656e742066756e647320746f20737461727400000000006044820152606401620003c6565b6001805490600062000cf68362001a1c565b9091555050604080516060810182526001548152336020820152600091810182905260035460055460405192935060009260ff9092169184918c918c918c918c916001600160a01b0316908c908c9062000d509062001072565b62000d6499989796959493929190620016e9565b604051809103906000f08015801562000d81573d6000803e3d6000fd5b50905062000da88960000151828a600001518b6020015188602001518e6060015162000efb565b97516001600160a01b0390811660009081526007602090815260408083208054600181810183559185528385200180549d9095166001600160a01b03199d8e1681179095555483526006909152902080549099161790975550505050505050565b6000546001600160a01b0316331462000e365760405162461bcd60e51b8152600401620003c690620016b4565b6001600160a01b03811662000e9d5760405162461bcd60e51b815260206004820152602660248201527f4f776e61626c653a206e6577206f776e657220697320746865207a65726f206160448201526564647265737360d01b6064820152608401620003c6565b62000ea88162000eab565b50565b600080546001600160a01b038381166001600160a01b0319831681178455604051919092169283917f8be0079c531659141344cd1fd0a4f28419497f9722a3daafe3b4186f6b6457e09190a35050565b600062000f0a82600a62001922565b62000f169086620019e0565b90506000606462000f288684620019e0565b62000f349190620018b8565b9050600062000f4584600a62001922565b62000f519086620019e0565b905060008162000f6284866200189d565b62000f6e91906200189d565b6040516323b872dd60e01b81523360048201526001600160a01b038b8116602483015260448201839052919250908b16906323b872dd90606401602060405180830381600087803b15801562000fc357600080fd5b505af115801562000fd8573d6000803e3d6000fd5b505050506040513d601f19601f8201168201806040525081019062000ffe9190620013bd565b620010665760405162461bcd60e51b815260206004820152603160248201527f556e61626c6520746f207472616e736665722070726573616c6520746f6b656e6044820152701cc81d1bc81d1a194818dbdb9d1c9858dd607a1b6064820152608401620003c6565b50505050505050505050565b6145218062001a8c83390190565b80356001600160a01b03811681146200109857600080fd5b919050565b8035600281106200109857600080fd5b600082601f830112620010be578081fd5b813567ffffffffffffffff811115620010db57620010db62001a66565b620010f0601f8201601f191660200162001869565b81815284602083860101111562001105578283fd5b816020850160208301379081016020019190915292915050565b60006080828403121562001131578081fd5b6200113b62001817565b905081356200114a8162001a7c565b8082525060208201356020820152604082013560408201526060820135606082015292915050565b600060e0828403121562001184578081fd5b6200118e62001843565b90508135815260208201356020820152604082013560038110620011b157600080fd5b604082015260608281013590820152620011ce6080830162001080565b608082015260a082013560a0820152620011eb60c083016200109d565b60c082015292915050565b60006060828403121562001208578081fd5b6040516060810181811067ffffffffffffffff821117156200122e576200122e62001a66565b80604052508091508235815260208301356020820152604083013560408201525092915050565b600060c0828403121562001267578081fd5b60405160c0810181811067ffffffffffffffff821117156200128d576200128d62001a66565b6040529050808235620012a08162001a7c565b808252506020830135602082015260408301356040820152606083013560608201526080830135608082015260a083013560a08201525092915050565b600060208284031215620012ef578081fd5b620012fa8262001080565b9392505050565b6000602080838503121562001314578182fd5b823567ffffffffffffffff808211156200132c578384fd5b818501915085601f83011262001340578384fd5b81358181111562001355576200135562001a66565b8060051b91506200136884830162001869565b8181528481019084860184860187018a101562001383578788fd5b8795505b83861015620013b0576200139b8162001080565b83526001959095019491860191860162001387565b5098975050505050505050565b600060208284031215620013cf578081fd5b8151620012fa8162001a7c565b6000806000806000806103008789031215620013f6578182fd5b863567ffffffffffffffff808211156200140e578384fd5b908801906080828b03121562001422578384fd5b6200142c62001817565b620014378362001080565b81526020830135828111156200144b578586fd5b620014598c828601620010ad565b60208301525060408301358281111562001471578586fd5b6200147f8c828601620010ad565b60408301525060608301356060820152809850505050620014a4886020890162001172565b9450620014b6886101008901620011f6565b9350620014c8886101608901620011f6565b9250620014da886101c089016200111f565b9150620014ec88610240890162001255565b90509295509295509295565b6000602082840312156200150a578081fd5b5035919050565b6000806040838503121562001524578182fd5b82359150602083013560ff811681146200153c578182fd5b809150509250929050565b60008151808452815b818110156200156e5760208185018101518683018201520162001550565b81811115620015805782602083870101525b50601f01601f19169290920160200192915050565b8051825260208101516020830152604081015160038110620015bb57620015bb62001a50565b6040830152606081810151908301526080808201516001600160a01b03169083015260a0808201519083015260c081015160028110620015ff57620015ff62001a50565b8060c0840152505050565b60018060a01b038151168252600060208201516080602085015262001633608085018262001547565b9050604083015184820360408601526200164e828262001547565b915050606083015160608501528091505092915050565b6020808252825182820181905260009190848201906040850190845b81811015620016a85783516001600160a01b03168352928401929184019160010162001681565b50909695505050505050565b6020808252818101527f4f776e61626c653a2063616c6c6572206973206e6f7420746865206f776e6572604082015260600190565b60006103a060ff8c1683528a51602084015260018060a01b0360208c015116604084015260408b01516005811062001725576200172562001a50565b6060840152608083018190526200173f8184018b6200160a565b9150506200175160a083018962001595565b865161018083015260208701516101a083015260408701516101c083015285516101e0830152602086015161020083015260408601516102208301526001600160a01b03851661024083015283511515610260830152602084015161028083015260408401516102a083015260608401516102c0830152825115156102e0830152602083015161030083015260408301516103208301526060830151610340830152608083015161036083015260a08301516103808301529a9950505050505050505050565b6040516080810167ffffffffffffffff811182821017156200183d576200183d62001a66565b60405290565b60405160e0810167ffffffffffffffff811182821017156200183d576200183d62001a66565b604051601f8201601f1916810167ffffffffffffffff8111828210171562001895576200189562001a66565b604052919050565b60008219821115620018b357620018b362001a3a565b500190565b600082620018d457634e487b7160e01b81526012600452602481fd5b500490565b600181815b808511156200191a578160001904821115620018fe57620018fe62001a3a565b808516156200190c57918102915b93841c9390800290620018de565b509250929050565b6000620012fa83836000826200193b57506001620019da565b816200194a57506000620019da565b81600181146200196357600281146200196e576200198e565b6001915050620019da565b60ff84111562001982576200198262001a3a565b50506001821b620019da565b5060208310610133831016604e8410600b8410161715620019b3575081810a620019da565b620019bf8383620018d9565b8060001904821115620019d657620019d662001a3a565b0290505b92915050565b6000816000190483118215151615620019fd57620019fd62001a3a565b500290565b60008282101562001a175762001a1762001a3a565b500390565b600060001982141562001a335762001a3362001a3a565b5060010190565b634e487b7160e01b600052601160045260246000fd5b634e487b7160e01b600052602160045260246000fd5b634e487b7160e01b600052604160045260246000fd5b801515811462000ea857600080fdfe60a0604052600060305560006033553480156200001b57600080fd5b5060405162004521380380620045218339810160408190526200003e9162000c4c565b620000493362000323565b336001600160601b0319606091821b1660809081526005805460ff8d1660ff1990911617905560408051918201815288518083526000602080850182905284840182905293909401849052601955601a839055601b839055601c9290925589516006908155908a0151600780546001600160a01b03929092166001600160a01b0319831681178255938c01518c9490926001600160a81b03191617600160a01b8360048111156200010a57634e487b7160e01b600052602160045260246000fd5b0217905550508651600890815560208801516009556040880151600a80548a945060ff191660018360028111156200015257634e487b7160e01b600052602160045260246000fd5b02179055506060820151600382015560808201516004820180546001600160a01b0319166001600160a01b0390921691909117905560a0820151600582015560c082015160068201805460ff191660018381811115620001c257634e487b7160e01b600052602160045260246000fd5b0217905550508551600f55506020808601516010556040808701516011558551601255858201516013558501516014558751601580546001600160a01b0319166001600160a01b039092169190911781558882015180518a936200022c92601692910190620008b2565b50604082015180516200024a916002840191602090910190620008b2565b50606091820151600390910155600580546001600160a01b03861661010002610100600160a81b03199091161790558251602480549115801560ff199384161790915560208086015160255560408087015160265586850151602755855160288054911515919095161790935584015160295590830151602a5590820151602b556080820151602c5560a0820151602d55620002f657620002f68286602001516200037360201b60201c565b8051156200031457620003148186602001516200058160201b60201c565b50505050505050505062000f18565b600080546001600160a01b038381166001600160a01b0319831681178455604051919092169283917f8be0079c531659141344cd1fd0a4f28419497f9722a3daafe3b4186f6b6457e09190a35050565b602082015160649060009082906200038c908262000e55565b62000398919062000e34565b604080516080810182526000808252602080830188815293830187815260608401868152928052602f90915291517fc11d2605466dd88923799a61d7f94d6c8cc580bae52b24870f6853eaa13cc4d65591517fc11d2605466dd88923799a61d7f94d6c8cc580bae52b24870f6853eaa13cc4d755517fc11d2605466dd88923799a61d7f94d6c8cc580bae52b24870f6853eaa13cc4d855517fc11d2605466dd88923799a61d7f94d6c8cc580bae52b24870f6853eaa13cc4d9559050818110156200057b5760006200046b828462000e77565b9050600085606001518462000481919062000e34565b60308190559050600060015b82811162000538576000620004a482603c62000e55565b8960400151620004b5919062000e55565b620004c1908962000e19565b6040805160808101825284815260208082018481528284018a815260608f8101805191860191825260008a8152602f90955295909320935184559051600184015551600283015551600390910155519091506200051f908462000e19565b92505080806200052f9062000ece565b9150506200048d565b50600062000547828762000e77565b905080602f6000858152602001908152602001600020600301600082825462000571919062000e19565b9091555050505050505b50505050565b606082015160649060009082906200059a908262000e55565b620005a6919062000e34565b905060008460400151603c620005bd919062000e55565b620005c9908562000e19565b90506040518060a0016040528060008152602001828152602001848152602001838152602001600060018111156200061157634e487b7160e01b600052602160045260246000fd5b9052600080526032602090815281517ebcd6ff29ae71d399fb597d99792fa72d0863bd723b9ab11f79d0b8d8ac5bc8908155908201517ebcd6ff29ae71d399fb597d99792fa72d0863bd723b9ab11f79d0b8d8ac5bc95560408201517ebcd6ff29ae71d399fb597d99792fa72d0863bd723b9ab11f79d0b8d8ac5bca5560608201517ebcd6ff29ae71d399fb597d99792fa72d0863bd723b9ab11f79d0b8d8ac5bcb5560808201517ebcd6ff29ae71d399fb597d99792fa72d0863bd723b9ab11f79d0b8d8ac5bcc805460ff1916600183818111156200070157634e487b7160e01b600052602160045260246000fd5b0217905550505082821015620008ab5760006200071f838562000e77565b905060008660a001518562000735919062000e34565b60338190559050600060015b828111620008685760006200075882603c62000e55565b8a6080015162000769919062000e55565b62000775908762000e19565b90506040518060a001604052808381526020018281526020018681526020018b60a00151815260200160006001811115620007c057634e487b7160e01b600052602160045260246000fd5b815250603260008481526020019081526020016000206000820151816000015560208201518160010155604082015181600201556060820151816003015560808201518160040160006101000a81548160ff021916908360018111156200083757634e487b7160e01b600052602160045260246000fd5b0217905550505060a08a01516200084f908462000e19565b92505080806200085f9062000ece565b91505062000741565b50600062000877828862000e77565b905080603260008581526020019081526020016000206003016000828254620008a1919062000e19565b9091555050505050505b5050505050565b828054620008c09062000e91565b90600052602060002090601f016020900481019282620008e457600085556200092f565b82601f10620008ff57805160ff19168380011785556200092f565b828001600101855582156200092f579182015b828111156200092f57825182559160200191906001019062000912565b506200093d92915062000941565b5090565b5b808211156200093d576000815560010162000942565b80516001600160a01b03811681146200097057600080fd5b919050565b805180151581146200097057600080fd5b8051600281106200097057600080fd5b600082601f830112620009a7578081fd5b81516001600160401b03811115620009c357620009c362000f02565b6020620009d9601f8301601f1916820162000de6565b8281528582848701011115620009ed578384fd5b835b8381101562000a0c578581018301518282018401528201620009ef565b8381111562000a1d57848385840101525b5095945050505050565b60006080828403121562000a39578081fd5b62000a4362000d71565b905062000a508262000975565b815260208201516020820152604082015160408201526060820151606082015292915050565b600060e0828403121562000a88578081fd5b62000a9262000d9c565b9050815181526020820151602082015260408201516003811062000ab557600080fd5b60408201526060828101519082015262000ad26080830162000958565b608082015260a082015160a082015262000aef60c0830162000986565b60c082015292915050565b60006060828403121562000b0c578081fd5b62000b1662000dc1565b905081518152602082015160208201526040820151604082015292915050565b600060c0828403121562000b48578081fd5b60405160c081016001600160401b038111828210171562000b6d5762000b6d62000f02565b60405290508062000b7e8362000975565b81526020830151602082015260408301516040820152606083015160608201526080830151608082015260a083015160a08201525092915050565b60006080828403121562000bcb578081fd5b62000bd562000d71565b905062000be28262000958565b815260208201516001600160401b038082111562000bff57600080fd5b62000c0d8583860162000996565b6020840152604084015191508082111562000c2757600080fd5b5062000c368482850162000996565b6040830152506060820151606082015292915050565b6000806000806000806000806000898b036103a081121562000c6c578586fd5b8a5160ff8116811462000c7d578687fd5b99506060601f198201121562000c91578586fd5b5062000c9c62000dc1565b60208b0151815262000cb160408c0162000958565b602082015260608b01516005811062000cc8578687fd5b604082015260808b01519098506001600160401b0381111562000ce9578586fd5b62000cf78c828d0162000bb9565b97505062000d098b60a08c0162000a76565b955062000d1b8b6101808c0162000afa565b945062000d2d8b6101e08c0162000afa565b935062000d3e6102408b0162000958565b925062000d508b6102608c0162000a27565b915062000d628b6102e08c0162000b36565b90509295985092959850929598565b604051608081016001600160401b038111828210171562000d965762000d9662000f02565b60405290565b60405160e081016001600160401b038111828210171562000d965762000d9662000f02565b604051606081016001600160401b038111828210171562000d965762000d9662000f02565b604051601f8201601f191681016001600160401b038111828210171562000e115762000e1162000f02565b604052919050565b6000821982111562000e2f5762000e2f62000eec565b500190565b60008262000e5057634e487b7160e01b81526012600452602481fd5b500490565b600081600019048311821515161562000e725762000e7262000eec565b500290565b60008282101562000e8c5762000e8c62000eec565b500390565b600181811c9082168062000ea657607f821691505b6020821081141562000ec857634e487b7160e01b600052602260045260246000fd5b50919050565b600060001982141562000ee55762000ee562000eec565b5060010190565b634e487b7160e01b600052601160045260246000fd5b634e487b7160e01b600052604160045260246000fd5b60805160601c6135dc62000f4560003960008181610790015281816121890152612a2001526135dc6000f3fe6080604052600436106101f95760003560e01c80638da5cb5b1161010d578063bf9e3063116100a0578063ee97f7f31161006f578063ee97f7f31461077e578063f2fde38b146107b2578063f968f493146107d2578063fdc6acf8146107e7578063ff3a31411461080757600080fd5b8063bf9e306314610709578063db2e21bc14610728578063dc5744ad1461073d578063e7e104901461076957600080fd5b8063a663ea8c116100dc578063a663ea8c1461065c578063a7c6402c146106af578063b59bd591146106d4578063b96f2120146106e957600080fd5b80638da5cb5b146105905780639e8f4d65146105c25780639fa6f2f914610624578063a0a6e9401461064757600080fd5b80634d7459e0116101905780636f9170f61161015f5780636f9170f614610465578063715018a61461049557806378caf754146104aa578063801368f0146104f257806381be40491461055657600080fd5b80634d7459e014610334578063564e1cc414610385578063619f3d6c146103e35780636addb6631461044057600080fd5b80632605b3c7116101cc5780632605b3c7146102685780632edf0869146102b15780632fff7af5146102f0578063475fda0e1461031457600080fd5b806309cba0f7146101fe57806312949b5a14610215578063173434fa14610228578063243bae521461023d575b600080fd5b34801561020a57600080fd5b5061021361081d565b005b610213610223366004612fe8565b610c66565b34801561023457600080fd5b50610213611213565b34801561024957600080fd5b506102526118d6565b60405161025f9190613107565b60405180910390f35b34801561027457600080fd5b5061029c610283366004612e86565b602e602052600090815260409020805460019091015482565b6040805192835260208301919091520161025f565b3480156102bd57600080fd5b506006546007546102e191906001600160a01b03811690600160a01b900460ff1683565b60405161025f939291906132b2565b3480156102fc57600080fd5b5061030660335481565b60405190815260200161025f565b34801561032057600080fd5b5061021361032f366004612ebe565b6118e7565b34801561034057600080fd5b50600854600954600a54600b54600c54600d54600e5461037296959460ff90811694936001600160a01b031692911687565b60405161025f97969594939291906132e6565b34801561039157600080fd5b506103d26103a0366004612fe8565b603260205260009081526040902080546001820154600283015460038401546004909401549293919290919060ff1685565b60405161025f959493929190613343565b3480156103ef57600080fd5b50602854602954602a54602b54602c54602d546104119560ff16949392919086565b6040805196151587526020870195909552938501929092526060840152608083015260a082015260c00161025f565b34801561044c57600080fd5b50610455611962565b60405161025f94939291906130bf565b34801561047157600080fd5b50610485610480366004612e86565b611a97565b604051901515815260200161025f565b3480156104a157600080fd5b50610213611aaa565b3480156104b657600080fd5b506024546025546026546027546104d09360ff1692919084565b604080519415158552602085019390935291830152606082015260800161025f565b3480156104fe57600080fd5b50601d54601e54601f546020546021546022546023546105219695949392919087565b604080519788526020880196909652948601939093526060850191909152608084015260a083015260c082015260e00161025f565b34801561056257600080fd5b5060125460135460145461057592919083565b6040805193845260208401929092529082015260600161025f565b34801561059c57600080fd5b506000546001600160a01b03165b6040516001600160a01b03909116815260200161025f565b3480156105ce57600080fd5b506106046105dd366004612fe8565b602f6020526000908152604090208054600182015460028301546003909301549192909184565b60408051948552602085019390935291830152606082015260800161025f565b34801561063057600080fd5b50601954601a54601b54601c546106049392919084565b34801561065357600080fd5b50610213611b10565b34801561066857600080fd5b506106a2610677366004613018565b60009182526031602090815260408084206001600160a01b0393909316845291905290205460ff1690565b60405161025f9190613154565b3480156106bb57600080fd5b506005546105aa9061010090046001600160a01b031681565b3480156106e057600080fd5b50610252611f2a565b3480156106f557600080fd5b50610213610704366004612ebe565b611f36565b34801561071557600080fd5b50600f5460105460115461057592919083565b34801561073457600080fd5b50610213611fb1565b34801561074957600080fd5b506005546107579060ff1681565b60405160ff909116815260200161025f565b34801561077557600080fd5b5061021361222e565b34801561078a57600080fd5b506105aa7f000000000000000000000000000000000000000000000000000000000000000081565b3480156107be57600080fd5b506102136107cd366004612e86565b612374565b3480156107de57600080fd5b5061021361243c565b3480156107f357600080fd5b50610213610802366004612fa5565b612755565b34801561081357600080fd5b5061030660305481565b6007546001600160a01b031633146108505760405162461bcd60e51b8152600401610847906131d5565b60405180910390fd5b6002600754600160a01b900460ff16600481111561087e57634e487b7160e01b600052602160045260246000fd5b14806108b557506003600754600160a01b900460ff1660048111156108b357634e487b7160e01b600052602160045260246000fd5b145b806108eb57506004600754600160a01b900460ff1660048111156108e957634e487b7160e01b600052602160045260246000fd5b145b6109075760405162461bcd60e51b81526004016108479061319e565b6000600560019054906101000a90046001600160a01b03166001600160a01b031663c45a01556040518163ffffffff1660e01b815260040160206040518083038186803b15801561095757600080fd5b505afa15801561096b573d6000803e3d6000fd5b505050506040513d601f19601f8201168201806040525081019061098f9190612ea2565b90506000600560019054906101000a90046001600160a01b03166001600160a01b031663ad5c46486040518163ffffffff1660e01b815260040160206040518083038186803b1580156109e157600080fd5b505afa1580156109f5573d6000803e3d6000fd5b505050506040513d601f19601f82011682018060405250810190610a199190612ea2565b60155460405163e6a4390560e01b81526001600160a01b03918216600482015281831660248201529192506000919084169063e6a439059060440160206040518083038186803b158015610a6c57600080fd5b505afa158015610a80573d6000803e3d6000fd5b505050506040513d601f19601f82011682018060405250810190610aa49190612ea2565b6040516370a0823160e01b81523060048201529091506000906001600160a01b038316906370a082319060240160206040518083038186803b158015610ae957600080fd5b505afa158015610afd573d6000803e3d6000fd5b505050506040513d601f19601f82011682018060405250810190610b219190613000565b905060008111610b665760405162461bcd60e51b815260206004820152601060248201526f4e6f7468696e6720746f20636c61696d60801b6044820152606401610847565b601154601054610b769190613379565b421015610bb85760405162461bcd60e51b815260206004820152601060248201526f139bdd081d5b9b1bd8dad959081e595d60821b6044820152606401610847565b60075460405163a9059cbb60e01b81526001600160a01b0391821660048201526024810183905260009184169063a9059cbb90604401602060405180830381600087803b158015610c0857600080fd5b505af1158015610c1c573d6000803e3d6000fd5b505050506040513d601f19601f82011682018060405250810190610c409190612f85565b905080610c5f5760405162461bcd60e51b815260040161084790613225565b5050505050565b600f54421015610cc65760405162461bcd60e51b815260206004820152602560248201527f50726573616c65206861736e277420626567696e207965742e20706c65617365604482015264081dd85a5d60da1b6064820152608401610847565b6010544210610d175760405162461bcd60e51b815260206004820152601e60248201527f50726573616c65206973206f7665722e20547279206e6578742074696d6500006044820152606401610847565b6000600754600160a01b900460ff166004811115610d4557634e487b7160e01b600052602160045260246000fd5b1415610d5f576007805460ff60a01b1916600160a01b1790555b6001600754600160a01b900460ff166004811115610d8d57634e487b7160e01b600052602160045260246000fd5b14610daa5760405162461bcd60e51b815260040161084790613167565b336000908152602e60209081526040918290208251808401909352805483526001015490820152600b54610dde908361349c565b341015610e225760405162461bcd60e51b8152602060048201526012602482015271696e73756666696369656e742066756e647360701b6044820152606401610847565b601954610e685760405162461bcd60e51b81526020600482015260146024820152731d1a19481cd85b19481a5cc81cdbdb19081bdd5d60621b6044820152606401610847565b601954821115610ecc5760405162461bcd60e51b815260206004820152602960248201527f696e73756666696369656e7420746f6b656e7320746f2066756c66696c6c20746044820152683434b99037b93232b960b91b6064820152608401610847565b6001600a5460ff166002811115610ef357634e487b7160e01b600052602160045260246000fd5b1415610f6857610f0233611a97565b610f685760405162461bcd60e51b815260206004820152603160248201527f4f6e6c792077686974656c69737465642075736572732061726520616c6c6f77604482015270656420746f20706172746963697061746560781b6064820152608401610847565b6002600a5460ff166002811115610f8f57634e487b7160e01b600052602160045260246000fd5b141561107d57600d54600c546001600160a01b03166370a08231336040516001600160e01b031960e084901b1681526001600160a01b03909116600482015260240160206040518083038186803b158015610fe957600080fd5b505afa158015610ffd573d6000803e3d6000fd5b505050506040513d601f19601f820116820180604052508101906110219190613000565b101561107d5760405162461bcd60e51b815260206004820152602560248201527f596f7520646f6e277420686f6c6420656e6f75676820637269746572696120746044820152646f6b656e7360d81b6064820152608401610847565b602081015161111657601254821015611100576040805162461bcd60e51b81526020600482015260248101919091527f5265717565737420666f7220746f6b656e73206973206c6f772c20506c65617360448201527f652072657175657374206d6f7265207468616e206d696e546f6b656e735265716064820152608401610847565b601b805490600061111083613524565b91905055505b60135460208201516111289084613379565b11156111a65760405162461bcd60e51b815260206004820152604160248201527f5265717565737420666f7220746f6b656e7320697320686967682c20506c656160448201527f73652072657175657374206c657373207468616e206d6178546f6b656e7352656064820152607160f81b608482015260a401610847565b601a546111b4903490613379565b601a556019546111c59083906134bb565b60195580516000906111d8903490613379565b905060008383602001516111ec9190613379565b336000818152602e60205260409020848155600101829055909150610c5f90600390612897565b6002600754600160a01b900460ff16600481111561124157634e487b7160e01b600052602160045260246000fd5b148061127857506003600754600160a01b900460ff16600481111561127657634e487b7160e01b600052602160045260246000fd5b145b806112ae57506004600754600160a01b900460ff1660048111156112ac57634e487b7160e01b600052602160045260246000fd5b145b6112ca5760405162461bcd60e51b81526004016108479061319e565b336000908152602e602090815260409182902082518084019093528054808452600190910154918301919091526113365760405162461bcd60e51b815260206004820152601060248201526f4e6f7468696e6720746f20636c61696d60801b6044820152606401610847565b601c805490600061134683613524565b90915550506015546040516370a0823160e01b81523060048201526000916001600160a01b0316906370a082319060240160206040518083038186803b15801561138f57600080fd5b505afa1580156113a3573d6000803e3d6000fd5b505050506040513d601f19601f820116820180604052508101906113c79190613000565b90506002600754600160a01b900460ff1660048111156113f757634e487b7160e01b600052602160045260246000fd5b14156117f75760245460ff166115d357336000908152602e602090815260408220828155600101919091558201516114665760405162461bcd60e51b81526020600482015260126024820152714e6f20746f6b656e7320746f20636c61696d60701b6044820152606401610847565b81602001518110156114ba5760405162461bcd60e51b815260206004820152601f60248201527f4e6f7420656e6f75676820746f6b656e732061726520617661696c61626c65006044820152606401610847565b6015546000906001600160a01b031663a9059cbb336018546114dd90600a6133f4565b86602001516114ec919061349c565b6040516001600160e01b031960e085901b1681526001600160a01b0390921660048301526024820152604401602060405180830381600087803b15801561153257600080fd5b505af1158015611546573d6000803e3d6000fd5b505050506040513d601f19601f8201168201806040525081019061156a9190612f85565b9050806115ce5760405162461bcd60e51b815260206004820152602c60248201527f556e61626c6520746f207472616e7366657220746f6b656e7320746f2074686560448201526b081c185c9d1a58da5c185b9d60a21b6064820152608401610847565b505050565b6018546000906115e490600a6133f4565b83602001516115f3919061349c565b90506000805b60305481116116fe576000818152602f6020526040902060010154421080159061166a57506000818152602f6020908152604080832060019081015484526031835281842033855290925282205460ff169081111561166857634e487b7160e01b600052602160045260246000fd5b145b156116ec576000818152602f6020526040902060038101546002909101546127109190611697908661349c565b6116a1919061349c565b6116ab9190613391565b6116b59083613379565b6000828152602f60209081526040808320600190810154845260318352818420338552909252909120805460ff1916909117905591505b806116f681613524565b9150506115f9565b50600081116117435760405162461bcd60e51b81526020600482015260116024820152704e6f7468696e6720746f20756e6c6f636b60781b6044820152606401610847565b6015546001600160a01b031663a9059cbb336040516001600160e01b031960e084901b1681526001600160a01b03909116600482015260248101849052604401602060405180830381600087803b15801561179d57600080fd5b505af11580156117b1573d6000803e3d6000fd5b505050506040513d601f19601f820116820180604052508101906117d59190612f85565b6117f15760405162461bcd60e51b815260040161084790613225565b50505050565b336000908152602e602052604081208181556001015581516118515760405162461bcd60e51b8152602060048201526013602482015272139bc8185b5bdd5b9d081d1bc81c99599d5b99606a1b6044820152606401610847565b815160405160009133916108fc821502919084818181858888f193505050509050806115ce5760405162461bcd60e51b815260206004820152602a60248201527f556e61626c6520746f20726566756e6420616d6f756e7420746f207468652070604482015269185c9d1a58da5c185b9d60b21b6064820152608401610847565b5050565b60606118e260016128b3565b905090565b6007546001600160a01b031633146119115760405162461bcd60e51b8152600401610847906131d5565b60005b81518110156118d25761194f600183838151811061194257634e487b7160e01b600052603260045260246000fd5b6020026020010151612897565b508061195a81613524565b915050611914565b60158054601680546001600160a01b039092169291611980906134e9565b80601f01602080910402602001604051908101604052809291908181526020018280546119ac906134e9565b80156119f95780601f106119ce576101008083540402835291602001916119f9565b820191906000526020600020905b8154815290600101906020018083116119dc57829003601f168201915b505050505090806002018054611a0e906134e9565b80601f0160208091040260200160405190810160405280929190818152602001828054611a3a906134e9565b8015611a875780601f10611a5c57610100808354040283529160200191611a87565b820191906000526020600020905b815481529060010190602001808311611a6a57829003601f168201915b5050505050908060030154905084565b6000611aa46001836128c0565b92915050565b6000546001600160a01b03163314611b045760405162461bcd60e51b815260206004820181905260248201527f4f776e61626c653a2063616c6c6572206973206e6f7420746865206f776e65726044820152606401610847565b611b0e60006128e2565b565b6007546001600160a01b03163314611b3a5760405162461bcd60e51b8152600401610847906131d5565b6001600754600160a01b900460ff166004811115611b6857634e487b7160e01b600052602160045260246000fd5b14611b855760405162461bcd60e51b815260040161084790613167565b601054421180611b955750601954155b611be15760405162461bcd60e51b815260206004820152601760248201527f50726573616c65206973206e6f74206f766572207965740000000000000000006044820152606401610847565b601954600854600091611bf3916134bb565b6014549091508110611e8c57600954600090606490611c12908461349c565b611c1c9190613391565b90506000611c28612932565b601854909150600090611c3c90600a6133f4565b611c46908461349c565b60155460055460405163095ea7b360e01b81526001600160a01b036101009092048216600482015260248101849052929350169063095ea7b390604401602060405180830381600087803b158015611c9d57600080fd5b505af1158015611cb1573d6000803e3d6000fd5b505050506040513d601f19601f82011682018060405250810190611cd59190612f85565b611d475760405162461bcd60e51b815260206004820152603860248201527f756e61626c6520746f20617070726f766520746f6b656e207472616e6665722060448201527f746f2070616e63616b6553776170526f757465724164647200000000000000006064820152608401610847565b6005546015546001600160a01b0361010090920482169163f305d719918591168460008030611d7742603c613379565b60405160e089901b6001600160e01b03191681526001600160a01b039687166004820152602481019590955260448501939093526064840191909152909216608482015260a481019190915260c4016060604051808303818588803b158015611ddf57600080fd5b505af1158015611df3573d6000803e3d6000fd5b50505050506040513d601f19601f82011682018060405250810190611e189190613047565b505050601d849055601f839055600954601954600091606491611e3b919061349c565b611e459190613391565b601854909150611e5690600a6133f4565b601954611e64908390613379565b611e6e919061349c565b6020556007805460ff60a01b1916600160a11b179055610c5f612aba565b60078054600360a01b60ff60a01b199091161790556015546040516370a0823160e01b81523060048201526001600160a01b03909116906370a082319060240160206040518083038186803b158015611ee457600080fd5b505afa158015611ef8573d6000803e3d6000fd5b505050506040513d601f19601f82011682018060405250810190611f1c9190613000565b602055611f27612aba565b50565b60606118e260036128b3565b6007546001600160a01b03163314611f605760405162461bcd60e51b8152600401610847906131d5565b60005b81518110156118d257611f9e6001838381518110611f9157634e487b7160e01b600052603260045260246000fd5b6020026020010151612c99565b5080611fa981613524565b915050611f63565b6001600754600160a01b900460ff166004811115611fdf57634e487b7160e01b600052602160045260246000fd5b14611ffc5760405162461bcd60e51b815260040161084790613167565b336000908152602e6020908152604091829020825180840190935280548084526001909101549183019190915261206b5760405162461bcd60e51b81526020600482015260136024820152724e6f7468696e6720746f20776974686472617760681b6044820152606401610847565b805160009060649061207e90606261349c565b6120889190613391565b336000908152602e60205260408120818155600101558251601a549192506120af916134bb565b601a5560208201516019546120c49190613379565b601955601b80549060006120d7836134d2565b919050555060006120e53390565b6001600160a01b03168260405160006040518083038185875af1925050503d806000811461212f576040519150601f19603f3d011682016040523d82523d6000602084013e612134565b606091505b50509050806121855760405162461bcd60e51b815260206004820152601d60248201527f63616e6e6f7420726566756e6420746f20636f6e7472696275746f72730000006044820152606401610847565b60007f00000000000000000000000000000000000000000000000000000000000000006001600160a01b03168385600001516121c191906134bb565b604051600081818185875af1925050503d80600081146121fd576040519150601f19603f3d011682016040523d82523d6000602084013e612202565b606091505b50509050806122235760405162461bcd60e51b81526004016108479061327b565b610c5f600333612c99565b6007546001600160a01b031633146122585760405162461bcd60e51b8152600401610847906131d5565b6001600754600160a01b900460ff16600481111561228657634e487b7160e01b600052602160045260246000fd5b14806122bd57506000600754600160a01b900460ff1660048111156122bb57634e487b7160e01b600052602160045260246000fd5b145b6122d95760405162461bcd60e51b815260040161084790613167565b60078054600160a21b60ff60a01b199091161790556015546040516370a0823160e01b81523060048201526001600160a01b03909116906370a082319060240160206040518083038186803b15801561233157600080fd5b505afa158015612345573d6000803e3d6000fd5b505050506040513d601f19601f820116820180604052508101906123699190613000565b602055611b0e612aba565b6000546001600160a01b031633146123ce5760405162461bcd60e51b815260206004820181905260248201527f4f776e61626c653a2063616c6c6572206973206e6f7420746865206f776e65726044820152606401610847565b6001600160a01b0381166124335760405162461bcd60e51b815260206004820152602660248201527f4f776e61626c653a206e6577206f776e657220697320746865207a65726f206160448201526564647265737360d01b6064820152608401610847565b611f27816128e2565b6007546001600160a01b031633146124665760405162461bcd60e51b8152600401610847906131d5565b6002600754600160a01b900460ff16600481111561249457634e487b7160e01b600052602160045260246000fd5b14806124cb57506003600754600160a01b900460ff1660048111156124c957634e487b7160e01b600052602160045260246000fd5b145b8061250157506004600754600160a01b900460ff1660048111156124ff57634e487b7160e01b600052602160045260246000fd5b145b61251d5760405162461bcd60e51b81526004016108479061319e565b60285460ff166125675760405162461bcd60e51b8152602060048201526015602482015274139bc81d1bdad95b9cc81dd95c99481b1bd8dad959605a1b6044820152606401610847565b60185460009061257890600a6133f4565b602954612585919061349c565b90506000805b60335481116126625760008181526032602052604090206001015442108015906125e6575060008181526032602052604081206004015460ff1660018111156125e457634e487b7160e01b600052602160045260246000fd5b145b1561265057600081815260326020526040902060038101546002909101546127109190612613908661349c565b61261d919061349c565b6126279190613391565b6126319083613379565b6000828152603260205260409020600401805460ff1916600117905591505b8061265a81613524565b91505061258b565b50600081116126a75760405162461bcd60e51b81526020600482015260116024820152704e6f7468696e6720746f20756e6c6f636b60781b6044820152606401610847565b6015546001600160a01b031663a9059cbb336040516001600160e01b031960e084901b1681526001600160a01b03909116600482015260248101849052604401602060405180830381600087803b15801561270157600080fd5b505af1158015612715573d6000803e3d6000fd5b505050506040513d601f19601f820116820180604052508101906127399190612f85565b6118d25760405162461bcd60e51b815260040161084790613225565b6007546001600160a01b0316331461277f5760405162461bcd60e51b8152600401610847906131d5565b60028360028111156127a157634e487b7160e01b600052602160045260246000fd5b1415612860576001600160a01b0382166128095760405162461bcd60e51b8152602060048201526024808201527f437269746572696120746f6b656e20616464726573732063616e2774206265206044820152631b9d5b1b60e21b6064820152608401610847565b600a805484919060ff1916600183600281111561283657634e487b7160e01b600052602160045260246000fd5b0217905550600c80546001600160a01b0319166001600160a01b038416179055600d819055505050565b600a805484919060ff1916600183600281111561288d57634e487b7160e01b600052602160045260246000fd5b0217905550505050565b60006128ac836001600160a01b038416612cae565b9392505050565b606060006128ac83612cfd565b6001600160a01b038116600090815260018301602052604081205415156128ac565b600080546001600160a01b038381166001600160a01b0319831681178455604051919092169283917f8be0079c531659141344cd1fd0a4f28419497f9722a3daafe3b4186f6b6457e09190a35050565b601a5460095460009190829060649061294b908461349c565b6129559190613391565b60055490915060009060649061296e9060ff168561349c565b6129789190613391565b905060006129868284613379565b61299090856134bb565b601e8590556021849055602283905560238190556007546040519192506000916001600160a01b039091169083908381818185875af1925050503d80600081146129f6576040519150601f19603f3d011682016040523d82523d6000602084013e6129fb565b606091505b5050905080612a1c5760405162461bcd60e51b81526004016108479061327b565b60007f00000000000000000000000000000000000000000000000000000000000000006001600160a01b03168460405160006040518083038185875af1925050503d8060008114612a89576040519150601f19603f3d011682016040523d82523d6000602084013e612a8e565b606091505b5050905080612aaf5760405162461bcd60e51b81526004016108479061327b565b509295945050505050565b6020548015611f275760006020556003600754600160a01b900460ff166004811115612af657634e487b7160e01b600052602160045260246000fd5b1480612b2d57506004600754600160a01b900460ff166004811115612b2b57634e487b7160e01b600052602160045260246000fd5b145b15612bdd5760155460075460405163a9059cbb60e01b81526001600160a01b03918216600482015260248101849052600092919091169063a9059cbb906044015b602060405180830381600087803b158015612b8857600080fd5b505af1158015612b9c573d6000803e3d6000fd5b505050506040513d601f19601f82011682018060405250810190612bc09190612f85565b9050806118d257634e487b7160e01b600052600160045260246000fd5b6001600e5460ff166001811115612c0457634e487b7160e01b600052602160045260246000fd5b1415612c4a5760155460075460405163a9059cbb60e01b81526001600160a01b03918216600482015260248101849052600092919091169063a9059cbb90604401612b6e565b60155460405163a9059cbb60e01b815261dead6004820152602481018390526000916001600160a01b03169063a9059cbb90604401602060405180830381600087803b158015612b8857600080fd5b60006128ac836001600160a01b038416612d59565b6000818152600183016020526040812054612cf557508154600181810184556000848152602080822090930184905584548482528286019093526040902091909155611aa4565b506000611aa4565b606081600001805480602002602001604051908101604052809291908181526020018280548015612d4d57602002820191906000526020600020905b815481526020019060010190808311612d39575b50505050509050919050565b60008181526001830160205260408120548015612e6c576000612d7d6001836134bb565b8554909150600090612d91906001906134bb565b9050818114612e12576000866000018281548110612dbf57634e487b7160e01b600052603260045260246000fd5b9060005260206000200154905080876000018481548110612df057634e487b7160e01b600052603260045260246000fd5b6000918252602080832090910192909255918252600188019052604090208390555b8554869080612e3157634e487b7160e01b600052603160045260246000fd5b600190038181906000526020600020016000905590558560010160008681526020019081526020016000206000905560019350505050611aa4565b6000915050611aa4565b8035612e8181613591565b919050565b600060208284031215612e97578081fd5b81356128ac81613591565b600060208284031215612eb3578081fd5b81516128ac81613591565b60006020808385031215612ed0578182fd5b823567ffffffffffffffff80821115612ee7578384fd5b818501915085601f830112612efa578384fd5b813581811115612f0c57612f0c61356b565b8060051b604051601f19603f83011681018181108582111715612f3157612f3161356b565b604052828152858101935084860182860187018a1015612f4f578788fd5b8795505b83861015612f7857612f6481612e76565b855260019590950194938601938601612f53565b5098975050505050505050565b600060208284031215612f96578081fd5b815180151581146128ac578182fd5b600080600060608486031215612fb9578182fd5b833560038110612fc7578283fd5b92506020840135612fd781613591565b929592945050506040919091013590565b600060208284031215612ff9578081fd5b5035919050565b600060208284031215613011578081fd5b5051919050565b6000806040838503121561302a578182fd5b82359150602083013561303c81613591565b809150509250929050565b60008060006060848603121561305b578283fd5b8351925060208401519150604084015190509250925092565b60008151808452815b818110156130995760208185018101518683018201520161307d565b818111156130aa5782602083870101525b50601f01601f19169290920160200192915050565b6001600160a01b03851681526080602082018190526000906130e390830186613074565b82810360408401526130f58186613074565b91505082606083015295945050505050565b6020808252825182820181905260009190848201906040850190845b818110156131485783516001600160a01b031683529284019291840191600101613123565b50909695505050505050565b6020810161316183613581565b91905290565b6020808252601a908201527f50726573616c65206973206e6f7420696e2070726f6772657373000000000000604082015260600190565b6020808252601c908201527f50726573616c65206973206e6f7420636f6e636c756465642079657400000000604082015260600190565b60208082526030908201527f4f776e61626c653a2063616c6c6572206973206e6f7420746865206f776e657260408201526f206f6620746869732070726573616c6560801b606082015260800190565b60208082526036908201527f556e61626c6520746f207472616e736665722070726573616c6520746f6b656e60408201527539903a37903a343290383932b9b0b6329037bbb732b960511b606082015260800190565b60208082526018908201527f63616e6e6f742073656e64206465765465616d53686172650000000000000000604082015260600190565b8381526001600160a01b038316602082015260608101600583106132d8576132d8613555565b826040830152949350505050565b8781526020810187905260e081016003871061330457613304613555565b60408201879052606082018690526001600160a01b038516608083015260a0820184905261333183613581565b8260c083015298975050505050505050565b600060a08201905086825285602083015284604083015283606083015261336983613581565b8260808301529695505050505050565b6000821982111561338c5761338c61353f565b500190565b6000826133ac57634e487b7160e01b81526012600452602481fd5b500490565b600181815b808511156133ec5781600019048211156133d2576133d261353f565b808516156133df57918102915b93841c93908002906133b6565b509250929050565b60006128ac838360008261340a57506001611aa4565b8161341757506000611aa4565b816001811461342d576002811461343757613453565b6001915050611aa4565b60ff8411156134485761344861353f565b50506001821b611aa4565b5060208310610133831016604e8410600b8410161715613476575081810a611aa4565b61348083836133b1565b80600019048211156134945761349461353f565b029392505050565b60008160001904831182151516156134b6576134b661353f565b500290565b6000828210156134cd576134cd61353f565b500390565b6000816134e1576134e161353f565b506000190190565b600181811c908216806134fd57607f821691505b6020821081141561351e57634e487b7160e01b600052602260045260246000fd5b50919050565b60006000198214156135385761353861353f565b5060010190565b634e487b7160e01b600052601160045260246000fd5b634e487b7160e01b600052602160045260246000fd5b634e487b7160e01b600052604160045260246000fd5b60028110611f2757611f27613555565b6001600160a01b0381168114611f2757600080fdfea26469706673582212206fb632a0f56f99de5566035ce55259fb3b6de6da056e38aec355332e6f8def2964736f6c63430008040033a2646970667358221220a16fab6d19aaa1a77ba1cf318a67d9f3b62d22b55711e324932976dc38e4d1c764736f6c63430008040033",
  "linkReferences": {},
  "deployedLinkReferences": {}
}