{
  "_format": "hh-sol-artifact-1",
  "contractName": "Launchpadv2",
  "sourceName": "contracts/Launchpad/Launchpadv2.sol",
  "abi": [
    {
      "inputs": [
        {
          "internalType": "address",
          "name": "_IUniswapV2Router02",
          "type": "address"
        },
        {
          "internalType": "address",
          "name": "_teamAddr",
          "type": "address"
        },
        {
          "internalType": "address",
          "name": "_devAddr",
          "type": "address"
        }
      ],
      "stateMutability": "nonpayable",
      "type": "constructor"
    },
    {
      "anonymous": false,
      "inputs": [
        {
          "indexed": true,
          "internalType": "address",
          "name": "previousOwner",
          "type": "address"
        },
        {
          "indexed": true,
          "internalType": "address",
          "name": "newOwner",
          "type": "address"
        }
      ],
      "name": "OwnershipTransferred",
      "type": "event"
    },
    {
      "inputs": [
        {
          "components": [
            {
              "internalType": "uint256",
              "name": "id",
              "type": "uint256"
            },
            {
              "internalType": "address",
              "name": "presaleOwner",
              "type": "address"
            },
            {
              "internalType": "enum LaunchPadLib.PreSaleStatus",
              "name": "preSaleStatus",
              "type": "uint8"
            },
            {
              "internalType": "address",
              "name": "preSaleToken",
              "type": "address"
            },
            {
              "internalType": "uint256",
              "name": "decimals",
              "type": "uint256"
            }
          ],
          "internalType": "struct LaunchPadLib.PresaleInfo",
          "name": "_presaleInfo",
          "type": "tuple"
        },
        {
          "components": [
            {
              "internalType": "uint256",
              "name": "tokensForSale",
              "type": "uint256"
            },
            {
              "internalType": "uint256",
              "name": "tokensPCForLP",
              "type": "uint256"
            },
            {
              "internalType": "enum LaunchPadLib.PresaleType",
              "name": "typeOfPresale",
              "type": "uint8"
            },
            {
              "internalType": "uint256",
              "name": "priceOfEachToken",
              "type": "uint256"
            },
            {
              "internalType": "address",
              "name": "criteriaToken",
              "type": "address"
            },
            {
              "internalType": "uint256",
              "name": "minTokensForParticipation",
              "type": "uint256"
            },
            {
              "internalType": "enum LaunchPadLib.RefundType",
              "name": "refundType",
              "type": "uint8"
            }
          ],
          "internalType": "struct LaunchPadLib.ParticipationCriteria",
          "name": "_participationCriteria",
          "type": "tuple"
        },
        {
          "components": [
            {
              "internalType": "uint256",
              "name": "startedAt",
              "type": "uint256"
            },
            {
              "internalType": "uint256",
              "name": "expiredAt",
              "type": "uint256"
            },
            {
              "internalType": "uint256",
              "name": "lpLockupDuration",
              "type": "uint256"
            }
          ],
          "internalType": "struct LaunchPadLib.PresaleTimes",
          "name": "_presaleTimes",
          "type": "tuple"
        },
        {
          "components": [
            {
              "internalType": "uint256",
              "name": "minTokensReq",
              "type": "uint256"
            },
            {
              "internalType": "uint256",
              "name": "maxTokensReq",
              "type": "uint256"
            },
            {
              "internalType": "uint256",
              "name": "softCap",
              "type": "uint256"
            }
          ],
          "internalType": "struct LaunchPadLib.ReqestedTokens",
          "name": "_reqestedTokens",
          "type": "tuple"
        },
        {
          "components": [
            {
              "internalType": "bool",
              "name": "isEnabled",
              "type": "bool"
            },
            {
              "internalType": "uint256",
              "name": "firstReleasePC",
              "type": "uint256"
            },
            {
              "internalType": "uint256",
              "name": "vestingPeriodOfEachCycle",
              "type": "uint256"
            },
            {
              "internalType": "uint256",
              "name": "tokensReleaseEachCyclePC",
              "type": "uint256"
            }
          ],
          "internalType": "struct LaunchPadLib.ContributorsVesting",
          "name": "_contributorsVesting",
          "type": "tuple"
        },
        {
          "components": [
            {
              "internalType": "bool",
              "name": "isEnabled",
              "type": "bool"
            },
            {
              "internalType": "uint256",
              "name": "vestingTokens",
              "type": "uint256"
            },
            {
              "internalType": "uint256",
              "name": "firstReleaseTime",
              "type": "uint256"
            },
            {
              "internalType": "uint256",
              "name": "firstReleasePC",
              "type": "uint256"
            },
            {
              "internalType": "uint256",
              "name": "vestingPeriodOfEachCycle",
              "type": "uint256"
            },
            {
              "internalType": "uint256",
              "name": "tokensReleaseEachCyclePC",
              "type": "uint256"
            }
          ],
          "internalType": "struct LaunchPadLib.TeamVesting",
          "name": "_teamVesting",
          "type": "tuple"
        },
        {
          "components": [
            {
              "internalType": "string",
              "name": "logoURL",
              "type": "string"
            },
            {
              "internalType": "string",
              "name": "websiteURL",
              "type": "string"
            },
            {
              "internalType": "string",
              "name": "twitterURL",
              "type": "string"
            },
            {
              "internalType": "string",
              "name": "telegramURL",
              "type": "string"
            },
            {
              "internalType": "string",
              "name": "discordURL",
              "type": "string"
            },
            {
              "internalType": "string",
              "name": "description",
              "type": "string"
            }
          ],
          "internalType": "struct LaunchPadLib.GeneralInfo",
          "name": "_generalInfo",
          "type": "tuple"
        }
      ],
      "name": "createPresale",
      "outputs": [],
      "stateMutability": "payable",
      "type": "function"
    },
    {
      "inputs": [],
      "name": "devAddr",
      "outputs": [
        {
          "internalType": "address",
          "name": "",
          "type": "address"
        }
      ],
      "stateMutability": "view",
      "type": "function"
    },
    {
      "inputs": [
        {
          "internalType": "address",
          "name": "_address",
          "type": "address"
        }
      ],
      "name": "getPresaleRecordsByToken",
      "outputs": [
        {
          "internalType": "address[]",
          "name": "",
          "type": "address[]"
        }
      ],
      "stateMutability": "view",
      "type": "function"
    },
    {
      "inputs": [],
      "name": "owner",
      "outputs": [
        {
          "internalType": "address",
          "name": "",
          "type": "address"
        }
      ],
      "stateMutability": "view",
      "type": "function"
    },
    {
      "inputs": [],
      "name": "presaleCount",
      "outputs": [
        {
          "internalType": "uint256",
          "name": "",
          "type": "uint256"
        }
      ],
      "stateMutability": "view",
      "type": "function"
    },
    {
      "inputs": [
        {
          "internalType": "uint256",
          "name": "",
          "type": "uint256"
        }
      ],
      "name": "presaleRecordByID",
      "outputs": [
        {
          "internalType": "address",
          "name": "",
          "type": "address"
        }
      ],
      "stateMutability": "view",
      "type": "function"
    },
    {
      "inputs": [],
      "name": "renounceOwnership",
      "outputs": [],
      "stateMutability": "nonpayable",
      "type": "function"
    },
    {
      "inputs": [],
      "name": "salesFeeInPercent",
      "outputs": [
        {
          "internalType": "uint8",
          "name": "",
          "type": "uint8"
        }
      ],
      "stateMutability": "view",
      "type": "function"
    },
    {
      "inputs": [],
      "name": "teamAddr",
      "outputs": [
        {
          "internalType": "address",
          "name": "",
          "type": "address"
        }
      ],
      "stateMutability": "view",
      "type": "function"
    },
    {
      "inputs": [
        {
          "internalType": "address",
          "name": "newOwner",
          "type": "address"
        }
      ],
      "name": "transferOwnership",
      "outputs": [],
      "stateMutability": "nonpayable",
      "type": "function"
    },
    {
      "inputs": [],
      "name": "uniswapV2Router02",
      "outputs": [
        {
          "internalType": "address",
          "name": "",
          "type": "address"
        }
      ],
      "stateMutability": "view",
      "type": "function"
    },
    {
      "inputs": [
        {
          "internalType": "uint256",
          "name": "_upfrontFee",
          "type": "uint256"
        },
        {
          "internalType": "uint8",
          "name": "_salesFeeInPercent",
          "type": "uint8"
        }
      ],
      "name": "updateFees",
      "outputs": [],
      "stateMutability": "nonpayable",
      "type": "function"
    },
    {
      "inputs": [],
      "name": "upfrontfee",
      "outputs": [
        {
          "internalType": "uint256",
          "name": "",
          "type": "uint256"
        }
      ],
      "stateMutability": "view",
      "type": "function"
    },
    {
      "inputs": [],
      "name": "withdrawBNBs",
      "outputs": [],
      "stateMutability": "nonpayable",
      "type": "function"
    },
    {
      "stateMutability": "payable",
      "type": "receive"
    }
  ],
  "bytecode": "0x6080604052600060015565b5e620f4800060029081556003805460ff191690911790553480156200002f57600080fd5b506040516200610638038062006106833981016040819052620000529162000116565b6200005d33620000a9565b600380546001600160a01b0394851661010002610100600160a81b0319909116179055600480549284166001600160a01b03199384161790556005805491909316911617905562000160565b600080546001600160a01b038381166001600160a01b0319831681178455604051919092169283917f8be0079c531659141344cd1fd0a4f28419497f9722a3daafe3b4186f6b6457e09190a35050565b80516001600160a01b03811681146200011157600080fd5b919050565b6000806000606084860312156200012c57600080fd5b6200013784620000f9565b92506200014760208501620000f9565b91506200015760408501620000f9565b90509250925092565b615f9680620001706000396000f3fe608060405260043610620000d15760003560e01c8063cb9728e71162000078578063cb9728e714620001fc578063cde27a351462000213578063da09c72c146200023a578063da3606be146200025c578063dc5744ad1462000281578063eec5dab714620002b0578063f2fde38b14620002c857600080fd5b806332661af714620000de5780634a5ff74914620000f8578063715018a6146200013757806376130324146200014f5780638da5cb5b1462000189578063a7c6402c14620001a1578063acc3ba8814620001c857600080fd5b36620000d957005b600080fd5b348015620000eb57600080fd5b50620000f6620002ed565b005b3480156200010557600080fd5b506004546200011a906001600160a01b031681565b6040516001600160a01b0390911681526020015b60405180910390f35b3480156200014457600080fd5b50620000f6620004e4565b3480156200015c57600080fd5b506200011a6200016e3660046200141d565b6006602052600090815260409020546001600160a01b031681565b3480156200019657600080fd5b506200011a62000526565b348015620001ae57600080fd5b506003546200011a9061010090046001600160a01b031681565b348015620001d557600080fd5b50620001ed620001e7366004620012c1565b62000535565b6040516200012e9190620015df565b620000f66200020d36600462001306565b620005ad565b3480156200022057600080fd5b506200022b60015481565b6040519081526020016200012e565b3480156200024757600080fd5b506005546200011a906001600160a01b031681565b3480156200026957600080fd5b50620000f66200027b36600462001437565b62000db1565b3480156200028e57600080fd5b506003546200029d9060ff1681565b60405160ff90911681526020016200012e565b348015620002bd57600080fd5b506200022b60025481565b348015620002d557600080fd5b50620000f6620002e7366004620012c1565b62000e00565b33620002f862000526565b6001600160a01b0316146200032a5760405162461bcd60e51b815260040162000321906200162e565b60405180910390fd5b4780620003705760405162461bcd60e51b81526020600482015260136024820152726e6f7468696e6720746f20776974686472617760681b604482015260640162000321565b600060646200038183604662001942565b6200038d919062001818565b6004546040519192506000916001600160a01b039091169083908381818185875af1925050503d8060008114620003e1576040519150601f19603f3d011682016040523d82523d6000602084013e620003e6565b606091505b5050905080620004325760405162461bcd60e51b815260206004820152601660248201527563616e6e6f742073656e64207465616d20536861726560501b604482015260640162000321565b6005546000906001600160a01b03166200044d848662001964565b604051600081818185875af1925050503d80600081146200048b576040519150601f19603f3d011682016040523d82523d6000602084013e62000490565b606091505b5050905080620004de5760405162461bcd60e51b815260206004820152601860248201527763616e6e6f742073656e64206465765465616d536861726560401b604482015260640162000321565b50505050565b33620004ef62000526565b6001600160a01b031614620005185760405162461bcd60e51b815260040162000321906200162e565b62000524600062000ea9565b565b6000546001600160a01b031690565b6001600160a01b038116600090815260076020908152604091829020805483518184028101840190945280845260609392830182828015620005a157602002820191906000526020600020905b81546001600160a01b0316815260019091019060200180831162000582575b50505050509050919050565b60608701516001600160a01b0316620006175760405162461bcd60e51b815260206004820152602560248201527f50726573616c652070726f6a65637420616464726573732063616e2774206265604482015264081b9d5b1b60da1b606482015260840162000321565b600286604001516002811115620006325762000632620019b2565b1415620006a15760808601516001600160a01b0316620006a15760405162461bcd60e51b8152602060048201526024808201527f437269746572696120746f6b656e20616464726573732063616e2774206265206044820152631b9d5b1b60e21b606482015260840162000321565b8151156200070f5760008260200151116200070f5760405162461bcd60e51b815260206004820152602760248201527f56657374696e6720746f6b656e732073686f756c64206265206d6f7265207468604482015266616e207a65726f60c81b606482015260840162000321565b60328660200151101580156200072a5750605f866020015111155b620007895760405162461bcd60e51b815260206004820152602860248201527f6c69717569646974792073686f756c64206265206174206c6561737420353025604482015267206f72206d6f726560c01b606482015260840162000321565b8551620007e55760405162461bcd60e51b815260206004820152602360248201527f746f6b656e7320666f722073616c65206d757374206265206d6f72652074686160448201526206e20360ec1b606482015260840162000321565b8351620008445760405162461bcd60e51b815260206004820152602660248201527f5f6d696e546f6b656e735265712073686f756c64206265206d6f7265207468616044820152656e207a65726f60d01b606482015260840162000321565b83516020850151116200089a5760405162461bcd60e51b815260206004820152601d60248201527f5f6d6178546f6b656e73526571203e205f6d696e546f6b656e73526571000000604482015260640162000321565b8551620008aa9060029062001818565b846040015110156200090e5760405162461bcd60e51b815260206004820152602660248201527f736f66746361702073686f756c64206265206174206c6561737420353025206f60448201526572206d6f726560d01b606482015260840162000321565b845142106200096f5760405162461bcd60e51b815260206004820152602660248201527f7374617274656441742073686f756c64206265206d6f7265207468616e2066726044820152656f6d206e6f7760d01b606482015260840162000321565b8451602086015111620009dc5760405162461bcd60e51b815260206004820152602e60248201527f6578706972656441742073686f756c64206265206d6f7265207468616e206f6e60448201526d65206461792066726f6d206e6f7760901b606482015260840162000321565b600085604001511162000a505760405162461bcd60e51b815260206004820152603560248201527f4c6f636b757020706572696f642073686f756c64206265202037206f72206d6f604482015274726520646179732066726f6d206e6f772074696d6560581b606482015260840162000321565b600086606001511162000ab95760405162461bcd60e51b815260206004820152602a60248201527f5f70726963654f6645616368546f6b656e2073686f756c64206265206d6f7265604482015269207468616e207a65726f60b01b606482015260840162000321565b62000ac362000526565b6001600160a01b0316336001600160a01b03161462000b305760025434101562000b305760405162461bcd60e51b815260206004820152601b60248201527f496e73756666696369656e742066756e647320746f2073746172740000000000604482015260640162000321565b6001805490600062000b42836200197e565b9091555050600154875233602088015260006040808901829052600354905160ff8216918a918a918a918a9161010090046001600160a01b0316908a908a908a9062000b8e9062000ef9565b62000ba29998979695949392919062001663565b604051809103906000f08015801562000bbf573d6000803e3d6000fd5b50905060008860800151600a62000bd7919062001884565b885162000be5919062001942565b90506000606489602001518362000bfd919062001942565b62000c09919062001818565b905060008a60800151600a62000c20919062001884565b866020015162000c31919062001942565b905060008162000c428486620017fd565b62000c4e9190620017fd565b60608d01516040516323b872dd60e01b81523360048201526001600160a01b038881166024830152604482018490529293509116906323b872dd90606401602060405180830381600087803b15801562000ca757600080fd5b505af115801562000cbc573d6000803e3d6000fd5b505050506040513d601f19601f8201168201806040525081019062000ce29190620012e6565b62000d4a5760405162461bcd60e51b815260206004820152603160248201527f556e61626c6520746f207472616e736665722070726573616c6520746f6b656e6044820152701cc81d1bc81d1a194818dbdb9d1c9858dd607a1b606482015260840162000321565b5050506060909801516001600160a01b039081166000908152600760209081526040808320805460018181018355918552838520018054969095166001600160a01b0319968716811790955554835260069091529020805490921617905550505050505050565b3362000dbc62000526565b6001600160a01b03161462000de55760405162461bcd60e51b815260040162000321906200162e565b6002919091556003805460ff191660ff909216919091179055565b3362000e0b62000526565b6001600160a01b03161462000e345760405162461bcd60e51b815260040162000321906200162e565b6001600160a01b03811662000e9b5760405162461bcd60e51b815260206004820152602660248201527f4f776e61626c653a206e6577206f776e657220697320746865207a65726f206160448201526564647265737360d01b606482015260840162000321565b62000ea68162000ea9565b50565b600080546001600160a01b038381166001600160a01b0319831681178455604051919092169283917f8be0079c531659141344cd1fd0a4f28419497f9722a3daafe3b4186f6b6457e09190a35050565b61457380620019ee83390190565b80356001600160a01b038116811462000f1f57600080fd5b919050565b80356002811062000f1f57600080fd5b600082601f83011262000f4657600080fd5b81356001600160401b038082111562000f635762000f63620019c8565b604051601f8301601f19908116603f0116810190828211818310171562000f8e5762000f8e620019c8565b8160405283815286602085880101111562000fa857600080fd5b836020870160208301376000602085830101528094505050505092915050565b60006080828403121562000fdb57600080fd5b604051608081018181106001600160401b0382111715620010005762001000620019c8565b60405290508082356200101381620019de565b808252506020830135602082015260408301356040820152606083013560608201525092915050565b600060c082840312156200104f57600080fd5b62001059620017ad565b905081356001600160401b03808211156200107357600080fd5b620010818583860162000f34565b835260208401359150808211156200109857600080fd5b620010a68583860162000f34565b60208401526040840135915080821115620010c057600080fd5b620010ce8583860162000f34565b60408401526060840135915080821115620010e857600080fd5b620010f68583860162000f34565b606084015260808401359150808211156200111057600080fd5b6200111e8583860162000f34565b608084015260a08401359150808211156200113857600080fd5b50620011478482850162000f34565b60a08301525092915050565b600060e082840312156200116657600080fd5b60405160e081018181106001600160401b03821117156200118b576200118b620019c8565b80604052508091508235815260208301356020820152604083013560038110620011b457600080fd5b604082015260608381013590820152620011d16080840162000f07565b608082015260a083013560a0820152620011ee60c0840162000f24565b60c08201525092915050565b6000606082840312156200120d57600080fd5b604051606081018181106001600160401b0382111715620012325762001232620019c8565b80604052508091508235815260208301356020820152604083013560408201525092915050565b600060c082840312156200126c57600080fd5b62001276620017ad565b905081356200128581620019de565b808252506020820135602082015260408201356040820152606082013560608201526080820135608082015260a082013560a082015292915050565b600060208284031215620012d457600080fd5b620012df8262000f07565b9392505050565b600060208284031215620012f957600080fd5b8151620012df81620019de565b60008060008060008060008789036103a08112156200132457600080fd5b60a08112156200133357600080fd5b506200133e620017d8565b883581526200135060208a0162000f07565b60208201526040890135600581106200136857600080fd5b60408201526200137b60608a0162000f07565b60608201526080898101359082015296506200139b8960a08a0162001153565b9550620013ad896101808a01620011fa565b9450620013bf896101e08a01620011fa565b9350620013d1896102408a0162000fc8565b9250620013e3896102c08a0162001259565b91506103808801356001600160401b038111156200140057600080fd5b6200140e8a828b016200103c565b91505092959891949750929550565b6000602082840312156200143057600080fd5b5035919050565b600080604083850312156200144b57600080fd5b82359150602083013560ff811681146200146457600080fd5b809150509250929050565b6000815180845260005b81811015620014975760208185018101518683018201520162001479565b81811115620014aa576000602083870101525b50601f01601f19169290920160200192915050565b6000815160c08452620014d660c08501826200146f565b905060208301518482036020860152620014f182826200146f565b915050604083015184820360408601526200150d82826200146f565b915050606083015184820360608601526200152982826200146f565b915050608083015184820360808601526200154582826200146f565b91505060a083015184820360a08601526200156182826200146f565b95945050505050565b8051825260208101516020830152604081015160038110620015905762001590620019b2565b6040830152606081810151908301526080808201516001600160a01b03169083015260a0808201519083015260c081015160028110620015d457620015d4620019b2565b8060c0840152505050565b6020808252825182820181905260009190848201906040850190845b81811015620016225783516001600160a01b031683529284019291840191600101620015fb565b50909695505050505050565b6020808252818101527f4f776e61626c653a2063616c6c6572206973206e6f7420746865206f776e6572604082015260600190565b60006103e060ff8c1683528a51602084015260208b015160018060a01b03808216604086015260408d0151915060058210620016a357620016a3620019b2565b8160608601528060608e0151166080860152505060808b015160a0840152620016d060c084018b6200156a565b88516101a084015260208901516101c084015260408901516101e08401528751610200840152602088015161022084015260408801516102408401526001600160a01b0387166102608401528551151561028084015260208601516102a084015260408601516102c084015260608601516102e084015284511515610300840152602085015161032084015260408501516103408401526060850151610360840152608085015161038084015260a08501516103a0840152806103c08401526200179d81840185620014bf565b9c9b505050505050505050505050565b60405160c081016001600160401b0381118282101715620017d257620017d2620019c8565b60405290565b60405160a081016001600160401b0381118282101715620017d257620017d2620019c8565b600082198211156200181357620018136200199c565b500190565b6000826200183657634e487b7160e01b600052601260045260246000fd5b500490565b600181815b808511156200187c5781600019048211156200186057620018606200199c565b808516156200186e57918102915b93841c939080029062001840565b509250929050565b6000620012df83836000826200189d575060016200193c565b81620018ac575060006200193c565b8160018114620018c55760028114620018d057620018f0565b60019150506200193c565b60ff841115620018e457620018e46200199c565b50506001821b6200193c565b5060208310610133831016604e8410600b841016171562001915575081810a6200193c565b6200192183836200183b565b80600019048211156200193857620019386200199c565b0290505b92915050565b60008160001904831182151516156200195f576200195f6200199c565b500290565b6000828210156200197957620019796200199c565b500390565b60006000198214156200199557620019956200199c565b5060010190565b634e487b7160e01b600052601160045260246000fd5b634e487b7160e01b600052602160045260246000fd5b634e487b7160e01b600052604160045260246000fd5b801515811462000ea657600080fdfe60a06040526000602b556000602e553480156200001b57600080fd5b5060405162004573380380620045738339810160408190526200003e9162000ca6565b33606090811b60809081526002805460ff8d1660ff19909116179055604080519182018152895180835260006020808501829052848401829052939094018490526014556015839055601683905560179290925589516003908155908a0151600480546001600160a01b03929092166001600160a01b0319831681178255938c01518c9490926001600160a81b03191617600160a01b8383811115620000e857620000e862000f57565b02179055506060820151600282810180546001600160a01b0319166001600160a01b03909316929092179091556080909201516003909101558751600790815560208901516008556040890151600980548b9460ff1990911690600190849081111562000159576200015962000f57565b02179055506060820151600382015560808201516004820180546001600160a01b0319166001600160a01b0390921691909117905560a0820151600582015560c082015160068201805460ff191660018381811115620001bd57620001bd62000f57565b0217905550508651600e5550602080870151600f5560408088015160105586516011558682015160125586810151601355600280546001600160a01b03881661010002610100600160a81b03199091161790558451601f805491151560ff199283161790558583015183558582015160215560608087015160225585516023805491151591909316179091558483015160245590840151602555830151602655608083015160275560a08301516028558151805183926018926200028892849291909101906200083b565b506020828101518051620002a392600185019201906200083b565b5060408201518051620002c19160028401916020909101906200083b565b5060608201518051620002df9160038401916020909101906200083b565b5060808201518051620002fd9160048401916020909101906200083b565b5060a082015180516200031b9160058401916020909101906200083b565b505083511590506200033d576200033d8387602001516200036a60201b60201c565b8151156200035b576200035b8287602001516200055660201b60201c565b50505050505050505062000f83565b602080830151604080516080810182526000808252818501868152606493830184815260608401868152928052602a90965291517f25a1a901705ed15d5376e82511cff743d9474883c82d145cebcc7811e0424a9c5590517f25a1a901705ed15d5376e82511cff743d9474883c82d145cebcc7811e0424a9d5592517f25a1a901705ed15d5376e82511cff743d9474883c82d145cebcc7811e0424a9e5591517f25a1a901705ed15d5376e82511cff743d9474883c82d145cebcc7811e0424a9f55818110156200055057600062000443828462000ecc565b905084606001518362000457919062000e87565b602b55600060015b602b5481116200050c5760006200047882603c62000eaa565b886040015162000489919062000eaa565b62000495908862000e6c565b60408051608081018252848152602080820184815282840189815260608e8101805191860191825260008a8152602a9095529590932093518455905160018401555160028301555160039091015551909150620004f3908462000e6c565b9250508080620005039062000f23565b9150506200045f565b5060006200051b828662000ecc565b905080602a6000602b548152602001908152602001600020600301600082825462000547919062000e6c565b90915550505050505b50505050565b60608201516040830151606491906000906200057490603c62000eaa565b62000580908562000e6c565b90506040518060a001604052806000815260200182815260200184815260200183815260200160006001811115620005bc57620005bc62000f57565b905260008052602d602090815281517f6648a85983aca0407b603b260cacb25b5e5e8e5194522de3d8a800e71aa41bae908155908201517f6648a85983aca0407b603b260cacb25b5e5e8e5194522de3d8a800e71aa41baf5560408201517f6648a85983aca0407b603b260cacb25b5e5e8e5194522de3d8a800e71aa41bb05560608201517f6648a85983aca0407b603b260cacb25b5e5e8e5194522de3d8a800e71aa41bb15560808201517f6648a85983aca0407b603b260cacb25b5e5e8e5194522de3d8a800e71aa41bb2805460ff191660018381811115620006a557620006a562000f57565b021790555050508282101562000834576000620006c3838562000ecc565b90508560a0015184620006d7919062000e87565b602e55600060015b602e548111620007f0576000620006f882603c62000eaa565b896080015162000709919062000eaa565b62000715908662000e6c565b90506040518060a001604052808381526020018281526020018581526020018a60a0015181526020016000600181111562000754576200075462000f57565b815250602d60008481526020019081526020016000206000820151816000015560208201518160010155604082015181600201556060820151816003015560808201518160040160006101000a81548160ff02191690836001811115620007bf57620007bf62000f57565b0217905550505060a0890151620007d7908462000e6c565b9250508080620007e79062000f23565b915050620006df565b506000620007ff828762000ecc565b905080602d6000602e54815260200190815260200160002060030160008282546200082b919062000e6c565b90915550505050505b5050505050565b828054620008499062000ee6565b90600052602060002090601f0160209004810192826200086d5760008555620008b8565b82601f106200088857805160ff1916838001178555620008b8565b82800160010185558215620008b8579182015b82811115620008b85782518255916020019190600101906200089b565b50620008c6929150620008ca565b5090565b5b80821115620008c65760008155600101620008cb565b80516001600160a01b0381168114620008f957600080fd5b919050565b80518015158114620008f957600080fd5b805160028110620008f957600080fd5b600082601f8301126200093157600080fd5b81516001600160401b038111156200094d576200094d62000f6d565b602062000963601f8301601f1916820162000e39565b82815285828487010111156200097857600080fd5b60005b83811015620009985785810183015182820184015282016200097b565b83811115620009aa5760008385840101525b5095945050505050565b600060808284031215620009c757600080fd5b604051608081016001600160401b0381118282101715620009ec57620009ec62000f6d565b604052905080620009fd83620008fe565b81526020830151602082015260408301516040820152606083015160608201525092915050565b600060c0828403121562000a3757600080fd5b62000a4162000e0e565b82519091506001600160401b038082111562000a5c57600080fd5b62000a6a858386016200091f565b8352602084015191508082111562000a8157600080fd5b62000a8f858386016200091f565b6020840152604084015191508082111562000aa957600080fd5b62000ab7858386016200091f565b6040840152606084015191508082111562000ad157600080fd5b62000adf858386016200091f565b6060840152608084015191508082111562000af957600080fd5b62000b07858386016200091f565b608084015260a084015191508082111562000b2157600080fd5b5062000b30848285016200091f565b60a08301525092915050565b600060e0828403121562000b4f57600080fd5b60405160e081016001600160401b038111828210171562000b745762000b7462000f6d565b8060405250809150825181526020830151602082015260408301516003811062000b9d57600080fd5b60408201526060838101519082015262000bba60808401620008e1565b608082015260a083015160a082015262000bd760c084016200090f565b60c08201525092915050565b60006060828403121562000bf657600080fd5b604051606081016001600160401b038111828210171562000c1b5762000c1b62000f6d565b80604052508091508251815260208301516020820152604083015160408201525092915050565b600060c0828403121562000c5557600080fd5b62000c5f62000e0e565b905062000c6c82620008fe565b81526020820151602082015260408201516040820152606082015160608201526080820151608082015260a082015160a082015292915050565b6000806000806000806000806000898b036103e081121562000cc757600080fd5b8a5160ff8116811462000cd957600080fd5b995060a0601f198201121562000cee57600080fd5b5060405160a081016001600160401b03808211838310171562000d155762000d1562000f6d565b8160405260208d0151835262000d2e60408e01620008e1565b602084015260608d015191506005821062000d4857600080fd5b81604084015262000d5c60808e01620008e1565b606084015260a08d01516080840152829a5062000d7d8e60c08f0162000b3c565b995062000d8f8e6101a08f0162000be3565b985062000da18e6102008f0162000be3565b975062000db26102608e01620008e1565b965062000dc48e6102808f01620009b4565b955062000dd68e6103008f0162000c42565b94506103c08d015192508083111562000dee57600080fd5b505062000dfe8c828d0162000a24565b9150509295985092959850929598565b60405160c081016001600160401b038111828210171562000e335762000e3362000f6d565b60405290565b604051601f8201601f191681016001600160401b038111828210171562000e645762000e6462000f6d565b604052919050565b6000821982111562000e825762000e8262000f41565b500190565b60008262000ea557634e487b7160e01b600052601260045260246000fd5b500490565b600081600019048311821515161562000ec75762000ec762000f41565b500290565b60008282101562000ee15762000ee162000f41565b500390565b600181811c9082168062000efb57607f821691505b6020821081141562000f1d57634e487b7160e01b600052602260045260246000fd5b50919050565b600060001982141562000f3a5762000f3a62000f41565b5060010190565b634e487b7160e01b600052601160045260246000fd5b634e487b7160e01b600052602160045260246000fd5b634e487b7160e01b600052604160045260246000fd5b60805160601c6135c362000fb06000396000818161066101528181611bf901526121d401526135c36000f3fe60806040526004361061018d5760003560e01c80639e8f4d65116100d7578063da15309a11610085578063da15309a146105e3578063db2e21bc146105f9578063dc5744ad1461060e578063e7e104901461063a578063ee97f7f31461064f578063f968f49314610683578063fdc6acf814610698578063ff3a3141146106b857600080fd5b80639e8f4d65146104ab5780639fa6f2f91461050d578063a0a6e94014610530578063a663ea8c14610545578063a7c6402c14610572578063b96f2120146105a4578063bf9e3063146105c457600080fd5b80632fff7af51161013f5780632fff7af5146102b9578063475fda0e146102dd5780634d7459e0146102fd578063564e1cc41461034e578063619f3d6c146103ac57806378caf7541461040957806381be40491461045157806382cde82c1461048b57600080fd5b806309cba0f71461019257806312949b5a146101a9578063173434fa146101bc578063243bae52146101d157806325a6c545146101fc5780632605b3c7146102235780632edf08691461026c575b600080fd5b34801561019e57600080fd5b506101a76106ce565b005b6101a76101b7366004612e61565b610acd565b3480156101c857600080fd5b506101a7611038565b3480156101dd57600080fd5b506101e661157f565b6040516101f39190612f6b565b60405180910390f35b34801561020857600080fd5b50610211611590565b6040516101f396959493929190612fcb565b34801561022f57600080fd5b5061025761023e366004612be6565b6029602052600090815260409020805460019091015482565b604080519283526020830191909152016101f3565b34801561027857600080fd5b506003546004546005546006546102a893926001600160a01b0380821693600160a01b90920460ff169291169085565b6040516101f39594939291906131e8565b3480156102c557600080fd5b506102cf602e5481565b6040519081526020016101f3565b3480156102e957600080fd5b506101a76102f8366004612c20565b6118e8565b34801561030957600080fd5b50600754600854600954600a54600b54600c54600d5461033b96959460ff90811694936001600160a01b031692911687565b6040516101f3979695949392919061322f565b34801561035a57600080fd5b5061039b610369366004612e61565b602d60205260009081526040902080546001820154600283015460038401546004909401549293919290919060ff1685565b6040516101f395949392919061328c565b3480156103b857600080fd5b506023546024546025546026546027546028546103da9560ff16949392919086565b6040805196151587526020870195909552938501929092526060840152608083015260a082015260c0016101f3565b34801561041557600080fd5b50601f5460205460215460225461042f9360ff1692919084565b60408051941515855260208501939093529183015260608201526080016101f3565b34801561045d57600080fd5b5060115460125460135461047092919083565b604080519384526020840192909252908201526060016101f3565b34801561049757600080fd5b506101a76104a6366004612d40565b611955565b3480156104b757600080fd5b506104ed6104c6366004612e61565b602a6020526000908152604090208054600182015460028301546003909301549192909184565b6040805194855260208501939093529183015260608201526080016101f3565b34801561051957600080fd5b506014546015546016546017546104ed9392919084565b34801561053c57600080fd5b506101a76119fe565b34801561055157600080fd5b50610565610560366004612e93565b611f81565b6040516101f39190612fb8565b34801561057e57600080fd5b506002546105979061010090046001600160a01b031681565b6040516101f39190612f3e565b3480156105b057600080fd5b506101a76105bf366004612c20565b611fae565b3480156105d057600080fd5b50600e54600f5460105461047092919083565b3480156105ef57600080fd5b506102cf601e5481565b34801561060557600080fd5b506101a761201b565b34801561061a57600080fd5b506002546106289060ff1681565b60405160ff90911681526020016101f3565b34801561064657600080fd5b506101a761226e565b34801561065b57600080fd5b506105977f000000000000000000000000000000000000000000000000000000000000000081565b34801561068f57600080fd5b506101a761239b565b3480156106a457600080fd5b506101a76106b3366004612cfb565b612649565b3480156106c457600080fd5b506102cf602b5481565b6004546001600160a01b031633146107015760405162461bcd60e51b81526004016106f8906130e5565b60405180910390fd5b600260048054600160a01b900460ff169081111561072157610721613510565b148061074a5750600360048054600160a01b900460ff169081111561074857610748613510565b145b8061077157506004808054600160a01b900460ff169081111561076f5761076f613510565b145b61078d5760405162461bcd60e51b81526004016106f8906130ae565b6000600260019054906101000a90046001600160a01b03166001600160a01b031663c45a01556040518163ffffffff1660e01b815260040160206040518083038186803b1580156107dd57600080fd5b505afa1580156107f1573d6000803e3d6000fd5b505050506040513d601f19601f820116820180604052508101906108159190612c03565b90506000600260019054906101000a90046001600160a01b03166001600160a01b031663ad5c46486040518163ffffffff1660e01b815260040160206040518083038186803b15801561086757600080fd5b505afa15801561087b573d6000803e3d6000fd5b505050506040513d601f19601f8201168201806040525081019061089f9190612c03565b60055460405163e6a4390560e01b81526001600160a01b03918216600482015281831660248201529192506000919084169063e6a439059060440160206040518083038186803b1580156108f257600080fd5b505afa158015610906573d6000803e3d6000fd5b505050506040513d601f19601f8201168201806040525081019061092a9190612c03565b90506000816001600160a01b03166370a08231306040518263ffffffff1660e01b815260040161095a9190612f3e565b60206040518083038186803b15801561097257600080fd5b505afa158015610986573d6000803e3d6000fd5b505050506040513d601f19601f820116820180604052508101906109aa9190612e7a565b9050600081116109cc5760405162461bcd60e51b81526004016106f89061304d565b601054600f546109dc919061331c565b421015610a1e5760405162461bcd60e51b815260206004820152601060248201526f139bdd081d5b9b1bd8dad959081e595d60821b60448201526064016106f8565b6004805460405163a9059cbb60e01b81526000926001600160a01b038087169363a9059cbb93610a55939190921691879101612f52565b602060405180830381600087803b158015610a6f57600080fd5b505af1158015610a83573d6000803e3d6000fd5b505050506040513d601f19601f82011682018060405250810190610aa79190612cd9565b905080610ac65760405162461bcd60e51b81526004016106f890613135565b5050505050565b600e54421015610b2d5760405162461bcd60e51b815260206004820152602560248201527f50726573616c65206861736e277420626567696e207965742e20706c65617365604482015264081dd85a5d60da1b60648201526084016106f8565b600f544210610b7e5760405162461bcd60e51b815260206004820152601e60248201527f50726573616c65206973206f7665722e20547279206e6578742074696d65000060448201526064016106f8565b600060048054600160a01b900460ff1690811115610b9e57610b9e613510565b1415610bb8576004805460ff60a01b1916600160a01b1790555b600160048054600160a01b900460ff1690811115610bd857610bd8613510565b14610bf55760405162461bcd60e51b81526004016106f890613077565b336000908152602960209081526040918290208251808401909352805483526001015490820152600a54610c299083613441565b341015610c6d5760405162461bcd60e51b8152602060048201526012602482015271696e73756666696369656e742066756e647360701b60448201526064016106f8565b601454610cb35760405162461bcd60e51b81526020600482015260146024820152731d1a19481cd85b19481a5cc81cdbdb19081bdd5d60621b60448201526064016106f8565b601454821115610d175760405162461bcd60e51b815260206004820152602960248201527f696e73756666696369656e7420746f6b656e7320746f2066756c66696c6c20746044820152683434b99037b93232b960b91b60648201526084016106f8565b600160095460ff166002811115610d3057610d30613510565b1415610da757610d41600033612763565b610da75760405162461bcd60e51b815260206004820152603160248201527f4f6e6c792077686974656c69737465642075736572732061726520616c6c6f77604482015270656420746f20706172746963697061746560781b60648201526084016106f8565b600260095460ff166002811115610dc057610dc0613510565b1415610ea557600c54600b546040516370a0823160e01b81526001600160a01b03909116906370a0823190610df9903390600401612f3e565b60206040518083038186803b158015610e1157600080fd5b505afa158015610e25573d6000803e3d6000fd5b505050506040513d601f19601f82011682018060405250810190610e499190612e7a565b1015610ea55760405162461bcd60e51b815260206004820152602560248201527f596f7520646f6e277420686f6c6420656e6f75676820637269746572696120746044820152646f6b656e7360d81b60648201526084016106f8565b6020810151610f3e57601154821015610f28576040805162461bcd60e51b81526020600482015260248101919091527f5265717565737420666f7220746f6b656e73206973206c6f772c20506c65617360448201527f652072657175657374206d6f7265207468616e206d696e546f6b656e7352657160648201526084016106f8565b60168054906000610f38836134c9565b91905055505b6012546020820151610f50908461331c565b1115610fce5760405162461bcd60e51b815260206004820152604160248201527f5265717565737420666f7220746f6b656e7320697320686967682c20506c656160448201527f73652072657175657374206c657373207468616e206d6178546f6b656e7352656064820152607160f81b608482015260a4016106f8565b601554610fdc90349061331c565b601555601454610fed908390613460565b6014558051610ffd90349061331c565b3360009081526029602090815260409091209190915581015161102190839061331c565b336000908152602960205260409020600101555050565b600260048054600160a01b900460ff169081111561105857611058613510565b14806110815750600360048054600160a01b900460ff169081111561107f5761107f613510565b145b806110a857506004808054600160a01b900460ff16908111156110a6576110a6613510565b145b6110c45760405162461bcd60e51b81526004016106f8906130ae565b33600090815260296020908152604091829020825180840190935280548084526001909101549183019190915261110d5760405162461bcd60e51b81526004016106f89061304d565b6017805490600061111d836134c9565b909155506002905060048054600160a01b900460ff169081111561114357611143613510565b14156114a157601f5460ff166112be573360009081526029602090815260408220828155600101919091558101516111b25760405162461bcd60e51b81526020600482015260126024820152714e6f20746f6b656e7320746f20636c61696d60701b60448201526064016106f8565b6005546006546000916001600160a01b03169063a9059cbb9033906111d890600a613399565b85602001516111e79190613441565b6040518363ffffffff1660e01b8152600401611204929190612f52565b602060405180830381600087803b15801561121e57600080fd5b505af1158015611232573d6000803e3d6000fd5b505050506040513d601f19601f820116820180604052508101906112569190612cd9565b9050806112ba5760405162461bcd60e51b815260206004820152602c60248201527f556e61626c6520746f207472616e7366657220746f6b656e7320746f2074686560448201526b081c185c9d1a58da5c185b9d60a21b60648201526084016106f8565b5050565b6006546000906112cf90600a613399565b82602001516112de9190613441565b90506000805b602b5481116113db576000818152602a6020526040902060010154421080159061134757506000818152602a602090815260408083206001908101548452602c835281842033855290925282205460ff169081111561134557611345613510565b145b156113c9576000818152602a60205260409020600381015460029091015461271091906113749086613441565b61137e9190613441565b6113889190613334565b611392908361331c565b6000828152602a602090815260408083206001908101548452602c8352818420338552909252909120805460ff1916909117905591505b806113d3816134c9565b9150506112e4565b50600081116113fc5760405162461bcd60e51b81526004016106f8906131bd565b60055460405163a9059cbb60e01b81526001600160a01b039091169063a9059cbb9061142e9033908590600401612f52565b602060405180830381600087803b15801561144857600080fd5b505af115801561145c573d6000803e3d6000fd5b505050506040513d601f19601f820116820180604052508101906114809190612cd9565b61149c5760405162461bcd60e51b81526004016106f890613135565b505050565b3360009081526029602052604081208181556001015580516114fb5760405162461bcd60e51b8152602060048201526013602482015272139bc8185b5bdd5b9d081d1bc81c99599d5b99606a1b60448201526064016106f8565b8051604051600091339181156108fc02919084818181858888f193505050509050806112ba5760405162461bcd60e51b815260206004820152602a60248201527f556e61626c6520746f20726566756e6420616d6f756e7420746f207468652070604482015269185c9d1a58da5c185b9d60b21b60648201526084016106f8565b50565b606061158b6000612788565b905090565b60188054819061159f9061348e565b80601f01602080910402602001604051908101604052809291908181526020018280546115cb9061348e565b80156116185780601f106115ed57610100808354040283529160200191611618565b820191906000526020600020905b8154815290600101906020018083116115fb57829003601f168201915b50505050509080600101805461162d9061348e565b80601f01602080910402602001604051908101604052809291908181526020018280546116599061348e565b80156116a65780601f1061167b576101008083540402835291602001916116a6565b820191906000526020600020905b81548152906001019060200180831161168957829003601f168201915b5050505050908060020180546116bb9061348e565b80601f01602080910402602001604051908101604052809291908181526020018280546116e79061348e565b80156117345780601f1061170957610100808354040283529160200191611734565b820191906000526020600020905b81548152906001019060200180831161171757829003601f168201915b5050505050908060030180546117499061348e565b80601f01602080910402602001604051908101604052809291908181526020018280546117759061348e565b80156117c25780601f10611797576101008083540402835291602001916117c2565b820191906000526020600020905b8154815290600101906020018083116117a557829003601f168201915b5050505050908060040180546117d79061348e565b80601f01602080910402602001604051908101604052809291908181526020018280546118039061348e565b80156118505780601f1061182557610100808354040283529160200191611850565b820191906000526020600020905b81548152906001019060200180831161183357829003601f168201915b5050505050908060050180546118659061348e565b80601f01602080910402602001604051908101604052809291908181526020018280546118919061348e565b80156118de5780601f106118b3576101008083540402835291602001916118de565b820191906000526020600020905b8154815290600101906020018083116118c157829003601f168201915b5050505050905086565b6004546001600160a01b031633146119125760405162461bcd60e51b81526004016106f8906130e5565b60005b81518110156112ba5761194260008383815181106119355761193561353c565b6020026020010151612795565b508061194d816134c9565b915050611915565b80518051829160189161196f918391602090910190612add565b5060208281015180516119889260018501920190612add565b50604082015180516119a4916002840191602090910190612add565b50606082015180516119c0916003840191602090910190612add565b50608082015180516119dc916004840191602090910190612add565b5060a082015180516119f8916005840191602090910190612add565b50505050565b6004546001600160a01b03163314611a285760405162461bcd60e51b81526004016106f8906130e5565b600160048054600160a01b900460ff1690811115611a4857611a48613510565b1480611a715750600060048054600160a01b900460ff1690811115611a6f57611a6f613510565b145b611a8d5760405162461bcd60e51b81526004016106f890613077565b600f54421180611a9d5750601454155b611ae35760405162461bcd60e51b8152602060048201526017602482015276141c995cd85b19481a5cc81b9bdd081bdd995c881e595d604a1b60448201526064016106f8565b601454600754600091611af591613460565b6013549091508110611ee557600854600090606490611b149084613441565b611b1e9190613334565b60155460085491925090600090606490611b389084613441565b611b429190613334565b600254909150600090606490611b5b9060ff1685613441565b611b659190613334565b90506000611b73828461331c565b611b7d9085613460565b6004546040519192506000916001600160a01b039091169083908381818185875af1925050503d8060008114611bcf576040519150601f19603f3d011682016040523d82523d6000602084013e611bd4565b606091505b5050905080611bf55760405162461bcd60e51b81526004016106f89061318b565b60007f00000000000000000000000000000000000000000000000000000000000000006001600160a01b03168460405160006040518083038185875af1925050503d8060008114611c62576040519150601f19603f3d011682016040523d82523d6000602084013e611c67565b606091505b5050905080611c885760405162461bcd60e51b81526004016106f89061318b565b600654600090611c9990600a613399565b611ca39089613441565b60055460025460405163095ea7b360e01b81529293506001600160a01b039182169263095ea7b392611ce092610100900416908590600401612f52565b602060405180830381600087803b158015611cfa57600080fd5b505af1158015611d0e573d6000803e3d6000fd5b505050506040513d601f19601f82011682018060405250810190611d329190612cd9565b611d9f5760405162461bcd60e51b815260206004820152603860248201527f756e61626c6520746f20617070726f766520746f6b656e207472616e666572206044820152773a37903830b731b0b5b2a9bbb0b82937baba32b920b2323960411b60648201526084016106f8565b6002546005546001600160a01b0361010090920482169163f305d719918991168460008030611dcf42603c61331c565b60405160e089901b6001600160e01b03191681526001600160a01b039687166004820152602481019590955260448501939093526064840191909152909216608482015260a481019190915260c4016060604051808303818588803b158015611e3757600080fd5b505af1158015611e4b573d6000803e3d6000fd5b50505050506040513d601f19601f82011682018060405250810190611e709190612ec3565b505060085460145460009250606491611e8891613441565b611e929190613334565b600654909150611ea390600a613399565b601454611eb190839061331c565b611ebb9190613441565b601e556004805460ff60a01b1916600160a11b179055611ed96127aa565b50505050505050505050565b6004805460ff60a01b1916600360a01b1781556005546040516370a0823160e01b81526001600160a01b03909116916370a0823191611f2691309101612f3e565b60206040518083038186803b158015611f3e57600080fd5b505afa158015611f52573d6000803e3d6000fd5b505050506040513d601f19601f82011682018060405250810190611f769190612e7a565b601e5561157c6127aa565b6000828152602c602090815260408083206001600160a01b038516845290915290205460ff165b92915050565b6004546001600160a01b03163314611fd85760405162461bcd60e51b81526004016106f8906130e5565b60005b81518110156112ba576120086000838381518110611ffb57611ffb61353c565b602002602001015161292a565b5080612013816134c9565b915050611fdb565b600160048054600160a01b900460ff169081111561203b5761203b613510565b146120585760405162461bcd60e51b81526004016106f890613077565b3360009081526029602090815260409182902082518084019093528054808452600190910154918301919091526120c75760405162461bcd60e51b81526020600482015260136024820152724e6f7468696e6720746f20776974686472617760681b60448201526064016106f8565b80516000906064906120da90605f613441565b6120e49190613334565b33600090815260296020526040812081815560010155825160155491925061210b91613460565b6015556020820151601454612120919061331c565b6014556016805490600061213383613477565b9091555050604051600090339083908381818185875af1925050503d806000811461217a576040519150601f19603f3d011682016040523d82523d6000602084013e61217f565b606091505b50509050806121d05760405162461bcd60e51b815260206004820152601d60248201527f63616e6e6f7420726566756e6420746f20636f6e7472696275746f727300000060448201526064016106f8565b60007f00000000000000000000000000000000000000000000000000000000000000006001600160a01b031683856000015161220c9190613460565b604051600081818185875af1925050503d8060008114612248576040519150601f19603f3d011682016040523d82523d6000602084013e61224d565b606091505b50509050806119f85760405162461bcd60e51b81526004016106f89061318b565b6004546001600160a01b031633146122985760405162461bcd60e51b81526004016106f8906130e5565b600160048054600160a01b900460ff16908111156122b8576122b8613510565b14806122e15750600060048054600160a01b900460ff16908111156122df576122df613510565b145b6122fd5760405162461bcd60e51b81526004016106f890613077565b6004805460ff60a01b1916600160a21b1781556005546040516370a0823160e01b81526001600160a01b03909116916370a082319161233e91309101612f3e565b60206040518083038186803b15801561235657600080fd5b505afa15801561236a573d6000803e3d6000fd5b505050506040513d601f19601f8201168201806040525081019061238e9190612e7a565b601e556123996127aa565b565b6004546001600160a01b031633146123c55760405162461bcd60e51b81526004016106f8906130e5565b600260048054600160a01b900460ff16908111156123e5576123e5613510565b148061240e5750600360048054600160a01b900460ff169081111561240c5761240c613510565b145b8061243557506004808054600160a01b900460ff169081111561243357612433613510565b145b6124515760405162461bcd60e51b81526004016106f8906130ae565b60235460ff1661249b5760405162461bcd60e51b8152602060048201526015602482015274139bc81d1bdad95b9cc81dd95c99481b1bd8dad959605a1b60448201526064016106f8565b6006546000906124ac90600a613399565b6024546124b99190613441565b90506000805b602e548111612588576000818152602d6020526040902060010154421080159061250c57506000818152602d602052604081206004015460ff16600181111561250a5761250a613510565b145b15612576576000818152602d60205260409020600381015460029091015461271091906125399086613441565b6125439190613441565b61254d9190613334565b612557908361331c565b6000828152602d60205260409020600401805460ff1916600117905591505b80612580816134c9565b9150506124bf565b50600081116125a95760405162461bcd60e51b81526004016106f8906131bd565b60055460405163a9059cbb60e01b81526001600160a01b039091169063a9059cbb906125db9033908590600401612f52565b602060405180830381600087803b1580156125f557600080fd5b505af1158015612609573d6000803e3d6000fd5b505050506040513d601f19601f8201168201806040525081019061262d9190612cd9565b6112ba5760405162461bcd60e51b81526004016106f890613135565b6004546001600160a01b031633146126735760405162461bcd60e51b81526004016106f8906130e5565b600283600281111561268757612687613510565b141561273a576001600160a01b0382166126ef5760405162461bcd60e51b8152602060048201526024808201527f437269746572696120746f6b656e20616464726573732063616e2774206265206044820152631b9d5b1b60e21b60648201526084016106f8565b6009805484919060ff1916600183600281111561270e5761270e613510565b0217905550600b80546001600160a01b0384166001600160a01b0319909116179055600c819055505050565b6009805484919060ff1916600183600281111561275957612759613510565b0217905550505050565b6001600160a01b038116600090815260018301602052604081205415155b9392505050565b606060006127818361293f565b6000612781836001600160a01b03841661299b565b601e54801561157c576000601e55600360048054600160a01b900460ff16908111156127d8576127d8613510565b148061280057506004808054600160a01b900460ff16908111156127fe576127fe613510565b145b1561289e576005546004805460405163a9059cbb60e01b81526000936001600160a01b039081169363a9059cbb9361283d93921691879101612f52565b602060405180830381600087803b15801561285757600080fd5b505af115801561286b573d6000803e3d6000fd5b505050506040513d601f19601f8201168201806040525081019061288f9190612cd9565b9050806112ba576112ba6134e4565b6001600d5460ff1660018111156128b7576128b7613510565b14156128f5576005546004805460405163a9059cbb60e01b81526000936001600160a01b039081169363a9059cbb9361283d93921691879101612f52565b60055460405163a9059cbb60e01b81526000916001600160a01b03169063a9059cbb9061283d9061dead908690600401612f52565b6000612781836001600160a01b0384166129ea565b60608160000180548060200260200160405190810160405280929190818152602001828054801561298f57602002820191906000526020600020905b81548152602001906001019080831161297b575b50505050509050919050565b60008181526001830160205260408120546129e257508154600181810184556000848152602080822090930184905584548482528286019093526040902091909155611fa8565b506000611fa8565b60008181526001830160205260408120548015612ad3576000612a0e600183613460565b8554909150600090612a2290600190613460565b9050818114612a87576000866000018281548110612a4257612a4261353c565b9060005260206000200154905080876000018481548110612a6557612a6561353c565b6000918252602080832090910192909255918252600188019052604090208390555b8554869080612a9857612a98613526565b600190038181906000526020600020016000905590558560010160008681526020019081526020016000206000905560019350505050611fa8565b6000915050611fa8565b828054612ae99061348e565b90600052602060002090601f016020900481019282612b0b5760008555612b51565b82601f10612b2457805160ff1916838001178555612b51565b82800160010185558215612b51579182015b82811115612b51578251825591602001919060010190612b36565b50612b5d929150612b61565b5090565b5b80821115612b5d5760008155600101612b62565b600082601f830112612b8757600080fd5b813567ffffffffffffffff811115612ba157612ba1613552565b612bb4601f8201601f19166020016132eb565b818152846020838601011115612bc957600080fd5b816020850160208301376000918101602001919091529392505050565b600060208284031215612bf857600080fd5b813561278181613578565b600060208284031215612c1557600080fd5b815161278181613578565b60006020808385031215612c3357600080fd5b823567ffffffffffffffff80821115612c4b57600080fd5b818501915085601f830112612c5f57600080fd5b813581811115612c7157612c71613552565b8060051b9150612c828483016132eb565b8181528481019084860184860187018a1015612c9d57600080fd5b600095505b83861015612ccc5780359450612cb785613578565b84835260019590950194918601918601612ca2565b5098975050505050505050565b600060208284031215612ceb57600080fd5b8151801515811461278157600080fd5b600080600060608486031215612d1057600080fd5b833560038110612d1f57600080fd5b92506020840135612d2f81613578565b929592945050506040919091013590565b600060208284031215612d5257600080fd5b813567ffffffffffffffff80821115612d6a57600080fd5b9083019060c08286031215612d7e57600080fd5b612d866132c2565b823582811115612d9557600080fd5b612da187828601612b76565b825250602083013582811115612db657600080fd5b612dc287828601612b76565b602083015250604083013582811115612dda57600080fd5b612de687828601612b76565b604083015250606083013582811115612dfe57600080fd5b612e0a87828601612b76565b606083015250608083013582811115612e2257600080fd5b612e2e87828601612b76565b60808301525060a083013582811115612e4657600080fd5b612e5287828601612b76565b60a08301525095945050505050565b600060208284031215612e7357600080fd5b5035919050565b600060208284031215612e8c57600080fd5b5051919050565b60008060408385031215612ea657600080fd5b823591506020830135612eb881613578565b809150509250929050565b600080600060608486031215612ed857600080fd5b8351925060208401519150604084015190509250925092565b6000815180845260005b81811015612f1757602081850181015186830182015201612efb565b81811115612f29576000602083870101525b50601f01601f19169290920160200192915050565b6001600160a01b0391909116815260200190565b6001600160a01b03929092168252602082015260400190565b6020808252825182820181905260009190848201906040850190845b81811015612fac5783516001600160a01b031683529284019291840191600101612f87565b50909695505050505050565b60208101612fc583613568565b91905290565b60c081526000612fde60c0830189612ef1565b8281036020840152612ff08189612ef1565b905082810360408401526130048188612ef1565b905082810360608401526130188187612ef1565b9050828103608084015261302c8186612ef1565b905082810360a08401526130408185612ef1565b9998505050505050505050565b60208082526010908201526f4e6f7468696e6720746f20636c61696d60801b604082015260600190565b6020808252601a908201527f50726573616c65206973206e6f7420696e2070726f6772657373000000000000604082015260600190565b6020808252601c908201527f50726573616c65206973206e6f7420636f6e636c756465642079657400000000604082015260600190565b60208082526030908201527f4f776e61626c653a2063616c6c6572206973206e6f7420746865206f776e657260408201526f206f6620746869732070726573616c6560801b606082015260800190565b60208082526036908201527f556e61626c6520746f207472616e736665722070726573616c6520746f6b656e60408201527539903a37903a343290383932b9b0b6329037bbb732b960511b606082015260800190565b60208082526018908201527763616e6e6f742073656e64206465765465616d536861726560401b604082015260600190565b6020808252601190820152704e6f7468696e6720746f20756e6c6f636b60781b604082015260600190565b8581526001600160a01b03858116602083015260a08201906005861061321057613210613510565b8560408401528085166060840152508260808301529695505050505050565b8781526020810187905260e081016003871061324d5761324d613510565b60408201879052606082018690526001600160a01b038516608083015260a0820184905261327a83613568565b8260c083015298975050505050505050565b600060a0820190508682528560208301528460408301528360608301526132b283613568565b8260808301529695505050505050565b60405160c0810167ffffffffffffffff811182821017156132e5576132e5613552565b60405290565b604051601f8201601f1916810167ffffffffffffffff8111828210171561331457613314613552565b604052919050565b6000821982111561332f5761332f6134fa565b500190565b60008261335157634e487b7160e01b600052601260045260246000fd5b500490565b600181815b80851115613391578160001904821115613377576133776134fa565b8085161561338457918102915b93841c939080029061335b565b509250929050565b600061278183836000826133af57506001611fa8565b816133bc57506000611fa8565b81600181146133d257600281146133dc576133f8565b6001915050611fa8565b60ff8411156133ed576133ed6134fa565b50506001821b611fa8565b5060208310610133831016604e8410600b841016171561341b575081810a611fa8565b6134258383613356565b8060001904821115613439576134396134fa565b029392505050565b600081600019048311821515161561345b5761345b6134fa565b500290565b600082821015613472576134726134fa565b500390565b600081613486576134866134fa565b506000190190565b600181811c908216806134a257607f821691505b602082108114156134c357634e487b7160e01b600052602260045260246000fd5b50919050565b60006000198214156134dd576134dd6134fa565b5060010190565b634e487b7160e01b600052600160045260246000fd5b634e487b7160e01b600052601160045260246000fd5b634e487b7160e01b600052602160045260246000fd5b634e487b7160e01b600052603160045260246000fd5b634e487b7160e01b600052603260045260246000fd5b634e487b7160e01b600052604160045260246000fd5b6002811061157c5761157c613510565b6001600160a01b038116811461157c57600080fdfea2646970667358221220d8194a7fbf52f02bc8b68a2f75f166d6345f06f433f34f2a71b1f6a38e49925a64736f6c63430008070033a2646970667358221220a7c6f53b4a9d2c8148a8afea7ac4f6ac6774fce034b306ddcf206a27a9b5961e64736f6c63430008070033",
  "linkReferences": {},
  "deployedLinkReferences": {}
}