{
  "_format": "hh-sol-artifact-1",
  "contractName": "Launchpadv2",
  "sourceName": "contracts/Launchpad/Launchpadv2.sol",
  "abi": [
    {
      "inputs": [
        {
          "internalType": "address",
          "name": "_IUniswapV2Router02",
          "type": "address"
        },
        {
          "internalType": "address",
          "name": "_teamAddr",
          "type": "address"
        },
        {
          "internalType": "address",
          "name": "_devAddr",
          "type": "address"
        }
      ],
      "stateMutability": "nonpayable",
      "type": "constructor"
    },
    {
      "anonymous": false,
      "inputs": [
        {
          "indexed": true,
          "internalType": "address",
          "name": "previousOwner",
          "type": "address"
        },
        {
          "indexed": true,
          "internalType": "address",
          "name": "newOwner",
          "type": "address"
        }
      ],
      "name": "OwnershipTransferred",
      "type": "event"
    },
    {
      "inputs": [
        {
          "components": [
            {
              "internalType": "uint256",
              "name": "id",
              "type": "uint256"
            },
            {
              "internalType": "address",
              "name": "presaleOwner",
              "type": "address"
            },
            {
              "internalType": "enum LaunchPadLib.PreSaleStatus",
              "name": "preSaleStatus",
              "type": "uint8"
            },
            {
              "internalType": "address",
              "name": "preSaleToken",
              "type": "address"
            },
            {
              "internalType": "uint256",
              "name": "decimals",
              "type": "uint256"
            }
          ],
          "internalType": "struct LaunchPadLib.PresaleInfo",
          "name": "_presaleInfo",
          "type": "tuple"
        },
        {
          "components": [
            {
              "internalType": "uint256",
              "name": "tokensForSale",
              "type": "uint256"
            },
            {
              "internalType": "uint256",
              "name": "tokensPCForLP",
              "type": "uint256"
            },
            {
              "internalType": "enum LaunchPadLib.PresaleType",
              "name": "typeOfPresale",
              "type": "uint8"
            },
            {
              "internalType": "uint256",
              "name": "priceOfEachToken",
              "type": "uint256"
            },
            {
              "internalType": "address",
              "name": "criteriaToken",
              "type": "address"
            },
            {
              "internalType": "uint256",
              "name": "minTokensForParticipation",
              "type": "uint256"
            },
            {
              "internalType": "enum LaunchPadLib.RefundType",
              "name": "refundType",
              "type": "uint8"
            }
          ],
          "internalType": "struct LaunchPadLib.ParticipationCriteria",
          "name": "_participationCriteria",
          "type": "tuple"
        },
        {
          "components": [
            {
              "internalType": "uint256",
              "name": "startedAt",
              "type": "uint256"
            },
            {
              "internalType": "uint256",
              "name": "expiredAt",
              "type": "uint256"
            },
            {
              "internalType": "uint256",
              "name": "lpLockupDuration",
              "type": "uint256"
            }
          ],
          "internalType": "struct LaunchPadLib.PresaleTimes",
          "name": "_presaleTimes",
          "type": "tuple"
        },
        {
          "components": [
            {
              "internalType": "uint256",
              "name": "minTokensReq",
              "type": "uint256"
            },
            {
              "internalType": "uint256",
              "name": "maxTokensReq",
              "type": "uint256"
            },
            {
              "internalType": "uint256",
              "name": "softCap",
              "type": "uint256"
            }
          ],
          "internalType": "struct LaunchPadLib.ReqestedTokens",
          "name": "_reqestedTokens",
          "type": "tuple"
        },
        {
          "components": [
            {
              "internalType": "bool",
              "name": "isEnabled",
              "type": "bool"
            },
            {
              "internalType": "uint256",
              "name": "firstReleasePC",
              "type": "uint256"
            },
            {
              "internalType": "uint256",
              "name": "vestingPeriodOfEachCycle",
              "type": "uint256"
            },
            {
              "internalType": "uint256",
              "name": "tokensReleaseEachCyclePC",
              "type": "uint256"
            }
          ],
          "internalType": "struct LaunchPadLib.ContributorsVesting",
          "name": "_contributorsVesting",
          "type": "tuple"
        },
        {
          "components": [
            {
              "internalType": "bool",
              "name": "isEnabled",
              "type": "bool"
            },
            {
              "internalType": "uint256",
              "name": "vestingTokens",
              "type": "uint256"
            },
            {
              "internalType": "uint256",
              "name": "firstReleaseTime",
              "type": "uint256"
            },
            {
              "internalType": "uint256",
              "name": "firstReleasePC",
              "type": "uint256"
            },
            {
              "internalType": "uint256",
              "name": "vestingPeriodOfEachCycle",
              "type": "uint256"
            },
            {
              "internalType": "uint256",
              "name": "tokensReleaseEachCyclePC",
              "type": "uint256"
            }
          ],
          "internalType": "struct LaunchPadLib.TeamVesting",
          "name": "_teamVesting",
          "type": "tuple"
        },
        {
          "components": [
            {
              "internalType": "string",
              "name": "logoURL",
              "type": "string"
            },
            {
              "internalType": "string",
              "name": "websiteURL",
              "type": "string"
            },
            {
              "internalType": "string",
              "name": "twitterURL",
              "type": "string"
            },
            {
              "internalType": "string",
              "name": "telegramURL",
              "type": "string"
            },
            {
              "internalType": "string",
              "name": "discordURL",
              "type": "string"
            },
            {
              "internalType": "string",
              "name": "description",
              "type": "string"
            }
          ],
          "internalType": "struct LaunchPadLib.GeneralInfo",
          "name": "_generalInfo",
          "type": "tuple"
        }
      ],
      "name": "createPresale",
      "outputs": [],
      "stateMutability": "payable",
      "type": "function"
    },
    {
      "inputs": [],
      "name": "devAddr",
      "outputs": [
        {
          "internalType": "address",
          "name": "",
          "type": "address"
        }
      ],
      "stateMutability": "view",
      "type": "function"
    },
    {
      "inputs": [
        {
          "internalType": "address",
          "name": "_address",
          "type": "address"
        }
      ],
      "name": "getPresaleRecordsByToken",
      "outputs": [
        {
          "internalType": "address[]",
          "name": "",
          "type": "address[]"
        }
      ],
      "stateMutability": "view",
      "type": "function"
    },
    {
      "inputs": [],
      "name": "owner",
      "outputs": [
        {
          "internalType": "address",
          "name": "",
          "type": "address"
        }
      ],
      "stateMutability": "view",
      "type": "function"
    },
    {
      "inputs": [],
      "name": "presaleCount",
      "outputs": [
        {
          "internalType": "uint256",
          "name": "",
          "type": "uint256"
        }
      ],
      "stateMutability": "view",
      "type": "function"
    },
    {
      "inputs": [
        {
          "internalType": "uint256",
          "name": "",
          "type": "uint256"
        }
      ],
      "name": "presaleRecordByID",
      "outputs": [
        {
          "internalType": "address",
          "name": "",
          "type": "address"
        }
      ],
      "stateMutability": "view",
      "type": "function"
    },
    {
      "inputs": [],
      "name": "renounceOwnership",
      "outputs": [],
      "stateMutability": "nonpayable",
      "type": "function"
    },
    {
      "inputs": [],
      "name": "salesFeeInPercent",
      "outputs": [
        {
          "internalType": "uint8",
          "name": "",
          "type": "uint8"
        }
      ],
      "stateMutability": "view",
      "type": "function"
    },
    {
      "inputs": [],
      "name": "teamAddr",
      "outputs": [
        {
          "internalType": "address",
          "name": "",
          "type": "address"
        }
      ],
      "stateMutability": "view",
      "type": "function"
    },
    {
      "inputs": [
        {
          "internalType": "address",
          "name": "newOwner",
          "type": "address"
        }
      ],
      "name": "transferOwnership",
      "outputs": [],
      "stateMutability": "nonpayable",
      "type": "function"
    },
    {
      "inputs": [],
      "name": "uniswapV2Router02",
      "outputs": [
        {
          "internalType": "address",
          "name": "",
          "type": "address"
        }
      ],
      "stateMutability": "view",
      "type": "function"
    },
    {
      "inputs": [
        {
          "internalType": "uint256",
          "name": "_upfrontFee",
          "type": "uint256"
        },
        {
          "internalType": "uint8",
          "name": "_salesFeeInPercent",
          "type": "uint8"
        }
      ],
      "name": "updateFees",
      "outputs": [],
      "stateMutability": "nonpayable",
      "type": "function"
    },
    {
      "inputs": [],
      "name": "upfrontfee",
      "outputs": [
        {
          "internalType": "uint256",
          "name": "",
          "type": "uint256"
        }
      ],
      "stateMutability": "view",
      "type": "function"
    },
    {
      "inputs": [],
      "name": "withdrawBNBs",
      "outputs": [],
      "stateMutability": "nonpayable",
      "type": "function"
    },
    {
      "stateMutability": "payable",
      "type": "receive"
    }
  ],
  "bytecode": "0x6080604052600060015565b5e620f4800060029081556003805460ff191690911790553480156200002f57600080fd5b506040516200608d3803806200608d833981016040819052620000529162000116565b6200005d33620000a9565b600380546001600160a01b0394851661010002610100600160a81b0319909116179055600480549284166001600160a01b03199384161790556005805491909316911617905562000160565b600080546001600160a01b038381166001600160a01b0319831681178455604051919092169283917f8be0079c531659141344cd1fd0a4f28419497f9722a3daafe3b4186f6b6457e09190a35050565b80516001600160a01b03811681146200011157600080fd5b919050565b6000806000606084860312156200012c57600080fd5b6200013784620000f9565b92506200014760208501620000f9565b91506200015760408501620000f9565b90509250925092565b615f1d80620001706000396000f3fe608060405260043610620000d15760003560e01c8063cb9728e71162000078578063cb9728e714620001fc578063cde27a351462000213578063da09c72c146200023a578063da3606be146200025c578063dc5744ad1462000281578063eec5dab714620002b0578063f2fde38b14620002c857600080fd5b806332661af714620000de5780634a5ff74914620000f8578063715018a6146200013757806376130324146200014f5780638da5cb5b1462000189578063a7c6402c14620001a1578063acc3ba8814620001c857600080fd5b36620000d957005b600080fd5b348015620000eb57600080fd5b50620000f6620002ed565b005b3480156200010557600080fd5b506004546200011a906001600160a01b031681565b6040516001600160a01b0390911681526020015b60405180910390f35b3480156200014457600080fd5b50620000f6620004e4565b3480156200015c57600080fd5b506200011a6200016e366004620013d6565b6006602052600090815260409020546001600160a01b031681565b3480156200019657600080fd5b506200011a62000526565b348015620001ae57600080fd5b506003546200011a9061010090046001600160a01b031681565b348015620001d557600080fd5b50620001ed620001e73660046200127a565b62000535565b6040516200012e919062001598565b620000f66200020d366004620012bf565b620005ad565b3480156200022057600080fd5b506200022b60015481565b6040519081526020016200012e565b3480156200024757600080fd5b506005546200011a906001600160a01b031681565b3480156200026957600080fd5b50620000f66200027b366004620013f0565b62000d6a565b3480156200028e57600080fd5b506003546200029d9060ff1681565b60405160ff90911681526020016200012e565b348015620002bd57600080fd5b506200022b60025481565b348015620002d557600080fd5b50620000f6620002e73660046200127a565b62000db9565b33620002f862000526565b6001600160a01b0316146200032a5760405162461bcd60e51b81526004016200032190620015e7565b60405180910390fd5b4780620003705760405162461bcd60e51b81526020600482015260136024820152726e6f7468696e6720746f20776974686472617760681b604482015260640162000321565b6000606462000381836046620018fb565b6200038d9190620017d1565b6004546040519192506000916001600160a01b039091169083908381818185875af1925050503d8060008114620003e1576040519150601f19603f3d011682016040523d82523d6000602084013e620003e6565b606091505b5050905080620004325760405162461bcd60e51b815260206004820152601660248201527563616e6e6f742073656e64207465616d20536861726560501b604482015260640162000321565b6005546000906001600160a01b03166200044d84866200191d565b604051600081818185875af1925050503d80600081146200048b576040519150601f19603f3d011682016040523d82523d6000602084013e62000490565b606091505b5050905080620004de5760405162461bcd60e51b815260206004820152601860248201527763616e6e6f742073656e64206465765465616d536861726560401b604482015260640162000321565b50505050565b33620004ef62000526565b6001600160a01b031614620005185760405162461bcd60e51b81526004016200032190620015e7565b62000524600062000e62565b565b6000546001600160a01b031690565b6001600160a01b038116600090815260076020908152604091829020805483518184028101840190945280845260609392830182828015620005a157602002820191906000526020600020905b81546001600160a01b0316815260019091019060200180831162000582575b50505050509050919050565b60608701516001600160a01b0316620006175760405162461bcd60e51b815260206004820152602560248201527f50726573616c652070726f6a65637420616464726573732063616e2774206265604482015264081b9d5b1b60da1b606482015260840162000321565b6002866040015160028111156200063257620006326200196b565b1415620006a15760808601516001600160a01b0316620006a15760405162461bcd60e51b8152602060048201526024808201527f437269746572696120746f6b656e20616464726573732063616e2774206265206044820152631b9d5b1b60e21b606482015260840162000321565b8151156200070f5760008260200151116200070f5760405162461bcd60e51b815260206004820152602760248201527f56657374696e6720746f6b656e732073686f756c64206265206d6f7265207468604482015266616e207a65726f60c81b606482015260840162000321565b60328660200151101580156200072a5750605f866020015111155b620007895760405162461bcd60e51b815260206004820152602860248201527f6c69717569646974792073686f756c64206265206174206c6561737420353025604482015267206f72206d6f726560c01b606482015260840162000321565b8351620007e85760405162461bcd60e51b815260206004820152602660248201527f5f6d696e546f6b656e735265712073686f756c64206265206d6f7265207468616044820152656e207a65726f60d01b606482015260840162000321565b83516020850151116200083e5760405162461bcd60e51b815260206004820152601d60248201527f5f6d6178546f6b656e73526571203e205f6d696e546f6b656e73526571000000604482015260640162000321565b85516200084e90600290620017d1565b84604001511015620008b25760405162461bcd60e51b815260206004820152602660248201527f736f66746361702073686f756c64206265206174206c6561737420353025206f60448201526572206d6f726560d01b606482015260840162000321565b84514210620009135760405162461bcd60e51b815260206004820152602660248201527f7374617274656441742073686f756c64206265206d6f7265207468616e2066726044820152656f6d206e6f7760d01b606482015260840162000321565b8451602086015111620009805760405162461bcd60e51b815260206004820152602e60248201527f6578706972656441742073686f756c64206265206d6f7265207468616e206f6e60448201526d65206461792066726f6d206e6f7760901b606482015260840162000321565b6000856040015111620009f45760405162461bcd60e51b815260206004820152603560248201527f4c6f636b757020706572696f642073686f756c64206265202037206f72206d6f604482015274726520646179732066726f6d206e6f772074696d6560581b606482015260840162000321565b6000866060015111801562000a095750855115155b62000a725760405162461bcd60e51b815260206004820152603260248201527f507269636520616e6420546f6b656e7320666f722073616c652073686f756c65604482015271206265206d6f7265207468616e207a65726f60701b606482015260840162000321565b62000a7c62000526565b6001600160a01b0316336001600160a01b03161462000ae95760025434101562000ae95760405162461bcd60e51b815260206004820152601b60248201527f496e73756666696369656e742066756e647320746f2073746172740000000000604482015260640162000321565b6001805490600062000afb8362001937565b9091555050600154875233602088015260006040808901829052600354905160ff8216918a918a918a918a9161010090046001600160a01b0316908a908a908a9062000b479062000eb2565b62000b5b999897969594939291906200161c565b604051809103906000f08015801562000b78573d6000803e3d6000fd5b50905060008860800151600a62000b9091906200183d565b885162000b9e9190620018fb565b90506000606489602001518362000bb69190620018fb565b62000bc29190620017d1565b905060008a60800151600a62000bd991906200183d565b866020015162000bea9190620018fb565b905060008162000bfb8486620017b6565b62000c079190620017b6565b60608d01516040516323b872dd60e01b81523360048201526001600160a01b038881166024830152604482018490529293509116906323b872dd90606401602060405180830381600087803b15801562000c6057600080fd5b505af115801562000c75573d6000803e3d6000fd5b505050506040513d601f19601f8201168201806040525081019062000c9b91906200129f565b62000d035760405162461bcd60e51b815260206004820152603160248201527f556e61626c6520746f207472616e736665722070726573616c6520746f6b656e6044820152701cc81d1bc81d1a194818dbdb9d1c9858dd607a1b606482015260840162000321565b5050506060909801516001600160a01b039081166000908152600760209081526040808320805460018181018355918552838520018054969095166001600160a01b0319968716811790955554835260069091529020805490921617905550505050505050565b3362000d7562000526565b6001600160a01b03161462000d9e5760405162461bcd60e51b81526004016200032190620015e7565b6002919091556003805460ff191660ff909216919091179055565b3362000dc462000526565b6001600160a01b03161462000ded5760405162461bcd60e51b81526004016200032190620015e7565b6001600160a01b03811662000e545760405162461bcd60e51b815260206004820152602660248201527f4f776e61626c653a206e6577206f776e657220697320746865207a65726f206160448201526564647265737360d01b606482015260840162000321565b62000e5f8162000e62565b50565b600080546001600160a01b038381166001600160a01b0319831681178455604051919092169283917f8be0079c531659141344cd1fd0a4f28419497f9722a3daafe3b4186f6b6457e09190a35050565b61454180620019a783390190565b80356001600160a01b038116811462000ed857600080fd5b919050565b80356002811062000ed857600080fd5b600082601f83011262000eff57600080fd5b81356001600160401b038082111562000f1c5762000f1c62001981565b604051601f8301601f19908116603f0116810190828211818310171562000f475762000f4762001981565b8160405283815286602085880101111562000f6157600080fd5b836020870160208301376000602085830101528094505050505092915050565b60006080828403121562000f9457600080fd5b604051608081018181106001600160401b038211171562000fb95762000fb962001981565b604052905080823562000fcc8162001997565b808252506020830135602082015260408301356040820152606083013560608201525092915050565b600060c082840312156200100857600080fd5b6200101262001766565b905081356001600160401b03808211156200102c57600080fd5b6200103a8583860162000eed565b835260208401359150808211156200105157600080fd5b6200105f8583860162000eed565b602084015260408401359150808211156200107957600080fd5b620010878583860162000eed565b60408401526060840135915080821115620010a157600080fd5b620010af8583860162000eed565b60608401526080840135915080821115620010c957600080fd5b620010d78583860162000eed565b608084015260a0840135915080821115620010f157600080fd5b50620011008482850162000eed565b60a08301525092915050565b600060e082840312156200111f57600080fd5b60405160e081018181106001600160401b038211171562001144576200114462001981565b806040525080915082358152602083013560208201526040830135600381106200116d57600080fd5b6040820152606083810135908201526200118a6080840162000ec0565b608082015260a083013560a0820152620011a760c0840162000edd565b60c08201525092915050565b600060608284031215620011c657600080fd5b604051606081018181106001600160401b0382111715620011eb57620011eb62001981565b80604052508091508235815260208301356020820152604083013560408201525092915050565b600060c082840312156200122557600080fd5b6200122f62001766565b905081356200123e8162001997565b808252506020820135602082015260408201356040820152606082013560608201526080820135608082015260a082013560a082015292915050565b6000602082840312156200128d57600080fd5b620012988262000ec0565b9392505050565b600060208284031215620012b257600080fd5b8151620012988162001997565b60008060008060008060008789036103a0811215620012dd57600080fd5b60a0811215620012ec57600080fd5b50620012f762001791565b883581526200130960208a0162000ec0565b60208201526040890135600581106200132157600080fd5b60408201526200133460608a0162000ec0565b6060820152608089810135908201529650620013548960a08a016200110c565b955062001366896101808a01620011b3565b945062001378896101e08a01620011b3565b93506200138a896102408a0162000f81565b92506200139c896102c08a0162001212565b91506103808801356001600160401b03811115620013b957600080fd5b620013c78a828b0162000ff5565b91505092959891949750929550565b600060208284031215620013e957600080fd5b5035919050565b600080604083850312156200140457600080fd5b82359150602083013560ff811681146200141d57600080fd5b809150509250929050565b6000815180845260005b81811015620014505760208185018101518683018201520162001432565b8181111562001463576000602083870101525b50601f01601f19169290920160200192915050565b6000815160c084526200148f60c085018262001428565b905060208301518482036020860152620014aa828262001428565b91505060408301518482036040860152620014c6828262001428565b91505060608301518482036060860152620014e2828262001428565b91505060808301518482036080860152620014fe828262001428565b91505060a083015184820360a08601526200151a828262001428565b95945050505050565b80518252602081015160208301526040810151600381106200154957620015496200196b565b6040830152606081810151908301526080808201516001600160a01b03169083015260a0808201519083015260c0810151600281106200158d576200158d6200196b565b8060c0840152505050565b6020808252825182820181905260009190848201906040850190845b81811015620015db5783516001600160a01b031683529284019291840191600101620015b4565b50909695505050505050565b6020808252818101527f4f776e61626c653a2063616c6c6572206973206e6f7420746865206f776e6572604082015260600190565b60006103e060ff8c1683528a51602084015260208b015160018060a01b03808216604086015260408d01519150600582106200165c576200165c6200196b565b8160608601528060608e0151166080860152505060808b015160a08401526200168960c084018b62001523565b88516101a084015260208901516101c084015260408901516101e08401528751610200840152602088015161022084015260408801516102408401526001600160a01b0387166102608401528551151561028084015260208601516102a084015260408601516102c084015260608601516102e084015284511515610300840152602085015161032084015260408501516103408401526060850151610360840152608085015161038084015260a08501516103a0840152806103c0840152620017568184018562001478565b9c9b505050505050505050505050565b60405160c081016001600160401b03811182821017156200178b576200178b62001981565b60405290565b60405160a081016001600160401b03811182821017156200178b576200178b62001981565b60008219821115620017cc57620017cc62001955565b500190565b600082620017ef57634e487b7160e01b600052601260045260246000fd5b500490565b600181815b808511156200183557816000190482111562001819576200181962001955565b808516156200182757918102915b93841c9390800290620017f9565b509250929050565b60006200129883836000826200185657506001620018f5565b816200186557506000620018f5565b81600181146200187e57600281146200188957620018a9565b6001915050620018f5565b60ff8411156200189d576200189d62001955565b50506001821b620018f5565b5060208310610133831016604e8410600b8410161715620018ce575081810a620018f5565b620018da8383620017f4565b8060001904821115620018f157620018f162001955565b0290505b92915050565b600081600019048311821515161562001918576200191862001955565b500290565b60008282101562001932576200193262001955565b500390565b60006000198214156200194e576200194e62001955565b5060010190565b634e487b7160e01b600052601160045260246000fd5b634e487b7160e01b600052602160045260246000fd5b634e487b7160e01b600052604160045260246000fd5b801515811462000e5f57600080fdfe60a06040526000602b556000602f553480156200001b57600080fd5b5060405162004541380380620045418339810160408190526200003e9162000c76565b33606090811b60809081526002805460ff8d1660ff19909116179055604080519182018152895180835260006020808501829052848401829052939094018490526014556015839055601683905560179290925589516003908155908a0151600480546001600160a01b03929092166001600160a01b0319831681178255938c01518c9490926001600160a81b03191617600160a01b8383811115620000e857620000e862000f27565b02179055506060820151600282810180546001600160a01b0319166001600160a01b03909316929092179091556080909201516003909101558751600790815560208901516008556040890151600980548b9460ff1990911690600190849081111562000159576200015962000f27565b02179055506060820151600382015560808201516004820180546001600160a01b0319166001600160a01b0390921691909117905560a0820151600582015560c082015160068201805460ff191660018381811115620001bd57620001bd62000f27565b0217905550508651600e5550602080870151600f5560408088015160105586516011558682015160125586810151601355600280546001600160a01b03881661010002610100600160a81b03199091161790558451601f805491151560ff199283161790558583015183558582015160215560608087015160225585516023805491151591909316179091558483015160245590840151602555830151602655608083015160275560a08301516028558151805183926018926200028892849291909101906200080b565b506020828101518051620002a392600185019201906200080b565b5060408201518051620002c19160028401916020909101906200080b565b5060608201518051620002df9160038401916020909101906200080b565b5060808201518051620002fd9160048401916020909101906200080b565b5060a082015180516200031b9160058401916020909101906200080b565b505083511590506200033257620003328362000354565b8151156200034557620003458262000533565b50505050505050505062000f53565b602080820151604080516080810182526000808252818501818152606493830184815260608401868152928052602a90965291517f25a1a901705ed15d5376e82511cff743d9474883c82d145cebcc7811e0424a9c5590517f25a1a901705ed15d5376e82511cff743d9474883c82d145cebcc7811e0424a9d5592517f25a1a901705ed15d5376e82511cff743d9474883c82d145cebcc7811e0424a9e5591517f25a1a901705ed15d5376e82511cff743d9474883c82d145cebcc7811e0424a9f55818110156200052e5760006200042d828462000e9c565b905083606001518362000441919062000e57565b602b55600060015b602b548111620004ea5760006200046282603c62000e7a565b876040015162000473919062000e7a565b60408051608081018252848152602080820184815282840189815260608d8101805191860191825260008a8152602a9095529590932093518455905160018401555160028301555160039091015551909150620004d1908462000e3c565b9250508080620004e19062000ef3565b91505062000449565b506000620004f9828662000e9c565b905080602a6000602b548152602001908152602001600020600301600082825462000525919062000e3c565b90915550505050505b505050565b60608101516040820151606491906000906200055190603c62000e7a565b90506040518060a0016040528060008152602001828152602001848152602001838152602001600060018111156200058d576200058d62000f27565b905260008052602e602090815281517f5f2b51c23aa64fc2445ffee23e9f4db80c998ca5b1b72e6b1c86169cbbc084be908155908201517f5f2b51c23aa64fc2445ffee23e9f4db80c998ca5b1b72e6b1c86169cbbc084bf5560408201517f5f2b51c23aa64fc2445ffee23e9f4db80c998ca5b1b72e6b1c86169cbbc084c05560608201517f5f2b51c23aa64fc2445ffee23e9f4db80c998ca5b1b72e6b1c86169cbbc084c15560808201517f5f2b51c23aa64fc2445ffee23e9f4db80c998ca5b1b72e6b1c86169cbbc084c2805460ff19166001838181111562000676576200067662000f27565b02179055505050828210156200080557600062000694838562000e9c565b90508460a0015184620006a8919062000e57565b602f55600060015b602f548111620007c1576000620006c982603c62000e7a565b8860800151620006da919062000e7a565b620006e6908662000e3c565b90506040518060a001604052808381526020018281526020018581526020018960a0015181526020016000600181111562000725576200072562000f27565b815250602e60008481526020019081526020016000206000820151816000015560208201518160010155604082015181600201556060820151816003015560808201518160040160006101000a81548160ff0219169083600181111562000790576200079062000f27565b0217905550505060a0880151620007a8908462000e3c565b9250508080620007b89062000ef3565b915050620006b0565b506000620007d0828762000e9c565b905080602e6000602f5481526020019081526020016000206003016000828254620007fc919062000e3c565b90915550505050505b50505050565b828054620008199062000eb6565b90600052602060002090601f0160209004810192826200083d576000855562000888565b82601f106200085857805160ff191683800117855562000888565b8280016001018555821562000888579182015b82811115620008885782518255916020019190600101906200086b565b50620008969291506200089a565b5090565b5b808211156200089657600081556001016200089b565b80516001600160a01b0381168114620008c957600080fd5b919050565b80518015158114620008c957600080fd5b805160028110620008c957600080fd5b600082601f8301126200090157600080fd5b81516001600160401b038111156200091d576200091d62000f3d565b602062000933601f8301601f1916820162000e09565b82815285828487010111156200094857600080fd5b60005b83811015620009685785810183015182820184015282016200094b565b838111156200097a5760008385840101525b5095945050505050565b6000608082840312156200099757600080fd5b604051608081016001600160401b0381118282101715620009bc57620009bc62000f3d565b604052905080620009cd83620008ce565b81526020830151602082015260408301516040820152606083015160608201525092915050565b600060c0828403121562000a0757600080fd5b62000a1162000dde565b82519091506001600160401b038082111562000a2c57600080fd5b62000a3a85838601620008ef565b8352602084015191508082111562000a5157600080fd5b62000a5f85838601620008ef565b6020840152604084015191508082111562000a7957600080fd5b62000a8785838601620008ef565b6040840152606084015191508082111562000aa157600080fd5b62000aaf85838601620008ef565b6060840152608084015191508082111562000ac957600080fd5b62000ad785838601620008ef565b608084015260a084015191508082111562000af157600080fd5b5062000b0084828501620008ef565b60a08301525092915050565b600060e0828403121562000b1f57600080fd5b60405160e081016001600160401b038111828210171562000b445762000b4462000f3d565b8060405250809150825181526020830151602082015260408301516003811062000b6d57600080fd5b60408201526060838101519082015262000b8a60808401620008b1565b608082015260a083015160a082015262000ba760c08401620008df565b60c08201525092915050565b60006060828403121562000bc657600080fd5b604051606081016001600160401b038111828210171562000beb5762000beb62000f3d565b80604052508091508251815260208301516020820152604083015160408201525092915050565b600060c0828403121562000c2557600080fd5b62000c2f62000dde565b905062000c3c82620008ce565b81526020820151602082015260408201516040820152606082015160608201526080820151608082015260a082015160a082015292915050565b6000806000806000806000806000898b036103e081121562000c9757600080fd5b8a5160ff8116811462000ca957600080fd5b995060a0601f198201121562000cbe57600080fd5b5060405160a081016001600160401b03808211838310171562000ce55762000ce562000f3d565b8160405260208d0151835262000cfe60408e01620008b1565b602084015260608d015191506005821062000d1857600080fd5b81604084015262000d2c60808e01620008b1565b606084015260a08d01516080840152829a5062000d4d8e60c08f0162000b0c565b995062000d5f8e6101a08f0162000bb3565b985062000d718e6102008f0162000bb3565b975062000d826102608e01620008b1565b965062000d948e6102808f0162000984565b955062000da68e6103008f0162000c12565b94506103c08d015192508083111562000dbe57600080fd5b505062000dce8c828d01620009f4565b9150509295985092959850929598565b60405160c081016001600160401b038111828210171562000e035762000e0362000f3d565b60405290565b604051601f8201601f191681016001600160401b038111828210171562000e345762000e3462000f3d565b604052919050565b6000821982111562000e525762000e5262000f11565b500190565b60008262000e7557634e487b7160e01b600052601260045260246000fd5b500490565b600081600019048311821515161562000e975762000e9762000f11565b500290565b60008282101562000eb15762000eb162000f11565b500390565b600181811c9082168062000ecb57607f821691505b6020821081141562000eed57634e487b7160e01b600052602260045260246000fd5b50919050565b600060001982141562000f0a5762000f0a62000f11565b5060010190565b634e487b7160e01b600052601160045260246000fd5b634e487b7160e01b600052602160045260246000fd5b634e487b7160e01b600052604160045260246000fd5b60805160601c6135c162000f806000396000818161068201528181611cbc015261223201526135c16000f3fe6080604052600436106101985760003560e01c806382cde82c116100e2578063da15309a11610085578063da15309a14610604578063db2e21bc1461061a578063dc5744ad1461062f578063e7e104901461065b578063ee97f7f314610670578063f968f493146106a4578063fdc6acf8146106b9578063ff3a3141146106d957600080fd5b806382cde82c146104ac5780639e8f4d65146104cc5780639fa6f2f91461052e578063a0a6e94014610551578063a663ea8c14610566578063a7c6402c14610593578063b96f2120146105c5578063bf9e3063146105e557600080fd5b80632fff7af51161014a5780632fff7af5146102c4578063475fda0e146102e85780634d7459e014610308578063564e1cc414610359578063619f3d6c146103b75780637781c35e1461041457806378caf7541461042a57806381be40491461047257600080fd5b806309cba0f71461019d57806312949b5a146101b4578063173434fa146101c7578063243bae52146101dc57806325a6c545146102075780632605b3c71461022e5780632edf086914610277575b600080fd5b3480156101a957600080fd5b506101b26106ef565b005b6101b26101c2366004612e5f565b610aee565b3480156101d357600080fd5b506101b2611059565b3480156101e857600080fd5b506101f1611642565b6040516101fe9190612f69565b60405180910390f35b34801561021357600080fd5b5061021c611653565b6040516101fe96959493929190612fc9565b34801561023a57600080fd5b50610262610249366004612be4565b6029602052600090815260409020805460019091015482565b604080519283526020830191909152016101fe565b34801561028357600080fd5b506003546004546005546006546102b393926001600160a01b0380821693600160a01b90920460ff169291169085565b6040516101fe9594939291906131e6565b3480156102d057600080fd5b506102da602f5481565b6040519081526020016101fe565b3480156102f457600080fd5b506101b2610303366004612c1e565b6119ab565b34801561031457600080fd5b50600754600854600954600a54600b54600c54600d5461034696959460ff90811694936001600160a01b031692911687565b6040516101fe979695949392919061322d565b34801561036557600080fd5b506103a6610374366004612e5f565b602e60205260009081526040902080546001820154600283015460038401546004909401549293919290919060ff1685565b6040516101fe95949392919061328a565b3480156103c357600080fd5b506023546024546025546026546027546028546103e59560ff16949392919086565b6040805196151587526020870195909552938501929092526060840152608083015260a082015260c0016101fe565b34801561042057600080fd5b506102da602c5481565b34801561043657600080fd5b50601f546020546021546022546104509360ff1692919084565b60408051941515855260208501939093529183015260608201526080016101fe565b34801561047e57600080fd5b5060115460125460135461049192919083565b604080519384526020840192909252908201526060016101fe565b3480156104b857600080fd5b506101b26104c7366004612d3e565b611a18565b3480156104d857600080fd5b5061050e6104e7366004612e5f565b602a6020526000908152604090208054600182015460028301546003909301549192909184565b6040805194855260208501939093529183015260608201526080016101fe565b34801561053a57600080fd5b5060145460155460165460175461050e9392919084565b34801561055d57600080fd5b506101b2611ac1565b34801561057257600080fd5b50610586610581366004612e91565b611fdf565b6040516101fe9190612fb6565b34801561059f57600080fd5b506002546105b89061010090046001600160a01b031681565b6040516101fe9190612f3c565b3480156105d157600080fd5b506101b26105e0366004612c1e565b61200c565b3480156105f157600080fd5b50600e54600f5460105461049192919083565b34801561061057600080fd5b506102da601e5481565b34801561062657600080fd5b506101b2612079565b34801561063b57600080fd5b506002546106499060ff1681565b60405160ff90911681526020016101fe565b34801561066757600080fd5b506101b26122cc565b34801561067c57600080fd5b506105b87f000000000000000000000000000000000000000000000000000000000000000081565b3480156106b057600080fd5b506101b26123f9565b3480156106c557600080fd5b506101b26106d4366004612cf9565b6126b4565b3480156106e557600080fd5b506102da602b5481565b6004546001600160a01b031633146107225760405162461bcd60e51b8152600401610719906130e3565b60405180910390fd5b600260048054600160a01b900460ff16908111156107425761074261350e565b148061076b5750600360048054600160a01b900460ff16908111156107695761076961350e565b145b8061079257506004808054600160a01b900460ff16908111156107905761079061350e565b145b6107ae5760405162461bcd60e51b8152600401610719906130ac565b6000600260019054906101000a90046001600160a01b03166001600160a01b031663c45a01556040518163ffffffff1660e01b815260040160206040518083038186803b1580156107fe57600080fd5b505afa158015610812573d6000803e3d6000fd5b505050506040513d601f19601f820116820180604052508101906108369190612c01565b90506000600260019054906101000a90046001600160a01b03166001600160a01b031663ad5c46486040518163ffffffff1660e01b815260040160206040518083038186803b15801561088857600080fd5b505afa15801561089c573d6000803e3d6000fd5b505050506040513d601f19601f820116820180604052508101906108c09190612c01565b60055460405163e6a4390560e01b81526001600160a01b03918216600482015281831660248201529192506000919084169063e6a439059060440160206040518083038186803b15801561091357600080fd5b505afa158015610927573d6000803e3d6000fd5b505050506040513d601f19601f8201168201806040525081019061094b9190612c01565b90506000816001600160a01b03166370a08231306040518263ffffffff1660e01b815260040161097b9190612f3c565b60206040518083038186803b15801561099357600080fd5b505afa1580156109a7573d6000803e3d6000fd5b505050506040513d601f19601f820116820180604052508101906109cb9190612e78565b9050600081116109ed5760405162461bcd60e51b81526004016107199061304b565b601054602c546109fd919061331a565b421015610a3f5760405162461bcd60e51b815260206004820152601060248201526f139bdd081d5b9b1bd8dad959081e595d60821b6044820152606401610719565b6004805460405163a9059cbb60e01b81526000926001600160a01b038087169363a9059cbb93610a76939190921691879101612f50565b602060405180830381600087803b158015610a9057600080fd5b505af1158015610aa4573d6000803e3d6000fd5b505050506040513d601f19601f82011682018060405250810190610ac89190612cd7565b905080610ae75760405162461bcd60e51b815260040161071990613133565b5050505050565b600e54421015610b4e5760405162461bcd60e51b815260206004820152602560248201527f50726573616c65206861736e277420626567696e207965742e20706c65617365604482015264081dd85a5d60da1b6064820152608401610719565b600f544210610b9f5760405162461bcd60e51b815260206004820152601e60248201527f50726573616c65206973206f7665722e20547279206e6578742074696d6500006044820152606401610719565b600060048054600160a01b900460ff1690811115610bbf57610bbf61350e565b1415610bd9576004805460ff60a01b1916600160a01b1790555b600160048054600160a01b900460ff1690811115610bf957610bf961350e565b14610c165760405162461bcd60e51b815260040161071990613075565b336000908152602960209081526040918290208251808401909352805483526001015490820152600a54610c4a908361343f565b341015610c8e5760405162461bcd60e51b8152602060048201526012602482015271696e73756666696369656e742066756e647360701b6044820152606401610719565b601454610cd45760405162461bcd60e51b81526020600482015260146024820152731d1a19481cd85b19481a5cc81cdbdb19081bdd5d60621b6044820152606401610719565b601454821115610d385760405162461bcd60e51b815260206004820152602960248201527f696e73756666696369656e7420746f6b656e7320746f2066756c66696c6c20746044820152683434b99037b93232b960b91b6064820152608401610719565b600160095460ff166002811115610d5157610d5161350e565b1415610dc857610d6260003361276c565b610dc85760405162461bcd60e51b815260206004820152603160248201527f4f6e6c792077686974656c69737465642075736572732061726520616c6c6f77604482015270656420746f20706172746963697061746560781b6064820152608401610719565b600260095460ff166002811115610de157610de161350e565b1415610ec657600c54600b546040516370a0823160e01b81526001600160a01b03909116906370a0823190610e1a903390600401612f3c565b60206040518083038186803b158015610e3257600080fd5b505afa158015610e46573d6000803e3d6000fd5b505050506040513d601f19601f82011682018060405250810190610e6a9190612e78565b1015610ec65760405162461bcd60e51b815260206004820152602560248201527f596f7520646f6e277420686f6c6420656e6f75676820637269746572696120746044820152646f6b656e7360d81b6064820152608401610719565b6020810151610f5f57601154821015610f49576040805162461bcd60e51b81526020600482015260248101919091527f5265717565737420666f7220746f6b656e73206973206c6f772c20506c65617360448201527f652072657175657374206d6f7265207468616e206d696e546f6b656e735265716064820152608401610719565b60168054906000610f59836134c7565b91905055505b6012546020820151610f71908461331a565b1115610fef5760405162461bcd60e51b815260206004820152604160248201527f5265717565737420666f7220746f6b656e7320697320686967682c20506c656160448201527f73652072657175657374206c657373207468616e206d6178546f6b656e7352656064820152607160f81b608482015260a401610719565b601554610ffd90349061331a565b60155560145461100e90839061345e565b601455805161101e90349061331a565b3360009081526029602090815260409091209190915581015161104290839061331a565b336000908152602960205260409020600101555050565b600260048054600160a01b900460ff16908111156110795761107961350e565b14806110a25750600360048054600160a01b900460ff16908111156110a0576110a061350e565b145b806110c957506004808054600160a01b900460ff16908111156110c7576110c761350e565b145b6110e55760405162461bcd60e51b8152600401610719906130ac565b33600090815260296020908152604091829020825180840190935280548084526001909101549183019190915261112e5760405162461bcd60e51b81526004016107199061304b565b600260048054600160a01b900460ff169081111561114e5761114e61350e565b141561154e57601f5460ff166112df57336000908152602960205260408120600181018290558190556017805491611185836134c7565b919050555060008160200151116111d35760405162461bcd60e51b81526020600482015260126024820152714e6f20746f6b656e7320746f20636c61696d60701b6044820152606401610719565b6005546006546000916001600160a01b03169063a9059cbb9033906111f990600a613397565b8560200151611208919061343f565b6040518363ffffffff1660e01b8152600401611225929190612f50565b602060405180830381600087803b15801561123f57600080fd5b505af1158015611253573d6000803e3d6000fd5b505050506040513d601f19601f820116820180604052508101906112779190612cd7565b9050806112db5760405162461bcd60e51b815260206004820152602c60248201527f556e61626c6520746f207472616e7366657220746f6b656e7320746f2074686560448201526b081c185c9d1a58da5c185b9d60a21b6064820152608401610719565b5050565b6006546000906112f090600a613397565b82602001516112ff919061343f565b90506000805b602b548111611488576000818152602a6020526040902060010154602c5461132d919061331a565b421015801561138e5750600080828152602a6020526040812060010154602c54602d929161135a9161331a565b81526020808201929092526040908101600090812033825290925290205460ff16600181111561138c5761138c61350e565b145b15611476576000818152602a60205260409020600381015460029091015461271091906113bb908661343f565b6113c5919061343f565b6113cf9190613332565b6113d9908361331a565b91506001602d6000602a600085815260200190815260200160002060010154602c54611405919061331a565b8152602080820192909252604090810160009081203382529092529020805460ff19166001838181111561143b5761143b61350e565b0217905550602b54811415611476573360009081526029602052604081208181556001018190556017805491611470836134c7565b91905055505b80611480816134c7565b915050611305565b50600081116114a95760405162461bcd60e51b8152600401610719906131bb565b60055460405163a9059cbb60e01b81526001600160a01b039091169063a9059cbb906114db9033908590600401612f50565b602060405180830381600087803b1580156114f557600080fd5b505af1158015611509573d6000803e3d6000fd5b505050506040513d601f19601f8201168201806040525081019061152d9190612cd7565b6115495760405162461bcd60e51b815260040161071990613133565b505050565b336000908152602960205260408120600181018290558190556017805491611575836134c7565b909155505080516115be5760405162461bcd60e51b8152602060048201526013602482015272139bc8185b5bdd5b9d081d1bc81c99599d5b99606a1b6044820152606401610719565b8051604051600091339181156108fc02919084818181858888f193505050509050806112db5760405162461bcd60e51b815260206004820152602a60248201527f556e61626c6520746f20726566756e6420616d6f756e7420746f207468652070604482015269185c9d1a58da5c185b9d60b21b6064820152608401610719565b50565b606061164e6000612791565b905090565b6018805481906116629061348c565b80601f016020809104026020016040519081016040528092919081815260200182805461168e9061348c565b80156116db5780601f106116b0576101008083540402835291602001916116db565b820191906000526020600020905b8154815290600101906020018083116116be57829003601f168201915b5050505050908060010180546116f09061348c565b80601f016020809104026020016040519081016040528092919081815260200182805461171c9061348c565b80156117695780601f1061173e57610100808354040283529160200191611769565b820191906000526020600020905b81548152906001019060200180831161174c57829003601f168201915b50505050509080600201805461177e9061348c565b80601f01602080910402602001604051908101604052809291908181526020018280546117aa9061348c565b80156117f75780601f106117cc576101008083540402835291602001916117f7565b820191906000526020600020905b8154815290600101906020018083116117da57829003601f168201915b50505050509080600301805461180c9061348c565b80601f01602080910402602001604051908101604052809291908181526020018280546118389061348c565b80156118855780601f1061185a57610100808354040283529160200191611885565b820191906000526020600020905b81548152906001019060200180831161186857829003601f168201915b50505050509080600401805461189a9061348c565b80601f01602080910402602001604051908101604052809291908181526020018280546118c69061348c565b80156119135780601f106118e857610100808354040283529160200191611913565b820191906000526020600020905b8154815290600101906020018083116118f657829003601f168201915b5050505050908060050180546119289061348c565b80601f01602080910402602001604051908101604052809291908181526020018280546119549061348c565b80156119a15780601f10611976576101008083540402835291602001916119a1565b820191906000526020600020905b81548152906001019060200180831161198457829003601f168201915b5050505050905086565b6004546001600160a01b031633146119d55760405162461bcd60e51b8152600401610719906130e3565b60005b81518110156112db57611a0560008383815181106119f8576119f861353a565b602002602001015161279e565b5080611a10816134c7565b9150506119d8565b805180518291601891611a32918391602090910190612adb565b506020828101518051611a4b9260018501920190612adb565b5060408201518051611a67916002840191602090910190612adb565b5060608201518051611a83916003840191602090910190612adb565b5060808201518051611a9f916004840191602090910190612adb565b5060a08201518051611abb916005840191602090910190612adb565b50505050565b6004546001600160a01b03163314611aeb5760405162461bcd60e51b8152600401610719906130e3565b600160048054600160a01b900460ff1690811115611b0b57611b0b61350e565b1480611b345750600060048054600160a01b900460ff1690811115611b3257611b3261350e565b145b611b505760405162461bcd60e51b815260040161071990613075565b600f54421180611b605750601454155b611ba65760405162461bcd60e51b8152602060048201526017602482015276141c995cd85b19481a5cc81b9bdd081bdd995c881e595d604a1b6044820152606401610719565b601454600754600091611bb89161345e565b6013549091508110611f4357600854600090606490611bd7908461343f565b611be19190613332565b60155460085491925090600090606490611bfb908461343f565b611c059190613332565b600254909150600090606490611c1e9060ff168561343f565b611c289190613332565b90506000611c36828461331a565b611c40908561345e565b6004546040519192506000916001600160a01b039091169083908381818185875af1925050503d8060008114611c92576040519150601f19603f3d011682016040523d82523d6000602084013e611c97565b606091505b5050905080611cb85760405162461bcd60e51b815260040161071990613189565b60007f00000000000000000000000000000000000000000000000000000000000000006001600160a01b03168460405160006040518083038185875af1925050503d8060008114611d25576040519150601f19603f3d011682016040523d82523d6000602084013e611d2a565b606091505b5050905080611d4b5760405162461bcd60e51b815260040161071990613189565b600654600090611d5c90600a613397565b611d66908961343f565b60055460025460405163095ea7b360e01b81529293506001600160a01b039182169263095ea7b392611da392610100900416908590600401612f50565b602060405180830381600087803b158015611dbd57600080fd5b505af1158015611dd1573d6000803e3d6000fd5b505050506040513d601f19601f82011682018060405250810190611df59190612cd7565b506002546005546001600160a01b0361010090920482169163f305d719918991168460008030611e2642603c61331a565b60405160e089901b6001600160e01b03191681526001600160a01b039687166004820152602481019590955260448501939093526064840191909152909216608482015260a481019190915260c4016060604051808303818588803b158015611e8e57600080fd5b505af1158015611ea2573d6000803e3d6000fd5b50505050506040513d601f19601f82011682018060405250810190611ec79190612ec1565b505060085460145460009250606491611edf9161343f565b611ee99190613332565b600654909150611efa90600a613397565b601454611f0890839061331a565b611f12919061343f565b601e556004805460ff60a01b1916600160a11b179055611f306127b3565b505042602c555061163f95505050505050565b6004805460ff60a01b1916600360a01b1781556005546040516370a0823160e01b81526001600160a01b03909116916370a0823191611f8491309101612f3c565b60206040518083038186803b158015611f9c57600080fd5b505afa158015611fb0573d6000803e3d6000fd5b505050506040513d601f19601f82011682018060405250810190611fd49190612e78565b601e5561163f6127b3565b6000828152602d602090815260408083206001600160a01b038516845290915290205460ff165b92915050565b6004546001600160a01b031633146120365760405162461bcd60e51b8152600401610719906130e3565b60005b81518110156112db5761206660008383815181106120595761205961353a565b6020026020010151612928565b5080612071816134c7565b915050612039565b600160048054600160a01b900460ff16908111156120995761209961350e565b146120b65760405162461bcd60e51b815260040161071990613075565b3360009081526029602090815260409182902082518084019093528054808452600190910154918301919091526121255760405162461bcd60e51b81526020600482015260136024820152724e6f7468696e6720746f20776974686472617760681b6044820152606401610719565b805160009060649061213890605f61343f565b6121429190613332565b3360009081526029602052604081208181556001015582516015549192506121699161345e565b601555602082015160145461217e919061331a565b6014556016805490600061219183613475565b9091555050604051600090339083908381818185875af1925050503d80600081146121d8576040519150601f19603f3d011682016040523d82523d6000602084013e6121dd565b606091505b505090508061222e5760405162461bcd60e51b815260206004820152601d60248201527f63616e6e6f7420726566756e6420746f20636f6e7472696275746f72730000006044820152606401610719565b60007f00000000000000000000000000000000000000000000000000000000000000006001600160a01b031683856000015161226a919061345e565b604051600081818185875af1925050503d80600081146122a6576040519150601f19603f3d011682016040523d82523d6000602084013e6122ab565b606091505b5050905080611abb5760405162461bcd60e51b815260040161071990613189565b6004546001600160a01b031633146122f65760405162461bcd60e51b8152600401610719906130e3565b600160048054600160a01b900460ff16908111156123165761231661350e565b148061233f5750600060048054600160a01b900460ff169081111561233d5761233d61350e565b145b61235b5760405162461bcd60e51b815260040161071990613075565b6004805460ff60a01b1916600160a21b1781556005546040516370a0823160e01b81526001600160a01b03909116916370a082319161239c91309101612f3c565b60206040518083038186803b1580156123b457600080fd5b505afa1580156123c8573d6000803e3d6000fd5b505050506040513d601f19601f820116820180604052508101906123ec9190612e78565b601e556123f76127b3565b565b6004546001600160a01b031633146124235760405162461bcd60e51b8152600401610719906130e3565b600260048054600160a01b900460ff16908111156124435761244361350e565b148061246c5750600360048054600160a01b900460ff169081111561246a5761246a61350e565b145b8061249357506004808054600160a01b900460ff16908111156124915761249161350e565b145b6124af5760405162461bcd60e51b8152600401610719906130ac565b60235460ff166124f95760405162461bcd60e51b8152602060048201526015602482015274139bc81d1bdad95b9cc81dd95c99481b1bd8dad959605a1b6044820152606401610719565b60065460009061250a90600a613397565b602454612517919061343f565b90506000805b602f5481116125f3576000818152602e6020526040902060010154602c54612545919061331a565b421015801561257757506000818152602e602052604081206004015460ff1660018111156125755761257561350e565b145b156125e1576000818152602e60205260409020600381015460029091015461271091906125a4908661343f565b6125ae919061343f565b6125b89190613332565b6125c2908361331a565b6000828152602e60205260409020600401805460ff1916600117905591505b806125eb816134c7565b91505061251d565b50600081116126145760405162461bcd60e51b8152600401610719906131bb565b60055460405163a9059cbb60e01b81526001600160a01b039091169063a9059cbb906126469033908590600401612f50565b602060405180830381600087803b15801561266057600080fd5b505af1158015612674573d6000803e3d6000fd5b505050506040513d601f19601f820116820180604052508101906126989190612cd7565b6112db5760405162461bcd60e51b815260040161071990613133565b6004546001600160a01b031633146126de5760405162461bcd60e51b8152600401610719906130e3565b60028360028111156126f2576126f261350e565b1415612743576009805484919060ff191660018360028111156127175761271761350e565b0217905550600b80546001600160a01b0384166001600160a01b0319909116179055600c819055505050565b6009805484919060ff191660018360028111156127625761276261350e565b0217905550505050565b6001600160a01b038116600090815260018301602052604081205415155b9392505050565b6060600061278a8361293d565b600061278a836001600160a01b038416612999565b601e54600360048054600160a01b900460ff16908111156127d6576127d661350e565b14806127fe57506004808054600160a01b900460ff16908111156127fc576127fc61350e565b145b1561289c576005546004805460405163a9059cbb60e01b81526000936001600160a01b039081169363a9059cbb9361283b93921691879101612f50565b602060405180830381600087803b15801561285557600080fd5b505af1158015612869573d6000803e3d6000fd5b505050506040513d601f19601f8201168201806040525081019061288d9190612cd7565b9050806112db576112db6134e2565b6001600d5460ff1660018111156128b5576128b561350e565b14156128f3576005546004805460405163a9059cbb60e01b81526000936001600160a01b039081169363a9059cbb9361283b93921691879101612f50565b60055460405163a9059cbb60e01b81526000916001600160a01b03169063a9059cbb9061283b9061dead908690600401612f50565b600061278a836001600160a01b0384166129e8565b60608160000180548060200260200160405190810160405280929190818152602001828054801561298d57602002820191906000526020600020905b815481526020019060010190808311612979575b50505050509050919050565b60008181526001830160205260408120546129e057508154600181810184556000848152602080822090930184905584548482528286019093526040902091909155612006565b506000612006565b60008181526001830160205260408120548015612ad1576000612a0c60018361345e565b8554909150600090612a209060019061345e565b9050818114612a85576000866000018281548110612a4057612a4061353a565b9060005260206000200154905080876000018481548110612a6357612a6361353a565b6000918252602080832090910192909255918252600188019052604090208390555b8554869080612a9657612a96613524565b600190038181906000526020600020016000905590558560010160008681526020019081526020016000206000905560019350505050612006565b6000915050612006565b828054612ae79061348c565b90600052602060002090601f016020900481019282612b095760008555612b4f565b82601f10612b2257805160ff1916838001178555612b4f565b82800160010185558215612b4f579182015b82811115612b4f578251825591602001919060010190612b34565b50612b5b929150612b5f565b5090565b5b80821115612b5b5760008155600101612b60565b600082601f830112612b8557600080fd5b813567ffffffffffffffff811115612b9f57612b9f613550565b612bb2601f8201601f19166020016132e9565b818152846020838601011115612bc757600080fd5b816020850160208301376000918101602001919091529392505050565b600060208284031215612bf657600080fd5b813561278a81613576565b600060208284031215612c1357600080fd5b815161278a81613576565b60006020808385031215612c3157600080fd5b823567ffffffffffffffff80821115612c4957600080fd5b818501915085601f830112612c5d57600080fd5b813581811115612c6f57612c6f613550565b8060051b9150612c808483016132e9565b8181528481019084860184860187018a1015612c9b57600080fd5b600095505b83861015612cca5780359450612cb585613576565b84835260019590950194918601918601612ca0565b5098975050505050505050565b600060208284031215612ce957600080fd5b8151801515811461278a57600080fd5b600080600060608486031215612d0e57600080fd5b833560038110612d1d57600080fd5b92506020840135612d2d81613576565b929592945050506040919091013590565b600060208284031215612d5057600080fd5b813567ffffffffffffffff80821115612d6857600080fd5b9083019060c08286031215612d7c57600080fd5b612d846132c0565b823582811115612d9357600080fd5b612d9f87828601612b74565b825250602083013582811115612db457600080fd5b612dc087828601612b74565b602083015250604083013582811115612dd857600080fd5b612de487828601612b74565b604083015250606083013582811115612dfc57600080fd5b612e0887828601612b74565b606083015250608083013582811115612e2057600080fd5b612e2c87828601612b74565b60808301525060a083013582811115612e4457600080fd5b612e5087828601612b74565b60a08301525095945050505050565b600060208284031215612e7157600080fd5b5035919050565b600060208284031215612e8a57600080fd5b5051919050565b60008060408385031215612ea457600080fd5b823591506020830135612eb681613576565b809150509250929050565b600080600060608486031215612ed657600080fd5b8351925060208401519150604084015190509250925092565b6000815180845260005b81811015612f1557602081850181015186830182015201612ef9565b81811115612f27576000602083870101525b50601f01601f19169290920160200192915050565b6001600160a01b0391909116815260200190565b6001600160a01b03929092168252602082015260400190565b6020808252825182820181905260009190848201906040850190845b81811015612faa5783516001600160a01b031683529284019291840191600101612f85565b50909695505050505050565b60208101612fc383613566565b91905290565b60c081526000612fdc60c0830189612eef565b8281036020840152612fee8189612eef565b905082810360408401526130028188612eef565b905082810360608401526130168187612eef565b9050828103608084015261302a8186612eef565b905082810360a084015261303e8185612eef565b9998505050505050505050565b60208082526010908201526f4e6f7468696e6720746f20636c61696d60801b604082015260600190565b6020808252601a908201527f50726573616c65206973206e6f7420696e2070726f6772657373000000000000604082015260600190565b6020808252601c908201527f50726573616c65206973206e6f7420636f6e636c756465642079657400000000604082015260600190565b60208082526030908201527f4f776e61626c653a2063616c6c6572206973206e6f7420746865206f776e657260408201526f206f6620746869732070726573616c6560801b606082015260800190565b60208082526036908201527f556e61626c6520746f207472616e736665722070726573616c6520746f6b656e60408201527539903a37903a343290383932b9b0b6329037bbb732b960511b606082015260800190565b60208082526018908201527763616e6e6f742073656e64206465765465616d536861726560401b604082015260600190565b6020808252601190820152704e6f7468696e6720746f20756e6c6f636b60781b604082015260600190565b8581526001600160a01b03858116602083015260a08201906005861061320e5761320e61350e565b8560408401528085166060840152508260808301529695505050505050565b8781526020810187905260e081016003871061324b5761324b61350e565b60408201879052606082018690526001600160a01b038516608083015260a0820184905261327883613566565b8260c083015298975050505050505050565b600060a0820190508682528560208301528460408301528360608301526132b083613566565b8260808301529695505050505050565b60405160c0810167ffffffffffffffff811182821017156132e3576132e3613550565b60405290565b604051601f8201601f1916810167ffffffffffffffff8111828210171561331257613312613550565b604052919050565b6000821982111561332d5761332d6134f8565b500190565b60008261334f57634e487b7160e01b600052601260045260246000fd5b500490565b600181815b8085111561338f578160001904821115613375576133756134f8565b8085161561338257918102915b93841c9390800290613359565b509250929050565b600061278a83836000826133ad57506001612006565b816133ba57506000612006565b81600181146133d057600281146133da576133f6565b6001915050612006565b60ff8411156133eb576133eb6134f8565b50506001821b612006565b5060208310610133831016604e8410600b8410161715613419575081810a612006565b6134238383613354565b8060001904821115613437576134376134f8565b029392505050565b6000816000190483118215151615613459576134596134f8565b500290565b600082821015613470576134706134f8565b500390565b600081613484576134846134f8565b506000190190565b600181811c908216806134a057607f821691505b602082108114156134c157634e487b7160e01b600052602260045260246000fd5b50919050565b60006000198214156134db576134db6134f8565b5060010190565b634e487b7160e01b600052600160045260246000fd5b634e487b7160e01b600052601160045260246000fd5b634e487b7160e01b600052602160045260246000fd5b634e487b7160e01b600052603160045260246000fd5b634e487b7160e01b600052603260045260246000fd5b634e487b7160e01b600052604160045260246000fd5b6002811061163f5761163f61350e565b6001600160a01b038116811461163f57600080fdfea2646970667358221220d8bca3463d48b21a85508f7e9dcc99f876fd515c2e3a469b8fffad1c1ddc59a464736f6c63430008070033a2646970667358221220261c5e5613d55ce53e7aaa0bdc87a371845c2f8f2d3561242b27ba083750f15c64736f6c63430008070033",
  "linkReferences": {},
  "deployedLinkReferences": {}
}