{
  "_format": "hh-sol-artifact-1",
  "contractName": "LPLokcerManager",
  "sourceName": "contracts/LPLocker/LPLokcerManager.sol",
  "abi": [
    {
      "anonymous": false,
      "inputs": [
        {
          "indexed": false,
          "internalType": "uint256",
          "name": "id",
          "type": "uint256"
        },
        {
          "indexed": false,
          "internalType": "address",
          "name": "owner",
          "type": "address"
        },
        {
          "indexed": false,
          "internalType": "address",
          "name": "token",
          "type": "address"
        },
        {
          "indexed": false,
          "internalType": "uint256",
          "name": "numOfTokens",
          "type": "uint256"
        },
        {
          "indexed": false,
          "internalType": "uint256",
          "name": "unlockTime",
          "type": "uint256"
        }
      ],
      "name": "LPLocked",
      "type": "event"
    },
    {
      "anonymous": false,
      "inputs": [
        {
          "indexed": true,
          "internalType": "address",
          "name": "previousOwner",
          "type": "address"
        },
        {
          "indexed": true,
          "internalType": "address",
          "name": "newOwner",
          "type": "address"
        }
      ],
      "name": "OwnershipTransferred",
      "type": "event"
    },
    {
      "inputs": [
        {
          "internalType": "address",
          "name": "_owner",
          "type": "address"
        },
        {
          "internalType": "address",
          "name": "_token",
          "type": "address"
        },
        {
          "internalType": "uint256",
          "name": "_numOfTokens",
          "type": "uint256"
        },
        {
          "internalType": "uint256",
          "name": "_unlockTime",
          "type": "uint256"
        }
      ],
      "name": "createLPLcoker",
      "outputs": [
        {
          "internalType": "uint256",
          "name": "",
          "type": "uint256"
        }
      ],
      "stateMutability": "payable",
      "type": "function"
    },
    {
      "inputs": [],
      "name": "launchpadAddress",
      "outputs": [
        {
          "internalType": "address",
          "name": "",
          "type": "address"
        }
      ],
      "stateMutability": "view",
      "type": "function"
    },
    {
      "inputs": [],
      "name": "lockerCount",
      "outputs": [
        {
          "internalType": "uint256",
          "name": "",
          "type": "uint256"
        }
      ],
      "stateMutability": "view",
      "type": "function"
    },
    {
      "inputs": [
        {
          "internalType": "uint256",
          "name": "",
          "type": "uint256"
        }
      ],
      "name": "lockerInfoByID",
      "outputs": [
        {
          "internalType": "uint256",
          "name": "id",
          "type": "uint256"
        },
        {
          "internalType": "address",
          "name": "lockerAddress",
          "type": "address"
        },
        {
          "internalType": "address",
          "name": "owner",
          "type": "address"
        },
        {
          "internalType": "address",
          "name": "token",
          "type": "address"
        },
        {
          "internalType": "uint256",
          "name": "numOfTokens",
          "type": "uint256"
        },
        {
          "internalType": "uint256",
          "name": "lockTime",
          "type": "uint256"
        },
        {
          "internalType": "uint256",
          "name": "unlockTime",
          "type": "uint256"
        }
      ],
      "stateMutability": "view",
      "type": "function"
    },
    {
      "inputs": [
        {
          "internalType": "address",
          "name": "",
          "type": "address"
        }
      ],
      "name": "lockerInfoByToken",
      "outputs": [
        {
          "internalType": "uint256",
          "name": "id",
          "type": "uint256"
        },
        {
          "internalType": "address",
          "name": "lockerAddress",
          "type": "address"
        },
        {
          "internalType": "address",
          "name": "owner",
          "type": "address"
        },
        {
          "internalType": "address",
          "name": "token",
          "type": "address"
        },
        {
          "internalType": "uint256",
          "name": "numOfTokens",
          "type": "uint256"
        },
        {
          "internalType": "uint256",
          "name": "lockTime",
          "type": "uint256"
        },
        {
          "internalType": "uint256",
          "name": "unlockTime",
          "type": "uint256"
        }
      ],
      "stateMutability": "view",
      "type": "function"
    },
    {
      "inputs": [
        {
          "internalType": "address",
          "name": "",
          "type": "address"
        },
        {
          "internalType": "uint256",
          "name": "",
          "type": "uint256"
        }
      ],
      "name": "lockersListByUser",
      "outputs": [
        {
          "internalType": "uint256",
          "name": "",
          "type": "uint256"
        }
      ],
      "stateMutability": "view",
      "type": "function"
    },
    {
      "inputs": [],
      "name": "owner",
      "outputs": [
        {
          "internalType": "address",
          "name": "",
          "type": "address"
        }
      ],
      "stateMutability": "view",
      "type": "function"
    },
    {
      "inputs": [],
      "name": "renounceOwnership",
      "outputs": [],
      "stateMutability": "nonpayable",
      "type": "function"
    },
    {
      "inputs": [
        {
          "internalType": "address",
          "name": "newOwner",
          "type": "address"
        }
      ],
      "name": "transferOwnership",
      "outputs": [],
      "stateMutability": "nonpayable",
      "type": "function"
    }
  ],
  "bytecode": "0x608060405234801561001057600080fd5b5061001a3361001f565b61006f565b600080546001600160a01b038381166001600160a01b0319831681178455604051919092169283917f8be0079c531659141344cd1fd0a4f28419497f9722a3daafe3b4186f6b6457e09190a35050565b610dab8061007e6000396000f3fe6080604052600436106100765760003560e01c806348611c2e1461007b5780634aae03d41461012c578063508d98e414610164578063715018a6146101925780638da5cb5b146101a9578063a3b4b3a5146101c7578063ccd96eb61461022e578063e73cf5a314610244578063f2fde38b14610257575b600080fd5b34801561008757600080fd5b506100e3610096366004610901565b6003602081905260009182526040909120805460018201546002830154938301546004840154600585015460069095015493956001600160a01b0393841695908416949290931692909187565b604080519788526001600160a01b03968716602089015294861694870194909452939091166060850152608084015260a083019190915260c082015260e0015b60405180910390f35b34801561013857600080fd5b5060025461014c906001600160a01b031681565b6040516001600160a01b039091168152602001610123565b34801561017057600080fd5b5061018461017f3660046108b5565b610277565b604051908152602001610123565b34801561019e57600080fd5b506101a76102a8565b005b3480156101b557600080fd5b506000546001600160a01b031661014c565b3480156101d357600080fd5b506100e36101e2366004610851565b6004602081905260009182526040909120805460018201546002830154600384015494840154600585015460069095015493956001600160a01b03938416959284169493169290919087565b34801561023a57600080fd5b5061018460015481565b610184610252366004610873565b6102e7565b34801561026357600080fd5b506101a7610272366004610851565b6106d3565b6005602052816000526040600020818154811061029357600080fd5b90600052602060002001600091509150505481565b6000546001600160a01b031633146102db5760405162461bcd60e51b81526004016102d290610980565b60405180910390fd5b6102e5600061076e565b565b60008082116103385760405162461bcd60e51b815260206004820181905260248201527f54686520756e6c6f636b2074696d652073686f756c6420696e2066757475726560448201526064016102d2565b60018054906000610348836109e4565b919050555060006001548686868660405161036290610828565b6103709594939291906109b5565b604051809103906000f08015801561038c573d6000803e3d6000fd5b506040516323b872dd60e01b81523360048201526001600160a01b03808316602483015260448201879052919250908616906323b872dd90606401602060405180830381600087803b1580156103e157600080fd5b505af11580156103f5573d6000803e3d6000fd5b505050506040513d601f19601f8201168201806040525081019061041991906108df565b5060006040518060e001604052806001548152602001836001600160a01b03168152602001886001600160a01b03168152602001876001600160a01b03168152602001868152602001428152602001858152509050610496604051806040016040528060068152602001652fba37b5b2b760d11b815250876107be565b806003600060015481526020019081526020016000206000820151816000015560208201518160010160006101000a8154816001600160a01b0302191690836001600160a01b0316021790555060408201518160020160006101000a8154816001600160a01b0302191690836001600160a01b0316021790555060608201518160030160006101000a8154816001600160a01b0302191690836001600160a01b031602179055506080820151816004015560a0820151816005015560c082015181600601559050508060046000886001600160a01b03166001600160a01b031681526020019081526020016000206000820151816000015560208201518160010160006101000a8154816001600160a01b0302191690836001600160a01b0316021790555060408201518160020160006101000a8154816001600160a01b0302191690836001600160a01b0316021790555060608201518160030160006101000a8154816001600160a01b0302191690836001600160a01b031602179055506080820151816004015560a0820151816005015560c0820151816006015590505060056000886001600160a01b03166001600160a01b0316815260200190815260200160002060015490806001815401808255809150506001900390600052602060002001600090919091909150557f29e5321495c5597d4a870693a37839fcdb4701140fb16138815bac7f803a0823600154888888886040516106bd9594939291906109b5565b60405180910390a1505060015495945050505050565b6000546001600160a01b031633146106fd5760405162461bcd60e51b81526004016102d290610980565b6001600160a01b0381166107625760405162461bcd60e51b815260206004820152602660248201527f4f776e61626c653a206e6577206f776e657220697320746865207a65726f206160448201526564647265737360d01b60648201526084016102d2565b61076b8161076e565b50565b600080546001600160a01b038381166001600160a01b0319831681178455604051919092169283917f8be0079c531659141344cd1fd0a4f28419497f9722a3daafe3b4186f6b6457e09190a35050565b61080382826040516024016107d492919061091a565b60408051601f198184030181529190526020810180516001600160e01b031663319af33360e01b179052610807565b5050565b80516a636f6e736f6c652e6c6f67602083016000808483855afa5050505050565b61036880610a0e83390190565b80356001600160a01b038116811461084c57600080fd5b919050565b60006020828403121561086357600080fd5b61086c82610835565b9392505050565b6000806000806080858703121561088957600080fd5b61089285610835565b93506108a060208601610835565b93969395505050506040820135916060013590565b600080604083850312156108c857600080fd5b6108d183610835565b946020939093013593505050565b6000602082840312156108f157600080fd5b8151801515811461086c57600080fd5b60006020828403121561091357600080fd5b5035919050565b604081526000835180604084015260005b81811015610948576020818701810151606086840101520161092b565b8181111561095a576000606083860101525b506001600160a01b0393909316602083015250601f91909101601f191601606001919050565b6020808252818101527f4f776e61626c653a2063616c6c6572206973206e6f7420746865206f776e6572604082015260600190565b9485526001600160a01b0393841660208601529190921660408401526060830191909152608082015260a00190565b6000600019821415610a0657634e487b7160e01b600052601160045260246000fd5b506001019056fe608060405234801561001057600080fd5b5060405161036838038061036883398101604081905261002f9161012b565b6040518060e00160405280868152602001856001600160a01b03168152602001846001600160a01b03168152602001838152602001428152602001828152602001600060018111156100835761008361017a565b9052805160009081556020820151600180546001600160a01b039283166001600160a01b0319918216178255604085015160028054919094169116179091556060830151600355608083015160045560a083015160055560c0830151600680549192909160ff19169083818111156100fd576100fd61017a565b02179055509050505050505050610190565b80516001600160a01b038116811461012657600080fd5b919050565b600080600080600060a0868803121561014357600080fd5b855194506101536020870161010f565b93506101616040870161010f565b6060870151608090970151959894975095949392505050565b634e487b7160e01b600052602160045260246000fd5b6101c98061019f6000396000f3fe608060405234801561001057600080fd5b506004361061002b5760003560e01c8063f968f49314610030575b600080fd5b61003861003a565b005b6001546001600160a01b0316331461006d5760405162461bcd60e51b81526004016100649061015c565b60405180910390fd5b6001546001600160a01b031633146100975760405162461bcd60e51b81526004016100649061015c565b60025460015460035460405163a9059cbb60e01b81526001600160a01b039283166004820152602481019190915291169063a9059cbb90604401602060405180830381600087803b1580156100eb57600080fd5b505af11580156100ff573d6000803e3d6000fd5b505050506040513d601f19601f820116820180604052508101906101239190610133565b506006805460ff19166001179055565b60006020828403121561014557600080fd5b8151801515811461015557600080fd5b9392505050565b6020808252601d908201527f4f6e6c79206c6f636b6572206f6e77657220697320616c6c6f7765642e00000060408201526060019056fea2646970667358221220d1a37966ea7678d052337731fdcf8efc0197f38a072462dd302936b53cf22c3c64736f6c63430008070033a26469706673582212207526ddbaaba5952019777b79f91c33a47bbbd12a4334d4e0e556912b1a5e0ad064736f6c63430008070033",
  "linkReferences": {},
  "deployedLinkReferences": {}
}