{
  "_format": "hh-sol-artifact-1",
  "contractName": "Presale",
  "sourceName": "contracts/Launchpad/Factory/Presale.sol",
  "abi": [
    {
      "inputs": [
        {
          "internalType": "uint256",
          "name": "_presaleID",
          "type": "uint256"
        },
        {
          "internalType": "address",
          "name": "_owner",
          "type": "address"
        },
        {
          "internalType": "enum LaunchPadLib.PresaleType",
          "name": "_presaleType",
          "type": "uint8"
        },
        {
          "internalType": "contract IERC20",
          "name": "_preSaleToken",
          "type": "address"
        },
        {
          "internalType": "contract IERC20",
          "name": "_criteriaTokenAddr",
          "type": "address"
        },
        {
          "internalType": "uint8",
          "name": "_reservedTokensPCForLP",
          "type": "uint8"
        },
        {
          "internalType": "uint256",
          "name": "_tokensForSale",
          "type": "uint256"
        },
        {
          "internalType": "uint256",
          "name": "_priceOfEachToken",
          "type": "uint256"
        },
        {
          "internalType": "uint256",
          "name": "_minTokensForParticipation",
          "type": "uint256"
        },
        {
          "components": [
            {
              "internalType": "uint256",
              "name": "startedAt",
              "type": "uint256"
            },
            {
              "internalType": "uint256",
              "name": "expiredAt",
              "type": "uint256"
            },
            {
              "internalType": "uint256",
              "name": "lpLockupTime",
              "type": "uint256"
            }
          ],
          "internalType": "struct LaunchPadLib.PresaleTimes",
          "name": "_presaleTimes",
          "type": "tuple"
        },
        {
          "components": [
            {
              "internalType": "uint256",
              "name": "minTokensReq",
              "type": "uint256"
            },
            {
              "internalType": "uint256",
              "name": "maxTokensReq",
              "type": "uint256"
            },
            {
              "internalType": "uint256",
              "name": "softCap",
              "type": "uint256"
            }
          ],
          "internalType": "struct LaunchPadLib.ReqestedTokens",
          "name": "_reqestedTokens",
          "type": "tuple"
        }
      ],
      "stateMutability": "nonpayable",
      "type": "constructor"
    },
    {
      "anonymous": false,
      "inputs": [
        {
          "indexed": true,
          "internalType": "address",
          "name": "previousOwner",
          "type": "address"
        },
        {
          "indexed": true,
          "internalType": "address",
          "name": "newOwner",
          "type": "address"
        }
      ],
      "name": "OwnershipTransferred",
      "type": "event"
    },
    {
      "inputs": [],
      "name": "LPLockerManager",
      "outputs": [
        {
          "internalType": "address",
          "name": "",
          "type": "address"
        }
      ],
      "stateMutability": "view",
      "type": "function"
    },
    {
      "inputs": [],
      "name": "WBNBAddr",
      "outputs": [
        {
          "internalType": "address",
          "name": "",
          "type": "address"
        }
      ],
      "stateMutability": "view",
      "type": "function"
    },
    {
      "inputs": [
        {
          "internalType": "enum LaunchPadLib.Withdrawtype",
          "name": "_withdrawtype",
          "type": "uint8"
        }
      ],
      "name": "burnOrWithdrawTokens",
      "outputs": [],
      "stateMutability": "nonpayable",
      "type": "function"
    },
    {
      "inputs": [
        {
          "internalType": "uint256",
          "name": "_numOfTokensRequested",
          "type": "uint256"
        }
      ],
      "name": "buyTokensOnPresale",
      "outputs": [],
      "stateMutability": "payable",
      "type": "function"
    },
    {
      "inputs": [
        {
          "internalType": "enum LaunchPadLib.PresaleType",
          "name": "_type",
          "type": "uint8"
        },
        {
          "internalType": "address",
          "name": "_address",
          "type": "address"
        }
      ],
      "name": "chageSaleType",
      "outputs": [],
      "stateMutability": "nonpayable",
      "type": "function"
    },
    {
      "inputs": [],
      "name": "claimTokensOrARefund",
      "outputs": [],
      "stateMutability": "nonpayable",
      "type": "function"
    },
    {
      "inputs": [],
      "name": "devAddr",
      "outputs": [
        {
          "internalType": "address",
          "name": "",
          "type": "address"
        }
      ],
      "stateMutability": "view",
      "type": "function"
    },
    {
      "inputs": [],
      "name": "finalizePresale",
      "outputs": [],
      "stateMutability": "nonpayable",
      "type": "function"
    },
    {
      "inputs": [],
      "name": "internalData",
      "outputs": [
        {
          "internalType": "uint256",
          "name": "totalTokensSold",
          "type": "uint256"
        },
        {
          "internalType": "uint256",
          "name": "revenueFromPresale",
          "type": "uint256"
        },
        {
          "internalType": "uint256",
          "name": "tokensAddedToLiquidity",
          "type": "uint256"
        },
        {
          "internalType": "uint256",
          "name": "extraTokens",
          "type": "uint256"
        },
        {
          "internalType": "uint256",
          "name": "poolShareBNB",
          "type": "uint256"
        },
        {
          "internalType": "uint256",
          "name": "devTeamShareBNB",
          "type": "uint256"
        },
        {
          "internalType": "uint256",
          "name": "ownersShareBNB",
          "type": "uint256"
        },
        {
          "internalType": "uint256",
          "name": "totalLP",
          "type": "uint256"
        },
        {
          "internalType": "uint256",
          "name": "lockerID",
          "type": "uint256"
        }
      ],
      "stateMutability": "view",
      "type": "function"
    },
    {
      "inputs": [],
      "name": "owner",
      "outputs": [
        {
          "internalType": "address",
          "name": "",
          "type": "address"
        }
      ],
      "stateMutability": "view",
      "type": "function"
    },
    {
      "inputs": [],
      "name": "pancakeSwapFactoryAddr",
      "outputs": [
        {
          "internalType": "address",
          "name": "",
          "type": "address"
        }
      ],
      "stateMutability": "view",
      "type": "function"
    },
    {
      "inputs": [],
      "name": "pancakeSwapRouterAddr",
      "outputs": [
        {
          "internalType": "address",
          "name": "",
          "type": "address"
        }
      ],
      "stateMutability": "view",
      "type": "function"
    },
    {
      "inputs": [
        {
          "internalType": "address",
          "name": "",
          "type": "address"
        }
      ],
      "name": "participant",
      "outputs": [
        {
          "internalType": "uint256",
          "name": "value",
          "type": "uint256"
        },
        {
          "internalType": "uint256",
          "name": "tokens",
          "type": "uint256"
        },
        {
          "internalType": "bool",
          "name": "isWhiteListed",
          "type": "bool"
        }
      ],
      "stateMutability": "view",
      "type": "function"
    },
    {
      "inputs": [],
      "name": "presaleInfo",
      "outputs": [
        {
          "internalType": "uint256",
          "name": "id",
          "type": "uint256"
        },
        {
          "internalType": "enum LaunchPadLib.PresaleType",
          "name": "typeOfPresale",
          "type": "uint8"
        },
        {
          "internalType": "contract IERC20",
          "name": "preSaleToken",
          "type": "address"
        },
        {
          "internalType": "address",
          "name": "presaleOwnerAddr",
          "type": "address"
        },
        {
          "internalType": "uint256",
          "name": "price",
          "type": "uint256"
        },
        {
          "internalType": "uint256",
          "name": "tokensForSale",
          "type": "uint256"
        },
        {
          "internalType": "uint256",
          "name": "reservedTokensPCForLP",
          "type": "uint256"
        },
        {
          "internalType": "uint256",
          "name": "remainingTokensForSale",
          "type": "uint256"
        },
        {
          "internalType": "uint256",
          "name": "accumulatedBalance",
          "type": "uint256"
        },
        {
          "internalType": "enum LaunchPadLib.PreSaleStatus",
          "name": "preSaleStatus",
          "type": "uint8"
        }
      ],
      "stateMutability": "view",
      "type": "function"
    },
    {
      "inputs": [],
      "name": "presaleParticipationCriteria",
      "outputs": [
        {
          "internalType": "contract IERC20",
          "name": "criteriaToken",
          "type": "address"
        },
        {
          "internalType": "uint256",
          "name": "minTokensForParticipation",
          "type": "uint256"
        },
        {
          "components": [
            {
              "internalType": "uint256",
              "name": "minTokensReq",
              "type": "uint256"
            },
            {
              "internalType": "uint256",
              "name": "maxTokensReq",
              "type": "uint256"
            },
            {
              "internalType": "uint256",
              "name": "softCap",
              "type": "uint256"
            }
          ],
          "internalType": "struct LaunchPadLib.ReqestedTokens",
          "name": "reqestedTokens",
          "type": "tuple"
        },
        {
          "components": [
            {
              "internalType": "uint256",
              "name": "startedAt",
              "type": "uint256"
            },
            {
              "internalType": "uint256",
              "name": "expiredAt",
              "type": "uint256"
            },
            {
              "internalType": "uint256",
              "name": "lpLockupTime",
              "type": "uint256"
            }
          ],
          "internalType": "struct LaunchPadLib.PresaleTimes",
          "name": "presaleTimes",
          "type": "tuple"
        }
      ],
      "stateMutability": "view",
      "type": "function"
    },
    {
      "inputs": [],
      "name": "presalectCounts",
      "outputs": [
        {
          "internalType": "uint256",
          "name": "participantsCount",
          "type": "uint256"
        },
        {
          "internalType": "uint256",
          "name": "claimsCount",
          "type": "uint256"
        }
      ],
      "stateMutability": "view",
      "type": "function"
    },
    {
      "inputs": [],
      "name": "renounceOwnership",
      "outputs": [],
      "stateMutability": "nonpayable",
      "type": "function"
    },
    {
      "inputs": [],
      "name": "salesFeeInPercent",
      "outputs": [
        {
          "internalType": "uint8",
          "name": "",
          "type": "uint8"
        }
      ],
      "stateMutability": "view",
      "type": "function"
    },
    {
      "inputs": [
        {
          "internalType": "address",
          "name": "_pancakeSwapFactoryAddr",
          "type": "address"
        },
        {
          "internalType": "address",
          "name": "_pancakeSwapRouterAddr",
          "type": "address"
        },
        {
          "internalType": "address",
          "name": "_WBNBAddr",
          "type": "address"
        },
        {
          "internalType": "address",
          "name": "_teamAddr",
          "type": "address"
        },
        {
          "internalType": "address",
          "name": "_devAddr",
          "type": "address"
        },
        {
          "internalType": "address",
          "name": "_lpLockerManager",
          "type": "address"
        }
      ],
      "name": "setAddresses",
      "outputs": [],
      "stateMutability": "nonpayable",
      "type": "function"
    },
    {
      "inputs": [],
      "name": "teamAddr",
      "outputs": [
        {
          "internalType": "address",
          "name": "",
          "type": "address"
        }
      ],
      "stateMutability": "view",
      "type": "function"
    },
    {
      "inputs": [
        {
          "internalType": "address",
          "name": "newOwner",
          "type": "address"
        }
      ],
      "name": "transferOwnership",
      "outputs": [],
      "stateMutability": "nonpayable",
      "type": "function"
    },
    {
      "inputs": [],
      "name": "upfrontfee",
      "outputs": [
        {
          "internalType": "uint256",
          "name": "",
          "type": "uint256"
        }
      ],
      "stateMutability": "view",
      "type": "function"
    },
    {
      "inputs": [
        {
          "internalType": "address",
          "name": "_address",
          "type": "address"
        }
      ],
      "name": "whiteListUsersToBuyTokens",
      "outputs": [],
      "stateMutability": "nonpayable",
      "type": "function"
    }
  ],
  "bytecode": "0x60806040526702c68af0bb1400006001556002805460ff1916811790553480156200002957600080fd5b5060405162002b1f38038062002b1f8339810160408190526200004c916200035f565b620000573362000290565b6040518061014001604052808c81526020018a60028111156200008a57634e487b7160e01b600052602160045260246000fd5b8152602001896001600160a01b031681526020018b6001600160a01b031681526020018581526020018681526020018760ff1681526020018681526020016000815260200160006003811115620000f157634e487b7160e01b600052602160045260246000fd5b90528051600890815560208201516009805460ff191660018360028111156200012a57634e487b7160e01b600052602160045260246000fd5b021790555060408201518160010160016101000a8154816001600160a01b0302191690836001600160a01b0316021790555060608201518160020160006101000a8154816001600160a01b0302191690836001600160a01b031602179055506080820151816003015560a0820151816004015560c0820151816005015560e0820151816006015561010082015181600701556101208201518160080160006101000a81548160ff02191690836003811115620001f657634e487b7160e01b600052602160045260246000fd5b021790555050604080516080810182526001600160a01b03909916808a526020808b018790528a83018590526060909a01859052601380546001600160a01b031916909117905560149490945550805160155580870151601655820151601755805160185580860151601955810151601a558051808201909152600080825294018490525050506011819055601255506200044592505050565b600080546001600160a01b038381166001600160a01b0319831681178455604051919092169283917f8be0079c531659141344cd1fd0a4f28419497f9722a3daafe3b4186f6b6457e09190a35050565b600060608284031215620002f2578081fd5b604051606081016001600160401b03811182821017156200032157634e487b7160e01b83526041600452602483fd5b80604052508091508251815260208301516020820152604083015160408201525092915050565b805160ff811681146200035a57600080fd5b919050565b60008060008060008060008060008060006101e08c8e03121562000381578687fd5b8b519a5060208c015162000395816200042c565b60408d0151909a5060038110620003aa578788fd5b60608d0151909950620003bd816200042c565b60808d0151909850620003d0816200042c565b9650620003e060a08d0162000348565b955060c08c0151945060e08c015193506101008c01519250620004088d6101208e01620002e0565b91506200041a8d6101808e01620002e0565b90509295989b509295989b9093969950565b6001600160a01b03811681146200044257600080fd5b50565b6126ca80620004556000396000f3fe6080604052600436106101405760003560e01c8063801368f0116100b6578063b393b5631161006f578063b393b5631461049e578063cedfe42f146104be578063da09c72c146104de578063dc5744ad146104fe578063eec5dab71461052a578063f2fde38b1461054e57600080fd5b8063801368f01461033b5780638c065186146103b65780638da5cb5b146103d65780639e9bc941146103f4578063a0a6e94014610469578063a26b48371461047e57600080fd5b80632edf0869116101085780632edf0869146102285780633fcc9ce8146102915780634a5ff749146102b157806354949b82146102d65780636cfb6bf914610306578063715018a61461032657600080fd5b80630f4240061461014557806312949b5a14610182578063134f54b514610197578063173434fa146101b75780632605b3c7146101cc575b600080fd5b34801561015157600080fd5b50600454610165906001600160a01b031681565b6040516001600160a01b0390911681526020015b60405180910390f35b6101956101903660046123e8565b61056e565b005b3480156101a357600080fd5b50600554610165906001600160a01b031681565b3480156101c357600080fd5b50610195610781565b3480156101d857600080fd5b5061020b6101e73660046122b5565b60246020526000908152604090208054600182015460029092015490919060ff1683565b604080519384526020840192909252151590820152606001610179565b34801561023457600080fd5b50600854600954600a54600b54600c54600d54600e54600f5460105461027b989760ff808216986001600160a01b036101009093048316989216969195919491939192168a565b6040516101799a9998979695949392919061254f565b34801561029d57600080fd5b506101956102ac3660046122b5565b610bce565b3480156102bd57600080fd5b506002546101659061010090046001600160a01b031681565b3480156102e257600080fd5b506011546012546102f1919082565b60408051928352602083019190915201610179565b34801561031257600080fd5b506101956103213660046122ed565b610c1f565b34801561033257600080fd5b50610195610cc8565b34801561034757600080fd5b50601b54601c54601d54601e54601f5460205460215460225460235461037298979695949392919089565b60408051998a5260208a0198909852968801959095526060870193909352608086019190915260a085015260c084015260e083015261010082015261012001610179565b3480156103c257600080fd5b50600754610165906001600160a01b031681565b3480156103e257600080fd5b506000546001600160a01b0316610165565b34801561040057600080fd5b50601354601454604080516060808201835260155482526016546020808401919091526017548385015283519182018452601854825260195490820152601a5492810192909252610459936001600160a01b0316929184565b6040516101799493929190612445565b34801561047557600080fd5b50610195610d2e565b34801561048a57600080fd5b5061019561049936600461238e565b6111e8565b3480156104aa57600080fd5b506101956104b93660046123c9565b6112d3565b3480156104ca57600080fd5b50600654610165906001600160a01b031681565b3480156104ea57600080fd5b50600354610165906001600160a01b031681565b34801561050a57600080fd5b506002546105189060ff1681565b60405160ff9091168152602001610179565b34801561053657600080fd5b5061054060015481565b604051908152602001610179565b34801561055a57600080fd5b506101956105693660046122b5565b61155c565b6018544210156105d35760405162461bcd60e51b815260206004820152602560248201527f50726573616c65206861736e277420626567696e207965742e20706c65617365604482015264081dd85a5d60da1b60648201526084015b60405180910390fd5b60195442106106245760405162461bcd60e51b815260206004820152601e60248201527f50726573616c65206973206f7665722e20547279206e6578742074696d65000060448201526064016105ca565b600060105460ff16600381111561064b57634e487b7160e01b600052602160045260246000fd5b141561065f576010805460ff191660011790555b600160105460ff16600381111561068657634e487b7160e01b600052602160045260246000fd5b146106d35760405162461bcd60e51b815260206004820152601a60248201527f50726573616c65206973206e6f7420696e2070726f677265737300000000000060448201526064016105ca565b6106dc81611627565b336000908152602460209081526040918290208251606081018452815481526001820154928101929092526002015460ff16151591810191909152600f546107249034611ba6565b600f55600e546107349083611bb9565b600e5580516000906107469034611ba6565b90506000610761848460200151611ba690919063ffffffff16565b336000908152602460205260409020928355600190920191909155505050565b336000908152602460209081526040918290208251606081018452815480825260018301549382019390935260029091015460ff161515928101929092526107c857600080fd5b600954336000908152602460205260408120818155600101819055601280546101009093046001600160a01b0316929161080183612638565b909155505060105460ff16600281600381111561082e57634e487b7160e01b600052602160045260246000fd5b14806108595750600381600381111561085757634e487b7160e01b600052602160045260246000fd5b145b6108a55760405162461bcd60e51b815260206004820152601c60248201527f50726573616c65206973206e6f7420636f6e636c75646564207965740000000060448201526064016105ca565b6040516370a0823160e01b81523060048201526000906001600160a01b038416906370a082319060240160206040518083038186803b1580156108e757600080fd5b505afa1580156108fb573d6000803e3d6000fd5b505050506040513d601f19601f8201168201806040525081019061091f9190612400565b9050600282600381111561094357634e487b7160e01b600052602160045260246000fd5b1415610ad95760008460200151116109925760405162461bcd60e51b81526020600482015260126024820152714e6f20746f6b656e7320746f20636c61696d60701b60448201526064016105ca565b83602001518110156109e65760405162461bcd60e51b815260206004820152601f60248201527f4e6f7420656e6f75676820746f6b656e732061726520617661696c61626c650060448201526064016105ca565b602084015160405163a9059cbb60e01b815233600482015260248101919091526000906001600160a01b0385169063a9059cbb90604401602060405180830381600087803b158015610a3757600080fd5b505af1158015610a4b573d6000803e3d6000fd5b505050506040513d601f19601f82011682018060405250810190610a6f919061236e565b905080610ad35760405162461bcd60e51b815260206004820152602c60248201527f556e61626c6520746f207472616e7366657220746f6b656e7320746f2074686560448201526b081c185c9d1a58da5c185b9d60a21b60648201526084016105ca565b50610bc8565b6003826003811115610afb57634e487b7160e01b600052602160045260246000fd5b1415610bc8578351610b455760405162461bcd60e51b8152602060048201526013602482015272139bc8185b5bdd5b9d081d1bc81c99599d5b99606a1b60448201526064016105ca565b8351604051600091339181156108fc02919084818181858888f19350505050905080610bc65760405162461bcd60e51b815260206004820152602a60248201527f556e61626c6520746f20726566756e6420616d6f756e7420746f207468652070604482015269185c9d1a58da5c185b9d60b21b60648201526084016105ca565b505b50505050565b600a546001600160a01b03163314610bf85760405162461bcd60e51b81526004016105ca906124a2565b6001600160a01b03166000908152602460205260409020600201805460ff19166001179055565b600a546001600160a01b03163314610c495760405162461bcd60e51b81526004016105ca906124a2565b600480546001600160a01b039788166001600160a01b031991821617909155600580549688169682169690961790955560068054948716948616949094179093556002805492861661010002610100600160a81b0319909316929092179091556003805491851691841691909117905560078054919093169116179055565b6000546001600160a01b03163314610d225760405162461bcd60e51b815260206004820181905260248201527f4f776e61626c653a2063616c6c6572206973206e6f7420746865206f776e657260448201526064016105ca565b610d2c6000611bc5565b565b600a546001600160a01b03163314610d585760405162461bcd60e51b81526004016105ca906124a2565b6040805161014081019091526008805482526009546000929190602083019060ff166002811115610d9957634e487b7160e01b600052602160045260246000fd5b6002811115610db857634e487b7160e01b600052602160045260246000fd5b815260018201546001600160a01b0361010091829004811660208401526002840154166040830152600380840154606084015260048401546080840152600584015460a0840152600684015460c0840152600784015460e08401526008840154919092019160ff90911690811115610e4057634e487b7160e01b600052602160045260246000fd5b6003811115610e5f57634e487b7160e01b600052602160045260246000fd5b905250905060018161012001516003811115610e8b57634e487b7160e01b600052602160045260246000fd5b14610ed85760405162461bcd60e51b815260206004820152601a60248201527f50726573616c65206973206e6f7420696e2070726f677265737300000000000060448201526064016105ca565b601954421180610eea575060e0810151155b610f365760405162461bcd60e51b815260206004820152601760248201527f50726573616c65206973206e6f74206f7665722079657400000000000000000060448201526064016105ca565b6000610f538260e001518360a00151611bb990919063ffffffff16565b60175490915081106111a5576000610f836064610f7d8560c0015185611c1590919063ffffffff16565b90611c21565b90506000610f8f611c2d565b604085810151600554915163095ea7b360e01b81526001600160a01b03928316600482015260248101869052929350169063095ea7b390604401602060405180830381600087803b158015610fe357600080fd5b505af1158015610ff7573d6000803e3d6000fd5b505050506040513d601f19601f8201168201806040525081019061101b919061236e565b6110375760405162461bcd60e51b81526004016105ca906124f2565b60055460408501516001600160a01b039091169063f305d71990839085600080306110644261012c6125ca565b60405160e089901b6001600160e01b03191681526001600160a01b039687166004820152602481019590955260448501939093526064840191909152909216608482015260a481019190915260c4016060604051808303818588803b1580156110cc57600080fd5b505af11580156110e0573d6000803e3d6000fd5b50505050506040513d601f19601f820116820180604052508101906111059190612418565b505050611110611f3d565b61115c5760405162461bcd60e51b815260206004820152601e60248201527f6c6971756964697479206c6f636b20697320756e7365636365737366756c000060448201526064016105ca565b601b839055601d82905560c084015160e085015161118091606491610f7d91611c15565b8460e0015161118f91906125ca565b601e5550506010805460ff191660021790555050565b6111c56064610f7d8460c001518560a00151611c1590919063ffffffff16565b8260a001516111d491906125ca565b601e5550506010805460ff19166003179055565b600a546001600160a01b031633146112125760405162461bcd60e51b81526004016105ca906124a2565b600282600281111561123457634e487b7160e01b600052602160045260246000fd5b141561128d576009805483919060ff1916600183600281111561126757634e487b7160e01b600052602160045260246000fd5b0217905550601380546001600160a01b0383166001600160a01b03199091161790555050565b6009805483919060ff191660018360028111156112ba57634e487b7160e01b600052602160045260246000fd5b0217905550601380546001600160a01b03191690555050565b600a546001600160a01b031633146112fd5760405162461bcd60e51b81526004016105ca906124a2565b601e54806113455760405162461bcd60e51b81526020600482015260156024820152744e6f20746f6b656e7320746f20776974686472617760581b60448201526064016105ca565b6000601e819055604080516101408101909152600880548252600954602083019060ff16600281111561138857634e487b7160e01b600052602160045260246000fd5b60028111156113a757634e487b7160e01b600052602160045260246000fd5b815260018201546001600160a01b0361010091829004811660208401526002840154166040830152600380840154606084015260048401546080840152600584015460a0840152600684015460c0840152600784015460e08401526008840154919092019160ff9091169081111561142f57634e487b7160e01b600052602160045260246000fd5b600381111561144e57634e487b7160e01b600052602160045260246000fd5b9052509050600183600181111561147557634e487b7160e01b600052602160045260246000fd5b141561152057604080820151905163a9059cbb60e01b8152336004820152602481018490526000916001600160a01b03169063a9059cbb906044015b602060405180830381600087803b1580156114cb57600080fd5b505af11580156114df573d6000803e3d6000fd5b505050506040513d601f19601f82011682018060405250810190611503919061236e565b905080610bc857634e487b7160e01b600052600160045260246000fd5b604080820151905163a9059cbb60e01b815261dead6004820152602481018490526000916001600160a01b03169063a9059cbb906044016114b1565b6000546001600160a01b031633146115b65760405162461bcd60e51b815260206004820181905260248201527f4f776e61626c653a2063616c6c6572206973206e6f7420746865206f776e657260448201526064016105ca565b6001600160a01b03811661161b5760405162461bcd60e51b815260206004820152602660248201527f4f776e61626c653a206e6577206f776e657220697320746865207a65726f206160448201526564647265737360d01b60648201526084016105ca565b61162481611bc5565b50565b6040805161014081019091526008805482526009546000929190602083019060ff16600281111561166857634e487b7160e01b600052602160045260246000fd5b600281111561168757634e487b7160e01b600052602160045260246000fd5b815260018201546001600160a01b0361010091829004811660208401526002840154166040830152600380840154606084015260048401546080840152600584015460a0840152600684015460c0840152600784015460e08401526008840154919092019160ff9091169081111561170f57634e487b7160e01b600052602160045260246000fd5b600381111561172e57634e487b7160e01b600052602160045260246000fd5b905250604080516080810182526013546001600160a01b03168152601454602080830191909152825160608082018552601554825260165482840152601754828601528385019190915283518082018552601854815260195481840152601a54818601528184015233600090815260248352849020845191820185528054825260018101549282019290925260029091015460ff1615159281019290925260e0830151929350916118185760405162461bcd60e51b81526020600482015260146024820152731d1a19481cd85b19481a5cc81cdbdb19081bdd5d60621b60448201526064016105ca565b60018360200151600281111561183e57634e487b7160e01b600052602160045260246000fd5b14156118b457604081015115156001146118b45760405162461bcd60e51b815260206004820152603160248201527f4f6e6c792077686974656c69737465642075736572732061726520616c6c6f77604482015270656420746f20706172746963697061746560781b60648201526084016105ca565b6002836020015160028111156118da57634e487b7160e01b600052602160045260246000fd5b14156119bb57602082015182516040516370a0823160e01b81523360048201526001600160a01b03909116906370a082319060240160206040518083038186803b15801561192757600080fd5b505afa15801561193b573d6000803e3d6000fd5b505050506040513d601f19601f8201168201806040525081019061195f9190612400565b10156119bb5760405162461bcd60e51b815260206004820152602560248201527f596f7520646f6e277420686f6c6420656e6f75676820637269746572696120746044820152646f6b656e7360d81b60648201526084016105ca565b8260e00151841115611a215760405162461bcd60e51b815260206004820152602960248201527f696e73756666696369656e7420746f6b656e7320746f2066756c66696c6c20746044820152683434b99037b93232b960b91b60648201526084016105ca565b6080830151611a309085612602565b341015611a745760405162461bcd60e51b8152602060048201526012602482015271696e73756666696369656e742066756e647360701b60448201526064016105ca565b6020810151611b0f5760118054906000611a8d83612638565b9091555050604082015151841015611b0f576040805162461bcd60e51b81526020600482015260248101919091527f5265717565737420666f7220746f6b656e73206973206c6f772c20506c65617360448201527f652072657175657374206d6f7265207468616e206d696e546f6b656e7352657160648201526084016105ca565b816040015160200151816020015185611b2891906125ca565b1115610bc85760405162461bcd60e51b815260206004820152604160248201527f5265717565737420666f7220746f6b656e7320697320686967682c20506c656160448201527f73652072657175657374206c657373207468616e206d6178546f6b656e7352656064820152607160f81b608482015260a4016105ca565b6000611bb282846125ca565b9392505050565b6000611bb28284612621565b600080546001600160a01b038381166001600160a01b0319831681178455604051919092169283917f8be0079c531659141344cd1fd0a4f28419497f9722a3daafe3b4186f6b6457e09190a35050565b6000611bb28284612602565b6000611bb282846125e2565b60408051610140810190915260088054825260095460009283929091602083019060ff166002811115611c7057634e487b7160e01b600052602160045260246000fd5b6002811115611c8f57634e487b7160e01b600052602160045260246000fd5b815260018201546001600160a01b0361010091829004811660208401526002840154166040830152600380840154606084015260048401546080840152600584015460a0840152600684015460c0840152600784015460e08401526008840154919092019160ff90911690811115611d1757634e487b7160e01b600052602160045260246000fd5b6003811115611d3657634e487b7160e01b600052602160045260246000fd5b90525061010081015160025491925090600090611d5e90606490610f7d90859060ff16611c15565b90506000611d7e6064610f7d8660c0015186611c1590919063ffffffff16565b90506000611d96611d8f8385611ba6565b8590611bb9565b601c859055601f8390556020849055602181905560608601516040519192506001600160a01b03169082156108fc029083906000818181858888f19350505050611e225760405162461bcd60e51b815260206004820152601960248201527f63616e6e6f742073656e64206f776e657227732073686172650000000000000060448201526064016105ca565b6000611e346064610f7d86604b611c15565b6003546040519192506001600160a01b03169082156108fc029083906000818181858888f19350505050611eaa5760405162461bcd60e51b815260206004820152601760248201527f63616e6e6f742073656e6420646576277320736861726500000000000000000060448201526064016105ca565b6000611eb68583611bb9565b60025460405191925061010090046001600160a01b0316906108fc8315029083906000818181858888f19350505050611f315760405162461bcd60e51b815260206004820152601b60248201527f63616e6e6f742073656e64206465765465616d2773207368617265000000000060448201526064016105ca565b50919695505050505050565b60408051610140810190915260088054825260095460009283929091602083019060ff166002811115611f8057634e487b7160e01b600052602160045260246000fd5b6002811115611f9f57634e487b7160e01b600052602160045260246000fd5b815260018201546001600160a01b0361010091829004811660208401526002840154166040830152600380840154606084015260048401546080840152600584015460a0840152600684015460c0840152600784015460e08401526008840154919092019160ff9091169081111561202757634e487b7160e01b600052602160045260246000fd5b600381111561204657634e487b7160e01b600052602160045260246000fd5b905250601a5460048054604084810151600654915163e6a4390560e01b81526001600160a01b039182169481019490945290811660248401529394509192600092169063e6a439059060440160206040518083038186803b1580156120aa57600080fd5b505afa1580156120be573d6000803e3d6000fd5b505050506040513d601f19601f820116820180604052508101906120e291906122d1565b6040516370a0823160e01b81523060048201529091506000906001600160a01b038316906370a082319060240160206040518083038186803b15801561212757600080fd5b505afa15801561213b573d6000803e3d6000fd5b505050506040513d601f19601f8201168201806040525081019061215f9190612400565b60075460405163095ea7b360e01b81526001600160a01b0391821660048201526024810183905291925083169063095ea7b390604401602060405180830381600087803b1580156121af57600080fd5b505af11580156121c3573d6000803e3d6000fd5b505050506040513d601f19601f820116820180604052508101906121e7919061236e565b6122035760405162461bcd60e51b81526004016105ca906124f2565b600754606085015160405163e73cf5a360e01b81526001600160a01b03918216600482015284821660248201526044810184905260648101869052600092919091169063e73cf5a390608401602060405180830381600087803b15801561226957600080fd5b505af115801561227d573d6000803e3d6000fd5b505050506040513d601f19601f820116820180604052508101906122a19190612400565b602292909255506023555060019392505050565b6000602082840312156122c6578081fd5b8135611bb28161267f565b6000602082840312156122e2578081fd5b8151611bb28161267f565b60008060008060008060c08789031215612305578182fd5b86356123108161267f565b955060208701356123208161267f565b945060408701356123308161267f565b935060608701356123408161267f565b925060808701356123508161267f565b915060a08701356123608161267f565b809150509295509295509295565b60006020828403121561237f578081fd5b81518015158114611bb2578182fd5b600080604083850312156123a0578182fd5b8235600381106123ae578283fd5b915060208301356123be8161267f565b809150509250929050565b6000602082840312156123da578081fd5b813560028110611bb2578182fd5b6000602082840312156123f9578081fd5b5035919050565b600060208284031215612411578081fd5b5051919050565b60008060006060848603121561242c578283fd5b8351925060208401519150604084015190509250925092565b6001600160a01b038516815260208101849052610100810161247e60408301858051825260208082015190830152604090810151910152565b825160a0830152602083015160c0830152604083015160e083015295945050505050565b60208082526030908201527f4f776e61626c653a2063616c6c6572206973206e6f7420746865206f776e657260408201526f206f6620746869732070726573616c6560801b606082015260800190565b60208082526038908201527f756e61626c6520746f20617070726f766520746f6b656e207472616e6665722060408201527f746f2070616e63616b6553776170526f75746572416464720000000000000000606082015260800190565b8a8152610140810160038b1061256757612567612669565b8a602083015260018060a01b03808b166040840152808a166060840152508760808301528660a08301528560c08301528460e083015283610100830152600483106125b4576125b4612669565b826101208301529b9a5050505050505050505050565b600082198211156125dd576125dd612653565b500190565b6000826125fd57634e487b7160e01b81526012600452602481fd5b500490565b600081600019048311821515161561261c5761261c612653565b500290565b60008282101561263357612633612653565b500390565b600060001982141561264c5761264c612653565b5060010190565b634e487b7160e01b600052601160045260246000fd5b634e487b7160e01b600052602160045260246000fd5b6001600160a01b038116811461162457600080fdfea26469706673582212202d73a8a563ea25324503d1ab515c9d86140f2686db0bf6176542575ac326169c64736f6c63430008040033",
  "linkReferences": {},
  "deployedLinkReferences": {}
}