{
  "_format": "hh-sol-artifact-1",
  "contractName": "PICNICLocker",
  "sourceName": "contracts/Locker/PICNICLocker.sol",
  "abi": [
    {
      "anonymous": false,
      "inputs": [
        {
          "indexed": false,
          "internalType": "uint256",
          "name": "id",
          "type": "uint256"
        },
        {
          "indexed": false,
          "internalType": "address",
          "name": "owner",
          "type": "address"
        },
        {
          "indexed": false,
          "internalType": "address",
          "name": "token",
          "type": "address"
        },
        {
          "indexed": false,
          "internalType": "uint256",
          "name": "numOfTokens",
          "type": "uint256"
        },
        {
          "indexed": false,
          "internalType": "uint256",
          "name": "unlockTime",
          "type": "uint256"
        }
      ],
      "name": "Locked",
      "type": "event"
    },
    {
      "anonymous": false,
      "inputs": [
        {
          "indexed": true,
          "internalType": "address",
          "name": "previousOwner",
          "type": "address"
        },
        {
          "indexed": true,
          "internalType": "address",
          "name": "newOwner",
          "type": "address"
        }
      ],
      "name": "OwnershipTransferred",
      "type": "event"
    },
    {
      "anonymous": false,
      "inputs": [
        {
          "indexed": false,
          "internalType": "uint256",
          "name": "id",
          "type": "uint256"
        },
        {
          "indexed": false,
          "internalType": "address",
          "name": "owner",
          "type": "address"
        },
        {
          "indexed": false,
          "internalType": "address",
          "name": "token",
          "type": "address"
        },
        {
          "indexed": false,
          "internalType": "uint256",
          "name": "numOfTokens",
          "type": "uint256"
        }
      ],
      "name": "Unlocked",
      "type": "event"
    },
    {
      "inputs": [
        {
          "internalType": "uint256",
          "name": "_id",
          "type": "uint256"
        },
        {
          "internalType": "uint256",
          "name": "_numOfTokens",
          "type": "uint256"
        }
      ],
      "name": "addTokenstoALocker",
      "outputs": [],
      "stateMutability": "payable",
      "type": "function"
    },
    {
      "inputs": [
        {
          "internalType": "address",
          "name": "_tokenAddress",
          "type": "address"
        }
      ],
      "name": "getLockersListbyToken",
      "outputs": [
        {
          "internalType": "uint256[]",
          "name": "",
          "type": "uint256[]"
        }
      ],
      "stateMutability": "view",
      "type": "function"
    },
    {
      "inputs": [
        {
          "internalType": "address",
          "name": "_userAddress",
          "type": "address"
        }
      ],
      "name": "getLockersListbyUser",
      "outputs": [
        {
          "internalType": "uint256[]",
          "name": "",
          "type": "uint256[]"
        }
      ],
      "stateMutability": "view",
      "type": "function"
    },
    {
      "inputs": [
        {
          "internalType": "uint256",
          "name": "_id",
          "type": "uint256"
        },
        {
          "internalType": "uint256",
          "name": "_additionTime",
          "type": "uint256"
        }
      ],
      "name": "increaseLocktime",
      "outputs": [],
      "stateMutability": "payable",
      "type": "function"
    },
    {
      "inputs": [],
      "name": "lockFee",
      "outputs": [
        {
          "internalType": "uint256",
          "name": "",
          "type": "uint256"
        }
      ],
      "stateMutability": "view",
      "type": "function"
    },
    {
      "inputs": [
        {
          "internalType": "enum PICNICLocker.Type",
          "name": "_type",
          "type": "uint8"
        },
        {
          "internalType": "address",
          "name": "_token",
          "type": "address"
        },
        {
          "internalType": "uint256",
          "name": "_numOfTokens",
          "type": "uint256"
        },
        {
          "internalType": "uint256",
          "name": "_unlockTime",
          "type": "uint256"
        }
      ],
      "name": "lockTokens",
      "outputs": [],
      "stateMutability": "payable",
      "type": "function"
    },
    {
      "inputs": [],
      "name": "lockerCount",
      "outputs": [
        {
          "internalType": "uint256",
          "name": "",
          "type": "uint256"
        }
      ],
      "stateMutability": "view",
      "type": "function"
    },
    {
      "inputs": [
        {
          "internalType": "uint256",
          "name": "",
          "type": "uint256"
        }
      ],
      "name": "loker",
      "outputs": [
        {
          "internalType": "uint256",
          "name": "id",
          "type": "uint256"
        },
        {
          "internalType": "enum PICNICLocker.Type",
          "name": "_type",
          "type": "uint8"
        },
        {
          "internalType": "address",
          "name": "owner",
          "type": "address"
        },
        {
          "internalType": "address",
          "name": "tokenAddress",
          "type": "address"
        },
        {
          "internalType": "uint256",
          "name": "numOfTokens",
          "type": "uint256"
        },
        {
          "internalType": "uint256",
          "name": "lockTime",
          "type": "uint256"
        },
        {
          "internalType": "uint256",
          "name": "unlockTime",
          "type": "uint256"
        },
        {
          "internalType": "enum PICNICLocker.Status",
          "name": "status",
          "type": "uint8"
        }
      ],
      "stateMutability": "view",
      "type": "function"
    },
    {
      "inputs": [],
      "name": "owner",
      "outputs": [
        {
          "internalType": "address",
          "name": "",
          "type": "address"
        }
      ],
      "stateMutability": "view",
      "type": "function"
    },
    {
      "inputs": [],
      "name": "renounceOwnership",
      "outputs": [],
      "stateMutability": "nonpayable",
      "type": "function"
    },
    {
      "inputs": [
        {
          "internalType": "address",
          "name": "newOwner",
          "type": "address"
        }
      ],
      "name": "transferOwnership",
      "outputs": [],
      "stateMutability": "nonpayable",
      "type": "function"
    },
    {
      "inputs": [
        {
          "internalType": "uint256",
          "name": "_id",
          "type": "uint256"
        },
        {
          "internalType": "uint256",
          "name": "_numOfTokens",
          "type": "uint256"
        }
      ],
      "name": "unlockTokens",
      "outputs": [],
      "stateMutability": "nonpayable",
      "type": "function"
    },
    {
      "inputs": [
        {
          "internalType": "uint256",
          "name": "_lockFee",
          "type": "uint256"
        },
        {
          "internalType": "uint256",
          "name": "_updatingFee",
          "type": "uint256"
        }
      ],
      "name": "updateFees",
      "outputs": [],
      "stateMutability": "nonpayable",
      "type": "function"
    },
    {
      "inputs": [],
      "name": "updateLokcerFee",
      "outputs": [
        {
          "internalType": "uint256",
          "name": "",
          "type": "uint256"
        }
      ],
      "stateMutability": "view",
      "type": "function"
    },
    {
      "inputs": [],
      "name": "withdrawFunds",
      "outputs": [],
      "stateMutability": "nonpayable",
      "type": "function"
    }
  ],
  "bytecode": "0x608060405267016345785d8a000060025566b1a2bc2ec5000060035534801561002757600080fd5b5061003133610036565b610086565b600080546001600160a01b038381166001600160a01b0319831681178455604051919092169283917f8be0079c531659141344cd1fd0a4f28419497f9722a3daafe3b4186f6b6457e09190a35050565b611271806100956000396000f3fe6080604052600436106100e85760003560e01c80638da5cb5b1161008a578063d719a90d11610059578063d719a90d1461029d578063eb99651b146102b0578063f2fde38b146102c3578063fdfcad86146102e357600080fd5b80638da5cb5b146101c6578063b226aca2146101ee578063b8e4a2e614610204578063ccd96eb61461028757600080fd5b806356a06235116100c657806356a062351461015a57806361a696d61461017e5780636db7943714610191578063715018a6146101b157600080fd5b8063092eeb13146100ed57806324600fc3146101235780633190cbf81461013a575b600080fd5b3480156100f957600080fd5b5061010d610108366004610fd7565b610303565b60405161011a9190611097565b60405180910390f35b34801561012f57600080fd5b5061013861036f565b005b34801561014657600080fd5b50610138610155366004611075565b610417565b34801561016657600080fd5b5061017060025481565b60405190815260200161011a565b61013861018c366004611075565b610703565b34801561019d57600080fd5b506101386101ac366004611075565b610927565b3480156101bd57600080fd5b5061013861095c565b3480156101d257600080fd5b506000546040516001600160a01b03909116815260200161011a565b3480156101fa57600080fd5b5061017060035481565b34801561021057600080fd5b5061027361021f36600461105c565b60046020819052600091825260409091208054600182015460028301546003840154948401546005850154600690950154939560ff808516966101009095046001600160a01b039081169694169491931688565b60405161011a989796959493929190611147565b34801561029357600080fd5b5061017060015481565b6101386102ab366004611014565b610992565b6101386102be366004611075565b610cbc565b3480156102cf57600080fd5b506101386102de366004610fd7565b610e47565b3480156102ef57600080fd5b5061010d6102fe366004610fd7565b610ee2565b6001600160a01b03811660009081526005602090815260409182902080548351818402810184019094528084526060939283018282801561036357602002820191906000526020600020905b81548152602001906001019080831161034f575b50505050509050919050565b6000546001600160a01b031633146103a25760405162461bcd60e51b8152600401610399906110db565b60405180910390fd5b47806103e65760405162461bcd60e51b81526020600482015260136024820152724e6f7468696e6720746f20776974686472617760681b6044820152606401610399565b604051339082156108fc029083906000818181858888f19350505050158015610413573d6000803e3d6000fd5b5050565b60008281526004602052604090206001015482906001600160a01b036101009091041633146104585760405162461bcd60e51b815260040161039990611110565b60008381526004602052604090206005015483904210156104af5760405162461bcd60e51b81526020600482015260116024820152702737ba103ab73637b1b5b2b2103cb2ba1760791b6044820152606401610399565b60008481526004602090815260408083208151610100810190925280548252600180820154929391929184019160ff16908111156104ef576104ef611207565b600181111561050057610500611207565b81526001828101546001600160a01b036101009091048116602084015260028401541660408301526003830154606083015260048301546080830152600583015460a0830152600683015460c09092019160ff169081111561056457610564611207565b600181111561057557610575611207565b81525050905083816080015110156105cf5760405162461bcd60e51b815260206004820152601d60248201527f4e6f7420656e6f75676820746f6b656e7320746f2077697468647261770000006044820152606401610399565b60608101516001600160a01b031663a9059cbb336040516001600160e01b031960e084901b1681526001600160a01b03909116600482015260248101879052604401602060405180830381600087803b15801561062b57600080fd5b505af115801561063f573d6000803e3d6000fd5b505050506040513d601f19601f820116820180604052508101906106639190610ff2565b5060808101516106739085610f4c565b60008681526004602052604090206003018190556106a8576000858152600460205260409020600601805460ff191660011790555b606081810151604080518881523360208201526001600160a01b039092168282015291810186905290517ff0d7c30a27ebad52fb56830c599bf0535e86a95f4fc57fa7ec7b058b6e86aa589181900360800190a15050505050565b60008281526004602052604090206001015482906001600160a01b036101009091041633146107445760405162461bcd60e51b815260040161039990611110565b600083815260046020526040902060050154839042106107a65760405162461bcd60e51b815260206004820152601c60248201527f546865206c6f636b657220686173206265656e20657870697265642e000000006044820152606401610399565b6003543410156107f85760405162461bcd60e51b815260206004820152601b60248201527f506c656173652070617920746865207570646174696e672066656500000000006044820152606401610399565b600083116108485760405162461bcd60e51b815260206004820152601f60248201527f546f6b656e732073686f756c64206265206d6f7265207468616e207a65726f006044820152606401610399565b6000848152600460205260409020600201546001600160a01b03166323b872dd336040516001600160e01b031960e084901b1681526001600160a01b03909116600482015230602482015260448101869052606401602060405180830381600087803b1580156108b757600080fd5b505af11580156108cb573d6000803e3d6000fd5b505050506040513d601f19601f820116820180604052508101906108ef9190610ff2565b5060008481526004602052604090206003015461090c9084610f5f565b60009485526004602052604090942060030193909355505050565b6000546001600160a01b031633146109515760405162461bcd60e51b8152600401610399906110db565b600291909155600355565b6000546001600160a01b031633146109865760405162461bcd60e51b8152600401610399906110db565b6109906000610f6b565b565b6002543410156109d95760405162461bcd60e51b8152602060048201526012602482015271506c6561736520706179207468652066656560701b6044820152606401610399565b428111610a285760405162461bcd60e51b815260206004820181905260248201527f54686520756e6c6f636b2074696d652073686f756c6420696e206675747572656044820152606401610399565b6001600160a01b0383166323b872dd336040516001600160e01b031960e084901b1681526001600160a01b03909116600482015230602482015260448101859052606401602060405180830381600087803b158015610a8657600080fd5b505af1158015610a9a573d6000803e3d6000fd5b505050506040513d601f19601f82011682018060405250810190610abe9190610ff2565b5060018054906000610acf836111d6565b91905055506040518061010001604052806001548152602001856001811115610afa57610afa611207565b8152602001336001600160a01b03908116825285166020820152604081018490524260608201526080810183905260a001600090526001805460009081526004602090815260409091208351815590830151818301805492939192909160ff19909116908381811115610b6f57610b6f611207565b0217905550604082015160018281018054610100600160a81b0319166101006001600160a01b039485160217905560608401516002840180546001600160a01b03191691909316179091556080830151600383015560a0830151600483015560c0830151600583015560e08301516006830180549192909160ff1916908381811115610bfd57610bfd611207565b021790555090505060066000610c103390565b6001600160a01b0390811682526020808301939093526040918201600090812060018054825480830184559284528684209092019190915591871680825260058552838220835481548086018355918452928690200191909155905482519081523393810193909352828201526060820184905260808201839052517f1cb39d6ecc8f823fa6183785ee795ddcb2873e92effbff9b9a377ef7610356769181900360a00190a150505050565b60008281526004602052604090206001015482906001600160a01b03610100909104163314610cfd5760405162461bcd60e51b815260040161039990611110565b60008381526004602052604090206005015483904210610d5f5760405162461bcd60e51b815260206004820152601c60248201527f546865206c6f636b657220686173206265656e20657870697265642e000000006044820152606401610399565b600354341015610db15760405162461bcd60e51b815260206004820152601b60248201527f706c656173652070617920746865207570646174696e672066656500000000006044820152606401610399565b60008311610e105760405162461bcd60e51b815260206004820152602660248201527f4164646974696f6e2074696d652073686f756c64206265206d6f7265207468616044820152656e207a65726f60d01b6064820152608401610399565b600084815260046020526040902060050154610e2c9084610f5f565b60009485526004602052604090942060050193909355505050565b6000546001600160a01b03163314610e715760405162461bcd60e51b8152600401610399906110db565b6001600160a01b038116610ed65760405162461bcd60e51b815260206004820152602660248201527f4f776e61626c653a206e6577206f776e657220697320746865207a65726f206160448201526564647265737360d01b6064820152608401610399565b610edf81610f6b565b50565b6001600160a01b038116600090815260066020908152604091829020805483518184028101840190945280845260609392830182828015610363576020028201919060005260206000209081548152602001906001019080831161034f5750505050509050919050565b6000610f5882846111bf565b9392505050565b6000610f5882846111a7565b600080546001600160a01b038381166001600160a01b0319831681178455604051919092169283917f8be0079c531659141344cd1fd0a4f28419497f9722a3daafe3b4186f6b6457e09190a35050565b80356001600160a01b0381168114610fd257600080fd5b919050565b600060208284031215610fe957600080fd5b610f5882610fbb565b60006020828403121561100457600080fd5b81518015158114610f5857600080fd5b6000806000806080858703121561102a57600080fd5b84356002811061103957600080fd5b935061104760208601610fbb565b93969395505050506040820135916060013590565b60006020828403121561106e57600080fd5b5035919050565b6000806040838503121561108857600080fd5b50508035926020909101359150565b6020808252825182820181905260009190848201906040850190845b818110156110cf578351835292840192918401916001016110b3565b50909695505050505050565b6020808252818101527f4f776e61626c653a2063616c6c6572206973206e6f7420746865206f776e6572604082015260600190565b6020808252601d908201527f4f6e6c79206c6f636b6572206f6e77657220697320616c6c6f7765642e000000604082015260600190565b88815261010081016111588961121d565b602082018990526001600160a01b038881166040840152871660608301526080820186905260a0820185905260c082018490526111948361121d565b8260e08301529998505050505050505050565b600082198211156111ba576111ba6111f1565b500190565b6000828210156111d1576111d16111f1565b500390565b60006000198214156111ea576111ea6111f1565b5060010190565b634e487b7160e01b600052601160045260246000fd5b634e487b7160e01b600052602160045260246000fd5b60028110610edf57634e487b7160e01b600052602160045260246000fdfea264697066735822122033e4e785c6a8b44bba1f92f3e8748b060f0a276351013fee99f87cacbd0e292564736f6c63430008070033",
  "linkReferences": {},
  "deployedLinkReferences": {}
}