{
  "contractName": "PICNICLockerFactory",
  "abi": [
    {
      "anonymous": false,
      "inputs": [
        {
          "indexed": false,
          "internalType": "uint256",
          "name": "id",
          "type": "uint256"
        },
        {
          "indexed": false,
          "internalType": "address",
          "name": "owner",
          "type": "address"
        },
        {
          "indexed": false,
          "internalType": "address",
          "name": "token",
          "type": "address"
        },
        {
          "indexed": false,
          "internalType": "uint256",
          "name": "numOfTokens",
          "type": "uint256"
        },
        {
          "indexed": false,
          "internalType": "uint256",
          "name": "unlockTime",
          "type": "uint256"
        }
      ],
      "name": "Locked",
      "type": "event"
    },
    {
      "anonymous": false,
      "inputs": [
        {
          "indexed": true,
          "internalType": "address",
          "name": "previousOwner",
          "type": "address"
        },
        {
          "indexed": true,
          "internalType": "address",
          "name": "newOwner",
          "type": "address"
        }
      ],
      "name": "OwnershipTransferred",
      "type": "event"
    },
    {
      "anonymous": false,
      "inputs": [
        {
          "indexed": false,
          "internalType": "uint256",
          "name": "id",
          "type": "uint256"
        },
        {
          "indexed": false,
          "internalType": "address",
          "name": "owner",
          "type": "address"
        },
        {
          "indexed": false,
          "internalType": "address",
          "name": "token",
          "type": "address"
        },
        {
          "indexed": false,
          "internalType": "uint256",
          "name": "numOfTokens",
          "type": "uint256"
        }
      ],
      "name": "Unlocked",
      "type": "event"
    },
    {
      "inputs": [],
      "name": "lockFee",
      "outputs": [
        {
          "internalType": "uint256",
          "name": "",
          "type": "uint256"
        }
      ],
      "stateMutability": "view",
      "type": "function"
    },
    {
      "inputs": [],
      "name": "lockerCount",
      "outputs": [
        {
          "internalType": "uint256",
          "name": "",
          "type": "uint256"
        }
      ],
      "stateMutability": "view",
      "type": "function"
    },
    {
      "inputs": [
        {
          "internalType": "uint256",
          "name": "",
          "type": "uint256"
        }
      ],
      "name": "loker",
      "outputs": [
        {
          "internalType": "uint256",
          "name": "id",
          "type": "uint256"
        },
        {
          "internalType": "enum PICNICLockerFactory.Type",
          "name": "_type",
          "type": "uint8"
        },
        {
          "internalType": "address",
          "name": "owner",
          "type": "address"
        },
        {
          "internalType": "address",
          "name": "tokenAddress",
          "type": "address"
        },
        {
          "internalType": "address",
          "name": "lockerAddress",
          "type": "address"
        },
        {
          "internalType": "uint256",
          "name": "numOfTokens",
          "type": "uint256"
        },
        {
          "internalType": "uint256",
          "name": "lockTime",
          "type": "uint256"
        },
        {
          "internalType": "uint256",
          "name": "unlockTime",
          "type": "uint256"
        },
        {
          "internalType": "enum PICNICLockerFactory.Status",
          "name": "status",
          "type": "uint8"
        }
      ],
      "stateMutability": "view",
      "type": "function"
    },
    {
      "inputs": [],
      "name": "owner",
      "outputs": [
        {
          "internalType": "address",
          "name": "",
          "type": "address"
        }
      ],
      "stateMutability": "view",
      "type": "function"
    },
    {
      "inputs": [],
      "name": "renounceOwnership",
      "outputs": [],
      "stateMutability": "nonpayable",
      "type": "function"
    },
    {
      "inputs": [
        {
          "internalType": "address",
          "name": "newOwner",
          "type": "address"
        }
      ],
      "name": "transferOwnership",
      "outputs": [],
      "stateMutability": "nonpayable",
      "type": "function"
    },
    {
      "inputs": [],
      "name": "updateLokcerFee",
      "outputs": [
        {
          "internalType": "uint256",
          "name": "",
          "type": "uint256"
        }
      ],
      "stateMutability": "view",
      "type": "function"
    },
    {
      "inputs": [
        {
          "internalType": "enum PICNICLockerFactory.Type",
          "name": "_type",
          "type": "uint8"
        },
        {
          "internalType": "address",
          "name": "_token",
          "type": "address"
        },
        {
          "internalType": "uint256",
          "name": "_numOfTokens",
          "type": "uint256"
        },
        {
          "internalType": "uint256",
          "name": "_unlockTime",
          "type": "uint256"
        }
      ],
      "name": "createLcoker",
      "outputs": [],
      "stateMutability": "payable",
      "type": "function"
    },
    {
      "inputs": [
        {
          "internalType": "uint256",
          "name": "_id",
          "type": "uint256"
        },
        {
          "internalType": "uint256",
          "name": "_numOfTokens",
          "type": "uint256"
        }
      ],
      "name": "unlockTokens",
      "outputs": [],
      "stateMutability": "nonpayable",
      "type": "function"
    },
    {
      "inputs": [
        {
          "internalType": "uint256",
          "name": "_id",
          "type": "uint256"
        },
        {
          "internalType": "uint256",
          "name": "_numOfTokens",
          "type": "uint256"
        }
      ],
      "name": "addTokenstoALocker",
      "outputs": [],
      "stateMutability": "payable",
      "type": "function"
    },
    {
      "inputs": [
        {
          "internalType": "uint256",
          "name": "_id",
          "type": "uint256"
        },
        {
          "internalType": "uint256",
          "name": "_additionTime",
          "type": "uint256"
        }
      ],
      "name": "increaseLocktime",
      "outputs": [],
      "stateMutability": "payable",
      "type": "function"
    },
    {
      "inputs": [
        {
          "internalType": "address",
          "name": "_userAddress",
          "type": "address"
        }
      ],
      "name": "getLockersListbyUser",
      "outputs": [
        {
          "internalType": "uint256[]",
          "name": "",
          "type": "uint256[]"
        }
      ],
      "stateMutability": "view",
      "type": "function"
    },
    {
      "inputs": [
        {
          "internalType": "address",
          "name": "_tokenAddress",
          "type": "address"
        }
      ],
      "name": "getLockersListbyToken",
      "outputs": [
        {
          "internalType": "uint256[]",
          "name": "",
          "type": "uint256[]"
        }
      ],
      "stateMutability": "view",
      "type": "function"
    },
    {
      "inputs": [
        {
          "internalType": "uint256",
          "name": "_lockFee",
          "type": "uint256"
        },
        {
          "internalType": "uint256",
          "name": "_updatingFee",
          "type": "uint256"
        }
      ],
      "name": "updateFees",
      "outputs": [],
      "stateMutability": "nonpayable",
      "type": "function"
    },
    {
      "inputs": [],
      "name": "withdrawFunds",
      "outputs": [],
      "stateMutability": "nonpayable",
      "type": "function"
    }
  ],
  "bytecode": "0x608060405267016345785d8a000060025566b1a2bc2ec500006003553480156200002857600080fd5b50620000496200003d6200004f60201b60201c565b6200005760201b60201c565b6200011b565b600033905090565b60008060009054906101000a900473ffffffffffffffffffffffffffffffffffffffff169050816000806101000a81548173ffffffffffffffffffffffffffffffffffffffff021916908373ffffffffffffffffffffffffffffffffffffffff1602179055508173ffffffffffffffffffffffffffffffffffffffff168173ffffffffffffffffffffffffffffffffffffffff167f8be0079c531659141344cd1fd0a4f28419497f9722a3daafe3b4186f6b6457e060405160405180910390a35050565b6133e6806200012b6000396000f3fe608060405260043610620000fe5760003560e01c80638da5cb5b1162000097578063eb99651b1162000061578063eb99651b1462000303578063f2fde38b1462000323578063f88a52551462000351578063fdfcad86146200037157620000fe565b80638da5cb5b1462000227578063b226aca21462000257578063b8e4a2e61462000287578063ccd96eb614620002d357620000fe565b806356a0623511620000d957806356a06235146200018f57806361a696d614620001bf5780636db7943714620001df578063715018a6146200020d57620000fe565b8063092eeb13146200010357806324600fc314620001475780633190cbf81462000161575b600080fd5b3480156200011057600080fd5b506200012f600480360381019062000129919062001a68565b620003b5565b6040516200013e919062001ee5565b60405180910390f35b3480156200015457600080fd5b506200015f6200044e565b005b3480156200016e57600080fd5b506200018d600480360381019062000187919062001b70565b62000570565b005b3480156200019c57600080fd5b50620001a762000a25565b604051620001b69190620020c3565b60405180910390f35b620001dd6004803603810190620001d7919062001b70565b62000a2b565b005b348015620001ec57600080fd5b506200020b600480360381019062000205919062001b70565b62000dc1565b005b3480156200021a57600080fd5b506200022562000e56565b005b3480156200023457600080fd5b506200023f62000ee7565b6040516200024e919062001e8b565b60405180910390f35b3480156200026457600080fd5b506200026f62000f10565b6040516200027e9190620020c3565b60405180910390f35b3480156200029457600080fd5b50620002b36004803603810190620002ad919062001b3e565b62000f16565b604051620002ca999897969594939291906200218a565b60405180910390f35b348015620002e057600080fd5b50620002eb62000fde565b604051620002fa9190620020c3565b60405180910390f35b6200032160048036038101906200031b919062001b70565b62000fe4565b005b3480156200033057600080fd5b506200034f600480360381019062000349919062001a68565b6200126f565b005b6200036f600480360381019062000369919062001acc565b62001373565b005b3480156200037e57600080fd5b506200039d600480360381019062000397919062001a68565b62001869565b604051620003ac919062001ee5565b60405180910390f35b6060600560008373ffffffffffffffffffffffffffffffffffffffff1673ffffffffffffffffffffffffffffffffffffffff1681526020019081526020016000208054806020026020016040519081016040528092919081815260200182805480156200044257602002820191906000526020600020905b8154815260200190600101908083116200042d575b50505050509050919050565b6200045862001902565b73ffffffffffffffffffffffffffffffffffffffff166200047862000ee7565b73ffffffffffffffffffffffffffffffffffffffff1614620004d1576040517f08c379a0000000000000000000000000000000000000000000000000000000008152600401620004c89062002019565b60405180910390fd5b6000479050600081116200051c576040517f08c379a0000000000000000000000000000000000000000000000000000000008152600401620005139062001f4d565b60405180910390fd5b6200052662000ee7565b73ffffffffffffffffffffffffffffffffffffffff166108fc829081150290604051600060405180830381858888f193505050501580156200056c573d6000803e3d6000fd5b5050565b816200057b62001902565b73ffffffffffffffffffffffffffffffffffffffff166004600083815260200190815260200160002060010160019054906101000a900473ffffffffffffffffffffffffffffffffffffffff1673ffffffffffffffffffffffffffffffffffffffff161462000621576040517f08c379a00000000000000000000000000000000000000000000000000000000081526004016200061890620020a1565b60405180910390fd5b8260046000828152602001908152602001600020600601544210156200067e576040517f08c379a0000000000000000000000000000000000000000000000000000000008152600401620006759062001ff7565b60405180910390fd5b60006004600086815260200190815260200160002060405180610120016040529081600082015481526020016001820160009054906101000a900460ff166001811115620006d157620006d062002424565b5b6001811115620006e657620006e562002424565b5b81526020016001820160019054906101000a900473ffffffffffffffffffffffffffffffffffffffff1673ffffffffffffffffffffffffffffffffffffffff1673ffffffffffffffffffffffffffffffffffffffff1681526020016002820160009054906101000a900473ffffffffffffffffffffffffffffffffffffffff1673ffffffffffffffffffffffffffffffffffffffff1673ffffffffffffffffffffffffffffffffffffffff1681526020016003820160009054906101000a900473ffffffffffffffffffffffffffffffffffffffff1673ffffffffffffffffffffffffffffffffffffffff1673ffffffffffffffffffffffffffffffffffffffff1681526020016004820154815260200160058201548152602001600682015481526020016007820160009054906101000a900460ff16600181111562000832576200083162002424565b5b600181111562000847576200084662002424565b5b815250509050838160a00151101562000897576040517f08c379a00000000000000000000000000000000000000000000000000000000081526004016200088e9062001fb3565b60405180910390fd5b6004600086815260200190815260200160002060030160009054906101000a900473ffffffffffffffffffffffffffffffffffffffff1673ffffffffffffffffffffffffffffffffffffffff16637c405325856040518263ffffffff1660e01b8152600401620009089190620020c3565b600060405180830381600087803b1580156200092357600080fd5b505af115801562000938573d6000803e3d6000fd5b5050505062000955848260a001516200190a90919063ffffffff16565b6004600087815260200190815260200160002060040181905550600060046000878152602001908152602001600020600401541415620009d25760016004600087815260200190815260200160002060070160006101000a81548160ff02191690836001811115620009cc57620009cb62002424565b5b02179055505b7ff0d7c30a27ebad52fb56830c599bf0535e86a95f4fc57fa7ec7b058b6e86aa5885620009fe62001902565b83606001518760405162000a169493929190620020e0565b60405180910390a15050505050565b60025481565b8162000a3662001902565b73ffffffffffffffffffffffffffffffffffffffff166004600083815260200190815260200160002060010160019054906101000a900473ffffffffffffffffffffffffffffffffffffffff1673ffffffffffffffffffffffffffffffffffffffff161462000adc576040517f08c379a000000000000000000000000000000000000000000000000000000000815260040162000ad390620020a1565b60405180910390fd5b826004600082815260200190815260200160002060060154421062000b38576040517f08c379a000000000000000000000000000000000000000000000000000000000815260040162000b2f9062001f2b565b60405180910390fd5b60035434101562000b80576040517f08c379a000000000000000000000000000000000000000000000000000000000815260040162000b77906200205d565b60405180910390fd5b6000831162000bc6576040517f08c379a000000000000000000000000000000000000000000000000000000000815260040162000bbd9062001f09565b60405180910390fd5b6004600085815260200190815260200160002060020160009054906101000a900473ffffffffffffffffffffffffffffffffffffffff1673ffffffffffffffffffffffffffffffffffffffff166323b872dd62000c2262001902565b6004600088815260200190815260200160002060030160009054906101000a900473ffffffffffffffffffffffffffffffffffffffff16866040518463ffffffff1660e01b815260040162000c7a9392919062001ea8565b602060405180830381600087803b15801562000c9557600080fd5b505af115801562000caa573d6000803e3d6000fd5b505050506040513d601f19601f8201168201806040525081019062000cd0919062001a9a565b506004600085815260200190815260200160002060030160009054906101000a900473ffffffffffffffffffffffffffffffffffffffff1673ffffffffffffffffffffffffffffffffffffffff1663efda3cc5846040518263ffffffff1660e01b815260040162000d429190620020c3565b600060405180830381600087803b15801562000d5d57600080fd5b505af115801562000d72573d6000803e3d6000fd5b5050505062000da18360046000878152602001908152602001600020600401546200192290919063ffffffff16565b600460008681526020019081526020016000206004018190555050505050565b62000dcb62001902565b73ffffffffffffffffffffffffffffffffffffffff1662000deb62000ee7565b73ffffffffffffffffffffffffffffffffffffffff161462000e44576040517f08c379a000000000000000000000000000000000000000000000000000000000815260040162000e3b9062002019565b60405180910390fd5b81600281905550806003819055505050565b62000e6062001902565b73ffffffffffffffffffffffffffffffffffffffff1662000e8062000ee7565b73ffffffffffffffffffffffffffffffffffffffff161462000ed9576040517f08c379a000000000000000000000000000000000000000000000000000000000815260040162000ed09062002019565b60405180910390fd5b62000ee560006200193a565b565b60008060009054906101000a900473ffffffffffffffffffffffffffffffffffffffff16905090565b60035481565b60046020528060005260406000206000915090508060000154908060010160009054906101000a900460ff16908060010160019054906101000a900473ffffffffffffffffffffffffffffffffffffffff16908060020160009054906101000a900473ffffffffffffffffffffffffffffffffffffffff16908060030160009054906101000a900473ffffffffffffffffffffffffffffffffffffffff16908060040154908060050154908060060154908060070160009054906101000a900460ff16905089565b60015481565b8162000fef62001902565b73ffffffffffffffffffffffffffffffffffffffff166004600083815260200190815260200160002060010160019054906101000a900473ffffffffffffffffffffffffffffffffffffffff1673ffffffffffffffffffffffffffffffffffffffff161462001095576040517f08c379a00000000000000000000000000000000000000000000000000000000081526004016200108c90620020a1565b60405180910390fd5b8260046000828152602001908152602001600020600601544210620010f1576040517f08c379a0000000000000000000000000000000000000000000000000000000008152600401620010e89062001f2b565b60405180910390fd5b60035434101562001139576040517f08c379a000000000000000000000000000000000000000000000000000000000815260040162001130906200203b565b60405180910390fd5b600083116200117f576040517f08c379a000000000000000000000000000000000000000000000000000000000815260040162001176906200207f565b60405180910390fd5b6004600085815260200190815260200160002060030160009054906101000a900473ffffffffffffffffffffffffffffffffffffffff1673ffffffffffffffffffffffffffffffffffffffff166360e9fec6846040518263ffffffff1660e01b8152600401620011f09190620020c3565b600060405180830381600087803b1580156200120b57600080fd5b505af115801562001220573d6000803e3d6000fd5b505050506200124f8360046000878152602001908152602001600020600601546200192290919063ffffffff16565b600460008681526020019081526020016000206006018190555050505050565b6200127962001902565b73ffffffffffffffffffffffffffffffffffffffff166200129962000ee7565b73ffffffffffffffffffffffffffffffffffffffff1614620012f2576040517f08c379a0000000000000000000000000000000000000000000000000000000008152600401620012e99062002019565b60405180910390fd5b600073ffffffffffffffffffffffffffffffffffffffff168173ffffffffffffffffffffffffffffffffffffffff16141562001365576040517f08c379a00000000000000000000000000000000000000000000000000000000081526004016200135c9062001f91565b60405180910390fd5b62001370816200193a565b50565b600254341015620013bb576040517f08c379a0000000000000000000000000000000000000000000000000000000008152600401620013b29062001f6f565b60405180910390fd5b42811162001400576040517f08c379a0000000000000000000000000000000000000000000000000000000008152600401620013f79062001fd5565b60405180910390fd5b600160008154809291906200141590620023a7565b919050555060006001546200142962001902565b8585856040516200143a90620019fe565b6200144a9594939291906200212d565b604051809103906000f08015801562001467573d6000803e3d6000fd5b5090508373ffffffffffffffffffffffffffffffffffffffff166323b872dd6200149062001902565b83866040518463ffffffff1660e01b8152600401620014b29392919062001ea8565b602060405180830381600087803b158015620014cd57600080fd5b505af1158015620014e2573d6000803e3d6000fd5b505050506040513d601f19601f8201168201806040525081019062001508919062001a9a565b50604051806101200160405280600154815260200186600181111562001533576200153262002424565b5b81526020016200154262001902565b73ffffffffffffffffffffffffffffffffffffffff1681526020018573ffffffffffffffffffffffffffffffffffffffff1681526020018273ffffffffffffffffffffffffffffffffffffffff16815260200184815260200142815260200183815260200160006001811115620015be57620015bd62002424565b5b8152506004600060015481526020019081526020016000206000820151816000015560208201518160010160006101000a81548160ff021916908360018111156200160e576200160d62002424565b5b021790555060408201518160010160016101000a81548173ffffffffffffffffffffffffffffffffffffffff021916908373ffffffffffffffffffffffffffffffffffffffff16021790555060608201518160020160006101000a81548173ffffffffffffffffffffffffffffffffffffffff021916908373ffffffffffffffffffffffffffffffffffffffff16021790555060808201518160030160006101000a81548173ffffffffffffffffffffffffffffffffffffffff021916908373ffffffffffffffffffffffffffffffffffffffff16021790555060a0820151816004015560c0820151816005015560e082015181600601556101008201518160070160006101000a81548160ff0219169083600181111562001735576200173462002424565b5b0217905550905050600660006200174b62001902565b73ffffffffffffffffffffffffffffffffffffffff1673ffffffffffffffffffffffffffffffffffffffff1681526020019081526020016000206001549080600181540180825580915050600190039060005260206000200160009091909190915055600560008573ffffffffffffffffffffffffffffffffffffffff1673ffffffffffffffffffffffffffffffffffffffff16815260200190815260200160002060015490806001815401808255809150506001900390600052602060002001600090919091909150557f1cb39d6ecc8f823fa6183785ee795ddcb2873e92effbff9b9a377ef7610356766001546200184462001902565b8686866040516200185a9594939291906200212d565b60405180910390a15050505050565b6060600660008373ffffffffffffffffffffffffffffffffffffffff1673ffffffffffffffffffffffffffffffffffffffff168152602001908152602001600020805480602002602001604051908101604052809291908181526020018280548015620018f657602002820191906000526020600020905b815481526020019060010190808311620018e1575b50505050509050919050565b600033905090565b600081836200191a9190620022d0565b905092915050565b6000818362001932919062002273565b905092915050565b60008060009054906101000a900473ffffffffffffffffffffffffffffffffffffffff169050816000806101000a81548173ffffffffffffffffffffffffffffffffffffffff021916908373ffffffffffffffffffffffffffffffffffffffff1602179055508173ffffffffffffffffffffffffffffffffffffffff168173ffffffffffffffffffffffffffffffffffffffff167f8be0079c531659141344cd1fd0a4f28419497f9722a3daafe3b4186f6b6457e060405160405180910390a35050565b610c6a806200274783390190565b60008135905062001a1d81620026e7565b92915050565b60008151905062001a348162002701565b92915050565b60008135905062001a4b816200271b565b92915050565b60008135905062001a62816200272c565b92915050565b60006020828403121562001a815762001a8062002453565b5b600062001a918482850162001a0c565b91505092915050565b60006020828403121562001ab35762001ab262002453565b5b600062001ac38482850162001a23565b91505092915050565b6000806000806080858703121562001ae95762001ae862002453565b5b600062001af98782880162001a3a565b945050602062001b0c8782880162001a0c565b935050604062001b1f8782880162001a51565b925050606062001b328782880162001a51565b91505092959194509250565b60006020828403121562001b575762001b5662002453565b5b600062001b678482850162001a51565b91505092915050565b6000806040838503121562001b8a5762001b8962002453565b5b600062001b9a8582860162001a51565b925050602062001bad8582860162001a51565b9150509250929050565b600062001bc5838362001e69565b60208301905092915050565b62001bdc816200230b565b82525050565b600062001bef8262002239565b62001bfb818562002251565b935062001c088362002229565b8060005b8381101562001c3f57815162001c23888262001bb7565b975062001c308362002244565b92505060018101905062001c0c565b5085935050505092915050565b62001c57816200237f565b82525050565b62001c688162002393565b82525050565b600062001c7d601f8362002262565b915062001c8a8262002458565b602082019050919050565b600062001ca460118362002262565b915062001cb18262002481565b602082019050919050565b600062001ccb60138362002262565b915062001cd882620024aa565b602082019050919050565b600062001cf260128362002262565b915062001cff82620024d3565b602082019050919050565b600062001d1960268362002262565b915062001d2682620024fc565b604082019050919050565b600062001d40601d8362002262565b915062001d4d826200254b565b602082019050919050565b600062001d6760208362002262565b915062001d748262002574565b602082019050919050565b600062001d8e601c8362002262565b915062001d9b826200259d565b602082019050919050565b600062001db560208362002262565b915062001dc282620025c6565b602082019050919050565b600062001ddc601b8362002262565b915062001de982620025ef565b602082019050919050565b600062001e03601b8362002262565b915062001e108262002618565b602082019050919050565b600062001e2a60268362002262565b915062001e378262002641565b604082019050919050565b600062001e51601d8362002262565b915062001e5e8262002690565b602082019050919050565b62001e748162002375565b82525050565b62001e858162002375565b82525050565b600060208201905062001ea2600083018462001bd1565b92915050565b600060608201905062001ebf600083018662001bd1565b62001ece602083018562001bd1565b62001edd604083018462001e7a565b949350505050565b6000602082019050818103600083015262001f01818462001be2565b905092915050565b6000602082019050818103600083015262001f248162001c6e565b9050919050565b6000602082019050818103600083015262001f468162001c95565b9050919050565b6000602082019050818103600083015262001f688162001cbc565b9050919050565b6000602082019050818103600083015262001f8a8162001ce3565b9050919050565b6000602082019050818103600083015262001fac8162001d0a565b9050919050565b6000602082019050818103600083015262001fce8162001d31565b9050919050565b6000602082019050818103600083015262001ff08162001d58565b9050919050565b60006020820190508181036000830152620020128162001d7f565b9050919050565b60006020820190508181036000830152620020348162001da6565b9050919050565b60006020820190508181036000830152620020568162001dcd565b9050919050565b60006020820190508181036000830152620020788162001df4565b9050919050565b600060208201905081810360008301526200209a8162001e1b565b9050919050565b60006020820190508181036000830152620020bc8162001e42565b9050919050565b6000602082019050620020da600083018462001e7a565b92915050565b6000608082019050620020f7600083018762001e7a565b62002106602083018662001bd1565b62002115604083018562001bd1565b62002124606083018462001e7a565b95945050505050565b600060a08201905062002144600083018862001e7a565b62002153602083018762001bd1565b62002162604083018662001bd1565b62002171606083018562001e7a565b62002180608083018462001e7a565b9695505050505050565b600061012082019050620021a2600083018c62001e7a565b620021b1602083018b62001c5d565b620021c0604083018a62001bd1565b620021cf606083018962001bd1565b620021de608083018862001bd1565b620021ed60a083018762001e7a565b620021fc60c083018662001e7a565b6200220b60e083018562001e7a565b6200221b61010083018462001c4c565b9a9950505050505050505050565b6000819050602082019050919050565b600081519050919050565b6000602082019050919050565b600082825260208201905092915050565b600082825260208201905092915050565b6000620022808262002375565b91506200228d8362002375565b9250827fffffffffffffffffffffffffffffffffffffffffffffffffffffffffffffffff03821115620022c557620022c4620023f5565b5b828201905092915050565b6000620022dd8262002375565b9150620022ea8362002375565b9250828210156200230057620022ff620023f5565b5b828203905092915050565b6000620023188262002355565b9050919050565b60008115159050919050565b60008190506200233b82620026b9565b919050565b60008190506200235082620026d0565b919050565b600073ffffffffffffffffffffffffffffffffffffffff82169050919050565b6000819050919050565b60006200238c826200232b565b9050919050565b6000620023a08262002340565b9050919050565b6000620023b48262002375565b91507fffffffffffffffffffffffffffffffffffffffffffffffffffffffffffffffff821415620023ea57620023e9620023f5565b5b600182019050919050565b7f4e487b7100000000000000000000000000000000000000000000000000000000600052601160045260246000fd5b7f4e487b7100000000000000000000000000000000000000000000000000000000600052602160045260246000fd5b600080fd5b7f546f6b656e732073686f756c64206265206d6f7265207468616e207a65726f00600082015250565b7f4e6f7420756e6c6f636b6564207965742e000000000000000000000000000000600082015250565b7f4e6f7468696e6720746f20776974686472617700000000000000000000000000600082015250565b7f506c656173652070617920746865206665650000000000000000000000000000600082015250565b7f4f776e61626c653a206e6577206f776e657220697320746865207a65726f206160008201527f6464726573730000000000000000000000000000000000000000000000000000602082015250565b7f4e6f7420656e6f75676820746f6b656e7320746f207769746864726177000000600082015250565b7f54686520756e6c6f636b2074696d652073686f756c6420696e20667574757265600082015250565b7f546865206c6f636b657220686173206265656e20657870697265642e00000000600082015250565b7f4f776e61626c653a2063616c6c6572206973206e6f7420746865206f776e6572600082015250565b7f706c656173652070617920746865207570646174696e67206665650000000000600082015250565b7f506c656173652070617920746865207570646174696e67206665650000000000600082015250565b7f4164646974696f6e2074696d652073686f756c64206265206d6f72652074686160008201527f6e207a65726f0000000000000000000000000000000000000000000000000000602082015250565b7f4f6e6c79206c6f636b6572206f6e77657220697320616c6c6f7765642e000000600082015250565b60028110620026cd57620026cc62002424565b5b50565b60028110620026e457620026e362002424565b5b50565b620026f2816200230b565b8114620026fe57600080fd5b50565b6200270c816200231f565b81146200271857600080fd5b50565b600281106200272957600080fd5b50565b620027378162002375565b81146200274357600080fd5b5056fe60806040523480156200001157600080fd5b5060405162000c6a38038062000c6a8339818101604052810190620000379190620001c4565b336000806101000a81548173ffffffffffffffffffffffffffffffffffffffff021916908373ffffffffffffffffffffffffffffffffffffffff1602179055506040518060c001604052808681526020018573ffffffffffffffffffffffffffffffffffffffff1681526020018473ffffffffffffffffffffffffffffffffffffffff1681526020018381526020014281526020018281525060016000820151816000015560208201518160010160006101000a81548173ffffffffffffffffffffffffffffffffffffffff021916908373ffffffffffffffffffffffffffffffffffffffff16021790555060408201518160020160006101000a81548173ffffffffffffffffffffffffffffffffffffffff021916908373ffffffffffffffffffffffffffffffffffffffff160217905550606082015181600301556080820151816004015560a082015181600501559050505050505050620002c3565b600081519050620001a7816200028f565b92915050565b600081519050620001be81620002a9565b92915050565b600080600080600060a08688031215620001e357620001e26200028a565b5b6000620001f388828901620001ad565b9550506020620002068882890162000196565b9450506040620002198882890162000196565b93505060606200022c88828901620001ad565b92505060806200023f88828901620001ad565b9150509295509295909350565b6000620002598262000260565b9050919050565b600073ffffffffffffffffffffffffffffffffffffffff82169050919050565b6000819050919050565b600080fd5b6200029a816200024c565b8114620002a657600080fd5b50565b620002b48162000280565b8114620002c057600080fd5b50565b61099780620002d36000396000f3fe608060405234801561001057600080fd5b50600436106100415760003560e01c806360e9fec6146100465780637c40532514610062578063efda3cc51461007e575b600080fd5b610060600480360381019061005b9190610566565b61009a565b005b61007c60048036038101906100779190610566565b6101d6565b005b61009860048036038101906100939190610566565b6103a7565b005b60016005015442106100e1576040517f08c379a00000000000000000000000000000000000000000000000000000000081526004016100d8906106a9565b60405180910390fd5b60008054906101000a900473ffffffffffffffffffffffffffffffffffffffff1673ffffffffffffffffffffffffffffffffffffffff163373ffffffffffffffffffffffffffffffffffffffff161461016f576040517f08c379a0000000000000000000000000000000000000000000000000000000008152600401610166906106c9565b60405180910390fd5b600081116101b2576040517f08c379a00000000000000000000000000000000000000000000000000000000081526004016101a990610709565b60405180910390fd5b6101ca816001600501546104e390919063ffffffff16565b60016005018190555050565b60016005015442101561021e576040517f08c379a0000000000000000000000000000000000000000000000000000000008152600401610215906106e9565b60405180910390fd5b60008054906101000a900473ffffffffffffffffffffffffffffffffffffffff1673ffffffffffffffffffffffffffffffffffffffff163373ffffffffffffffffffffffffffffffffffffffff16146102ac576040517f08c379a00000000000000000000000000000000000000000000000000000000081526004016102a3906106c9565b60405180910390fd5b600160020160009054906101000a900473ffffffffffffffffffffffffffffffffffffffff1673ffffffffffffffffffffffffffffffffffffffff1663a9059cbb6001800160009054906101000a900473ffffffffffffffffffffffffffffffffffffffff16836040518363ffffffff1660e01b8152600401610330929190610660565b602060405180830381600087803b15801561034a57600080fd5b505af115801561035e573d6000803e3d6000fd5b505050506040513d601f19601f820116820180604052508101906103829190610539565b5061039b816001600301546104f990919063ffffffff16565b60016003018190555050565b60016005015442106103ee576040517f08c379a00000000000000000000000000000000000000000000000000000000081526004016103e5906106a9565b60405180910390fd5b60008054906101000a900473ffffffffffffffffffffffffffffffffffffffff1673ffffffffffffffffffffffffffffffffffffffff163373ffffffffffffffffffffffffffffffffffffffff161461047c576040517f08c379a0000000000000000000000000000000000000000000000000000000008152600401610473906106c9565b60405180910390fd5b600081116104bf576040517f08c379a00000000000000000000000000000000000000000000000000000000081526004016104b690610689565b60405180910390fd5b6104d7816001600301546104e390919063ffffffff16565b60016003018190555050565b600081836104f1919061073a565b905092915050565b600081836105079190610790565b905092915050565b60008151905061051e81610933565b92915050565b6000813590506105338161094a565b92915050565b60006020828403121561054f5761054e61083b565b5b600061055d8482850161050f565b91505092915050565b60006020828403121561057c5761057b61083b565b5b600061058a84828501610524565b91505092915050565b61059c816107c4565b82525050565b60006105af601f83610729565b91506105ba82610840565b602082019050919050565b60006105d2601183610729565b91506105dd82610869565b602082019050919050565b60006105f5601f83610729565b915061060082610892565b602082019050919050565b6000610618601c83610729565b9150610623826108bb565b602082019050919050565b600061063b602683610729565b9150610646826108e4565b604082019050919050565b61065a81610802565b82525050565b60006040820190506106756000830185610593565b6106826020830184610651565b9392505050565b600060208201905081810360008301526106a2816105a2565b9050919050565b600060208201905081810360008301526106c2816105c5565b9050919050565b600060208201905081810360008301526106e2816105e8565b9050919050565b600060208201905081810360008301526107028161060b565b9050919050565b600060208201905081810360008301526107228161062e565b9050919050565b600082825260208201905092915050565b600061074582610802565b915061075083610802565b9250827fffffffffffffffffffffffffffffffffffffffffffffffffffffffffffffffff038211156107855761078461080c565b5b828201905092915050565b600061079b82610802565b91506107a683610802565b9250828210156107b9576107b861080c565b5b828203905092915050565b60006107cf826107e2565b9050919050565b60008115159050919050565b600073ffffffffffffffffffffffffffffffffffffffff82169050919050565b6000819050919050565b7f4e487b7100000000000000000000000000000000000000000000000000000000600052601160045260246000fd5b600080fd5b7f546f6b656e732073686f756c64206265206d6f7265207468616e207a65726f00600082015250565b7f4e6f7420756e6c6f636b6564207965742e000000000000000000000000000000600082015250565b7f4f6e6c79206d617374657220697320616c6c6f77656420746f2063616c6c2e00600082015250565b7f546865206c6f636b657220686173206265656e20657870697265642e00000000600082015250565b7f4164646974696f6e2074696d652073686f756c64206265206d6f72652074686160008201527f6e207a65726f0000000000000000000000000000000000000000000000000000602082015250565b61093c816107d6565b811461094757600080fd5b50565b61095381610802565b811461095e57600080fd5b5056fea2646970667358221220547e8909eb1ecaf8e19de21234216da608c65a76051fffeaa5105a8dba57f69c64736f6c63430008070033a2646970667358221220ed77a2befc026c423bef88e984aee87c9dc9b072697e7e19a4f67d5f039cdabc64736f6c63430008070033",
  "immutableReferences": {},
  "source": "// SPDX-License-Identifier: MIT\r\npragma solidity ^0.8.0;\r\n\r\nimport \"./IERC20.sol\";\r\nimport \"./Ownable.sol\";\r\nimport \"./SafeMath.sol\";\r\nimport \"./PLock.sol\";\r\nimport \"./IPLock.sol\";\r\n\r\n\r\ncontract PICNICLockerFactory is Ownable {\r\n\r\n    using SafeMath for uint;\r\n    uint public lockerCount;    \r\n\r\n    uint public lockFee = 0.1 ether;\r\n    uint public updateLokcerFee = 0.05 ether;\r\n\r\n    mapping(uint => Loker)  public loker;\r\n    mapping(address => uint[])  lockersListByTokenAddress;\r\n    mapping(address => uint[])  lockersListByUserAddress;\r\n\r\n    enum Status {LOCKED, WITHDRAWED}\r\n    enum Type {TOKEN, LPTOKEN}\r\n\r\n    struct Loker {\r\n        uint id;\r\n        Type _type;\r\n        address owner; \r\n        address tokenAddress;\r\n        address lockerAddress;\r\n        uint numOfTokens;\r\n        uint lockTime;\r\n        uint unlockTime;\r\n        Status status;\r\n    }\r\n\r\n    event Locked (uint id, address owner, address token, uint numOfTokens, uint unlockTime);\r\n    event Unlocked (uint id, address owner, address token, uint numOfTokens);\r\n\r\n    modifier OnlyLockerOnwer(uint _id) {\r\n        require(loker[_id].owner == _msgSender(), \"Only locker onwer is allowed.\"); \r\n        _;\r\n    }\r\n\r\n    modifier NotExpired(uint _id) {\r\n        require(block.timestamp < loker[_id].unlockTime, \"Not unlocked yet.\");\r\n        _;\r\n    }\r\n\r\n    modifier Expired(uint _id) {\r\n        require(block.timestamp >= loker[_id].unlockTime, \"The locker has been expired.\");\r\n        _;\r\n    }\r\n\r\n\r\n\r\n    function createLcoker(Type _type, address _token, uint _numOfTokens, uint _unlockTime) payable public {\r\n\r\n        require(msg.value >= lockFee, \"Please pay the fee\");\r\n        require(_unlockTime > block.timestamp, \"The unlock time should in future\");\r\n\r\n        lockerCount++;\r\n\r\n        PLock lockerr = new PLock(lockerCount, _msgSender(), _token, _numOfTokens, _unlockTime);\r\n        IERC20(_token).transferFrom(_msgSender(), address(lockerr), _numOfTokens);\r\n\r\n        loker[lockerCount] = Loker(\r\n            lockerCount,\r\n            _type,\r\n            _msgSender(),\r\n            _token,\r\n            address(lockerr),\r\n            _numOfTokens,\r\n            block.timestamp,\r\n            _unlockTime,\r\n            Status.LOCKED\r\n        );\r\n\r\n        lockersListByUserAddress[_msgSender()].push(lockerCount);\r\n        lockersListByTokenAddress[_token].push(lockerCount);\r\n\r\n        emit Locked (lockerCount, _msgSender(), _token, _numOfTokens, _unlockTime );\r\n        \r\n    }\r\n\r\n    \r\n    function unlockTokens(uint _id, uint _numOfTokens) public OnlyLockerOnwer(_id) Expired(_id) {\r\n\r\n        Loker memory lokerData = loker[_id];\r\n        require(lokerData.numOfTokens >= _numOfTokens, \"Not enough tokens to withdraw\");\r\n\r\n        IPLock(loker[_id].lockerAddress).unlockTokens(_numOfTokens);\r\n\r\n        loker[_id].numOfTokens = lokerData.numOfTokens.sub(_numOfTokens);   \r\n\r\n        if(loker[_id].numOfTokens == 0 ){\r\n            loker[_id].status = Status.WITHDRAWED;\r\n        }\r\n\r\n        emit Unlocked (_id, _msgSender(), lokerData.tokenAddress, _numOfTokens);\r\n\r\n    }\r\n\r\n    function addTokenstoALocker(uint _id, uint _numOfTokens) payable public OnlyLockerOnwer(_id) NotExpired(_id) {\r\n\r\n        require(msg.value >= updateLokcerFee, \"Please pay the updating fee\");\r\n        require(_numOfTokens > 0, \"Tokens should be more than zero\");\r\n\r\n        IERC20(loker[_id].tokenAddress).transferFrom(_msgSender(), address(loker[_id].lockerAddress), _numOfTokens);\r\n        IPLock(loker[_id].lockerAddress).addTokenstoALocker(_numOfTokens);\r\n\r\n        loker[_id].numOfTokens = loker[_id].numOfTokens.add(_numOfTokens);\r\n\r\n    }\r\n\r\n    function increaseLocktime(uint _id, uint _additionTime) payable public OnlyLockerOnwer(_id) NotExpired(_id) {\r\n\r\n        require(msg.value >= updateLokcerFee, \"please pay the updating fee\");\r\n        require(_additionTime > 0, \"Addition time should be more than zero\");\r\n\r\n        IPLock(loker[_id].lockerAddress).increaseLocktime(_additionTime);\r\n        loker[_id].unlockTime = loker[_id].unlockTime.add(_additionTime);\r\n\r\n    }\r\n\r\n    function getLockersListbyUser(address _userAddress) public view returns (uint[] memory) {\r\n        return lockersListByUserAddress[_userAddress];\r\n    }\r\n\r\n    function getLockersListbyToken(address _tokenAddress) public view returns (uint[] memory) {\r\n        return lockersListByTokenAddress[_tokenAddress];\r\n    }\r\n\r\n    function updateFees(uint _lockFee, uint _updatingFee) public onlyOwner {\r\n        lockFee = _lockFee;\r\n        updateLokcerFee = _updatingFee;\r\n    }\r\n\r\n    function withdrawFunds() public onlyOwner {\r\n        uint balance = address(this).balance;\r\n        require(balance > 0, \"Nothing to withdraw\");\r\n        payable(owner()).transfer(balance);\r\n    }\r\n}",
  "sourcePath": "D:\\Fiverr\\picnic-v2\\Locker\\contracts\\PICNICLokcerFactory.sol",
  "compiler": {
    "name": "solc",
    "version": "0.8.7+commit.e28d00a7.Emscripten.clang"
  },
  "schemaVersion": "3.4.3",
  "updatedAt": "2022-01-18T11:14:32.116Z",
  "devdoc": {
    "kind": "dev",
    "methods": {
      "owner()": {
        "details": "Returns the address of the current owner."
      },
      "renounceOwnership()": {
        "details": "Leaves the contract without owner. It will not be possible to call `onlyOwner` functions anymore. Can only be called by the current owner. NOTE: Renouncing ownership will leave the contract without an owner, thereby removing any functionality that is only available to the owner."
      },
      "transferOwnership(address)": {
        "details": "Transfers ownership of the contract to a new account (`newOwner`). Can only be called by the current owner."
      }
    },
    "version": 1
  },
  "userdoc": {
    "kind": "user",
    "methods": {},
    "version": 1
  }
}