{
    "contractName": "PICNICLocker",
    "abi": [
        {
            "anonymous": false,
            "inputs": [
                {
                    "indexed": false,
                    "internalType": "uint256",
                    "name": "id",
                    "type": "uint256"
                },
                {
                    "indexed": false,
                    "internalType": "address",
                    "name": "owner",
                    "type": "address"
                },
                {
                    "indexed": false,
                    "internalType": "address",
                    "name": "token",
                    "type": "address"
                },
                {
                    "indexed": false,
                    "internalType": "uint256",
                    "name": "numOfTokens",
                    "type": "uint256"
                },
                {
                    "indexed": false,
                    "internalType": "uint256",
                    "name": "unlockTime",
                    "type": "uint256"
                }
            ],
            "name": "Locked",
            "type": "event"
        },
        {
            "anonymous": false,
            "inputs": [
                {
                    "indexed": true,
                    "internalType": "address",
                    "name": "previousOwner",
                    "type": "address"
                },
                {
                    "indexed": true,
                    "internalType": "address",
                    "name": "newOwner",
                    "type": "address"
                }
            ],
            "name": "OwnershipTransferred",
            "type": "event"
        },
        {
            "anonymous": false,
            "inputs": [
                {
                    "indexed": false,
                    "internalType": "uint256",
                    "name": "id",
                    "type": "uint256"
                },
                {
                    "indexed": false,
                    "internalType": "address",
                    "name": "owner",
                    "type": "address"
                },
                {
                    "indexed": false,
                    "internalType": "address",
                    "name": "token",
                    "type": "address"
                },
                {
                    "indexed": false,
                    "internalType": "uint256",
                    "name": "numOfTokens",
                    "type": "uint256"
                }
            ],
            "name": "Unlocked",
            "type": "event"
        },
        {
            "inputs": [],
            "name": "lockFee",
            "outputs": [
                {
                    "internalType": "uint256",
                    "name": "",
                    "type": "uint256"
                }
            ],
            "stateMutability": "view",
            "type": "function"
        },
        {
            "inputs": [],
            "name": "lockerCount",
            "outputs": [
                {
                    "internalType": "uint256",
                    "name": "",
                    "type": "uint256"
                }
            ],
            "stateMutability": "view",
            "type": "function"
        },
        {
            "inputs": [
                {
                    "internalType": "uint256",
                    "name": "",
                    "type": "uint256"
                }
            ],
            "name": "loker",
            "outputs": [
                {
                    "internalType": "uint256",
                    "name": "id",
                    "type": "uint256"
                },
                {
                    "internalType": "enum PICNICLocker.Type",
                    "name": "_type",
                    "type": "uint8"
                },
                {
                    "internalType": "address",
                    "name": "owner",
                    "type": "address"
                },
                {
                    "internalType": "address",
                    "name": "tokenAddress",
                    "type": "address"
                },
                {
                    "internalType": "uint256",
                    "name": "numOfTokens",
                    "type": "uint256"
                },
                {
                    "internalType": "uint256",
                    "name": "lockTime",
                    "type": "uint256"
                },
                {
                    "internalType": "uint256",
                    "name": "unlockTime",
                    "type": "uint256"
                },
                {
                    "internalType": "enum PICNICLocker.Status",
                    "name": "status",
                    "type": "uint8"
                }
            ],
            "stateMutability": "view",
            "type": "function"
        },
        {
            "inputs": [],
            "name": "owner",
            "outputs": [
                {
                    "internalType": "address",
                    "name": "",
                    "type": "address"
                }
            ],
            "stateMutability": "view",
            "type": "function"
        },
        {
            "inputs": [],
            "name": "renounceOwnership",
            "outputs": [],
            "stateMutability": "nonpayable",
            "type": "function"
        },
        {
            "inputs": [
                {
                    "internalType": "address",
                    "name": "newOwner",
                    "type": "address"
                }
            ],
            "name": "transferOwnership",
            "outputs": [],
            "stateMutability": "nonpayable",
            "type": "function"
        },
        {
            "inputs": [],
            "name": "updateLokcerFee",
            "outputs": [
                {
                    "internalType": "uint256",
                    "name": "",
                    "type": "uint256"
                }
            ],
            "stateMutability": "view",
            "type": "function"
        },
        {
            "inputs": [
                {
                    "internalType": "enum PICNICLocker.Type",
                    "name": "_type",
                    "type": "uint8"
                },
                {
                    "internalType": "address",
                    "name": "_token",
                    "type": "address"
                },
                {
                    "internalType": "uint256",
                    "name": "_numOfTokens",
                    "type": "uint256"
                },
                {
                    "internalType": "uint256",
                    "name": "_unlockTime",
                    "type": "uint256"
                }
            ],
            "name": "lockTokens",
            "outputs": [],
            "stateMutability": "payable",
            "type": "function"
        },
        {
            "inputs": [
                {
                    "internalType": "uint256",
                    "name": "_id",
                    "type": "uint256"
                },
                {
                    "internalType": "uint256",
                    "name": "_numOfTokens",
                    "type": "uint256"
                }
            ],
            "name": "unlockTokens",
            "outputs": [],
            "stateMutability": "nonpayable",
            "type": "function"
        },
        {
            "inputs": [
                {
                    "internalType": "uint256",
                    "name": "_id",
                    "type": "uint256"
                },
                {
                    "internalType": "uint256",
                    "name": "_numOfTokens",
                    "type": "uint256"
                }
            ],
            "name": "addTokenstoALocker",
            "outputs": [],
            "stateMutability": "payable",
            "type": "function"
        },
        {
            "inputs": [
                {
                    "internalType": "uint256",
                    "name": "_id",
                    "type": "uint256"
                },
                {
                    "internalType": "uint256",
                    "name": "_additionTime",
                    "type": "uint256"
                }
            ],
            "name": "increaseLocktime",
            "outputs": [],
            "stateMutability": "payable",
            "type": "function"
        },
        {
            "inputs": [
                {
                    "internalType": "address",
                    "name": "_userAddress",
                    "type": "address"
                }
            ],
            "name": "getLockersListbyUser",
            "outputs": [
                {
                    "internalType": "uint256[]",
                    "name": "",
                    "type": "uint256[]"
                }
            ],
            "stateMutability": "view",
            "type": "function"
        },
        {
            "inputs": [
                {
                    "internalType": "address",
                    "name": "_tokenAddress",
                    "type": "address"
                }
            ],
            "name": "getLockersListbyToken",
            "outputs": [
                {
                    "internalType": "uint256[]",
                    "name": "",
                    "type": "uint256[]"
                }
            ],
            "stateMutability": "view",
            "type": "function"
        },
        {
            "inputs": [
                {
                    "internalType": "uint256",
                    "name": "_lockFee",
                    "type": "uint256"
                },
                {
                    "internalType": "uint256",
                    "name": "_updatingFee",
                    "type": "uint256"
                }
            ],
            "name": "updateFees",
            "outputs": [],
            "stateMutability": "nonpayable",
            "type": "function"
        },
        {
            "inputs": [],
            "name": "withdrawFunds",
            "outputs": [],
            "stateMutability": "nonpayable",
            "type": "function"
        }
    ],
    "bytecode": "0x608060405267016345785d8a000060025566b1a2bc2ec5000060035534801561002757600080fd5b5061004461003961004960201b60201c565b61005160201b60201c565b610115565b600033905090565b60008060009054906101000a900473ffffffffffffffffffffffffffffffffffffffff169050816000806101000a81548173ffffffffffffffffffffffffffffffffffffffff021916908373ffffffffffffffffffffffffffffffffffffffff1602179055508173ffffffffffffffffffffffffffffffffffffffff168173ffffffffffffffffffffffffffffffffffffffff167f8be0079c531659141344cd1fd0a4f28419497f9722a3daafe3b4186f6b6457e060405160405180910390a35050565b6122e080620001256000396000f3fe6080604052600436106100e85760003560e01c80638da5cb5b1161008a578063d719a90d11610059578063d719a90d146102b6578063eb99651b146102d2578063f2fde38b146102ee578063fdfcad8614610317576100e8565b80638da5cb5b146101f1578063b226aca21461021c578063b8e4a2e614610247578063ccd96eb61461028b576100e8565b806356a06235116100c657806356a062351461016a57806361a696d6146101955780636db79437146101b1578063715018a6146101da576100e8565b8063092eeb13146100ed57806324600fc31461012a5780633190cbf814610141575b600080fd5b3480156100f957600080fd5b50610114600480360381019061010f9190611696565b610354565b6040516101219190611ac7565b60405180910390f35b34801561013657600080fd5b5061013f6103eb565b005b34801561014d57600080fd5b5061016860048036038101906101639190611784565b610500565b005b34801561017657600080fd5b5061017f610932565b60405161018c9190611c89565b60405180910390f35b6101af60048036038101906101aa9190611784565b610938565b005b3480156101bd57600080fd5b506101d860048036038101906101d39190611784565b610bdb565b005b3480156101e657600080fd5b506101ef610c69565b005b3480156101fd57600080fd5b50610206610cf1565b6040516102139190611a4c565b60405180910390f35b34801561022857600080fd5b50610231610d1a565b60405161023e9190611c89565b60405180910390f35b34801561025357600080fd5b5061026e60048036038101906102699190611757565b610d20565b604051610282989796959493929190611d3c565b60405180910390f35b34801561029757600080fd5b506102a0610dc2565b6040516102ad9190611c89565b60405180910390f35b6102d060048036038101906102cb91906116f0565b610dc8565b005b6102ec60048036038101906102e79190611784565b6111e5565b005b3480156102fa57600080fd5b5061031560048036038101906103109190611696565b6113bb565b005b34801561032357600080fd5b5061033e60048036038101906103399190611696565b6114b3565b60405161034b9190611ac7565b60405180910390f35b6060600560008373ffffffffffffffffffffffffffffffffffffffff1673ffffffffffffffffffffffffffffffffffffffff1681526020019081526020016000208054806020026020016040519081016040528092919081815260200182805480156103df57602002820191906000526020600020905b8154815260200190600101908083116103cb575b50505050509050919050565b6103f361154a565b73ffffffffffffffffffffffffffffffffffffffff16610411610cf1565b73ffffffffffffffffffffffffffffffffffffffff1614610467576040517f08c379a000000000000000000000000000000000000000000000000000000000815260040161045e90611be9565b60405180910390fd5b6000479050600081116104af576040517f08c379a00000000000000000000000000000000000000000000000000000000081526004016104a690611b29565b60405180910390fd5b6104b761154a565b73ffffffffffffffffffffffffffffffffffffffff166108fc829081150290604051600060405180830381858888f193505050501580156104fc573d6000803e3d6000fd5b5050565b8161050961154a565b73ffffffffffffffffffffffffffffffffffffffff166004600083815260200190815260200160002060010160019054906101000a900473ffffffffffffffffffffffffffffffffffffffff1673ffffffffffffffffffffffffffffffffffffffff16146105ac576040517f08c379a00000000000000000000000000000000000000000000000000000000081526004016105a390611c69565b60405180910390fd5b826004600082815260200190815260200160002060050154421015610606576040517f08c379a00000000000000000000000000000000000000000000000000000000081526004016105fd90611bc9565b60405180910390fd5b60006004600086815260200190815260200160002060405180610100016040529081600082015481526020016001820160009054906101000a900460ff16600181111561065657610655611f98565b5b600181111561066857610667611f98565b5b81526020016001820160019054906101000a900473ffffffffffffffffffffffffffffffffffffffff1673ffffffffffffffffffffffffffffffffffffffff1673ffffffffffffffffffffffffffffffffffffffff1681526020016002820160009054906101000a900473ffffffffffffffffffffffffffffffffffffffff1673ffffffffffffffffffffffffffffffffffffffff1673ffffffffffffffffffffffffffffffffffffffff1681526020016003820154815260200160048201548152602001600582015481526020016006820160009054906101000a900460ff16600181111561075b5761075a611f98565b5b600181111561076d5761076c611f98565b5b81525050905083816080015110156107ba576040517f08c379a00000000000000000000000000000000000000000000000000000000081526004016107b190611b89565b60405180910390fd5b806060015173ffffffffffffffffffffffffffffffffffffffff1663a9059cbb6107e261154a565b866040518363ffffffff1660e01b8152600401610800929190611a9e565b602060405180830381600087803b15801561081a57600080fd5b505af115801561082e573d6000803e3d6000fd5b505050506040513d601f19601f8201168201806040525081019061085291906116c3565b5061086a84826080015161155290919063ffffffff16565b60046000878152602001908152602001600020600301819055506000600460008781526020019081526020016000206003015414156108e35760016004600087815260200190815260200160002060060160006101000a81548160ff021916908360018111156108dd576108dc611f98565b5b02179055505b7ff0d7c30a27ebad52fb56830c599bf0535e86a95f4fc57fa7ec7b058b6e86aa588561090d61154a565b8360600151876040516109239493929190611ca4565b60405180910390a15050505050565b60025481565b8161094161154a565b73ffffffffffffffffffffffffffffffffffffffff166004600083815260200190815260200160002060010160019054906101000a900473ffffffffffffffffffffffffffffffffffffffff1673ffffffffffffffffffffffffffffffffffffffff16146109e4576040517f08c379a00000000000000000000000000000000000000000000000000000000081526004016109db90611c69565b60405180910390fd5b8260046000828152602001908152602001600020600501544210610a3d576040517f08c379a0000000000000000000000000000000000000000000000000000000008152600401610a3490611b09565b60405180910390fd5b600354341015610a82576040517f08c379a0000000000000000000000000000000000000000000000000000000008152600401610a7990611c29565b60405180910390fd5b60008311610ac5576040517f08c379a0000000000000000000000000000000000000000000000000000000008152600401610abc90611ae9565b60405180910390fd5b6004600085815260200190815260200160002060020160009054906101000a900473ffffffffffffffffffffffffffffffffffffffff1673ffffffffffffffffffffffffffffffffffffffff166323b872dd610b1f61154a565b30866040518463ffffffff1660e01b8152600401610b3f93929190611a67565b602060405180830381600087803b158015610b5957600080fd5b505af1158015610b6d573d6000803e3d6000fd5b505050506040513d601f19601f82011682018060405250810190610b9191906116c3565b50610bbb83600460008781526020019081526020016000206003015461156890919063ffffffff16565b600460008681526020019081526020016000206003018190555050505050565b610be361154a565b73ffffffffffffffffffffffffffffffffffffffff16610c01610cf1565b73ffffffffffffffffffffffffffffffffffffffff1614610c57576040517f08c379a0000000000000000000000000000000000000000000000000000000008152600401610c4e90611be9565b60405180910390fd5b81600281905550806003819055505050565b610c7161154a565b73ffffffffffffffffffffffffffffffffffffffff16610c8f610cf1565b73ffffffffffffffffffffffffffffffffffffffff1614610ce5576040517f08c379a0000000000000000000000000000000000000000000000000000000008152600401610cdc90611be9565b60405180910390fd5b610cef600061157e565b565b60008060009054906101000a900473ffffffffffffffffffffffffffffffffffffffff16905090565b60035481565b60046020528060005260406000206000915090508060000154908060010160009054906101000a900460ff16908060010160019054906101000a900473ffffffffffffffffffffffffffffffffffffffff16908060020160009054906101000a900473ffffffffffffffffffffffffffffffffffffffff16908060030154908060040154908060050154908060060160009054906101000a900460ff16905088565b60015481565b600254341015610e0d576040517f08c379a0000000000000000000000000000000000000000000000000000000008152600401610e0490611b49565b60405180910390fd5b428111610e4f576040517f08c379a0000000000000000000000000000000000000000000000000000000008152600401610e4690611ba9565b60405180910390fd5b8273ffffffffffffffffffffffffffffffffffffffff166323b872dd610e7361154a565b30856040518463ffffffff1660e01b8152600401610e9393929190611a67565b602060405180830381600087803b158015610ead57600080fd5b505af1158015610ec1573d6000803e3d6000fd5b505050506040513d601f19601f82011682018060405250810190610ee591906116c3565b5060016000815480929190610ef990611f20565b91905055506040518061010001604052806001548152602001856001811115610f2557610f24611f98565b5b8152602001610f3261154a565b73ffffffffffffffffffffffffffffffffffffffff1681526020018473ffffffffffffffffffffffffffffffffffffffff16815260200183815260200142815260200182815260200160006001811115610f8f57610f8e611f98565b5b8152506004600060015481526020019081526020016000206000820151816000015560208201518160010160006101000a81548160ff02191690836001811115610fdc57610fdb611f98565b5b021790555060408201518160010160016101000a81548173ffffffffffffffffffffffffffffffffffffffff021916908373ffffffffffffffffffffffffffffffffffffffff16021790555060608201518160020160006101000a81548173ffffffffffffffffffffffffffffffffffffffff021916908373ffffffffffffffffffffffffffffffffffffffff1602179055506080820151816003015560a0820151816004015560c0820151816005015560e08201518160060160006101000a81548160ff021916908360018111156110b8576110b7611f98565b5b0217905550905050600660006110cc61154a565b73ffffffffffffffffffffffffffffffffffffffff1673ffffffffffffffffffffffffffffffffffffffff1681526020019081526020016000206001549080600181540180825580915050600190039060005260206000200160009091909190915055600560008473ffffffffffffffffffffffffffffffffffffffff1673ffffffffffffffffffffffffffffffffffffffff16815260200190815260200160002060015490806001815401808255809150506001900390600052602060002001600090919091909150557f1cb39d6ecc8f823fa6183785ee795ddcb2873e92effbff9b9a377ef7610356766001546111c361154a565b8585856040516111d7959493929190611ce9565b60405180910390a150505050565b816111ee61154a565b73ffffffffffffffffffffffffffffffffffffffff166004600083815260200190815260200160002060010160019054906101000a900473ffffffffffffffffffffffffffffffffffffffff1673ffffffffffffffffffffffffffffffffffffffff1614611291576040517f08c379a000000000000000000000000000000000000000000000000000000000815260040161128890611c69565b60405180910390fd5b82600460008281526020019081526020016000206005015442106112ea576040517f08c379a00000000000000000000000000000000000000000000000000000000081526004016112e190611b09565b60405180910390fd5b60035434101561132f576040517f08c379a000000000000000000000000000000000000000000000000000000000815260040161132690611c09565b60405180910390fd5b60008311611372576040517f08c379a000000000000000000000000000000000000000000000000000000000815260040161136990611c49565b60405180910390fd5b61139b83600460008781526020019081526020016000206005015461156890919063ffffffff16565b600460008681526020019081526020016000206005018190555050505050565b6113c361154a565b73ffffffffffffffffffffffffffffffffffffffff166113e1610cf1565b73ffffffffffffffffffffffffffffffffffffffff1614611437576040517f08c379a000000000000000000000000000000000000000000000000000000000815260040161142e90611be9565b60405180910390fd5b600073ffffffffffffffffffffffffffffffffffffffff168173ffffffffffffffffffffffffffffffffffffffff1614156114a7576040517f08c379a000000000000000000000000000000000000000000000000000000000815260040161149e90611b69565b60405180910390fd5b6114b08161157e565b50565b6060600660008373ffffffffffffffffffffffffffffffffffffffff1673ffffffffffffffffffffffffffffffffffffffff16815260200190815260200160002080548060200260200160405190810160405280929190818152602001828054801561153e57602002820191906000526020600020905b81548152602001906001019080831161152a575b50505050509050919050565b600033905090565b600081836115609190611e5a565b905092915050565b600081836115769190611e04565b905092915050565b60008060009054906101000a900473ffffffffffffffffffffffffffffffffffffffff169050816000806101000a81548173ffffffffffffffffffffffffffffffffffffffff021916908373ffffffffffffffffffffffffffffffffffffffff1602179055508173ffffffffffffffffffffffffffffffffffffffff168173ffffffffffffffffffffffffffffffffffffffff167f8be0079c531659141344cd1fd0a4f28419497f9722a3daafe3b4186f6b6457e060405160405180910390a35050565b60008135905061165181612255565b92915050565b6000815190506116668161226c565b92915050565b60008135905061167b81612283565b92915050565b60008135905061169081612293565b92915050565b6000602082840312156116ac576116ab611fc7565b5b60006116ba84828501611642565b91505092915050565b6000602082840312156116d9576116d8611fc7565b5b60006116e784828501611657565b91505092915050565b6000806000806080858703121561170a57611709611fc7565b5b60006117188782880161166c565b945050602061172987828801611642565b935050604061173a87828801611681565b925050606061174b87828801611681565b91505092959194509250565b60006020828403121561176d5761176c611fc7565b5b600061177b84828501611681565b91505092915050565b6000806040838503121561179b5761179a611fc7565b5b60006117a985828601611681565b92505060206117ba85828601611681565b9150509250929050565b60006117d08383611a2e565b60208301905092915050565b6117e581611e8e565b82525050565b60006117f682611dca565b6118008185611de2565b935061180b83611dba565b8060005b8381101561183c57815161182388826117c4565b975061182e83611dd5565b92505060018101905061180f565b5085935050505092915050565b61185281611efc565b82525050565b61186181611f0e565b82525050565b6000611874601f83611df3565b915061187f82611fcc565b602082019050919050565b6000611897601183611df3565b91506118a282611ff5565b602082019050919050565b60006118ba601383611df3565b91506118c58261201e565b602082019050919050565b60006118dd601283611df3565b91506118e882612047565b602082019050919050565b6000611900602683611df3565b915061190b82612070565b604082019050919050565b6000611923601d83611df3565b915061192e826120bf565b602082019050919050565b6000611946602083611df3565b9150611951826120e8565b602082019050919050565b6000611969601c83611df3565b915061197482612111565b602082019050919050565b600061198c602083611df3565b91506119978261213a565b602082019050919050565b60006119af601b83611df3565b91506119ba82612163565b602082019050919050565b60006119d2601b83611df3565b91506119dd8261218c565b602082019050919050565b60006119f5602683611df3565b9150611a00826121b5565b604082019050919050565b6000611a18601d83611df3565b9150611a2382612204565b602082019050919050565b611a3781611ef2565b82525050565b611a4681611ef2565b82525050565b6000602082019050611a6160008301846117dc565b92915050565b6000606082019050611a7c60008301866117dc565b611a8960208301856117dc565b611a966040830184611a3d565b949350505050565b6000604082019050611ab360008301856117dc565b611ac06020830184611a3d565b9392505050565b60006020820190508181036000830152611ae181846117eb565b905092915050565b60006020820190508181036000830152611b0281611867565b9050919050565b60006020820190508181036000830152611b228161188a565b9050919050565b60006020820190508181036000830152611b42816118ad565b9050919050565b60006020820190508181036000830152611b62816118d0565b9050919050565b60006020820190508181036000830152611b82816118f3565b9050919050565b60006020820190508181036000830152611ba281611916565b9050919050565b60006020820190508181036000830152611bc281611939565b9050919050565b60006020820190508181036000830152611be28161195c565b9050919050565b60006020820190508181036000830152611c028161197f565b9050919050565b60006020820190508181036000830152611c22816119a2565b9050919050565b60006020820190508181036000830152611c42816119c5565b9050919050565b60006020820190508181036000830152611c62816119e8565b9050919050565b60006020820190508181036000830152611c8281611a0b565b9050919050565b6000602082019050611c9e6000830184611a3d565b92915050565b6000608082019050611cb96000830187611a3d565b611cc660208301866117dc565b611cd360408301856117dc565b611ce06060830184611a3d565b95945050505050565b600060a082019050611cfe6000830188611a3d565b611d0b60208301876117dc565b611d1860408301866117dc565b611d256060830185611a3d565b611d326080830184611a3d565b9695505050505050565b600061010082019050611d52600083018b611a3d565b611d5f602083018a611858565b611d6c60408301896117dc565b611d7960608301886117dc565b611d866080830187611a3d565b611d9360a0830186611a3d565b611da060c0830185611a3d565b611dad60e0830184611849565b9998505050505050505050565b6000819050602082019050919050565b600081519050919050565b6000602082019050919050565b600082825260208201905092915050565b600082825260208201905092915050565b6000611e0f82611ef2565b9150611e1a83611ef2565b9250827fffffffffffffffffffffffffffffffffffffffffffffffffffffffffffffffff03821115611e4f57611e4e611f69565b5b828201905092915050565b6000611e6582611ef2565b9150611e7083611ef2565b925082821015611e8357611e82611f69565b5b828203905092915050565b6000611e9982611ed2565b9050919050565b60008115159050919050565b6000819050611eba8261222d565b919050565b6000819050611ecd82612241565b919050565b600073ffffffffffffffffffffffffffffffffffffffff82169050919050565b6000819050919050565b6000611f0782611eac565b9050919050565b6000611f1982611ebf565b9050919050565b6000611f2b82611ef2565b91507fffffffffffffffffffffffffffffffffffffffffffffffffffffffffffffffff821415611f5e57611f5d611f69565b5b600182019050919050565b7f4e487b7100000000000000000000000000000000000000000000000000000000600052601160045260246000fd5b7f4e487b7100000000000000000000000000000000000000000000000000000000600052602160045260246000fd5b600080fd5b7f546f6b656e732073686f756c64206265206d6f7265207468616e207a65726f00600082015250565b7f4e6f7420756e6c6f636b6564207965742e000000000000000000000000000000600082015250565b7f4e6f7468696e6720746f20776974686472617700000000000000000000000000600082015250565b7f506c656173652070617920746865206665650000000000000000000000000000600082015250565b7f4f776e61626c653a206e6577206f776e657220697320746865207a65726f206160008201527f6464726573730000000000000000000000000000000000000000000000000000602082015250565b7f4e6f7420656e6f75676820746f6b656e7320746f207769746864726177000000600082015250565b7f54686520756e6c6f636b2074696d652073686f756c6420696e20667574757265600082015250565b7f546865206c6f636b657220686173206265656e20657870697265642e00000000600082015250565b7f4f776e61626c653a2063616c6c6572206973206e6f7420746865206f776e6572600082015250565b7f706c656173652070617920746865207570646174696e67206665650000000000600082015250565b7f506c656173652070617920746865207570646174696e67206665650000000000600082015250565b7f4164646974696f6e2074696d652073686f756c64206265206d6f72652074686160008201527f6e207a65726f0000000000000000000000000000000000000000000000000000602082015250565b7f4f6e6c79206c6f636b6572206f6e77657220697320616c6c6f7765642e000000600082015250565b6002811061223e5761223d611f98565b5b50565b6002811061225257612251611f98565b5b50565b61225e81611e8e565b811461226957600080fd5b50565b61227581611ea0565b811461228057600080fd5b50565b6002811061229057600080fd5b50565b61229c81611ef2565b81146122a757600080fd5b5056fea2646970667358221220f5d9fa9148ee21684b918f18b527c75422c445c06ce8b02b54210341a714b3f464736f6c63430008070033",
    "immutableReferences": {},
    "source": "// SPDX-License-Identifier: MIT\r\npragma solidity ^0.8.0;\r\n\r\n// import \"./IPancakePair.sol\";\r\nimport \"./IERC20.sol\";\r\nimport \"./Ownable.sol\";\r\nimport \"./SafeMath.sol\";\r\n\r\ncontract PICNICLocker is Ownable {\r\n\r\n    using SafeMath for uint;\r\n    uint public lockerCount;    \r\n\r\n    uint public lockFee = 0.1 ether;\r\n    uint public updateLokcerFee = 0.05 ether;\r\n\r\n    mapping(uint => Loker)  public loker;\r\n    mapping(address => uint[])  lockersListByTokenAddress;\r\n    mapping(address => uint[])  lockersListByUserAddress;\r\n\r\n    enum Status {LOCKED, WITHDRAWED}\r\n    enum Type {TOKEN, LPTOKEN}\r\n\r\n    struct Loker {\r\n        uint id;\r\n        Type _type;\r\n        address owner; \r\n        address tokenAddress;\r\n        uint numOfTokens;\r\n        uint lockTime;\r\n        uint unlockTime;\r\n        Status status;\r\n    }\r\n\r\n    event Locked (uint id, address owner, address token, uint numOfTokens, uint unlockTime);\r\n    event Unlocked (uint id, address owner, address token, uint numOfTokens);\r\n\r\n    modifier OnlyLockerOnwer(uint _id) {\r\n        require(loker[_id].owner == _msgSender(), \"Only locker onwer is allowed.\"); \r\n        _;\r\n    }\r\n\r\n    modifier NotExpired(uint _id) {\r\n        require(block.timestamp < loker[_id].unlockTime, \"Not unlocked yet.\");\r\n        _;\r\n    }\r\n\r\n    modifier Expired(uint _id) {\r\n        require(block.timestamp >= loker[_id].unlockTime, \"The locker has been expired.\");\r\n        _;\r\n    }\r\n\r\n\r\n    function lockTokens(Type _type, address _token, uint _numOfTokens, uint _unlockTime) payable public {\r\n        require(msg.value >= lockFee, \"Please pay the fee\");\r\n        require(_unlockTime > block.timestamp, \"The unlock time should in future\");\r\n\r\n        IERC20(_token).transferFrom(_msgSender(), address(this), _numOfTokens);\r\n\r\n        lockerCount++;\r\n\r\n        loker[lockerCount] = Loker(\r\n            lockerCount,\r\n            _type,\r\n            _msgSender(),\r\n            _token,\r\n            _numOfTokens,\r\n            block.timestamp,\r\n            _unlockTime,\r\n            Status.LOCKED\r\n        );\r\n\r\n        lockersListByUserAddress[_msgSender()].push(lockerCount);\r\n        lockersListByTokenAddress[_token].push(lockerCount);\r\n\r\n        emit Locked (lockerCount, _msgSender(), _token, _numOfTokens, _unlockTime );\r\n\r\n    }\r\n\r\n    function unlockTokens(uint _id, uint _numOfTokens) public OnlyLockerOnwer(_id) Expired(_id) {\r\n\r\n        Loker memory lokerData = loker[_id];\r\n        require(lokerData.numOfTokens >= _numOfTokens, \"Not enough tokens to withdraw\");\r\n\r\n        IERC20(lokerData.tokenAddress).transfer(_msgSender(), _numOfTokens);\r\n\r\n        loker[_id].numOfTokens = lokerData.numOfTokens.sub(_numOfTokens);   \r\n\r\n        if(loker[_id].numOfTokens == 0 ){\r\n            loker[_id].status = Status.WITHDRAWED;\r\n        }\r\n\r\n        emit Unlocked (_id, _msgSender(), lokerData.tokenAddress, _numOfTokens);\r\n\r\n    }\r\n\r\n    function addTokenstoALocker(uint _id, uint _numOfTokens) payable public OnlyLockerOnwer(_id) NotExpired(_id) {\r\n\r\n        require(msg.value >= updateLokcerFee, \"Please pay the updating fee\");\r\n        require(_numOfTokens > 0, \"Tokens should be more than zero\");\r\n\r\n        IERC20(loker[_id].tokenAddress).transferFrom(_msgSender(), address(this), _numOfTokens);\r\n\r\n        loker[_id].numOfTokens = loker[_id].numOfTokens.add(_numOfTokens);\r\n\r\n    }\r\n\r\n    function increaseLocktime(uint _id, uint _additionTime) payable public OnlyLockerOnwer(_id) NotExpired(_id) {\r\n\r\n        require(msg.value >= updateLokcerFee, \"please pay the updating fee\");\r\n        require(_additionTime > 0, \"Addition time should be more than zero\");\r\n\r\n        loker[_id].unlockTime = loker[_id].unlockTime.add(_additionTime);\r\n\r\n    }\r\n\r\n    function getLockersListbyUser(address _userAddress) public view returns (uint[] memory) {\r\n        return lockersListByUserAddress[_userAddress];\r\n    }\r\n\r\n    function getLockersListbyToken(address _tokenAddress) public view returns (uint[] memory) {\r\n        return lockersListByTokenAddress[_tokenAddress];\r\n    }\r\n\r\n    function updateFees(uint _lockFee, uint _updatingFee) public onlyOwner {\r\n        lockFee = _lockFee;\r\n        updateLokcerFee = _updatingFee;\r\n    }\r\n\r\n    function withdrawFunds() public onlyOwner {\r\n        uint balance = address(this).balance;\r\n        require(balance > 0, \"Nothing to withdraw\");\r\n        payable(_msgSender()).transfer(balance);\r\n    }\r\n}",
    "sourcePath": "D:\\Fiverr\\picnic-v2\\Locker\\contracts\\PICNICLocker.sol",
    "compiler": {
        "name": "solc",
        "version": "0.8.7+commit.e28d00a7.Emscripten.clang"
    },
    "schemaVersion": "3.4.3",
    "updatedAt": "2022-01-18T11:14:32.094Z",
    "devdoc": {
        "kind": "dev",
        "methods": {
            "owner()": {
                "details": "Returns the address of the current owner."
            },
            "renounceOwnership()": {
                "details": "Leaves the contract without owner. It will not be possible to call `onlyOwner` functions anymore. Can only be called by the current owner. NOTE: Renouncing ownership will leave the contract without an owner, thereby removing any functionality that is only available to the owner."
            },
            "transferOwnership(address)": {
                "details": "Transfers ownership of the contract to a new account (`newOwner`). Can only be called by the current owner."
            }
        },
        "version": 1
    },
    "userdoc": {
        "kind": "user",
        "methods": {},
        "version": 1
    }
}