{
  "contractName": "PICNICLockerFactory",
  "abi": [
    {
      "anonymous": false,
      "inputs": [
        {
          "indexed": false,
          "internalType": "uint256",
          "name": "id",
          "type": "uint256"
        },
        {
          "indexed": false,
          "internalType": "address",
          "name": "owner",
          "type": "address"
        },
        {
          "indexed": false,
          "internalType": "address",
          "name": "token",
          "type": "address"
        },
        {
          "indexed": false,
          "internalType": "uint256",
          "name": "numOfTokens",
          "type": "uint256"
        },
        {
          "indexed": false,
          "internalType": "uint256",
          "name": "unlockTime",
          "type": "uint256"
        }
      ],
      "name": "Locked",
      "type": "event"
    },
    {
      "anonymous": false,
      "inputs": [
        {
          "indexed": true,
          "internalType": "address",
          "name": "previousOwner",
          "type": "address"
        },
        {
          "indexed": true,
          "internalType": "address",
          "name": "newOwner",
          "type": "address"
        }
      ],
      "name": "OwnershipTransferred",
      "type": "event"
    },
    {
      "anonymous": false,
      "inputs": [
        {
          "indexed": false,
          "internalType": "uint256",
          "name": "id",
          "type": "uint256"
        },
        {
          "indexed": false,
          "internalType": "address",
          "name": "owner",
          "type": "address"
        },
        {
          "indexed": false,
          "internalType": "address",
          "name": "token",
          "type": "address"
        },
        {
          "indexed": false,
          "internalType": "uint256",
          "name": "numOfTokens",
          "type": "uint256"
        }
      ],
      "name": "Unlocked",
      "type": "event"
    },
    {
      "inputs": [],
      "name": "lockFee",
      "outputs": [
        {
          "internalType": "uint256",
          "name": "",
          "type": "uint256"
        }
      ],
      "stateMutability": "view",
      "type": "function"
    },
    {
      "inputs": [],
      "name": "lockerCount",
      "outputs": [
        {
          "internalType": "uint256",
          "name": "",
          "type": "uint256"
        }
      ],
      "stateMutability": "view",
      "type": "function"
    },
    {
      "inputs": [
        {
          "internalType": "uint256",
          "name": "",
          "type": "uint256"
        }
      ],
      "name": "loker",
      "outputs": [
        {
          "internalType": "uint256",
          "name": "id",
          "type": "uint256"
        },
        {
          "internalType": "enum PICNICLockerFactory.Type",
          "name": "_type",
          "type": "uint8"
        },
        {
          "internalType": "string",
          "name": "name",
          "type": "string"
        },
        {
          "internalType": "string",
          "name": "symbol",
          "type": "string"
        },
        {
          "internalType": "address",
          "name": "owner",
          "type": "address"
        },
        {
          "internalType": "address",
          "name": "tokenAddress",
          "type": "address"
        },
        {
          "internalType": "address",
          "name": "lockerAddress",
          "type": "address"
        },
        {
          "internalType": "uint256",
          "name": "numOfTokens",
          "type": "uint256"
        },
        {
          "internalType": "uint256",
          "name": "lockTime",
          "type": "uint256"
        },
        {
          "internalType": "uint256",
          "name": "unlockTime",
          "type": "uint256"
        },
        {
          "internalType": "enum PICNICLockerFactory.Status",
          "name": "status",
          "type": "uint8"
        }
      ],
      "stateMutability": "view",
      "type": "function"
    },
    {
      "inputs": [],
      "name": "owner",
      "outputs": [
        {
          "internalType": "address",
          "name": "",
          "type": "address"
        }
      ],
      "stateMutability": "view",
      "type": "function"
    },
    {
      "inputs": [],
      "name": "renounceOwnership",
      "outputs": [],
      "stateMutability": "nonpayable",
      "type": "function"
    },
    {
      "inputs": [
        {
          "internalType": "address",
          "name": "newOwner",
          "type": "address"
        }
      ],
      "name": "transferOwnership",
      "outputs": [],
      "stateMutability": "nonpayable",
      "type": "function"
    },
    {
      "inputs": [],
      "name": "updateLokcerFee",
      "outputs": [
        {
          "internalType": "uint256",
          "name": "",
          "type": "uint256"
        }
      ],
      "stateMutability": "view",
      "type": "function"
    },
    {
      "inputs": [
        {
          "internalType": "enum PICNICLockerFactory.Type",
          "name": "_type",
          "type": "uint8"
        },
        {
          "internalType": "address",
          "name": "_token",
          "type": "address"
        },
        {
          "internalType": "uint256",
          "name": "_numOfTokens",
          "type": "uint256"
        },
        {
          "internalType": "uint256",
          "name": "_unlockTime",
          "type": "uint256"
        }
      ],
      "name": "createLcoker",
      "outputs": [],
      "stateMutability": "payable",
      "type": "function"
    },
    {
      "inputs": [
        {
          "internalType": "uint256",
          "name": "_id",
          "type": "uint256"
        },
        {
          "internalType": "uint256",
          "name": "_numOfTokens",
          "type": "uint256"
        }
      ],
      "name": "unlockTokens",
      "outputs": [],
      "stateMutability": "nonpayable",
      "type": "function"
    },
    {
      "inputs": [
        {
          "internalType": "uint256",
          "name": "_id",
          "type": "uint256"
        },
        {
          "internalType": "uint256",
          "name": "_numOfTokens",
          "type": "uint256"
        }
      ],
      "name": "addTokenstoALocker",
      "outputs": [],
      "stateMutability": "payable",
      "type": "function"
    },
    {
      "inputs": [
        {
          "internalType": "uint256",
          "name": "_id",
          "type": "uint256"
        },
        {
          "internalType": "uint256",
          "name": "_additionTime",
          "type": "uint256"
        }
      ],
      "name": "increaseLocktime",
      "outputs": [],
      "stateMutability": "payable",
      "type": "function"
    },
    {
      "inputs": [
        {
          "internalType": "address",
          "name": "_userAddress",
          "type": "address"
        }
      ],
      "name": "getLockersListbyUser",
      "outputs": [
        {
          "internalType": "uint256[]",
          "name": "",
          "type": "uint256[]"
        }
      ],
      "stateMutability": "view",
      "type": "function"
    },
    {
      "inputs": [
        {
          "internalType": "address",
          "name": "_tokenAddress",
          "type": "address"
        }
      ],
      "name": "getLockersListbyToken",
      "outputs": [
        {
          "internalType": "uint256[]",
          "name": "",
          "type": "uint256[]"
        }
      ],
      "stateMutability": "view",
      "type": "function"
    },
    {
      "inputs": [
        {
          "internalType": "uint256",
          "name": "_lockFee",
          "type": "uint256"
        },
        {
          "internalType": "uint256",
          "name": "_updatingFee",
          "type": "uint256"
        }
      ],
      "name": "updateFees",
      "outputs": [],
      "stateMutability": "nonpayable",
      "type": "function"
    },
    {
      "inputs": [],
      "name": "withdrawFunds",
      "outputs": [],
      "stateMutability": "nonpayable",
      "type": "function"
    }
  ],
  "bytecode": "0x608060405267016345785d8a000060025566b1a2bc2ec500006003553480156200002857600080fd5b50620000496200003d6200004f60201b60201c565b6200005760201b60201c565b6200011b565b600033905090565b60008060009054906101000a900473ffffffffffffffffffffffffffffffffffffffff169050816000806101000a81548173ffffffffffffffffffffffffffffffffffffffff021916908373ffffffffffffffffffffffffffffffffffffffff1602179055508173ffffffffffffffffffffffffffffffffffffffff168173ffffffffffffffffffffffffffffffffffffffff167f8be0079c531659141344cd1fd0a4f28419497f9722a3daafe3b4186f6b6457e060405160405180910390a35050565b613f19806200012b6000396000f3fe608060405260043610620000fe5760003560e01c80638da5cb5b1162000097578063eb99651b1162000061578063eb99651b1462000305578063f2fde38b1462000325578063f88a52551462000353578063fdfcad86146200037357620000fe565b80638da5cb5b1462000227578063b226aca21462000257578063b8e4a2e61462000287578063ccd96eb614620002d557620000fe565b806356a0623511620000d957806356a06235146200018f57806361a696d614620001bf5780636db7943714620001df578063715018a6146200020d57620000fe565b8063092eeb13146200010357806324600fc314620001475780633190cbf81462000161575b600080fd5b3480156200011057600080fd5b506200012f600480360381019062000129919062001f60565b620003b7565b6040516200013e91906200246f565b60405180910390f35b3480156200015457600080fd5b506200015f62000450565b005b3480156200016e57600080fd5b506200018d6004803603810190620001879190620020b9565b62000572565b005b3480156200019c57600080fd5b50620001a762000b5b565b604051620001b691906200264d565b60405180910390f35b620001dd6004803603810190620001d79190620020b9565b62000b61565b005b348015620001ec57600080fd5b506200020b6004803603810190620002059190620020b9565b62000ef7565b005b3480156200021a57600080fd5b506200022562000f8c565b005b3480156200023457600080fd5b506200023f6200101d565b6040516200024e919062002415565b60405180910390f35b3480156200026457600080fd5b506200026f62001046565b6040516200027e91906200264d565b60405180910390f35b3480156200029457600080fd5b50620002b36004803603810190620002ad919062002087565b6200104c565b604051620002cc9b9a999897969594939291906200279f565b60405180910390f35b348015620002e257600080fd5b50620002ed62001240565b604051620002fc91906200264d565b60405180910390f35b6200032360048036038101906200031d9190620020b9565b62001246565b005b3480156200033257600080fd5b506200035160048036038101906200034b919062001f60565b620014d1565b005b6200037160048036038101906200036b919062001fc4565b620015d5565b005b3480156200038057600080fd5b506200039f600480360381019062000399919062001f60565b62001c33565b604051620003ae91906200246f565b60405180910390f35b6060600560008373ffffffffffffffffffffffffffffffffffffffff1673ffffffffffffffffffffffffffffffffffffffff1681526020019081526020016000208054806020026020016040519081016040528092919081815260200182805480156200044457602002820191906000526020600020905b8154815260200190600101908083116200042f575b50505050509050919050565b6200045a62001ccc565b73ffffffffffffffffffffffffffffffffffffffff166200047a6200101d565b73ffffffffffffffffffffffffffffffffffffffff1614620004d3576040517f08c379a0000000000000000000000000000000000000000000000000000000008152600401620004ca90620025a3565b60405180910390fd5b6000479050600081116200051e576040517f08c379a00000000000000000000000000000000000000000000000000000000081526004016200051590620024d7565b60405180910390fd5b620005286200101d565b73ffffffffffffffffffffffffffffffffffffffff166108fc829081150290604051600060405180830381858888f193505050501580156200056e573d6000803e3d6000fd5b5050565b816200057d62001ccc565b73ffffffffffffffffffffffffffffffffffffffff166004600083815260200190815260200160002060040160009054906101000a900473ffffffffffffffffffffffffffffffffffffffff1673ffffffffffffffffffffffffffffffffffffffff161462000623576040517f08c379a00000000000000000000000000000000000000000000000000000000081526004016200061a906200262b565b60405180910390fd5b82600460008281526020019081526020016000206009015442101562000680576040517f08c379a0000000000000000000000000000000000000000000000000000000008152600401620006779062002581565b60405180910390fd5b60006004600086815260200190815260200160002060405180610160016040529081600082015481526020016001820160009054906101000a900460ff166001811115620006d357620006d262002b75565b5b6001811115620006e857620006e762002b75565b5b8152602001600282018054620006fe9062002a8c565b80601f01602080910402602001604051908101604052809291908181526020018280546200072c9062002a8c565b80156200077d5780601f1062000751576101008083540402835291602001916200077d565b820191906000526020600020905b8154815290600101906020018083116200075f57829003601f168201915b50505050508152602001600382018054620007989062002a8c565b80601f0160208091040260200160405190810160405280929190818152602001828054620007c69062002a8c565b8015620008175780601f10620007eb5761010080835404028352916020019162000817565b820191906000526020600020905b815481529060010190602001808311620007f957829003601f168201915b505050505081526020016004820160009054906101000a900473ffffffffffffffffffffffffffffffffffffffff1673ffffffffffffffffffffffffffffffffffffffff1673ffffffffffffffffffffffffffffffffffffffff1681526020016005820160009054906101000a900473ffffffffffffffffffffffffffffffffffffffff1673ffffffffffffffffffffffffffffffffffffffff1673ffffffffffffffffffffffffffffffffffffffff1681526020016006820160009054906101000a900473ffffffffffffffffffffffffffffffffffffffff1673ffffffffffffffffffffffffffffffffffffffff1673ffffffffffffffffffffffffffffffffffffffff168152602001600782015481526020016008820154815260200160098201548152602001600a820160009054906101000a900460ff16600181111562000968576200096762002b75565b5b60018111156200097d576200097c62002b75565b5b815250509050838160e001511015620009cd576040517f08c379a0000000000000000000000000000000000000000000000000000000008152600401620009c4906200253d565b60405180910390fd5b6004600086815260200190815260200160002060060160009054906101000a900473ffffffffffffffffffffffffffffffffffffffff1673ffffffffffffffffffffffffffffffffffffffff16637c405325856040518263ffffffff1660e01b815260040162000a3e91906200264d565b600060405180830381600087803b15801562000a5957600080fd5b505af115801562000a6e573d6000803e3d6000fd5b5050505062000a8b848260e0015162001cd490919063ffffffff16565b600460008781526020019081526020016000206007018190555060006004600087815260200190815260200160002060070154141562000b0857600160046000878152602001908152602001600020600a0160006101000a81548160ff0219169083600181111562000b025762000b0162002b75565b5b02179055505b7ff0d7c30a27ebad52fb56830c599bf0535e86a95f4fc57fa7ec7b058b6e86aa588562000b3462001ccc565b8360a001518760405162000b4c9493929190620026f5565b60405180910390a15050505050565b60025481565b8162000b6c62001ccc565b73ffffffffffffffffffffffffffffffffffffffff166004600083815260200190815260200160002060040160009054906101000a900473ffffffffffffffffffffffffffffffffffffffff1673ffffffffffffffffffffffffffffffffffffffff161462000c12576040517f08c379a000000000000000000000000000000000000000000000000000000000815260040162000c09906200262b565b60405180910390fd5b826004600082815260200190815260200160002060090154421062000c6e576040517f08c379a000000000000000000000000000000000000000000000000000000000815260040162000c6590620024b5565b60405180910390fd5b60035434101562000cb6576040517f08c379a000000000000000000000000000000000000000000000000000000000815260040162000cad90620025e7565b60405180910390fd5b6000831162000cfc576040517f08c379a000000000000000000000000000000000000000000000000000000000815260040162000cf39062002493565b60405180910390fd5b6004600085815260200190815260200160002060050160009054906101000a900473ffffffffffffffffffffffffffffffffffffffff1673ffffffffffffffffffffffffffffffffffffffff166323b872dd62000d5862001ccc565b6004600088815260200190815260200160002060060160009054906101000a900473ffffffffffffffffffffffffffffffffffffffff16866040518463ffffffff1660e01b815260040162000db09392919062002432565b602060405180830381600087803b15801562000dcb57600080fd5b505af115801562000de0573d6000803e3d6000fd5b505050506040513d601f19601f8201168201806040525081019062000e06919062001f92565b506004600085815260200190815260200160002060060160009054906101000a900473ffffffffffffffffffffffffffffffffffffffff1673ffffffffffffffffffffffffffffffffffffffff1663efda3cc5846040518263ffffffff1660e01b815260040162000e7891906200264d565b600060405180830381600087803b15801562000e9357600080fd5b505af115801562000ea8573d6000803e3d6000fd5b5050505062000ed783600460008781526020019081526020016000206007015462001cec90919063ffffffff16565b600460008681526020019081526020016000206007018190555050505050565b62000f0162001ccc565b73ffffffffffffffffffffffffffffffffffffffff1662000f216200101d565b73ffffffffffffffffffffffffffffffffffffffff161462000f7a576040517f08c379a000000000000000000000000000000000000000000000000000000000815260040162000f7190620025a3565b60405180910390fd5b81600281905550806003819055505050565b62000f9662001ccc565b73ffffffffffffffffffffffffffffffffffffffff1662000fb66200101d565b73ffffffffffffffffffffffffffffffffffffffff16146200100f576040517f08c379a00000000000000000000000000000000000000000000000000000000081526004016200100690620025a3565b60405180910390fd5b6200101b600062001d04565b565b60008060009054906101000a900473ffffffffffffffffffffffffffffffffffffffff16905090565b60035481565b60046020528060005260406000206000915090508060000154908060010160009054906101000a900460ff16908060020180546200108a9062002a8c565b80601f0160208091040260200160405190810160405280929190818152602001828054620010b89062002a8c565b8015620011095780601f10620010dd5761010080835404028352916020019162001109565b820191906000526020600020905b815481529060010190602001808311620010eb57829003601f168201915b505050505090806003018054620011209062002a8c565b80601f01602080910402602001604051908101604052809291908181526020018280546200114e9062002a8c565b80156200119f5780601f1062001173576101008083540402835291602001916200119f565b820191906000526020600020905b8154815290600101906020018083116200118157829003601f168201915b5050505050908060040160009054906101000a900473ffffffffffffffffffffffffffffffffffffffff16908060050160009054906101000a900473ffffffffffffffffffffffffffffffffffffffff16908060060160009054906101000a900473ffffffffffffffffffffffffffffffffffffffff169080600701549080600801549080600901549080600a0160009054906101000a900460ff1690508b565b60015481565b816200125162001ccc565b73ffffffffffffffffffffffffffffffffffffffff166004600083815260200190815260200160002060040160009054906101000a900473ffffffffffffffffffffffffffffffffffffffff1673ffffffffffffffffffffffffffffffffffffffff1614620012f7576040517f08c379a0000000000000000000000000000000000000000000000000000000008152600401620012ee906200262b565b60405180910390fd5b826004600082815260200190815260200160002060090154421062001353576040517f08c379a00000000000000000000000000000000000000000000000000000000081526004016200134a90620024b5565b60405180910390fd5b6003543410156200139b576040517f08c379a00000000000000000000000000000000000000000000000000000000081526004016200139290620025c5565b60405180910390fd5b60008311620013e1576040517f08c379a0000000000000000000000000000000000000000000000000000000008152600401620013d89062002609565b60405180910390fd5b6004600085815260200190815260200160002060060160009054906101000a900473ffffffffffffffffffffffffffffffffffffffff1673ffffffffffffffffffffffffffffffffffffffff166360e9fec6846040518263ffffffff1660e01b81526004016200145291906200264d565b600060405180830381600087803b1580156200146d57600080fd5b505af115801562001482573d6000803e3d6000fd5b50505050620014b183600460008781526020019081526020016000206009015462001cec90919063ffffffff16565b600460008681526020019081526020016000206009018190555050505050565b620014db62001ccc565b73ffffffffffffffffffffffffffffffffffffffff16620014fb6200101d565b73ffffffffffffffffffffffffffffffffffffffff161462001554576040517f08c379a00000000000000000000000000000000000000000000000000000000081526004016200154b90620025a3565b60405180910390fd5b600073ffffffffffffffffffffffffffffffffffffffff168173ffffffffffffffffffffffffffffffffffffffff161415620015c7576040517f08c379a0000000000000000000000000000000000000000000000000000000008152600401620015be906200251b565b60405180910390fd5b620015d28162001d04565b50565b6002543410156200161d576040517f08c379a00000000000000000000000000000000000000000000000000000000081526004016200161490620024f9565b60405180910390fd5b42811162001662576040517f08c379a000000000000000000000000000000000000000000000000000000000815260040162001659906200255f565b60405180910390fd5b60016000815480929190620016779062002af8565b919050555060008373ffffffffffffffffffffffffffffffffffffffff166306fdde036040518163ffffffff1660e01b815260040160006040518083038186803b158015620016c557600080fd5b505afa158015620016da573d6000803e3d6000fd5b505050506040513d6000823e3d601f19601f8201168201806040525081019062001705919062002036565b905060008473ffffffffffffffffffffffffffffffffffffffff166395d89b416040518163ffffffff1660e01b815260040160006040518083038186803b1580156200175057600080fd5b505afa15801562001765573d6000803e3d6000fd5b505050506040513d6000823e3d601f19601f8201168201806040525081019062001790919062002036565b90506000600154620017a162001ccc565b8785858989604051620017b49062001dc8565b620017c697969594939291906200266a565b604051809103906000f080158015620017e3573d6000803e3d6000fd5b5090508573ffffffffffffffffffffffffffffffffffffffff166323b872dd6200180c62001ccc565b83886040518463ffffffff1660e01b81526004016200182e9392919062002432565b602060405180830381600087803b1580156200184957600080fd5b505af11580156200185e573d6000803e3d6000fd5b505050506040513d601f19601f8201168201806040525081019062001884919062001f92565b506040518061016001604052806001548152602001886001811115620018af57620018ae62002b75565b5b8152602001848152602001838152602001620018ca62001ccc565b73ffffffffffffffffffffffffffffffffffffffff1681526020018773ffffffffffffffffffffffffffffffffffffffff1681526020018273ffffffffffffffffffffffffffffffffffffffff1681526020018681526020014281526020018581526020016000600181111562001946576200194562002b75565b5b8152506004600060015481526020019081526020016000206000820151816000015560208201518160010160006101000a81548160ff0219169083600181111562001996576200199562002b75565b5b02179055506040820151816002019080519060200190620019b992919062001dd6565b506060820151816003019080519060200190620019d892919062001dd6565b5060808201518160040160006101000a81548173ffffffffffffffffffffffffffffffffffffffff021916908373ffffffffffffffffffffffffffffffffffffffff16021790555060a08201518160050160006101000a81548173ffffffffffffffffffffffffffffffffffffffff021916908373ffffffffffffffffffffffffffffffffffffffff16021790555060c08201518160060160006101000a81548173ffffffffffffffffffffffffffffffffffffffff021916908373ffffffffffffffffffffffffffffffffffffffff16021790555060e082015181600701556101008201518160080155610120820151816009015561014082015181600a0160006101000a81548160ff0219169083600181111562001afd5762001afc62002b75565b5b02179055509050506006600062001b1362001ccc565b73ffffffffffffffffffffffffffffffffffffffff1673ffffffffffffffffffffffffffffffffffffffff1681526020019081526020016000206001549080600181540180825580915050600190039060005260206000200160009091909190915055600560008773ffffffffffffffffffffffffffffffffffffffff1673ffffffffffffffffffffffffffffffffffffffff16815260200190815260200160002060015490806001815401808255809150506001900390600052602060002001600090919091909150557f1cb39d6ecc8f823fa6183785ee795ddcb2873e92effbff9b9a377ef76103567660015462001c0c62001ccc565b88888860405162001c2295949392919062002742565b60405180910390a150505050505050565b6060600660008373ffffffffffffffffffffffffffffffffffffffff1673ffffffffffffffffffffffffffffffffffffffff16815260200190815260200160002080548060200260200160405190810160405280929190818152602001828054801562001cc057602002820191906000526020600020905b81548152602001906001019080831162001cab575b50505050509050919050565b600033905090565b6000818362001ce491906200297f565b905092915050565b6000818362001cfc919062002922565b905092915050565b60008060009054906101000a900473ffffffffffffffffffffffffffffffffffffffff169050816000806101000a81548173ffffffffffffffffffffffffffffffffffffffff021916908373ffffffffffffffffffffffffffffffffffffffff1602179055508173ffffffffffffffffffffffffffffffffffffffff168173ffffffffffffffffffffffffffffffffffffffff167f8be0079c531659141344cd1fd0a4f28419497f9722a3daafe3b4186f6b6457e060405160405180910390a35050565b610fce8062002f1683390190565b82805462001de49062002a8c565b90600052602060002090601f01602090048101928262001e08576000855562001e54565b82601f1062001e2357805160ff191683800117855562001e54565b8280016001018555821562001e54579182015b8281111562001e5357825182559160200191906001019062001e36565b5b50905062001e63919062001e67565b5090565b5b8082111562001e8257600081600090555060010162001e68565b5090565b600062001e9d62001e978462002897565b6200286e565b90508281526020810184848401111562001ebc5762001ebb62002c07565b5b62001ec984828562002a56565b509392505050565b60008135905062001ee28162002eb6565b92915050565b60008151905062001ef98162002ed0565b92915050565b60008135905062001f108162002eea565b92915050565b600082601f83011262001f2e5762001f2d62002c02565b5b815162001f4084826020860162001e86565b91505092915050565b60008135905062001f5a8162002efb565b92915050565b60006020828403121562001f795762001f7862002c11565b5b600062001f898482850162001ed1565b91505092915050565b60006020828403121562001fab5762001faa62002c11565b5b600062001fbb8482850162001ee8565b91505092915050565b6000806000806080858703121562001fe15762001fe062002c11565b5b600062001ff18782880162001eff565b9450506020620020048782880162001ed1565b9350506040620020178782880162001f49565b92505060606200202a8782880162001f49565b91505092959194509250565b6000602082840312156200204f576200204e62002c11565b5b600082015167ffffffffffffffff81111562002070576200206f62002c0c565b5b6200207e8482850162001f16565b91505092915050565b600060208284031215620020a0576200209f62002c11565b5b6000620020b08482850162001f49565b91505092915050565b60008060408385031215620020d357620020d262002c11565b5b6000620020e38582860162001f49565b9250506020620020f68582860162001f49565b9150509250929050565b60006200210e8383620023f3565b60208301905092915050565b6200212581620029ba565b82525050565b60006200213882620028dd565b62002144818562002900565b93506200215183620028cd565b8060005b83811015620021885781516200216c888262002100565b97506200217983620028f3565b92505060018101905062002155565b5085935050505092915050565b620021a08162002a2e565b82525050565b620021b18162002a42565b82525050565b6000620021c482620028e8565b620021d0818562002911565b9350620021e281856020860162002a56565b620021ed8162002c16565b840191505092915050565b600062002207601f8362002911565b9150620022148262002c27565b602082019050919050565b60006200222e60118362002911565b91506200223b8262002c50565b602082019050919050565b60006200225560138362002911565b9150620022628262002c79565b602082019050919050565b60006200227c60128362002911565b9150620022898262002ca2565b602082019050919050565b6000620022a360268362002911565b9150620022b08262002ccb565b604082019050919050565b6000620022ca601d8362002911565b9150620022d78262002d1a565b602082019050919050565b6000620022f160208362002911565b9150620022fe8262002d43565b602082019050919050565b600062002318601c8362002911565b9150620023258262002d6c565b602082019050919050565b60006200233f60208362002911565b91506200234c8262002d95565b602082019050919050565b600062002366601b8362002911565b9150620023738262002dbe565b602082019050919050565b60006200238d601b8362002911565b91506200239a8262002de7565b602082019050919050565b6000620023b460268362002911565b9150620023c18262002e10565b604082019050919050565b6000620023db601d8362002911565b9150620023e88262002e5f565b602082019050919050565b620023fe8162002a24565b82525050565b6200240f8162002a24565b82525050565b60006020820190506200242c60008301846200211a565b92915050565b60006060820190506200244960008301866200211a565b6200245860208301856200211a565b62002467604083018462002404565b949350505050565b600060208201905081810360008301526200248b81846200212b565b905092915050565b60006020820190508181036000830152620024ae81620021f8565b9050919050565b60006020820190508181036000830152620024d0816200221f565b9050919050565b60006020820190508181036000830152620024f28162002246565b9050919050565b6000602082019050818103600083015262002514816200226d565b9050919050565b60006020820190508181036000830152620025368162002294565b9050919050565b600060208201905081810360008301526200255881620022bb565b9050919050565b600060208201905081810360008301526200257a81620022e2565b9050919050565b600060208201905081810360008301526200259c8162002309565b9050919050565b60006020820190508181036000830152620025be8162002330565b9050919050565b60006020820190508181036000830152620025e08162002357565b9050919050565b6000602082019050818103600083015262002602816200237e565b9050919050565b600060208201905081810360008301526200262481620023a5565b9050919050565b600060208201905081810360008301526200264681620023cc565b9050919050565b600060208201905062002664600083018462002404565b92915050565b600060e08201905062002681600083018a62002404565b6200269060208301896200211a565b6200269f60408301886200211a565b8181036060830152620026b38187620021b7565b90508181036080830152620026c98186620021b7565b9050620026da60a083018562002404565b620026e960c083018462002404565b98975050505050505050565b60006080820190506200270c600083018762002404565b6200271b60208301866200211a565b6200272a60408301856200211a565b62002739606083018462002404565b95945050505050565b600060a08201905062002759600083018862002404565b6200276860208301876200211a565b6200277760408301866200211a565b62002786606083018562002404565b62002795608083018462002404565b9695505050505050565b600061016082019050620027b7600083018e62002404565b620027c6602083018d620021a6565b8181036040830152620027da818c620021b7565b90508181036060830152620027f0818b620021b7565b905062002801608083018a6200211a565b6200281060a08301896200211a565b6200281f60c08301886200211a565b6200282e60e083018762002404565b6200283e61010083018662002404565b6200284e61012083018562002404565b6200285e61014083018462002195565b9c9b505050505050505050505050565b60006200287a6200288d565b905062002888828262002ac2565b919050565b6000604051905090565b600067ffffffffffffffff821115620028b557620028b462002bd3565b5b620028c08262002c16565b9050602081019050919050565b6000819050602082019050919050565b600081519050919050565b600081519050919050565b6000602082019050919050565b600082825260208201905092915050565b600082825260208201905092915050565b60006200292f8262002a24565b91506200293c8362002a24565b9250827fffffffffffffffffffffffffffffffffffffffffffffffffffffffffffffffff0382111562002974576200297362002b46565b5b828201905092915050565b60006200298c8262002a24565b9150620029998362002a24565b925082821015620029af57620029ae62002b46565b5b828203905092915050565b6000620029c78262002a04565b9050919050565b60008115159050919050565b6000819050620029ea8262002e88565b919050565b6000819050620029ff8262002e9f565b919050565b600073ffffffffffffffffffffffffffffffffffffffff82169050919050565b6000819050919050565b600062002a3b82620029da565b9050919050565b600062002a4f82620029ef565b9050919050565b60005b8381101562002a7657808201518184015260208101905062002a59565b8381111562002a86576000848401525b50505050565b6000600282049050600182168062002aa557607f821691505b6020821081141562002abc5762002abb62002ba4565b5b50919050565b62002acd8262002c16565b810181811067ffffffffffffffff8211171562002aef5762002aee62002bd3565b5b80604052505050565b600062002b058262002a24565b91507fffffffffffffffffffffffffffffffffffffffffffffffffffffffffffffffff82141562002b3b5762002b3a62002b46565b5b600182019050919050565b7f4e487b7100000000000000000000000000000000000000000000000000000000600052601160045260246000fd5b7f4e487b7100000000000000000000000000000000000000000000000000000000600052602160045260246000fd5b7f4e487b7100000000000000000000000000000000000000000000000000000000600052602260045260246000fd5b7f4e487b7100000000000000000000000000000000000000000000000000000000600052604160045260246000fd5b600080fd5b600080fd5b600080fd5b600080fd5b6000601f19601f8301169050919050565b7f546f6b656e732073686f756c64206265206d6f7265207468616e207a65726f00600082015250565b7f4e6f7420756e6c6f636b6564207965742e000000000000000000000000000000600082015250565b7f4e6f7468696e6720746f20776974686472617700000000000000000000000000600082015250565b7f506c656173652070617920746865206665650000000000000000000000000000600082015250565b7f4f776e61626c653a206e6577206f776e657220697320746865207a65726f206160008201527f6464726573730000000000000000000000000000000000000000000000000000602082015250565b7f4e6f7420656e6f75676820746f6b656e7320746f207769746864726177000000600082015250565b7f54686520756e6c6f636b2074696d652073686f756c6420696e20667574757265600082015250565b7f546865206c6f636b657220686173206265656e20657870697265642e00000000600082015250565b7f4f776e61626c653a2063616c6c6572206973206e6f7420746865206f776e6572600082015250565b7f706c656173652070617920746865207570646174696e67206665650000000000600082015250565b7f506c656173652070617920746865207570646174696e67206665650000000000600082015250565b7f4164646974696f6e2074696d652073686f756c64206265206d6f72652074686160008201527f6e207a65726f0000000000000000000000000000000000000000000000000000602082015250565b7f4f6e6c79206c6f636b6572206f6e77657220697320616c6c6f7765642e000000600082015250565b6002811062002e9c5762002e9b62002b75565b5b50565b6002811062002eb35762002eb262002b75565b5b50565b62002ec181620029ba565b811462002ecd57600080fd5b50565b62002edb81620029ce565b811462002ee757600080fd5b50565b6002811062002ef857600080fd5b50565b62002f068162002a24565b811462002f1257600080fd5b5056fe60806040523480156200001157600080fd5b5060405162000fce38038062000fce83398181016040528101906200003791906200033f565b336000806101000a81548173ffffffffffffffffffffffffffffffffffffffff021916908373ffffffffffffffffffffffffffffffffffffffff1602179055506040518061010001604052808881526020018581526020018481526020018773ffffffffffffffffffffffffffffffffffffffff1681526020018673ffffffffffffffffffffffffffffffffffffffff16815260200183815260200142815260200182815250600160008201518160000155602082015181600101908051906020019062000107929190620001e3565b50604082015181600201908051906020019062000126929190620001e3565b5060608201518160030160006101000a81548173ffffffffffffffffffffffffffffffffffffffff021916908373ffffffffffffffffffffffffffffffffffffffff16021790555060808201518160040160006101000a81548173ffffffffffffffffffffffffffffffffffffffff021916908373ffffffffffffffffffffffffffffffffffffffff16021790555060a0820151816005015560c0820151816006015560e082015181600701559050505050505050505062000626565b828054620001f19062000503565b90600052602060002090601f01602090048101928262000215576000855562000261565b82601f106200023057805160ff191683800117855562000261565b8280016001018555821562000261579182015b828111156200026057825182559160200191906001019062000243565b5b50905062000270919062000274565b5090565b5b808211156200028f57600081600090555060010162000275565b5090565b6000620002aa620002a48462000459565b62000430565b905082815260208101848484011115620002c957620002c8620005d2565b5b620002d6848285620004cd565b509392505050565b600081519050620002ef81620005f2565b92915050565b600082601f8301126200030d576200030c620005cd565b5b81516200031f84826020860162000293565b91505092915050565b60008151905062000339816200060c565b92915050565b600080600080600080600060e0888a031215620003615762000360620005dc565b5b6000620003718a828b0162000328565b9750506020620003848a828b01620002de565b9650506040620003978a828b01620002de565b955050606088015167ffffffffffffffff811115620003bb57620003ba620005d7565b5b620003c98a828b01620002f5565b945050608088015167ffffffffffffffff811115620003ed57620003ec620005d7565b5b620003fb8a828b01620002f5565b93505060a06200040e8a828b0162000328565b92505060c0620004218a828b0162000328565b91505092959891949750929550565b60006200043c6200044f565b90506200044a828262000539565b919050565b6000604051905090565b600067ffffffffffffffff8211156200047757620004766200059e565b5b6200048282620005e1565b9050602081019050919050565b60006200049c82620004a3565b9050919050565b600073ffffffffffffffffffffffffffffffffffffffff82169050919050565b6000819050919050565b60005b83811015620004ed578082015181840152602081019050620004d0565b83811115620004fd576000848401525b50505050565b600060028204905060018216806200051c57607f821691505b602082108114156200053357620005326200056f565b5b50919050565b6200054482620005e1565b810181811067ffffffffffffffff821117156200056657620005656200059e565b5b80604052505050565b7f4e487b7100000000000000000000000000000000000000000000000000000000600052602260045260246000fd5b7f4e487b7100000000000000000000000000000000000000000000000000000000600052604160045260246000fd5b600080fd5b600080fd5b600080fd5b600080fd5b6000601f19601f8301169050919050565b620005fd816200048f565b81146200060957600080fd5b50565b6200061781620004c3565b81146200062357600080fd5b50565b61099880620006366000396000f3fe608060405234801561001057600080fd5b50600436106100415760003560e01c806360e9fec6146100465780637c40532514610062578063efda3cc51461007e575b600080fd5b610060600480360381019061005b9190610567565b61009a565b005b61007c60048036038101906100779190610567565b6101d6565b005b61009860048036038101906100939190610567565b6103a8565b005b60016007015442106100e1576040517f08c379a00000000000000000000000000000000000000000000000000000000081526004016100d8906106aa565b60405180910390fd5b60008054906101000a900473ffffffffffffffffffffffffffffffffffffffff1673ffffffffffffffffffffffffffffffffffffffff163373ffffffffffffffffffffffffffffffffffffffff161461016f576040517f08c379a0000000000000000000000000000000000000000000000000000000008152600401610166906106ca565b60405180910390fd5b600081116101b2576040517f08c379a00000000000000000000000000000000000000000000000000000000081526004016101a99061070a565b60405180910390fd5b6101ca816001600701546104e490919063ffffffff16565b60016007018190555050565b60016007015442101561021e576040517f08c379a0000000000000000000000000000000000000000000000000000000008152600401610215906106ea565b60405180910390fd5b60008054906101000a900473ffffffffffffffffffffffffffffffffffffffff1673ffffffffffffffffffffffffffffffffffffffff163373ffffffffffffffffffffffffffffffffffffffff16146102ac576040517f08c379a00000000000000000000000000000000000000000000000000000000081526004016102a3906106ca565b60405180910390fd5b600160040160009054906101000a900473ffffffffffffffffffffffffffffffffffffffff1673ffffffffffffffffffffffffffffffffffffffff1663a9059cbb600160030160009054906101000a900473ffffffffffffffffffffffffffffffffffffffff16836040518363ffffffff1660e01b8152600401610331929190610661565b602060405180830381600087803b15801561034b57600080fd5b505af115801561035f573d6000803e3d6000fd5b505050506040513d601f19601f82011682018060405250810190610383919061053a565b5061039c816001600501546104fa90919063ffffffff16565b60016005018190555050565b60016007015442106103ef576040517f08c379a00000000000000000000000000000000000000000000000000000000081526004016103e6906106aa565b60405180910390fd5b60008054906101000a900473ffffffffffffffffffffffffffffffffffffffff1673ffffffffffffffffffffffffffffffffffffffff163373ffffffffffffffffffffffffffffffffffffffff161461047d576040517f08c379a0000000000000000000000000000000000000000000000000000000008152600401610474906106ca565b60405180910390fd5b600081116104c0576040517f08c379a00000000000000000000000000000000000000000000000000000000081526004016104b79061068a565b60405180910390fd5b6104d8816001600501546104e490919063ffffffff16565b60016005018190555050565b600081836104f2919061073b565b905092915050565b600081836105089190610791565b905092915050565b60008151905061051f81610934565b92915050565b6000813590506105348161094b565b92915050565b6000602082840312156105505761054f61083c565b5b600061055e84828501610510565b91505092915050565b60006020828403121561057d5761057c61083c565b5b600061058b84828501610525565b91505092915050565b61059d816107c5565b82525050565b60006105b0601f8361072a565b91506105bb82610841565b602082019050919050565b60006105d360118361072a565b91506105de8261086a565b602082019050919050565b60006105f6601f8361072a565b915061060182610893565b602082019050919050565b6000610619601c8361072a565b9150610624826108bc565b602082019050919050565b600061063c60268361072a565b9150610647826108e5565b604082019050919050565b61065b81610803565b82525050565b60006040820190506106766000830185610594565b6106836020830184610652565b9392505050565b600060208201905081810360008301526106a3816105a3565b9050919050565b600060208201905081810360008301526106c3816105c6565b9050919050565b600060208201905081810360008301526106e3816105e9565b9050919050565b600060208201905081810360008301526107038161060c565b9050919050565b600060208201905081810360008301526107238161062f565b9050919050565b600082825260208201905092915050565b600061074682610803565b915061075183610803565b9250827fffffffffffffffffffffffffffffffffffffffffffffffffffffffffffffffff038211156107865761078561080d565b5b828201905092915050565b600061079c82610803565b91506107a783610803565b9250828210156107ba576107b961080d565b5b828203905092915050565b60006107d0826107e3565b9050919050565b60008115159050919050565b600073ffffffffffffffffffffffffffffffffffffffff82169050919050565b6000819050919050565b7f4e487b7100000000000000000000000000000000000000000000000000000000600052601160045260246000fd5b600080fd5b7f546f6b656e732073686f756c64206265206d6f7265207468616e207a65726f00600082015250565b7f4e6f7420756e6c6f636b6564207965742e000000000000000000000000000000600082015250565b7f4f6e6c79206d617374657220697320616c6c6f77656420746f2063616c6c2e00600082015250565b7f546865206c6f636b657220686173206265656e20657870697265642e00000000600082015250565b7f4164646974696f6e2074696d652073686f756c64206265206d6f72652074686160008201527f6e207a65726f0000000000000000000000000000000000000000000000000000602082015250565b61093d816107d7565b811461094857600080fd5b50565b61095481610803565b811461095f57600080fd5b5056fea26469706673582212201a50d0e991b01a96af93b237e1db7ef29988d22f80fa80ee30484cf87a04cbde64736f6c63430008070033a26469706673582212205ae3f66db0322c1127e15f60069f9e6265d548ecbb5414225e4b10a279664ea264736f6c63430008070033",
  "immutableReferences": {},
  "source": "// SPDX-License-Identifier: MIT\r\npragma solidity ^0.8.0;\r\n\r\nimport \"./IERC20.sol\";\r\nimport \"./Ownable.sol\";\r\nimport \"./SafeMath.sol\";\r\nimport \"./PLock.sol\";\r\nimport \"./IPLock.sol\";\r\n\r\n\r\ncontract PICNICLockerFactory is Ownable {\r\n\r\n    using SafeMath for uint;\r\n    uint public lockerCount;    \r\n\r\n    uint public lockFee = 0.1 ether;\r\n    uint public updateLokcerFee = 0.05 ether;\r\n\r\n    mapping(uint => Loker)  public loker;\r\n    mapping(address => uint[])  lockersListByTokenAddress;\r\n    mapping(address => uint[])  lockersListByUserAddress;\r\n\r\n    enum Status {LOCKED, WITHDRAWED}\r\n    enum Type {TOKEN, LPTOKEN}\r\n\r\n    struct Loker {\r\n        uint id;\r\n        Type _type;\r\n        string name;\r\n        string symbol;\r\n        address owner; \r\n        address tokenAddress;\r\n        address lockerAddress;\r\n        uint numOfTokens;\r\n        uint lockTime;\r\n        uint unlockTime;\r\n        Status status;\r\n    }\r\n\r\n    event Locked (uint id, address owner, address token, uint numOfTokens, uint unlockTime);\r\n    event Unlocked (uint id, address owner, address token, uint numOfTokens);\r\n\r\n    modifier OnlyLockerOnwer(uint _id) {\r\n        require(loker[_id].owner == _msgSender(), \"Only locker onwer is allowed.\"); \r\n        _;\r\n    }\r\n\r\n    modifier NotExpired(uint _id) {\r\n        require(block.timestamp < loker[_id].unlockTime, \"Not unlocked yet.\");\r\n        _;\r\n    }\r\n\r\n    modifier Expired(uint _id) {\r\n        require(block.timestamp >= loker[_id].unlockTime, \"The locker has been expired.\");\r\n        _;\r\n    }\r\n\r\n\r\n\r\n    function createLcoker(Type _type, address _token, uint _numOfTokens, uint _unlockTime) payable public {\r\n\r\n        require(msg.value >= lockFee, \"Please pay the fee\");\r\n        require(_unlockTime > block.timestamp, \"The unlock time should in future\");\r\n\r\n        lockerCount++;\r\n\r\n        string memory _name = IERC20(_token).name();\r\n        string memory _symbol = IERC20(_token).symbol();\r\n\r\n        PLock lockerr = new PLock(lockerCount, _msgSender(), _token, _name, _symbol, _numOfTokens, _unlockTime);\r\n        IERC20(_token).transferFrom(_msgSender(), address(lockerr), _numOfTokens);\r\n\r\n        loker[lockerCount] = Loker(\r\n            lockerCount,\r\n            _type,\r\n            _name,\r\n            _symbol,\r\n            _msgSender(),\r\n            _token,\r\n            address(lockerr),\r\n            _numOfTokens,\r\n            block.timestamp,\r\n            _unlockTime,\r\n            Status.LOCKED\r\n        );\r\n\r\n        lockersListByUserAddress[_msgSender()].push(lockerCount);\r\n        lockersListByTokenAddress[_token].push(lockerCount);\r\n\r\n        emit Locked (lockerCount, _msgSender(), _token, _numOfTokens, _unlockTime );\r\n        \r\n    }\r\n\r\n    \r\n    function unlockTokens(uint _id, uint _numOfTokens) public OnlyLockerOnwer(_id) Expired(_id) {\r\n\r\n        Loker memory lokerData = loker[_id];\r\n        require(lokerData.numOfTokens >= _numOfTokens, \"Not enough tokens to withdraw\");\r\n\r\n        IPLock(loker[_id].lockerAddress).unlockTokens(_numOfTokens);\r\n\r\n        loker[_id].numOfTokens = lokerData.numOfTokens.sub(_numOfTokens);   \r\n\r\n        if(loker[_id].numOfTokens == 0 ){\r\n            loker[_id].status = Status.WITHDRAWED;\r\n        }\r\n\r\n        emit Unlocked (_id, _msgSender(), lokerData.tokenAddress, _numOfTokens);\r\n\r\n    }\r\n\r\n    function addTokenstoALocker(uint _id, uint _numOfTokens) payable public OnlyLockerOnwer(_id) NotExpired(_id) {\r\n\r\n        require(msg.value >= updateLokcerFee, \"Please pay the updating fee\");\r\n        require(_numOfTokens > 0, \"Tokens should be more than zero\");\r\n\r\n        IERC20(loker[_id].tokenAddress).transferFrom(_msgSender(), address(loker[_id].lockerAddress), _numOfTokens);\r\n        IPLock(loker[_id].lockerAddress).addTokenstoALocker(_numOfTokens);\r\n\r\n        loker[_id].numOfTokens = loker[_id].numOfTokens.add(_numOfTokens);\r\n\r\n    }\r\n\r\n    function increaseLocktime(uint _id, uint _additionTime) payable public OnlyLockerOnwer(_id) NotExpired(_id) {\r\n\r\n        require(msg.value >= updateLokcerFee, \"please pay the updating fee\");\r\n        require(_additionTime > 0, \"Addition time should be more than zero\");\r\n\r\n        IPLock(loker[_id].lockerAddress).increaseLocktime(_additionTime);\r\n        loker[_id].unlockTime = loker[_id].unlockTime.add(_additionTime);\r\n\r\n    }\r\n\r\n    function getLockersListbyUser(address _userAddress) public view returns (uint[] memory) {\r\n        return lockersListByUserAddress[_userAddress];\r\n    }\r\n\r\n    function getLockersListbyToken(address _tokenAddress) public view returns (uint[] memory) {\r\n        return lockersListByTokenAddress[_tokenAddress];\r\n    }\r\n\r\n    function updateFees(uint _lockFee, uint _updatingFee) public onlyOwner {\r\n        lockFee = _lockFee;\r\n        updateLokcerFee = _updatingFee;\r\n    }\r\n\r\n    function withdrawFunds() public onlyOwner {\r\n        uint balance = address(this).balance;\r\n        require(balance > 0, \"Nothing to withdraw\");\r\n        payable(owner()).transfer(balance);\r\n    }\r\n}",
  "sourcePath": "D:\\Fiverr\\picnic-v2\\Locker\\contracts\\PICNICLokcerFactory.sol",
  "compiler": {
    "name": "solc",
    "version": "0.8.7+commit.e28d00a7.Emscripten.clang"
  },
  "schemaVersion": "3.4.3",
  "updatedAt": "2022-01-19T12:28:43.718Z",
  "devdoc": {
    "kind": "dev",
    "methods": {
      "owner()": {
        "details": "Returns the address of the current owner."
      },
      "renounceOwnership()": {
        "details": "Leaves the contract without owner. It will not be possible to call `onlyOwner` functions anymore. Can only be called by the current owner. NOTE: Renouncing ownership will leave the contract without an owner, thereby removing any functionality that is only available to the owner."
      },
      "transferOwnership(address)": {
        "details": "Transfers ownership of the contract to a new account (`newOwner`). Can only be called by the current owner."
      }
    },
    "version": 1
  },
  "userdoc": {
    "kind": "user",
    "methods": {},
    "version": 1
  }
}