{
  "contractName": "PLock",
  "abi": [
    {
      "inputs": [
        {
          "internalType": "uint256",
          "name": "_lockerID",
          "type": "uint256"
        },
        {
          "internalType": "address",
          "name": "_owner",
          "type": "address"
        },
        {
          "internalType": "address",
          "name": "_token",
          "type": "address"
        },
        {
          "internalType": "string",
          "name": "_name",
          "type": "string"
        },
        {
          "internalType": "string",
          "name": "_symbol",
          "type": "string"
        },
        {
          "internalType": "uint256",
          "name": "_numOfTokens",
          "type": "uint256"
        },
        {
          "internalType": "uint256",
          "name": "_unlockTime",
          "type": "uint256"
        }
      ],
      "stateMutability": "nonpayable",
      "type": "constructor"
    },
    {
      "anonymous": false,
      "inputs": [
        {
          "indexed": false,
          "internalType": "uint256",
          "name": "id",
          "type": "uint256"
        },
        {
          "indexed": false,
          "internalType": "address",
          "name": "owner",
          "type": "address"
        },
        {
          "indexed": false,
          "internalType": "address",
          "name": "token",
          "type": "address"
        },
        {
          "indexed": false,
          "internalType": "uint256",
          "name": "numOfTokens",
          "type": "uint256"
        },
        {
          "indexed": false,
          "internalType": "uint256",
          "name": "unlockTime",
          "type": "uint256"
        }
      ],
      "name": "Locked",
      "type": "event"
    },
    {
      "anonymous": false,
      "inputs": [
        {
          "indexed": false,
          "internalType": "uint256",
          "name": "id",
          "type": "uint256"
        },
        {
          "indexed": false,
          "internalType": "address",
          "name": "owner",
          "type": "address"
        },
        {
          "indexed": false,
          "internalType": "address",
          "name": "token",
          "type": "address"
        },
        {
          "indexed": false,
          "internalType": "uint256",
          "name": "numOfTokens",
          "type": "uint256"
        }
      ],
      "name": "Unlocked",
      "type": "event"
    },
    {
      "inputs": [
        {
          "internalType": "uint256",
          "name": "_numOfTokens",
          "type": "uint256"
        }
      ],
      "name": "unlockTokens",
      "outputs": [],
      "stateMutability": "nonpayable",
      "type": "function"
    },
    {
      "inputs": [
        {
          "internalType": "uint256",
          "name": "_numOfTokens",
          "type": "uint256"
        }
      ],
      "name": "addTokenstoALocker",
      "outputs": [],
      "stateMutability": "nonpayable",
      "type": "function"
    },
    {
      "inputs": [
        {
          "internalType": "uint256",
          "name": "_additionTime",
          "type": "uint256"
        }
      ],
      "name": "increaseLocktime",
      "outputs": [],
      "stateMutability": "nonpayable",
      "type": "function"
    }
  ],
  "bytecode": "0x60806040523480156200001157600080fd5b5060405162000fce38038062000fce83398181016040528101906200003791906200033f565b336000806101000a81548173ffffffffffffffffffffffffffffffffffffffff021916908373ffffffffffffffffffffffffffffffffffffffff1602179055506040518061010001604052808881526020018581526020018481526020018773ffffffffffffffffffffffffffffffffffffffff1681526020018673ffffffffffffffffffffffffffffffffffffffff16815260200183815260200142815260200182815250600160008201518160000155602082015181600101908051906020019062000107929190620001e3565b50604082015181600201908051906020019062000126929190620001e3565b5060608201518160030160006101000a81548173ffffffffffffffffffffffffffffffffffffffff021916908373ffffffffffffffffffffffffffffffffffffffff16021790555060808201518160040160006101000a81548173ffffffffffffffffffffffffffffffffffffffff021916908373ffffffffffffffffffffffffffffffffffffffff16021790555060a0820151816005015560c0820151816006015560e082015181600701559050505050505050505062000626565b828054620001f19062000503565b90600052602060002090601f01602090048101928262000215576000855562000261565b82601f106200023057805160ff191683800117855562000261565b8280016001018555821562000261579182015b828111156200026057825182559160200191906001019062000243565b5b50905062000270919062000274565b5090565b5b808211156200028f57600081600090555060010162000275565b5090565b6000620002aa620002a48462000459565b62000430565b905082815260208101848484011115620002c957620002c8620005d2565b5b620002d6848285620004cd565b509392505050565b600081519050620002ef81620005f2565b92915050565b600082601f8301126200030d576200030c620005cd565b5b81516200031f84826020860162000293565b91505092915050565b60008151905062000339816200060c565b92915050565b600080600080600080600060e0888a031215620003615762000360620005dc565b5b6000620003718a828b0162000328565b9750506020620003848a828b01620002de565b9650506040620003978a828b01620002de565b955050606088015167ffffffffffffffff811115620003bb57620003ba620005d7565b5b620003c98a828b01620002f5565b945050608088015167ffffffffffffffff811115620003ed57620003ec620005d7565b5b620003fb8a828b01620002f5565b93505060a06200040e8a828b0162000328565b92505060c0620004218a828b0162000328565b91505092959891949750929550565b60006200043c6200044f565b90506200044a828262000539565b919050565b6000604051905090565b600067ffffffffffffffff8211156200047757620004766200059e565b5b6200048282620005e1565b9050602081019050919050565b60006200049c82620004a3565b9050919050565b600073ffffffffffffffffffffffffffffffffffffffff82169050919050565b6000819050919050565b60005b83811015620004ed578082015181840152602081019050620004d0565b83811115620004fd576000848401525b50505050565b600060028204905060018216806200051c57607f821691505b602082108114156200053357620005326200056f565b5b50919050565b6200054482620005e1565b810181811067ffffffffffffffff821117156200056657620005656200059e565b5b80604052505050565b7f4e487b7100000000000000000000000000000000000000000000000000000000600052602260045260246000fd5b7f4e487b7100000000000000000000000000000000000000000000000000000000600052604160045260246000fd5b600080fd5b600080fd5b600080fd5b600080fd5b6000601f19601f8301169050919050565b620005fd816200048f565b81146200060957600080fd5b50565b6200061781620004c3565b81146200062357600080fd5b50565b61099880620006366000396000f3fe608060405234801561001057600080fd5b50600436106100415760003560e01c806360e9fec6146100465780637c40532514610062578063efda3cc51461007e575b600080fd5b610060600480360381019061005b9190610567565b61009a565b005b61007c60048036038101906100779190610567565b6101d6565b005b61009860048036038101906100939190610567565b6103a8565b005b60016007015442106100e1576040517f08c379a00000000000000000000000000000000000000000000000000000000081526004016100d8906106aa565b60405180910390fd5b60008054906101000a900473ffffffffffffffffffffffffffffffffffffffff1673ffffffffffffffffffffffffffffffffffffffff163373ffffffffffffffffffffffffffffffffffffffff161461016f576040517f08c379a0000000000000000000000000000000000000000000000000000000008152600401610166906106ca565b60405180910390fd5b600081116101b2576040517f08c379a00000000000000000000000000000000000000000000000000000000081526004016101a99061070a565b60405180910390fd5b6101ca816001600701546104e490919063ffffffff16565b60016007018190555050565b60016007015442101561021e576040517f08c379a0000000000000000000000000000000000000000000000000000000008152600401610215906106ea565b60405180910390fd5b60008054906101000a900473ffffffffffffffffffffffffffffffffffffffff1673ffffffffffffffffffffffffffffffffffffffff163373ffffffffffffffffffffffffffffffffffffffff16146102ac576040517f08c379a00000000000000000000000000000000000000000000000000000000081526004016102a3906106ca565b60405180910390fd5b600160040160009054906101000a900473ffffffffffffffffffffffffffffffffffffffff1673ffffffffffffffffffffffffffffffffffffffff1663a9059cbb600160030160009054906101000a900473ffffffffffffffffffffffffffffffffffffffff16836040518363ffffffff1660e01b8152600401610331929190610661565b602060405180830381600087803b15801561034b57600080fd5b505af115801561035f573d6000803e3d6000fd5b505050506040513d601f19601f82011682018060405250810190610383919061053a565b5061039c816001600501546104fa90919063ffffffff16565b60016005018190555050565b60016007015442106103ef576040517f08c379a00000000000000000000000000000000000000000000000000000000081526004016103e6906106aa565b60405180910390fd5b60008054906101000a900473ffffffffffffffffffffffffffffffffffffffff1673ffffffffffffffffffffffffffffffffffffffff163373ffffffffffffffffffffffffffffffffffffffff161461047d576040517f08c379a0000000000000000000000000000000000000000000000000000000008152600401610474906106ca565b60405180910390fd5b600081116104c0576040517f08c379a00000000000000000000000000000000000000000000000000000000081526004016104b79061068a565b60405180910390fd5b6104d8816001600501546104e490919063ffffffff16565b60016005018190555050565b600081836104f2919061073b565b905092915050565b600081836105089190610791565b905092915050565b60008151905061051f81610934565b92915050565b6000813590506105348161094b565b92915050565b6000602082840312156105505761054f61083c565b5b600061055e84828501610510565b91505092915050565b60006020828403121561057d5761057c61083c565b5b600061058b84828501610525565b91505092915050565b61059d816107c5565b82525050565b60006105b0601f8361072a565b91506105bb82610841565b602082019050919050565b60006105d360118361072a565b91506105de8261086a565b602082019050919050565b60006105f6601f8361072a565b915061060182610893565b602082019050919050565b6000610619601c8361072a565b9150610624826108bc565b602082019050919050565b600061063c60268361072a565b9150610647826108e5565b604082019050919050565b61065b81610803565b82525050565b60006040820190506106766000830185610594565b6106836020830184610652565b9392505050565b600060208201905081810360008301526106a3816105a3565b9050919050565b600060208201905081810360008301526106c3816105c6565b9050919050565b600060208201905081810360008301526106e3816105e9565b9050919050565b600060208201905081810360008301526107038161060c565b9050919050565b600060208201905081810360008301526107238161062f565b9050919050565b600082825260208201905092915050565b600061074682610803565b915061075183610803565b9250827fffffffffffffffffffffffffffffffffffffffffffffffffffffffffffffffff038211156107865761078561080d565b5b828201905092915050565b600061079c82610803565b91506107a783610803565b9250828210156107ba576107b961080d565b5b828203905092915050565b60006107d0826107e3565b9050919050565b60008115159050919050565b600073ffffffffffffffffffffffffffffffffffffffff82169050919050565b6000819050919050565b7f4e487b7100000000000000000000000000000000000000000000000000000000600052601160045260246000fd5b600080fd5b7f546f6b656e732073686f756c64206265206d6f7265207468616e207a65726f00600082015250565b7f4e6f7420756e6c6f636b6564207965742e000000000000000000000000000000600082015250565b7f4f6e6c79206d617374657220697320616c6c6f77656420746f2063616c6c2e00600082015250565b7f546865206c6f636b657220686173206265656e20657870697265642e00000000600082015250565b7f4164646974696f6e2074696d652073686f756c64206265206d6f72652074686160008201527f6e207a65726f0000000000000000000000000000000000000000000000000000602082015250565b61093d816107d7565b811461094857600080fd5b50565b61095481610803565b811461095f57600080fd5b5056fea26469706673582212201a50d0e991b01a96af93b237e1db7ef29988d22f80fa80ee30484cf87a04cbde64736f6c63430008070033",
  "immutableReferences": {},
  "source": "// SPDX-License-Identifier: MIT\r\npragma solidity ^0.8.0;\r\n\r\n// import \"./IPancakePair.sol\";\r\nimport \"./IERC20.sol\";\r\nimport \"./Context.sol\";\r\nimport \"./SafeMath.sol\";\r\n\r\ncontract PLock is Context {\r\n\r\n    using SafeMath for uint;\r\n\r\n    address internal master;\r\n    Loker internal loker;\r\n\r\n    enum Status {LOCKED, WITHDRAWED}\r\n    enum Type {TOKEN, LPTOKEN}\r\n\r\n    struct Loker {\r\n        uint id;\r\n        string name;\r\n        string symbol;\r\n        address owner; \r\n        address tokenAddress;\r\n        uint numOfTokens;\r\n        uint lockTime;\r\n        uint unlockTime;\r\n    }\r\n\r\n    event Locked (uint id, address owner, address token, uint numOfTokens, uint unlockTime);\r\n    event Unlocked (uint id, address owner, address token, uint numOfTokens);\r\n\r\n    modifier onlyMaster() {\r\n        require(msg.sender == master, \"Only master is allowed to call.\"); \r\n        _;\r\n    }\r\n\r\n    modifier NotExpired() {\r\n        require(block.timestamp < loker.unlockTime, \"Not unlocked yet.\");\r\n        _;\r\n    }\r\n\r\n    modifier Expired() {\r\n        require(block.timestamp >= loker.unlockTime, \"The locker has been expired.\");\r\n        _;\r\n    }\r\n\r\n    constructor (\r\n        uint _lockerID, \r\n        address _owner, \r\n        address _token, \r\n        string memory _name,\r\n        string memory _symbol,\r\n        uint _numOfTokens, \r\n        uint _unlockTime\r\n    ) \r\n    {\r\n        master = msg.sender;\r\n        loker = Loker(_lockerID, _name, _symbol, _owner, _token, _numOfTokens, block.timestamp, _unlockTime );\r\n    }\r\n\r\n\r\n    function unlockTokens(uint _numOfTokens) public Expired onlyMaster{\r\n        IERC20(loker.tokenAddress).transfer(loker.owner, _numOfTokens);\r\n        loker.numOfTokens = loker.numOfTokens.sub(_numOfTokens);   \r\n    }\r\n\r\n    function addTokenstoALocker(uint _numOfTokens) public NotExpired onlyMaster{\r\n\r\n        require(_numOfTokens > 0, \"Tokens should be more than zero\");\r\n        loker.numOfTokens = loker.numOfTokens.add(_numOfTokens);\r\n\r\n    }\r\n\r\n    function increaseLocktime(uint _additionTime) public NotExpired onlyMaster{\r\n\r\n        require(_additionTime > 0, \"Addition time should be more than zero\");\r\n        loker.unlockTime = loker.unlockTime.add(_additionTime);\r\n\r\n    }\r\n\r\n\r\n}",
  "sourcePath": "D:\\Fiverr\\picnic-v2\\Locker\\contracts\\PLock.sol",
  "compiler": {
    "name": "solc",
    "version": "0.8.7+commit.e28d00a7.Emscripten.clang"
  },
  "schemaVersion": "3.4.3",
  "updatedAt": "2022-01-19T12:28:43.741Z",
  "devdoc": {
    "kind": "dev",
    "methods": {},
    "version": 1
  },
  "userdoc": {
    "kind": "user",
    "methods": {},
    "version": 1
  }
}