{
  "contractName": "PLock",
  "abi": [
    {
      "inputs": [
        {
          "internalType": "uint256",
          "name": "_lockerID",
          "type": "uint256"
        },
        {
          "internalType": "address",
          "name": "_owner",
          "type": "address"
        },
        {
          "internalType": "address",
          "name": "_token",
          "type": "address"
        },
        {
          "internalType": "uint256",
          "name": "_numOfTokens",
          "type": "uint256"
        },
        {
          "internalType": "uint256",
          "name": "_unlockTime",
          "type": "uint256"
        }
      ],
      "stateMutability": "nonpayable",
      "type": "constructor"
    },
    {
      "anonymous": false,
      "inputs": [
        {
          "indexed": false,
          "internalType": "uint256",
          "name": "id",
          "type": "uint256"
        },
        {
          "indexed": false,
          "internalType": "address",
          "name": "owner",
          "type": "address"
        },
        {
          "indexed": false,
          "internalType": "address",
          "name": "token",
          "type": "address"
        },
        {
          "indexed": false,
          "internalType": "uint256",
          "name": "numOfTokens",
          "type": "uint256"
        },
        {
          "indexed": false,
          "internalType": "uint256",
          "name": "unlockTime",
          "type": "uint256"
        }
      ],
      "name": "Locked",
      "type": "event"
    },
    {
      "anonymous": false,
      "inputs": [
        {
          "indexed": false,
          "internalType": "uint256",
          "name": "id",
          "type": "uint256"
        },
        {
          "indexed": false,
          "internalType": "address",
          "name": "owner",
          "type": "address"
        },
        {
          "indexed": false,
          "internalType": "address",
          "name": "token",
          "type": "address"
        },
        {
          "indexed": false,
          "internalType": "uint256",
          "name": "numOfTokens",
          "type": "uint256"
        }
      ],
      "name": "Unlocked",
      "type": "event"
    },
    {
      "inputs": [
        {
          "internalType": "uint256",
          "name": "_numOfTokens",
          "type": "uint256"
        }
      ],
      "name": "unlockTokens",
      "outputs": [],
      "stateMutability": "nonpayable",
      "type": "function"
    },
    {
      "inputs": [
        {
          "internalType": "uint256",
          "name": "_numOfTokens",
          "type": "uint256"
        }
      ],
      "name": "addTokenstoALocker",
      "outputs": [],
      "stateMutability": "nonpayable",
      "type": "function"
    },
    {
      "inputs": [
        {
          "internalType": "uint256",
          "name": "_additionTime",
          "type": "uint256"
        }
      ],
      "name": "increaseLocktime",
      "outputs": [],
      "stateMutability": "nonpayable",
      "type": "function"
    }
  ],
  "bytecode": "0x60806040523480156200001157600080fd5b5060405162000c6a38038062000c6a8339818101604052810190620000379190620001c4565b336000806101000a81548173ffffffffffffffffffffffffffffffffffffffff021916908373ffffffffffffffffffffffffffffffffffffffff1602179055506040518060c001604052808681526020018573ffffffffffffffffffffffffffffffffffffffff1681526020018473ffffffffffffffffffffffffffffffffffffffff1681526020018381526020014281526020018281525060016000820151816000015560208201518160010160006101000a81548173ffffffffffffffffffffffffffffffffffffffff021916908373ffffffffffffffffffffffffffffffffffffffff16021790555060408201518160020160006101000a81548173ffffffffffffffffffffffffffffffffffffffff021916908373ffffffffffffffffffffffffffffffffffffffff160217905550606082015181600301556080820151816004015560a082015181600501559050505050505050620002c3565b600081519050620001a7816200028f565b92915050565b600081519050620001be81620002a9565b92915050565b600080600080600060a08688031215620001e357620001e26200028a565b5b6000620001f388828901620001ad565b9550506020620002068882890162000196565b9450506040620002198882890162000196565b93505060606200022c88828901620001ad565b92505060806200023f88828901620001ad565b9150509295509295909350565b6000620002598262000260565b9050919050565b600073ffffffffffffffffffffffffffffffffffffffff82169050919050565b6000819050919050565b600080fd5b6200029a816200024c565b8114620002a657600080fd5b50565b620002b48162000280565b8114620002c057600080fd5b50565b61099780620002d36000396000f3fe608060405234801561001057600080fd5b50600436106100415760003560e01c806360e9fec6146100465780637c40532514610062578063efda3cc51461007e575b600080fd5b610060600480360381019061005b9190610566565b61009a565b005b61007c60048036038101906100779190610566565b6101d6565b005b61009860048036038101906100939190610566565b6103a7565b005b60016005015442106100e1576040517f08c379a00000000000000000000000000000000000000000000000000000000081526004016100d8906106a9565b60405180910390fd5b60008054906101000a900473ffffffffffffffffffffffffffffffffffffffff1673ffffffffffffffffffffffffffffffffffffffff163373ffffffffffffffffffffffffffffffffffffffff161461016f576040517f08c379a0000000000000000000000000000000000000000000000000000000008152600401610166906106c9565b60405180910390fd5b600081116101b2576040517f08c379a00000000000000000000000000000000000000000000000000000000081526004016101a990610709565b60405180910390fd5b6101ca816001600501546104e390919063ffffffff16565b60016005018190555050565b60016005015442101561021e576040517f08c379a0000000000000000000000000000000000000000000000000000000008152600401610215906106e9565b60405180910390fd5b60008054906101000a900473ffffffffffffffffffffffffffffffffffffffff1673ffffffffffffffffffffffffffffffffffffffff163373ffffffffffffffffffffffffffffffffffffffff16146102ac576040517f08c379a00000000000000000000000000000000000000000000000000000000081526004016102a3906106c9565b60405180910390fd5b600160020160009054906101000a900473ffffffffffffffffffffffffffffffffffffffff1673ffffffffffffffffffffffffffffffffffffffff1663a9059cbb6001800160009054906101000a900473ffffffffffffffffffffffffffffffffffffffff16836040518363ffffffff1660e01b8152600401610330929190610660565b602060405180830381600087803b15801561034a57600080fd5b505af115801561035e573d6000803e3d6000fd5b505050506040513d601f19601f820116820180604052508101906103829190610539565b5061039b816001600301546104f990919063ffffffff16565b60016003018190555050565b60016005015442106103ee576040517f08c379a00000000000000000000000000000000000000000000000000000000081526004016103e5906106a9565b60405180910390fd5b60008054906101000a900473ffffffffffffffffffffffffffffffffffffffff1673ffffffffffffffffffffffffffffffffffffffff163373ffffffffffffffffffffffffffffffffffffffff161461047c576040517f08c379a0000000000000000000000000000000000000000000000000000000008152600401610473906106c9565b60405180910390fd5b600081116104bf576040517f08c379a00000000000000000000000000000000000000000000000000000000081526004016104b690610689565b60405180910390fd5b6104d7816001600301546104e390919063ffffffff16565b60016003018190555050565b600081836104f1919061073a565b905092915050565b600081836105079190610790565b905092915050565b60008151905061051e81610933565b92915050565b6000813590506105338161094a565b92915050565b60006020828403121561054f5761054e61083b565b5b600061055d8482850161050f565b91505092915050565b60006020828403121561057c5761057b61083b565b5b600061058a84828501610524565b91505092915050565b61059c816107c4565b82525050565b60006105af601f83610729565b91506105ba82610840565b602082019050919050565b60006105d2601183610729565b91506105dd82610869565b602082019050919050565b60006105f5601f83610729565b915061060082610892565b602082019050919050565b6000610618601c83610729565b9150610623826108bb565b602082019050919050565b600061063b602683610729565b9150610646826108e4565b604082019050919050565b61065a81610802565b82525050565b60006040820190506106756000830185610593565b6106826020830184610651565b9392505050565b600060208201905081810360008301526106a2816105a2565b9050919050565b600060208201905081810360008301526106c2816105c5565b9050919050565b600060208201905081810360008301526106e2816105e8565b9050919050565b600060208201905081810360008301526107028161060b565b9050919050565b600060208201905081810360008301526107228161062e565b9050919050565b600082825260208201905092915050565b600061074582610802565b915061075083610802565b9250827fffffffffffffffffffffffffffffffffffffffffffffffffffffffffffffffff038211156107855761078461080c565b5b828201905092915050565b600061079b82610802565b91506107a683610802565b9250828210156107b9576107b861080c565b5b828203905092915050565b60006107cf826107e2565b9050919050565b60008115159050919050565b600073ffffffffffffffffffffffffffffffffffffffff82169050919050565b6000819050919050565b7f4e487b7100000000000000000000000000000000000000000000000000000000600052601160045260246000fd5b600080fd5b7f546f6b656e732073686f756c64206265206d6f7265207468616e207a65726f00600082015250565b7f4e6f7420756e6c6f636b6564207965742e000000000000000000000000000000600082015250565b7f4f6e6c79206d617374657220697320616c6c6f77656420746f2063616c6c2e00600082015250565b7f546865206c6f636b657220686173206265656e20657870697265642e00000000600082015250565b7f4164646974696f6e2074696d652073686f756c64206265206d6f72652074686160008201527f6e207a65726f0000000000000000000000000000000000000000000000000000602082015250565b61093c816107d6565b811461094757600080fd5b50565b61095381610802565b811461095e57600080fd5b5056fea2646970667358221220547e8909eb1ecaf8e19de21234216da608c65a76051fffeaa5105a8dba57f69c64736f6c63430008070033",
  "immutableReferences": {},
  "source": "// SPDX-License-Identifier: MIT\r\npragma solidity ^0.8.0;\r\n\r\n// import \"./IPancakePair.sol\";\r\nimport \"./IERC20.sol\";\r\nimport \"./Context.sol\";\r\nimport \"./SafeMath.sol\";\r\n\r\ncontract PLock is Context {\r\n\r\n    using SafeMath for uint;\r\n\r\n    address internal master;\r\n    Loker internal loker;\r\n\r\n    enum Status {LOCKED, WITHDRAWED}\r\n    enum Type {TOKEN, LPTOKEN}\r\n\r\n    struct Loker {\r\n        uint id;\r\n        address owner; \r\n        address tokenAddress;\r\n        uint numOfTokens;\r\n        uint lockTime;\r\n        uint unlockTime;\r\n    }\r\n\r\n    event Locked (uint id, address owner, address token, uint numOfTokens, uint unlockTime);\r\n    event Unlocked (uint id, address owner, address token, uint numOfTokens);\r\n\r\n    modifier onlyMaster() {\r\n        require(msg.sender == master, \"Only master is allowed to call.\"); \r\n        _;\r\n    }\r\n\r\n    modifier NotExpired() {\r\n        require(block.timestamp < loker.unlockTime, \"Not unlocked yet.\");\r\n        _;\r\n    }\r\n\r\n    modifier Expired() {\r\n        require(block.timestamp >= loker.unlockTime, \"The locker has been expired.\");\r\n        _;\r\n    }\r\n\r\n    constructor (\r\n        uint _lockerID, \r\n        address _owner, \r\n        address _token, \r\n        uint _numOfTokens, \r\n        uint _unlockTime\r\n    ) \r\n    {\r\n        master = msg.sender;\r\n        loker = Loker(_lockerID, _owner, _token, _numOfTokens, block.timestamp, _unlockTime );\r\n    }\r\n\r\n\r\n    function unlockTokens(uint _numOfTokens) public Expired onlyMaster {\r\n        IERC20(loker.tokenAddress).transfer(loker.owner, _numOfTokens);\r\n        loker.numOfTokens = loker.numOfTokens.sub(_numOfTokens);   \r\n    }\r\n\r\n    function addTokenstoALocker(uint _numOfTokens) public NotExpired onlyMaster {\r\n\r\n        require(_numOfTokens > 0, \"Tokens should be more than zero\");\r\n        loker.numOfTokens = loker.numOfTokens.add(_numOfTokens);\r\n\r\n    }\r\n\r\n    function increaseLocktime(uint _additionTime) public NotExpired onlyMaster {\r\n\r\n        require(_additionTime > 0, \"Addition time should be more than zero\");\r\n        loker.unlockTime = loker.unlockTime.add(_additionTime);\r\n\r\n    }\r\n\r\n\r\n}",
  "sourcePath": "D:\\Fiverr\\picnic-v2\\Locker\\contracts\\PLock.sol",
  "compiler": {
    "name": "solc",
    "version": "0.8.7+commit.e28d00a7.Emscripten.clang"
  },
  "schemaVersion": "3.4.3",
  "updatedAt": "2022-01-18T11:14:32.135Z",
  "devdoc": {
    "kind": "dev",
    "methods": {},
    "version": 1
  },
  "userdoc": {
    "kind": "user",
    "methods": {},
    "version": 1
  }
}