{
  "_format": "hh-sol-artifact-1",
  "contractName": "Launchpadv2",
  "sourceName": "contracts/LaunchpadV2/Launchpadv2.sol",
  "abi": [
    {
      "inputs": [
        {
          "internalType": "address",
          "name": "_uniswapV2Router02",
          "type": "address"
        },
        {
          "internalType": "address",
          "name": "_teamAddr",
          "type": "address"
        },
        {
          "internalType": "address",
          "name": "_devAddr",
          "type": "address"
        }
      ],
      "stateMutability": "nonpayable",
      "type": "constructor"
    },
    {
      "anonymous": false,
      "inputs": [
        {
          "indexed": true,
          "internalType": "address",
          "name": "previousOwner",
          "type": "address"
        },
        {
          "indexed": true,
          "internalType": "address",
          "name": "newOwner",
          "type": "address"
        }
      ],
      "name": "OwnershipTransferred",
      "type": "event"
    },
    {
      "anonymous": false,
      "inputs": [
        {
          "indexed": false,
          "internalType": "uint256",
          "name": "id",
          "type": "uint256"
        },
        {
          "indexed": false,
          "internalType": "address",
          "name": "presaleAddress",
          "type": "address"
        }
      ],
      "name": "PresaleCreated",
      "type": "event"
    },
    {
      "inputs": [
        {
          "components": [
            {
              "internalType": "address",
              "name": "tokenAddress",
              "type": "address"
            },
            {
              "internalType": "uint8",
              "name": "decimals",
              "type": "uint8"
            }
          ],
          "internalType": "struct LaunchPadLib.TokenInfo",
          "name": "_tokenInfo",
          "type": "tuple"
        },
        {
          "components": [
            {
              "internalType": "enum LaunchPadLib.PresaleType",
              "name": "presaleType",
              "type": "uint8"
            },
            {
              "internalType": "address",
              "name": "criteriaToken",
              "type": "address"
            },
            {
              "internalType": "uint256",
              "name": "minCriteriaTokens",
              "type": "uint256"
            },
            {
              "internalType": "uint256",
              "name": "presaleRate",
              "type": "uint256"
            },
            {
              "internalType": "uint8",
              "name": "liquidity",
              "type": "uint8"
            },
            {
              "internalType": "uint256",
              "name": "hardCap",
              "type": "uint256"
            },
            {
              "internalType": "uint256",
              "name": "softCap",
              "type": "uint256"
            },
            {
              "internalType": "uint256",
              "name": "minContribution",
              "type": "uint256"
            },
            {
              "internalType": "uint256",
              "name": "maxContribution",
              "type": "uint256"
            },
            {
              "internalType": "enum LaunchPadLib.RefundType",
              "name": "refundType",
              "type": "uint8"
            }
          ],
          "internalType": "struct LaunchPadLib.ParticipationCriteria",
          "name": "_participationCriteria",
          "type": "tuple"
        },
        {
          "components": [
            {
              "internalType": "uint256",
              "name": "startedAt",
              "type": "uint256"
            },
            {
              "internalType": "uint256",
              "name": "expiredAt",
              "type": "uint256"
            },
            {
              "internalType": "uint256",
              "name": "lpLockupDuration",
              "type": "uint256"
            }
          ],
          "internalType": "struct LaunchPadLib.PresaleTimes",
          "name": "_presaleTimes",
          "type": "tuple"
        },
        {
          "components": [
            {
              "internalType": "bool",
              "name": "isEnabled",
              "type": "bool"
            },
            {
              "internalType": "uint256",
              "name": "firstReleasePC",
              "type": "uint256"
            },
            {
              "internalType": "uint256",
              "name": "eachCycleDuration",
              "type": "uint256"
            },
            {
              "internalType": "uint8",
              "name": "eachCyclePC",
              "type": "uint8"
            }
          ],
          "internalType": "struct LaunchPadLib.ContributorsVesting",
          "name": "_contributorsVesting",
          "type": "tuple"
        },
        {
          "components": [
            {
              "internalType": "bool",
              "name": "isEnabled",
              "type": "bool"
            },
            {
              "internalType": "uint256",
              "name": "vestingTokens",
              "type": "uint256"
            },
            {
              "internalType": "uint256",
              "name": "firstReleaseDelay",
              "type": "uint256"
            },
            {
              "internalType": "uint256",
              "name": "firstReleasePC",
              "type": "uint256"
            },
            {
              "internalType": "uint256",
              "name": "eachCycleDuration",
              "type": "uint256"
            },
            {
              "internalType": "uint8",
              "name": "eachCyclePC",
              "type": "uint8"
            }
          ],
          "internalType": "struct LaunchPadLib.TeamVesting",
          "name": "_teamVesting",
          "type": "tuple"
        },
        {
          "components": [
            {
              "internalType": "string",
              "name": "logoURL",
              "type": "string"
            },
            {
              "internalType": "string",
              "name": "websiteURL",
              "type": "string"
            },
            {
              "internalType": "string",
              "name": "twitterURL",
              "type": "string"
            },
            {
              "internalType": "string",
              "name": "telegramURL",
              "type": "string"
            },
            {
              "internalType": "string",
              "name": "discordURL",
              "type": "string"
            },
            {
              "internalType": "string",
              "name": "description",
              "type": "string"
            }
          ],
          "internalType": "struct LaunchPadLib.GeneralInfo",
          "name": "_generalInfo",
          "type": "tuple"
        }
      ],
      "name": "createPresale",
      "outputs": [],
      "stateMutability": "payable",
      "type": "function"
    },
    {
      "inputs": [],
      "name": "devAddr",
      "outputs": [
        {
          "internalType": "address",
          "name": "",
          "type": "address"
        }
      ],
      "stateMutability": "view",
      "type": "function"
    },
    {
      "inputs": [
        {
          "internalType": "address",
          "name": "_address",
          "type": "address"
        }
      ],
      "name": "getPresaleRecordsByToken",
      "outputs": [
        {
          "internalType": "address[]",
          "name": "",
          "type": "address[]"
        }
      ],
      "stateMutability": "view",
      "type": "function"
    },
    {
      "inputs": [],
      "name": "owner",
      "outputs": [
        {
          "internalType": "address",
          "name": "",
          "type": "address"
        }
      ],
      "stateMutability": "view",
      "type": "function"
    },
    {
      "inputs": [],
      "name": "presaleCount",
      "outputs": [
        {
          "internalType": "uint256",
          "name": "",
          "type": "uint256"
        }
      ],
      "stateMutability": "view",
      "type": "function"
    },
    {
      "inputs": [
        {
          "internalType": "uint256",
          "name": "",
          "type": "uint256"
        }
      ],
      "name": "presaleRecordByID",
      "outputs": [
        {
          "internalType": "address",
          "name": "",
          "type": "address"
        }
      ],
      "stateMutability": "view",
      "type": "function"
    },
    {
      "inputs": [],
      "name": "renounceOwnership",
      "outputs": [],
      "stateMutability": "nonpayable",
      "type": "function"
    },
    {
      "inputs": [],
      "name": "salesFeeInPercent",
      "outputs": [
        {
          "internalType": "uint8",
          "name": "",
          "type": "uint8"
        }
      ],
      "stateMutability": "view",
      "type": "function"
    },
    {
      "inputs": [],
      "name": "teamAddr",
      "outputs": [
        {
          "internalType": "address",
          "name": "",
          "type": "address"
        }
      ],
      "stateMutability": "view",
      "type": "function"
    },
    {
      "inputs": [
        {
          "internalType": "address",
          "name": "newOwner",
          "type": "address"
        }
      ],
      "name": "transferOwnership",
      "outputs": [],
      "stateMutability": "nonpayable",
      "type": "function"
    },
    {
      "inputs": [],
      "name": "uniswapV2Router02",
      "outputs": [
        {
          "internalType": "address",
          "name": "",
          "type": "address"
        }
      ],
      "stateMutability": "view",
      "type": "function"
    },
    {
      "inputs": [
        {
          "internalType": "address",
          "name": "_address",
          "type": "address"
        }
      ],
      "name": "updateDevAddress",
      "outputs": [],
      "stateMutability": "nonpayable",
      "type": "function"
    },
    {
      "inputs": [
        {
          "internalType": "uint256",
          "name": "_upfrontFee",
          "type": "uint256"
        },
        {
          "internalType": "uint8",
          "name": "_salesFeeInPercent",
          "type": "uint8"
        }
      ],
      "name": "updateFees",
      "outputs": [],
      "stateMutability": "nonpayable",
      "type": "function"
    },
    {
      "inputs": [
        {
          "internalType": "address",
          "name": "_address",
          "type": "address"
        }
      ],
      "name": "updateTeamAddress",
      "outputs": [],
      "stateMutability": "nonpayable",
      "type": "function"
    },
    {
      "inputs": [],
      "name": "upfrontfee",
      "outputs": [
        {
          "internalType": "uint256",
          "name": "",
          "type": "uint256"
        }
      ],
      "stateMutability": "view",
      "type": "function"
    },
    {
      "inputs": [],
      "name": "withdrawBNBs",
      "outputs": [],
      "stateMutability": "nonpayable",
      "type": "function"
    },
    {
      "stateMutability": "payable",
      "type": "receive"
    }
  ],
  "bytecode": "0x608060405260006001556702c68af0bb14000060029081556003805460ff191690911790553480156200003157600080fd5b506040516200615538038062006155833981016040819052620000549162000118565b6200005f33620000ab565b600380546001600160a01b0394851661010002610100600160a81b0319909116179055600480549284166001600160a01b03199384161790556005805491909316911617905562000162565b600080546001600160a01b038381166001600160a01b0319831681178455604051919092169283917f8be0079c531659141344cd1fd0a4f28419497f9722a3daafe3b4186f6b6457e09190a35050565b80516001600160a01b03811681146200011357600080fd5b919050565b6000806000606084860312156200012e57600080fd5b6200013984620000fb565b92506200014960208501620000fb565b91506200015960408501620000fb565b90509250925092565b615fe380620001726000396000f3fe608060405260043610620000e95760003560e01c8063a7c6402c1162000084578063a7c6402c146200021a578063acc3ba881462000241578063cde27a351462000275578063da09c72c146200029c578063da3606be14620002be578063dc5744ad14620002e3578063eec5dab71462000312578063f2fde38b146200032a57600080fd5b806314eb76ac14620000f657806332661af7146200011d5780634a5ff7491462000135578063715018a6146200017457806376130324146200018c5780637a57480f14620001c65780638503376214620001dd5780638da5cb5b146200020257600080fd5b36620000f157005b600080fd5b3480156200010357600080fd5b506200011b6200011536600462001054565b6200034f565b005b3480156200012a57600080fd5b506200011b620003ae565b3480156200014257600080fd5b5060045462000157906001600160a01b031681565b6040516001600160a01b0390911681526020015b60405180910390f35b3480156200018157600080fd5b506200011b6200059c565b3480156200019957600080fd5b5062000157620001ab3660046200120a565b6006602052600090815260409020546001600160a01b031681565b6200011b620001d736600462001099565b620005de565b348015620001ea57600080fd5b506200011b620001fc36600462001054565b62000abc565b3480156200020f57600080fd5b506200015762000b30565b3480156200022757600080fd5b50600354620001579061010090046001600160a01b031681565b3480156200024e57600080fd5b50620002666200026036600462001054565b62000b3f565b6040516200016b91906200140a565b3480156200028257600080fd5b506200028d60015481565b6040519081526020016200016b565b348015620002a957600080fd5b5060055462000157906001600160a01b031681565b348015620002cb57600080fd5b506200011b620002dd36600462001224565b62000bb7565b348015620002f057600080fd5b50600354620002ff9060ff1681565b60405160ff90911681526020016200016b565b3480156200031f57600080fd5b506200028d60025481565b3480156200033757600080fd5b506200011b6200034936600462001054565b62000c06565b336200035a62000b30565b6001600160a01b0316146200038c5760405162461bcd60e51b8152600401620003839062001459565b60405180910390fd5b600480546001600160a01b0319166001600160a01b0392909216919091179055565b33620003b962000b30565b6001600160a01b031614620003e25760405162461bcd60e51b8152600401620003839062001459565b4780620004285760405162461bcd60e51b81526020600482015260136024820152726e6f7468696e6720746f20776974686472617760681b604482015260640162000383565b600060646200043983604662001782565b62000445919062001655565b6004546040519192506000916001600160a01b039091169083908381818185875af1925050503d806000811462000499576040519150601f19603f3d011682016040523d82523d6000602084013e6200049e565b606091505b5050905080620004ea5760405162461bcd60e51b815260206004820152601660248201527563616e6e6f742073656e64207465616d20536861726560501b604482015260640162000383565b6005546000906001600160a01b0316620005058486620017a4565b604051600081818185875af1925050503d806000811462000543576040519150601f19603f3d011682016040523d82523d6000602084013e62000548565b606091505b5050905080620005965760405162461bcd60e51b815260206004820152601860248201527763616e6e6f742073656e64206465765465616d536861726560401b604482015260640162000383565b50505050565b33620005a762000b30565b6001600160a01b031614620005d05760405162461bcd60e51b8152600401620003839062001459565b620005dc600062000caf565b565b8151156200064c5760008260200151116200064c5760405162461bcd60e51b815260206004820152602760248201527f56657374696e6720746f6b656e732073686f756c64206265206d6f7265207468604482015266616e207a65726f60c81b606482015260840162000383565b6014856080015160ff16101580156200066d5750605f856080015160ff1611155b80156200067a5750835142105b80156200068b575083516020850151115b620006d95760405162461bcd60e51b815260206004820152601e60248201527f4c6971756964697479206f722054696d65732061726520696e76616c69640000604482015260640162000383565b60008560c00151118015620006f557508460a001518560c00151105b801562000718575060028560a0015162000710919062001655565b8560c0015110155b801562000729575060008560e00151115b80156200073e57508461010001518560e00151105b620007b25760405162461bcd60e51b815260206004820152603a60248201527f496e76616c696420686172646361702f736f6674636170206f72206d696e436f60448201527f6e747269627574696f6e2f6d6178436f6e747269627574696f6e000000000000606482015260840162000383565b620007bc62000b30565b6001600160a01b0316336001600160a01b0316146200082957600254341015620008295760405162461bcd60e51b815260206004820152601b60248201527f496e73756666696369656e742066756e647320746f2073746172740000000000604482015260640162000383565b600180549060006200083b83620017be565b90915550506040805160608101825260015481523360208201526000918101828152509050600087828888888888600360009054906101000a900460ff16600360019054906101000a90046001600160a01b03166040516200089d9062000cff565b620008b1999897969594939291906200148e565b604051809103906000f080158015620008ce573d6000803e3d6000fd5b5090506000670de0b6b3a76400008960200151600a620008ef9190620016c1565b89606001518a60a0015162000905919062001782565b62000911919062001782565b6200091d919062001655565b905060006064896080015160ff168362000938919062001782565b62000944919062001655565b905060008a60200151600a6200095b9190620016c1565b87602001516200096c919062001782565b90506000816200097d84866200163a565b6200098991906200163a565b8c516040516323b872dd60e01b81523360048201526001600160a01b038881166024830152604482018490529293509116906323b872dd90606401602060405180830381600087803b158015620009df57600080fd5b505af1158015620009f4573d6000803e3d6000fd5b505050506040513d601f19601f8201168201806040525081019062000a1a919062001079565b508b516001600160a01b039081166000908152600760209081526040808320805460018082018355918552838520018054958b166001600160a01b031996871681179091558154855260068452938290208054909516841790945592548351908152908101919091527fa63e1b89b8708e2f6d5297fc6c5135793e89946161d4a652acac23119697bfb1910160405180910390a1505050505050505050505050565b6005546001600160a01b0316331462000b0e5760405162461bcd60e51b815260206004820152601360248201527213db9b1e4819195d881a5cc8185b1b1bddd959606a1b604482015260640162000383565b600580546001600160a01b0319166001600160a01b0392909216919091179055565b6000546001600160a01b031690565b6001600160a01b03811660009081526007602090815260409182902080548351818402810184019094528084526060939283018282801562000bab57602002820191906000526020600020905b81546001600160a01b0316815260019091019060200180831162000b8c575b50505050509050919050565b3362000bc262000b30565b6001600160a01b03161462000beb5760405162461bcd60e51b8152600401620003839062001459565b6002919091556003805460ff191660ff909216919091179055565b3362000c1162000b30565b6001600160a01b03161462000c3a5760405162461bcd60e51b8152600401620003839062001459565b6001600160a01b03811662000ca15760405162461bcd60e51b815260206004820152602660248201527f4f776e61626c653a206e6577206f776e657220697320746865207a65726f206160448201526564647265737360d01b606482015260840162000383565b62000cac8162000caf565b50565b600080546001600160a01b038381166001600160a01b0319831681178455604051919092169283917f8be0079c531659141344cd1fd0a4f28419497f9722a3daafe3b4186f6b6457e09190a35050565b614780806200182e83390190565b80356001600160a01b038116811462000d2557600080fd5b919050565b80356003811062000d2557600080fd5b80356002811062000d2557600080fd5b600082601f83011262000d5c57600080fd5b81356001600160401b038082111562000d795762000d7962001808565b604051601f8301601f19908116603f0116810190828211818310171562000da45762000da462001808565b8160405283815286602085880101111562000dbe57600080fd5b836020870160208301376000602085830101528094505050505092915050565b60006080828403121562000df157600080fd5b604051608081018181106001600160401b038211171562000e165762000e1662001808565b604052905080823562000e29816200181e565b80825250602083013560208201526040830135604082015262000e4f6060840162001042565b60608201525092915050565b600060c0828403121562000e6e57600080fd5b62000e78620015c4565b905081356001600160401b038082111562000e9257600080fd5b62000ea08583860162000d4a565b8352602084013591508082111562000eb757600080fd5b62000ec58583860162000d4a565b6020840152604084013591508082111562000edf57600080fd5b62000eed8583860162000d4a565b6040840152606084013591508082111562000f0757600080fd5b62000f158583860162000d4a565b6060840152608084013591508082111562000f2f57600080fd5b62000f3d8583860162000d4a565b608084015260a084013591508082111562000f5757600080fd5b5062000f668482850162000d4a565b60a08301525092915050565b60006060828403121562000f8557600080fd5b604051606081018181106001600160401b038211171562000faa5762000faa62001808565b80604052508091508235815260208301356020820152604083013560408201525092915050565b600060c0828403121562000fe457600080fd5b62000fee620015c4565b9050813562000ffd816200181e565b80825250602082013560208201526040820135604082015260608201356060820152608082013560808201526200103760a0830162001042565b60a082015292915050565b803560ff8116811462000d2557600080fd5b6000602082840312156200106757600080fd5b620010728262000d0d565b9392505050565b6000602082840312156200108c57600080fd5b815162001072816200181e565b600080600080600080868803610340811215620010b557600080fd5b6040811215620010c457600080fd5b620010ce620015ef565b620010d98962000d0d565b8152620010e960208a0162001042565b60208201529650610140603f1982018113156200110557600080fd5b6200110f62001614565b91506200111f60408a0162000d2a565b82526200112f60608a0162000d0d565b60208301526080890135604083015260a089013560608301526200115660c08a0162001042565b608083015260e089013560a0830152610100808a013560c0840152610120808b013560e0850152828b013582850152620011946101608c0162000d3a565b9084015250909550620011ae905088610180890162000f72565b9350620011c0886101e0890162000dde565b9250620011d288610260890162000fd1565b91506103208701356001600160401b03811115620011ef57600080fd5b620011fd89828a0162000e5b565b9150509295509295509295565b6000602082840312156200121d57600080fd5b5035919050565b600080604083850312156200123857600080fd5b823591506200124a6020840162001042565b90509250929050565b60038110620012665762001266620017f2565b9052565b60028110620012665762001266620017f2565b6000815180845260005b81811015620012a55760208185018101518683018201520162001287565b81811115620012b8576000602083870101525b50601f01601f19169290920160200192915050565b6000815160c08452620012e460c08501826200127d565b905060208301518482036020860152620012ff82826200127d565b915050604083015184820360408601526200131b82826200127d565b915050606083015184820360608601526200133782826200127d565b915050608083015184820360808601526200135382826200127d565b91505060a083015184820360a08601526200136f82826200127d565b95945050505050565b6200138582825162001253565b6020810151620013a060208401826001600160a01b03169052565b5060408101516040830152606081015160608301526080810151620013ca608084018260ff169052565b5060a081015160a083015260c081015160c083015260e081015160e08301526101008082015181840152506101208082015162000596828501826200126a565b6020808252825182820181905260009190848201906040850190845b818110156200144d5783516001600160a01b03168352928401929184019160010162001426565b50909695505050505050565b6020808252818101527f4f776e61626c653a2063616c6c6572206973206e6f7420746865206f776e6572604082015260600190565b60006103e060018060a01b03808d5116845260ff60208e01511660208501528b5160408501528060208d01511660608501525060408b015160058110620014d957620014d9620017f2565b6080840152620014ed60a084018b62001378565b88516101e0840152602089015161020084015260408901516102208401528751151561024084015260208801516102608401526040880151610280840152606088015160ff166102a0840152865115156102c084015260208701516102e084015260408701516103008401526060870151610320840152608087015161034084015260a087015160ff16610360840152806103808401526200159281840187620012cd565b915050620015a66103a083018560ff169052565b6001600160a01b0383166103c08301529a9950505050505050505050565b60405160c081016001600160401b0381118282101715620015e957620015e962001808565b60405290565b604080519081016001600160401b0381118282101715620015e957620015e962001808565b60405161014081016001600160401b0381118282101715620015e957620015e962001808565b60008219821115620016505762001650620017dc565b500190565b6000826200167357634e487b7160e01b600052601260045260246000fd5b500490565b600181815b80851115620016b95781600019048211156200169d576200169d620017dc565b80851615620016ab57918102915b93841c93908002906200167d565b509250929050565b60006200107260ff841683600082620016dd575060016200177c565b81620016ec575060006200177c565b8160018114620017055760028114620017105762001730565b60019150506200177c565b60ff841115620017245762001724620017dc565b50506001821b6200177c565b5060208310610133831016604e8410600b841016171562001755575081810a6200177c565b62001761838362001678565b8060001904821115620017785762001778620017dc565b0290505b92915050565b60008160001904831182151516156200179f576200179f620017dc565b500290565b600082821015620017b957620017b9620017dc565b500390565b6000600019821415620017d557620017d5620017dc565b5060010190565b634e487b7160e01b600052601160045260246000fd5b634e487b7160e01b600052602160045260246000fd5b634e487b7160e01b600052604160045260246000fd5b801515811462000cac57600080fdfe60a060405260006027556000602b553480156200001b57600080fd5b5060405162004780380380620047808339810160408190526200003e9162000cc7565b3360601b6080528851600380546020808d015160ff16600160a01b9081026001600160a81b03199384166001600160a01b0396871617179093558b516004908155908c015160058054919095166001600160a01b031982168117865560408e01518e96939590949290921617908385811115620000bf57620000bf62000f91565b0217905550508751600680548a9350909190829060ff19166001836002811115620000ee57620000ee62000f91565b021790555060208201518154610100600160a81b0319166101006001600160a01b039092168202178255604083015160018084019190915560608401516002840155608084015160038401805460ff1990811660ff90931692909217905560a0850151600485015560c0850151600585015560e085015160068501559184015160078401556101208401516008840180549193909291169083818111156200019a576200019a62000f91565b0217905550508651600f55506020808701516010556040808801516011558651601b805491151560ff1992831617905587830151601c5587820151601d55606080890151601e805460ff9283169085161790558851601f805491151591851691909117905588850151855592880151602155870151602255608087015160235560a087015160248054919093169116179055835180518592601592620002479284929190910190620007f2565b506020828101518051620002629260018501920190620007f2565b506040820151805162000280916002840191602090910190620007f2565b50606082015180516200029e916003840191602090910190620007f2565b5060808201518051620002bc916004840191602090910190620007f2565b5060a08201518051620002da916005840191602090910190620007f2565b5050600280546001600160a01b038416610100026001600160a81b031990911660ff861617179055508451156200031657620003168562000338565b835115620003295762000329846200051a565b50505050505050505062000fbd565b602080820151604080516080810182526000808252818501818152606493830184815260608401868152928052602690965291517f673668fde1539921a3231470503848f53fc614c057a2345bc3a2f36758a6d3ac5590517f673668fde1539921a3231470503848f53fc614c057a2345bc3a2f36758a6d3ad5592517f673668fde1539921a3231470503848f53fc614c057a2345bc3a2f36758a6d3ae5591517f673668fde1539921a3231470503848f53fc614c057a2345bc3a2f36758a6d3af55818110156200051557600062000411828462000f06565b9050836060015160ff168362000428919062000ec1565b602755600060015b6027548111620004da5760006200044982603c62000ee4565b87604001516200045a919062000ee4565b60408051608081018252848152602080820184815282840189815260608d8101805160ff90811692870192835260008b815260269096529690942094518555915160018501555160028401555160039092019190915551919250620004c191168462000ea6565b9250508080620004d19062000f5d565b91505062000430565b50620004e7818562000f06565b602754600090815260266020526040812060030180549091906200050d90849062000ea6565b909155505050505b505050565b60608101516040820151606491906000906200053890603c62000ee4565b90506040518060a00160405280600081526020018281526020018481526020018381526020016000600181111562000574576200057462000f91565b905260008052602a602090815281517f25a1a901705ed15d5376e82511cff743d9474883c82d145cebcc7811e0424a9c908155908201517f25a1a901705ed15d5376e82511cff743d9474883c82d145cebcc7811e0424a9d5560408201517f25a1a901705ed15d5376e82511cff743d9474883c82d145cebcc7811e0424a9e5560608201517f25a1a901705ed15d5376e82511cff743d9474883c82d145cebcc7811e0424a9f5560808201517f25a1a901705ed15d5376e82511cff743d9474883c82d145cebcc7811e0424aa0805460ff1916600183818111156200065d576200065d62000f91565b0217905550505082821015620007ec5760006200067b838562000f06565b90508460a0015160ff168462000692919062000ec1565b602b55600060015b602b548111620007b1576000620006b382603c62000ee4565b8860800151620006c4919062000ee4565b620006d0908662000ea6565b90506040518060a001604052808381526020018281526020018581526020018960a0015160ff1681526020016000600181111562000712576200071262000f91565b815250602a60008481526020019081526020016000206000820151816000015560208201518160010155604082015181600201556060820151816003015560808201518160040160006101000a81548160ff021916908360018111156200077d576200077d62000f91565b0217905550505060a0880151620007989060ff168462000ea6565b9250508080620007a89062000f5d565b9150506200069a565b50620007be818662000f06565b602b546000908152602a602052604081206003018054909190620007e490849062000ea6565b909155505050505b50505050565b828054620008009062000f20565b90600052602060002090601f0160209004810192826200082457600085556200086f565b82601f106200083f57805160ff19168380011785556200086f565b828001600101855582156200086f579182015b828111156200086f57825182559160200191906001019062000852565b506200087d92915062000881565b5090565b5b808211156200087d576000815560010162000882565b80516001600160a01b0381168114620008b057600080fd5b919050565b80518015158114620008b057600080fd5b805160038110620008b057600080fd5b805160028110620008b057600080fd5b600082601f830112620008f857600080fd5b81516001600160401b0381111562000914576200091462000fa7565b60206200092a601f8301601f1916820162000e73565b82815285828487010111156200093f57600080fd5b60005b838110156200095f57858101830151828201840152820162000942565b83811115620009715760008385840101525b5095945050505050565b6000608082840312156200098e57600080fd5b604051608081016001600160401b0381118282101715620009b357620009b362000fa7565b604052905080620009c483620008b5565b81526020830151602082015260408301516040820152620009e86060840162000cb5565b60608201525092915050565b600060c0828403121562000a0757600080fd5b62000a1162000dd8565b82519091506001600160401b038082111562000a2c57600080fd5b62000a3a85838601620008e6565b8352602084015191508082111562000a5157600080fd5b62000a5f85838601620008e6565b6020840152604084015191508082111562000a7957600080fd5b62000a8785838601620008e6565b6040840152606084015191508082111562000aa157600080fd5b62000aaf85838601620008e6565b6060840152608084015191508082111562000ac957600080fd5b62000ad785838601620008e6565b608084015260a084015191508082111562000af157600080fd5b5062000b0084828501620008e6565b60a08301525092915050565b6000610140828403121562000b2057600080fd5b62000b2a62000e03565b905062000b3782620008c6565b815262000b476020830162000898565b6020820152604082015160408201526060820151606082015262000b6e6080830162000cb5565b608082015260a082015160a082015260c082015160c082015260e082015160e082015261010080830151818301525061012062000bad818401620008d6565b9082015292915050565b60006060828403121562000bca57600080fd5b62000bd462000e29565b90508151815262000be86020830162000898565b602082015260408201516005811062000c0057600080fd5b604082015292915050565b60006060828403121562000c1e57600080fd5b62000c2862000e29565b905081518152602082015160208201526040820151604082015292915050565b600060c0828403121562000c5b57600080fd5b62000c6562000dd8565b905062000c7282620008b5565b81526020820151602082015260408201516040820152606082015160608201526080820151608082015262000caa60a0830162000cb5565b60a082015292915050565b805160ff81168114620008b057600080fd5b6000806000806000806000806000898b036103e081121562000ce857600080fd5b604081121562000cf757600080fd5b5062000d0262000e4e565b62000d0d8b62000898565b815262000d1d60208c0162000cb5565b6020820152985062000d338b60408c0162000bb7565b975062000d448b60a08c0162000b0c565b965062000d568b6101e08c0162000c0b565b955062000d688b6102408c016200097b565b945062000d7a8b6102c08c0162000c48565b6103808b01519094506001600160401b0381111562000d9857600080fd5b62000da68c828d01620009f4565b93505062000db86103a08b0162000cb5565b915062000dc96103c08b0162000898565b90509295985092959850929598565b60405160c081016001600160401b038111828210171562000dfd5762000dfd62000fa7565b60405290565b60405161014081016001600160401b038111828210171562000dfd5762000dfd62000fa7565b604051606081016001600160401b038111828210171562000dfd5762000dfd62000fa7565b604080519081016001600160401b038111828210171562000dfd5762000dfd62000fa7565b604051601f8201601f191681016001600160401b038111828210171562000e9e5762000e9e62000fa7565b604052919050565b6000821982111562000ebc5762000ebc62000f7b565b500190565b60008262000edf57634e487b7160e01b600052601260045260246000fd5b500490565b600081600019048311821515161562000f015762000f0162000f7b565b500290565b60008282101562000f1b5762000f1b62000f7b565b500390565b600181811c9082168062000f3557607f821691505b6020821081141562000f5757634e487b7160e01b600052602260045260246000fd5b50919050565b600060001982141562000f745762000f7462000f7b565b5060010190565b634e487b7160e01b600052601160045260246000fd5b634e487b7160e01b600052602160045260246000fd5b634e487b7160e01b600052604160045260246000fd5b60805160601c61379662000fea600039600081816106eb015281816118cc015261238f01526137966000f3fe6080604052600436106101985760003560e01c806382cde82c116100e2578063d578804711610085578063d57880471461067b578063db2e21bc14610683578063dc5744ad14610698578063e7e10490146106c4578063ee97f7f3146106d9578063f968f4931461070d578063fdc6acf814610722578063ff3a31411461074257600080fd5b806382cde82c146105015780639e8f4d65146105215780639fa6f2f914610583578063a0a6e940146105a2578063a663ea8c146105b7578063a7c6402c1461060a578063b96f21201461063c578063bf9e30631461065c57600080fd5b8063475fda0e1161014a578063475fda0e146102d55780634d7459e0146102f5578063564e1cc41461035f578063619f3d6c146103bd5780636addb663146104205780636f9170f61461046d5780637781c35e1461049d57806378caf754146104b357600080fd5b806309cba0f71461019d578063173434fa146101b4578063243bae52146101c957806325a6c545146101f45780632605b3c71461021b5780632edf0869146102725780632fff7af5146102b1575b600080fd5b3480156101a957600080fd5b506101b2610758565b005b3480156101c057600080fd5b506101b2610b36565b3480156101d557600080fd5b506101de6111ce565b6040516101eb919061314e565b60405180910390f35b34801561020057600080fd5b506102096111df565b6040516101eb96959493929190613221565b34801561022757600080fd5b50610257610236366004612da8565b60256020526000908152604090208054600182015460029092015490919083565b604080519384526020840192909252908201526060016101eb565b34801561027e57600080fd5b506004546005546102a291906001600160a01b03811690600160a01b900460ff1683565b6040516101eb939291906133e8565b3480156102bd57600080fd5b506102c7602b5481565b6040519081526020016101eb565b3480156102e157600080fd5b506101b26102f0366004612de2565b611537565b34801561030157600080fd5b50600654600754600854600954600a54600b54600c54600d54600e546103499860ff808216996101009092046001600160a01b0316989197919691811695919491939192168a565b6040516101eb9a9998979695949392919061319b565b34801561036b57600080fd5b506103ac61037a366004613023565b602a60205260009081526040902080546001820154600283015460038401546004909401549293919290919060ff1685565b6040516101eb95949392919061341c565b3480156103c957600080fd5b50601f546020546021546022546023546024546103ee9560ff90811695949392911686565b6040805196151587526020870195909552938501929092526060840152608083015260ff1660a082015260c0016101eb565b34801561042c57600080fd5b5060035461044c906001600160a01b03811690600160a01b900460ff1682565b604080516001600160a01b03909316835260ff9091166020830152016101eb565b34801561047957600080fd5b5061048d610488366004612da8565b6115a8565b60405190151581526020016101eb565b3480156104a957600080fd5b506102c760285481565b3480156104bf57600080fd5b50601b54601c54601d54601e546104dc9360ff9081169392911684565b60408051941515855260208501939093529183015260ff1660608201526080016101eb565b34801561050d57600080fd5b506101b261051c366004612f02565b6115bb565b34801561052d57600080fd5b5061056361053c366004613023565b60266020526000908152604090208054600182015460028301546003909301549192909184565b6040805194855260208501939093529183015260608201526080016101eb565b34801561058f57600080fd5b5060125460135460145461025792919083565b3480156105ae57600080fd5b506101b261168e565b3480156105c357600080fd5b506105fd6105d2366004613055565b60009182526029602090815260408084206001600160a01b0393909316845291905290205460ff1690565b6040516101eb919061320e565b34801561061657600080fd5b5060025461062f9061010090046001600160a01b031681565b6040516101eb9190613100565b34801561064857600080fd5b506101b2610657366004612de2565b611ca2565b34801561066857600080fd5b50600f5460105460115461025792919083565b6101b2611d0f565b34801561068f57600080fd5b506101b26121cc565b3480156106a457600080fd5b506002546106b29060ff1681565b60405160ff90911681526020016101eb565b3480156106d057600080fd5b506101b261246a565b3480156106e557600080fd5b5061062f7f000000000000000000000000000000000000000000000000000000000000000081565b34801561071957600080fd5b506101b26125ae565b34801561072e57600080fd5b506101b261073d366004612ebd565b612813565b34801561074e57600080fd5b506102c760275481565b6005546001600160a01b0316331461078b5760405162461bcd60e51b81526004016107829061333b565b60405180910390fd5b6002600554600160a01b900460ff1660048111156107ab576107ab6136a3565b14806107d457506003600554600160a01b900460ff1660048111156107d2576107d26136a3565b145b806107fc57506004600554600160a01b900460ff1660048111156107fa576107fa6136a3565b145b6108185760405162461bcd60e51b815260040161078290613304565b6000600260019054906101000a90046001600160a01b03166001600160a01b031663c45a01556040518163ffffffff1660e01b815260040160206040518083038186803b15801561086857600080fd5b505afa15801561087c573d6000803e3d6000fd5b505050506040513d601f19601f820116820180604052508101906108a09190612dc5565b90506000600260019054906101000a90046001600160a01b03166001600160a01b031663ad5c46486040518163ffffffff1660e01b815260040160206040518083038186803b1580156108f257600080fd5b505afa158015610906573d6000803e3d6000fd5b505050506040513d601f19601f8201168201806040525081019061092a9190612dc5565b60035460405163e6a4390560e01b81526001600160a01b03918216600482015281831660248201529192506000919084169063e6a439059060440160206040518083038186803b15801561097d57600080fd5b505afa158015610991573d6000803e3d6000fd5b505050506040513d601f19601f820116820180604052508101906109b59190612dc5565b90506000816001600160a01b03166370a08231306040518263ffffffff1660e01b81526004016109e59190613100565b60206040518083038186803b1580156109fd57600080fd5b505afa158015610a11573d6000803e3d6000fd5b505050506040513d601f19601f82011682018060405250810190610a35919061303c565b905060008111610a575760405162461bcd60e51b8152600401610782906132a3565b601154602854610a6791906134ac565b421015610aa95760405162461bcd60e51b815260206004820152601060248201526f139bdd081d5b9b1bd8dad959081e595d60821b6044820152606401610782565b60055460405163a9059cbb60e01b81526001600160a01b038481169263a9059cbb92610add92909116908590600401613135565b602060405180830381600087803b158015610af757600080fd5b505af1158015610b0b573d6000803e3d6000fd5b505050506040513d601f19601f82011682018060405250810190610b2f9190612e9b565b5050505050565b6002600554600160a01b900460ff166004811115610b5657610b566136a3565b1480610b7f57506003600554600160a01b900460ff166004811115610b7d57610b7d6136a3565b145b80610ba757506004600554600160a01b900460ff166004811115610ba557610ba56136a3565b145b610bc35760405162461bcd60e51b815260040161078290613304565b336000908152602560209081526040918290208251606081018452815481526001820154928101929092526002015491810182905290610c155760405162461bcd60e51b8152600401610782906132a3565b6002600554600160a01b900460ff166004811115610c3557610c356136a3565b14156110b057601b5460ff16610dd4573360009081526025602052604081206002018190556014805491610c688361365c565b91905055506000816020015111610cb65760405162461bcd60e51b81526020600482015260126024820152714e6f20746f6b656e7320746f20636c61696d60701b6044820152606401610782565b600354602082015160405163a9059cbb60e01b81526000926001600160a01b03169163a9059cbb91610cec913391600401613135565b602060405180830381600087803b158015610d0657600080fd5b505af1158015610d1a573d6000803e3d6000fd5b505050506040513d601f19601f82011682018060405250810190610d3e9190612e9b565b905080610da25760405162461bcd60e51b815260206004820152602c60248201527f556e61626c6520746f207472616e7366657220746f6b656e7320746f2074686560448201526b081c185c9d1a58da5c185b9d60a21b6064820152608401610782565b6000805160206137218339815191523360008460200151604051610dc893929190613114565b60405180910390a15050565b60208101516000805b6027548111610f4a57600081815260266020526040902060010154602854610e0591906134ac565b4210158015610e6657506000808281526026602052604081206001015460285460299291610e32916134ac565b81526020808201929092526040908101600090812033825290925290205460ff166001811115610e6457610e646136a3565b145b15610f3857600081815260266020526040902060038101546002909101546127109190610e9390866135d4565b610e9d91906135d4565b610ea791906134c4565b610eb190836134ac565b91506001602960006026600085815260200190815260200160002060010154602854610edd91906134ac565b8152602080820192909252604090810160009081203382529092529020805460ff191660018381811115610f1357610f136136a3565b0217905550602754811415610f385760148054906000610f328361365c565b91905055505b80610f428161365c565b915050610ddd565b5060008111610f6b5760405162461bcd60e51b8152600401610782906133bd565b3360009081526025602052604081206002018054839290610f8d9084906135f3565b909155505060035460405163a9059cbb60e01b81526001600160a01b039091169063a9059cbb90610fc49033908590600401613135565b602060405180830381600087803b158015610fde57600080fd5b505af1158015610ff2573d6000803e3d6000fd5b505050506040513d601f19601f820116820180604052508101906110169190612e9b565b6110815760405162461bcd60e51b815260206004820152603660248201527f556e61626c6520746f207472616e736665722070726573616c6520746f6b656e60448201527539903a37903a343290383932b9b0b6329037bbb732b960511b6064820152608401610782565b600080516020613721833981519152336000836040516110a393929190613114565b60405180910390a1505050565b3360009081526025602052604081206001810182905581815560020181905560148054916110dd8361365c565b909155505080516111265760405162461bcd60e51b8152602060048201526013602482015272139bc8185b5bdd5b9d081d1bc81c99599d5b99606a1b6044820152606401610782565b8051604051600091339181156108fc02919084818181858888f193505050509050806111a75760405162461bcd60e51b815260206004820152602a60248201527f556e61626c6520746f20726566756e6420616d6f756e7420746f207468652070604482015269185c9d1a58da5c185b9d60b21b6064820152608401610782565b815160405160008051602061372183398151915291610dc891339190600090613114565b50565b60606111da6000612924565b905090565b6015805481906111ee90613621565b80601f016020809104026020016040519081016040528092919081815260200182805461121a90613621565b80156112675780601f1061123c57610100808354040283529160200191611267565b820191906000526020600020905b81548152906001019060200180831161124a57829003601f168201915b50505050509080600101805461127c90613621565b80601f01602080910402602001604051908101604052809291908181526020018280546112a890613621565b80156112f55780601f106112ca576101008083540402835291602001916112f5565b820191906000526020600020905b8154815290600101906020018083116112d857829003601f168201915b50505050509080600201805461130a90613621565b80601f016020809104026020016040519081016040528092919081815260200182805461133690613621565b80156113835780601f1061135857610100808354040283529160200191611383565b820191906000526020600020905b81548152906001019060200180831161136657829003601f168201915b50505050509080600301805461139890613621565b80601f01602080910402602001604051908101604052809291908181526020018280546113c490613621565b80156114115780601f106113e657610100808354040283529160200191611411565b820191906000526020600020905b8154815290600101906020018083116113f457829003601f168201915b50505050509080600401805461142690613621565b80601f016020809104026020016040519081016040528092919081815260200182805461145290613621565b801561149f5780601f106114745761010080835404028352916020019161149f565b820191906000526020600020905b81548152906001019060200180831161148257829003601f168201915b5050505050908060050180546114b490613621565b80601f01602080910402602001604051908101604052809291908181526020018280546114e090613621565b801561152d5780601f106115025761010080835404028352916020019161152d565b820191906000526020600020905b81548152906001019060200180831161151057829003601f168201915b5050505050905086565b6005546001600160a01b031633146115615760405162461bcd60e51b81526004016107829061333b565b60005b81518110156115a4576115916000838381518110611584576115846136cf565b6020026020010151612938565b508061159c8161365c565b915050611564565b5050565b60006115b560008361294d565b92915050565b6005546001600160a01b031633146115e55760405162461bcd60e51b81526004016107829061333b565b8051805182916015916115ff918391602090910190612c9f565b5060208281015180516116189260018501920190612c9f565b5060408201518051611634916002840191602090910190612c9f565b5060608201518051611650916003840191602090910190612c9f565b506080820151805161166c916004840191602090910190612c9f565b5060a08201518051611688916005840191602090910190612c9f565b50505050565b6005546001600160a01b031633146116b85760405162461bcd60e51b81526004016107829061333b565b6001600554600160a01b900460ff1660048111156116d8576116d86136a3565b148061170157506000600554600160a01b900460ff1660048111156116ff576116ff6136a3565b145b61171d5760405162461bcd60e51b8152600401610782906132cd565b6010544211806117315750600a5460125410155b6117775760405162461bcd60e51b8152602060048201526017602482015276141c995cd85b19481a5cc81b9bdd081bdd995c881e595d604a1b6044820152606401610782565b600b5460125410611bd357600354600090670de0b6b3a7640000906117a790600160a01b900460ff16600a613529565b6008546012546117b791906135d4565b6117c191906135d4565b6117cb91906134c4565b6009549091506000906064906117e49060ff16846135d4565b6117ee91906134c4565b6012546009549192509060009060649061180b9060ff16846135d4565b61181591906134c4565b60025490915060009060649061182e9060ff16856135d4565b61183891906134c4565b9050600061184682846134ac565b61185090856135f3565b6005546040519192506000916001600160a01b039091169083908381818185875af1925050503d80600081146118a2576040519150601f19603f3d011682016040523d82523d6000602084013e6118a7565b606091505b50509050806118c85760405162461bcd60e51b81526004016107829061338b565b60007f00000000000000000000000000000000000000000000000000000000000000006001600160a01b03168460405160006040518083038185875af1925050503d8060008114611935576040519150601f19603f3d011682016040523d82523d6000602084013e61193a565b606091505b505090508061195b5760405162461bcd60e51b81526004016107829061338b565b60035460025460405163095ea7b360e01b81526001600160a01b039283169263095ea7b39261199892610100909104909116908b90600401613135565b602060405180830381600087803b1580156119b257600080fd5b505af11580156119c6573d6000803e3d6000fd5b505050506040513d601f19601f820116820180604052508101906119ea9190612e9b565b506002546003546001600160a01b0361010090920482169163f305d719918891168a60008030611a1b42603c6134ac565b60405160e089901b6001600160e01b03191681526001600160a01b039687166004820152602481019590955260448501939093526064840191909152909216608482015260a481019190915260c4016060604051808303818588803b158015611a8357600080fd5b505af1158015611a97573d6000803e3d6000fd5b50505050506040513d601f19601f82011682018060405250810190611abc9190613085565b50506005805460ff60a01b1916600160a11b17905550600354600090611aed90600160a01b900460ff16600a613529565b602054611afa91906135d4565b6003546040516370a0823160e01b81528b916001600160a01b0316906370a0823190611b2a903090600401613100565b60206040518083038186803b158015611b4257600080fd5b505afa158015611b56573d6000803e3d6000fd5b505050506040513d601f19601f82011682018060405250810190611b7a919061303c565b611b8491906135f3565b611b8e91906135f3565b9050611b998161296f565b42602881905560408051600281526020810192909252600080516020613741833981519152910160405180910390a1505050505050505050565b6005805460ff60a01b1916600360a01b1790556003546040516370a0823160e01b81526000916001600160a01b0316906370a0823190611c17903090600401613100565b60206040518083038186803b158015611c2f57600080fd5b505afa158015611c43573d6000803e3d6000fd5b505050506040513d601f19601f82011682018060405250810190611c67919061303c565b9050611c728161296f565b60008051602061374183398151915260035b6040805160ff9092168252600060208301520160405180910390a150565b6005546001600160a01b03163314611ccc5760405162461bcd60e51b81526004016107829061333b565b60005b81518110156115a457611cfc6000838381518110611cef57611cef6136cf565b6020026020010151612aec565b5080611d078161365c565b915050611ccf565b600f544210801590611d22575060105442105b611d665760405162461bcd60e51b815260206004820152601560248201527450726573616c65206973206e6f742061637469766560581b6044820152606401610782565b6000600554600160a01b900460ff166004811115611d8657611d866136a3565b1415611dca5760058054600160a01b60ff60a01b19909116179055604080516001815260006020820152600080516020613741833981519152910160405180910390a15b6001600554600160a01b900460ff166004811115611dea57611dea6136a3565b14611e075760405162461bcd60e51b8152600401610782906132cd565b601254600a54600091611e19916135f3565b3360009081526025602090815260409182902082516060810184528154808252600183015493820193909352600290910154928101929092529192509034838111801590611e725750600d54611e6f83836134ac565b11155b611eba5760405162461bcd60e51b815260206004820152601960248201527818dbdb9d1c9a589d5d1a5bdb881a5cc81b9bdd081d985b1a59603a1b6044820152606401610782565b6020830151611f2257600c54811015611f0c5760405162461bcd60e51b81526020600482015260146024820152733a37b7903637bb9031b7b73a3934b13aba34b7b760611b6044820152606401610782565b60138054906000611f1c8361365c565b91905055505b600160065460ff166002811115611f3b57611f3b6136a3565b1415611fb057611f4a336115a8565b611fb05760405162461bcd60e51b815260206004820152603160248201527f4f6e6c792077686974656c69737465642075736572732061726520616c6c6f77604482015270656420746f20706172746963697061746560781b6064820152608401610782565b600260065460ff166002811115611fc957611fc96136a3565b14156120b2576007546006546040516370a0823160e01b81526101009091046001600160a01b0316906370a0823190612006903390600401613100565b60206040518083038186803b15801561201e57600080fd5b505afa158015612032573d6000803e3d6000fd5b505050506040513d601f19601f82011682018060405250810190612056919061303c565b10156120b25760405162461bcd60e51b815260206004820152602560248201527f596f7520646f6e277420686f6c6420656e6f75676820637269746572696120746044820152646f6b656e7360d81b6064820152608401610782565b600354600090670de0b6b3a7640000906120d790600160a01b900460ff16600a613529565b6008546120e490856135d4565b6120ee91906135d4565b6120f891906134c4565b3360009081526025602052604081206001018054929350839290919061211f9084906134ac565b909155505033600090815260256020526040812060020180548392906121469084906134ac565b9091555050336000908152602560205260408120805484929061216a9084906134ac565b9091555050601280548391906000906121849084906134ac565b90915550506040517f38ab99026883077be8d0c17df06afddbf3a1c49e4cb37b388bbe5df4763cc813906121bd90339085908590613114565b60405180910390a15050505050565b6001600554600160a01b900460ff1660048111156121ec576121ec6136a3565b146122095760405162461bcd60e51b8152600401610782906132cd565b3360009081526025602090815260409182902082516060810184528154808252600183015493820193909352600290910154928101929092526122845760405162461bcd60e51b81526020600482015260136024820152724e6f7468696e6720746f20776974686472617760681b6044820152606401610782565b805160009060649061229790605f6135d4565b6122a191906134c4565b3360009081526025602052604081208181556001810182905560020181905583516012805493945090929091906122d99084906135f3565b9091555050601380549060006122ee8361360a565b9091555050604051600090339083908381818185875af1925050503d8060008114612335576040519150601f19603f3d011682016040523d82523d6000602084013e61233a565b606091505b505090508061238b5760405162461bcd60e51b815260206004820152601d60248201527f63616e6e6f7420726566756e6420746f20636f6e7472696275746f72730000006044820152606401610782565b60007f00000000000000000000000000000000000000000000000000000000000000006001600160a01b03168385600001516123c791906135f3565b604051600081818185875af1925050503d8060008114612403576040519150601f19603f3d011682016040523d82523d6000602084013e612408565b606091505b50509050806124295760405162461bcd60e51b81526004016107829061338b565b83516040517fae7cd8ccc742b7c5cf2c6529604c8df916a4b092aeb0f904fa0ac9e15efd69c79161245c91339190613135565b60405180910390a150505050565b6005546001600160a01b031633146124945760405162461bcd60e51b81526004016107829061333b565b6001600554600160a01b900460ff1660048111156124b4576124b46136a3565b14806124dd57506000600554600160a01b900460ff1660048111156124db576124db6136a3565b145b6124f95760405162461bcd60e51b8152600401610782906132cd565b6005805460ff60a01b1916600160a21b1790556003546040516370a0823160e01b81526000916001600160a01b0316906370a082319061253d903090600401613100565b60206040518083038186803b15801561255557600080fd5b505afa158015612569573d6000803e3d6000fd5b505050506040513d601f19601f8201168201806040525081019061258d919061303c565b90506125988161296f565b6000805160206137418339815191526004611c84565b6005546001600160a01b031633146125d85760405162461bcd60e51b81526004016107829061333b565b6002600554600160a01b900460ff1660048111156125f8576125f86136a3565b148061262157506003600554600160a01b900460ff16600481111561261f5761261f6136a3565b145b8061264957506004600554600160a01b900460ff166004811115612647576126476136a3565b145b6126655760405162461bcd60e51b815260040161078290613304565b60035460009061268090600160a01b900460ff16600a613529565b60205461268d91906135d4565b90506000805b602b548111612769576000818152602a60205260409020600101546028546126bb91906134ac565b42101580156126ed57506000818152602a602052604081206004015460ff1660018111156126eb576126eb6136a3565b145b15612757576000818152602a602052604090206003810154600290910154612710919061271a90866135d4565b61272491906135d4565b61272e91906134c4565b61273890836134ac565b6000828152602a60205260409020600401805460ff1916600117905591505b806127618161365c565b915050612693565b506000811161278a5760405162461bcd60e51b8152600401610782906133bd565b60035460405163a9059cbb60e01b81526001600160a01b039091169063a9059cbb906127bc9033908590600401613135565b602060405180830381600087803b1580156127d657600080fd5b505af11580156127ea573d6000803e3d6000fd5b505050506040513d601f19601f8201168201806040525081019061280e9190612e9b565b505050565b6005546001600160a01b0316331461283d5760405162461bcd60e51b81526004016107829061333b565b6002836002811115612851576128516136a3565b14156128a5576006805484919060ff19166001836002811115612876576128766136a3565b021790555060068054610100600160a81b0319166101006001600160a01b0385160217905560078190556128ca565b6006805484919060ff191660018360028111156128c4576128c46136a3565b02179055505b7ffd54e7735b47af9b9138d33a802751317217e0c93173ed3f71772742fbd63d2b8360028111156128fd576128fd6136a3565b6040805160ff90921682526001600160a01b038516602083015281018390526060016110a3565b6060600061293183612b01565b9392505050565b6000612931836001600160a01b038416612b5d565b6001600160a01b03811660009081526001830160205260408120541515612931565b80156111cb576003600554600160a01b900460ff166004811115612995576129956136a3565b14806129be57506004600554600160a01b900460ff1660048111156129bc576129bc6136a3565b145b15612a5e5760035460055460405163a9059cbb60e01b81526000926001600160a01b039081169263a9059cbb926129fd92909116908690600401613135565b602060405180830381600087803b158015612a1757600080fd5b505af1158015612a2b573d6000803e3d6000fd5b505050506040513d601f19601f82011682018060405250810190612a4f9190612e9b565b9050806115a4576115a4613677565b6001600e5460ff166001811115612a7757612a776136a3565b1415612ab75760035460055460405163a9059cbb60e01b81526000926001600160a01b039081169263a9059cbb926129fd92909116908690600401613135565b60035460405163a9059cbb60e01b81526000916001600160a01b03169063a9059cbb906129fd9061dead908690600401613135565b6000612931836001600160a01b038416612bac565b606081600001805480602002602001604051908101604052809291908181526020018280548015612b5157602002820191906000526020600020905b815481526020019060010190808311612b3d575b50505050509050919050565b6000818152600183016020526040812054612ba4575081546001818101845560008481526020808220909301849055845484825282860190935260409020919091556115b5565b5060006115b5565b60008181526001830160205260408120548015612c95576000612bd06001836135f3565b8554909150600090612be4906001906135f3565b9050818114612c49576000866000018281548110612c0457612c046136cf565b9060005260206000200154905080876000018481548110612c2757612c276136cf565b6000918252602080832090910192909255918252600188019052604090208390555b8554869080612c5a57612c5a6136b9565b6001900381819060005260206000200160009055905585600101600086815260200190815260200160002060009055600193505050506115b5565b60009150506115b5565b828054612cab90613621565b90600052602060002090601f016020900481019282612ccd5760008555612d13565b82601f10612ce657805160ff1916838001178555612d13565b82800160010185558215612d13579182015b82811115612d13578251825591602001919060010190612cf8565b50612d1f929150612d23565b5090565b5b80821115612d1f5760008155600101612d24565b600082601f830112612d4957600080fd5b813567ffffffffffffffff811115612d6357612d636136e5565b612d76601f8201601f191660200161347b565b818152846020838601011115612d8b57600080fd5b816020850160208301376000918101602001919091529392505050565b600060208284031215612dba57600080fd5b81356129318161370b565b600060208284031215612dd757600080fd5b81516129318161370b565b60006020808385031215612df557600080fd5b823567ffffffffffffffff80821115612e0d57600080fd5b818501915085601f830112612e2157600080fd5b813581811115612e3357612e336136e5565b8060051b9150612e4484830161347b565b8181528481019084860184860187018a1015612e5f57600080fd5b600095505b83861015612e8e5780359450612e798561370b565b84835260019590950194918601918601612e64565b5098975050505050505050565b600060208284031215612ead57600080fd5b8151801515811461293157600080fd5b600080600060608486031215612ed257600080fd5b833560038110612ee157600080fd5b92506020840135612ef18161370b565b929592945050506040919091013590565b600060208284031215612f1457600080fd5b813567ffffffffffffffff80821115612f2c57600080fd5b9083019060c08286031215612f4057600080fd5b612f48613452565b823582811115612f5757600080fd5b612f6387828601612d38565b825250602083013582811115612f7857600080fd5b612f8487828601612d38565b602083015250604083013582811115612f9c57600080fd5b612fa887828601612d38565b604083015250606083013582811115612fc057600080fd5b612fcc87828601612d38565b606083015250608083013582811115612fe457600080fd5b612ff087828601612d38565b60808301525060a08301358281111561300857600080fd5b61301487828601612d38565b60a08301525095945050505050565b60006020828403121561303557600080fd5b5035919050565b60006020828403121561304e57600080fd5b5051919050565b6000806040838503121561306857600080fd5b82359150602083013561307a8161370b565b809150509250929050565b60008060006060848603121561309a57600080fd5b8351925060208401519150604084015190509250925092565b6000815180845260005b818110156130d9576020818501810151868301820152016130bd565b818111156130eb576000602083870101525b50601f01601f19169290920160200192915050565b6001600160a01b0391909116815260200190565b6001600160a01b039390931683526020830191909152604082015260600190565b6001600160a01b03929092168252602082015260400190565b6020808252825182820181905260009190848201906040850190845b8181101561318f5783516001600160a01b03168352928401929184019160010161316a565b50909695505050505050565b610140810160038c106131b0576131b06136a3565b8b825260018060a01b038b16602083015289604083015288606083015260ff881660808301528660a08301528560c08301528460e0830152836101008301526131f8836136fb565b826101208301529b9a5050505050505050505050565b6020810161321b836136fb565b91905290565b60c08152600061323460c08301896130b3565b828103602084015261324681896130b3565b9050828103604084015261325a81886130b3565b9050828103606084015261326e81876130b3565b9050828103608084015261328281866130b3565b905082810360a084015261329681856130b3565b9998505050505050505050565b60208082526010908201526f4e6f7468696e6720746f20636c61696d60801b604082015260600190565b6020808252601a908201527f50726573616c65206973206e6f7420696e2070726f6772657373000000000000604082015260600190565b6020808252601c908201527f50726573616c65206973206e6f7420636f6e636c756465642079657400000000604082015260600190565b60208082526030908201527f4f776e61626c653a2063616c6c6572206973206e6f7420746865206f776e657260408201526f206f6620746869732070726573616c6560801b606082015260800190565b60208082526018908201527763616e6e6f742073656e64206465765465616d536861726560401b604082015260600190565b6020808252601190820152704e6f7468696e6720746f20756e6c6f636b60781b604082015260600190565b8381526001600160a01b0383166020820152606081016005831061340e5761340e6136a3565b826040830152949350505050565b600060a082019050868252856020830152846040830152836060830152613442836136fb565b8260808301529695505050505050565b60405160c0810167ffffffffffffffff81118282101715613475576134756136e5565b60405290565b604051601f8201601f1916810167ffffffffffffffff811182821017156134a4576134a46136e5565b604052919050565b600082198211156134bf576134bf61368d565b500190565b6000826134e157634e487b7160e01b600052601260045260246000fd5b500490565b600181815b808511156135215781600019048211156135075761350761368d565b8085161561351457918102915b93841c93908002906134eb565b509250929050565b600061293160ff841683600082613542575060016115b5565b8161354f575060006115b5565b8160018114613565576002811461356f5761358b565b60019150506115b5565b60ff8411156135805761358061368d565b50506001821b6115b5565b5060208310610133831016604e8410600b84101617156135ae575081810a6115b5565b6135b883836134e6565b80600019048211156135cc576135cc61368d565b029392505050565b60008160001904831182151516156135ee576135ee61368d565b500290565b6000828210156136055761360561368d565b500390565b6000816136195761361961368d565b506000190190565b600181811c9082168061363557607f821691505b6020821081141561365657634e487b7160e01b600052602260045260246000fd5b50919050565b60006000198214156136705761367061368d565b5060010190565b634e487b7160e01b600052600160045260246000fd5b634e487b7160e01b600052601160045260246000fd5b634e487b7160e01b600052602160045260246000fd5b634e487b7160e01b600052603160045260246000fd5b634e487b7160e01b600052603260045260246000fd5b634e487b7160e01b600052604160045260246000fd5b600281106111cb576111cb6136a3565b6001600160a01b03811681146111cb57600080fdfe987d620f307ff6b94d58743cb7a7509f24071586a77759b77c2d4e29f75a2f9a2cfdb8f6e98aa10f6f94bc67cbf83bd964053ce8874a79053fadef271036223ca264697066735822122020d41c573c104b0719dfb20036f5973a5c225797a4e8d6627244ace7dbd762dd64736f6c63430008070033a2646970667358221220c5ba4d84f3e08fa3ea6130c14b132c58430d3f6846c95bbe22ebebabdb3e68b164736f6c63430008070033",
  "linkReferences": {},
  "deployedLinkReferences": {}
}