{
  "_format": "hh-sol-artifact-1",
  "contractName": "Presale",
  "sourceName": "contracts/LaunchpadV2/Presale.sol",
  "abi": [
    {
      "inputs": [
        {
          "components": [
            {
              "internalType": "address",
              "name": "tokenAddress",
              "type": "address"
            },
            {
              "internalType": "uint8",
              "name": "decimals",
              "type": "uint8"
            }
          ],
          "internalType": "struct LaunchPadLib.TokenInfo",
          "name": "_tokenInfo",
          "type": "tuple"
        },
        {
          "components": [
            {
              "internalType": "uint256",
              "name": "id",
              "type": "uint256"
            },
            {
              "internalType": "address",
              "name": "presaleOwner",
              "type": "address"
            },
            {
              "internalType": "enum LaunchPadLib.PreSaleStatus",
              "name": "preSaleStatus",
              "type": "uint8"
            }
          ],
          "internalType": "struct LaunchPadLib.PresaleInfo",
          "name": "_presaleInfo",
          "type": "tuple"
        },
        {
          "components": [
            {
              "internalType": "enum LaunchPadLib.PresaleType",
              "name": "saleType",
              "type": "uint8"
            },
            {
              "internalType": "string",
              "name": "criteriaTokenAddress",
              "type": "string"
            },
            {
              "internalType": "uint256",
              "name": "minCriteriaTokens",
              "type": "uint256"
            },
            {
              "internalType": "uint256",
              "name": "presaleRate",
              "type": "uint256"
            },
            {
              "internalType": "uint8",
              "name": "liquidity",
              "type": "uint8"
            },
            {
              "internalType": "uint256",
              "name": "hardCap",
              "type": "uint256"
            },
            {
              "internalType": "uint256",
              "name": "softCap",
              "type": "uint256"
            },
            {
              "internalType": "uint256",
              "name": "minBuy",
              "type": "uint256"
            },
            {
              "internalType": "uint256",
              "name": "maxBuy",
              "type": "uint256"
            },
            {
              "internalType": "enum LaunchPadLib.RefundType",
              "name": "refundType",
              "type": "uint8"
            }
          ],
          "internalType": "struct LaunchPadLib.ParticipationCriteria",
          "name": "_participationCriteria",
          "type": "tuple"
        },
        {
          "components": [
            {
              "internalType": "uint256",
              "name": "startedAt",
              "type": "uint256"
            },
            {
              "internalType": "uint256",
              "name": "expiredAt",
              "type": "uint256"
            },
            {
              "internalType": "uint256",
              "name": "lpLockupDuration",
              "type": "uint256"
            }
          ],
          "internalType": "struct LaunchPadLib.PresaleTimes",
          "name": "_presaleTimes",
          "type": "tuple"
        },
        {
          "components": [
            {
              "internalType": "bool",
              "name": "isEnabled",
              "type": "bool"
            },
            {
              "internalType": "uint256",
              "name": "firstReleasePC",
              "type": "uint256"
            },
            {
              "internalType": "uint256",
              "name": "eachCycleDuration",
              "type": "uint256"
            },
            {
              "internalType": "uint8",
              "name": "eachCyclePC",
              "type": "uint8"
            }
          ],
          "internalType": "struct LaunchPadLib.ContributorsVesting",
          "name": "_contributorsVesting",
          "type": "tuple"
        },
        {
          "components": [
            {
              "internalType": "bool",
              "name": "isEnabled",
              "type": "bool"
            },
            {
              "internalType": "uint256",
              "name": "vestingTokens",
              "type": "uint256"
            },
            {
              "internalType": "uint256",
              "name": "firstReleaseTime",
              "type": "uint256"
            },
            {
              "internalType": "uint256",
              "name": "firstReleasePC",
              "type": "uint256"
            },
            {
              "internalType": "uint256",
              "name": "eachCycleDuration",
              "type": "uint256"
            },
            {
              "internalType": "uint8",
              "name": "eachCyclePC",
              "type": "uint8"
            }
          ],
          "internalType": "struct LaunchPadLib.TeamVesting",
          "name": "_teamVesting",
          "type": "tuple"
        },
        {
          "components": [
            {
              "internalType": "string",
              "name": "logoURL",
              "type": "string"
            },
            {
              "internalType": "string",
              "name": "websiteURL",
              "type": "string"
            },
            {
              "internalType": "string",
              "name": "twitterURL",
              "type": "string"
            },
            {
              "internalType": "string",
              "name": "telegramURL",
              "type": "string"
            },
            {
              "internalType": "string",
              "name": "discordURL",
              "type": "string"
            },
            {
              "internalType": "string",
              "name": "description",
              "type": "string"
            }
          ],
          "internalType": "struct LaunchPadLib.GeneralInfo",
          "name": "_generalInfo",
          "type": "tuple"
        },
        {
          "internalType": "uint8",
          "name": "_salesFeeInPercent",
          "type": "uint8"
        },
        {
          "internalType": "address",
          "name": "_uniswapV2Router02",
          "type": "address"
        }
      ],
      "stateMutability": "nonpayable",
      "type": "constructor"
    },
    {
      "inputs": [
        {
          "internalType": "uint256",
          "name": "numOfTokensRequested",
          "type": "uint256"
        }
      ],
      "name": "buyTokensOnPresale",
      "outputs": [],
      "stateMutability": "payable",
      "type": "function"
    },
    {
      "inputs": [],
      "name": "contributorCycles",
      "outputs": [
        {
          "internalType": "uint256",
          "name": "",
          "type": "uint256"
        }
      ],
      "stateMutability": "view",
      "type": "function"
    },
    {
      "inputs": [
        {
          "internalType": "uint256",
          "name": "",
          "type": "uint256"
        }
      ],
      "name": "contributorVestingRecord",
      "outputs": [
        {
          "internalType": "uint256",
          "name": "cycle",
          "type": "uint256"
        },
        {
          "internalType": "uint256",
          "name": "releaseTime",
          "type": "uint256"
        },
        {
          "internalType": "uint256",
          "name": "tokensPC",
          "type": "uint256"
        },
        {
          "internalType": "uint256",
          "name": "percentageToRelease",
          "type": "uint256"
        }
      ],
      "stateMutability": "view",
      "type": "function"
    },
    {
      "inputs": [],
      "name": "contributorsVesting",
      "outputs": [
        {
          "internalType": "bool",
          "name": "isEnabled",
          "type": "bool"
        },
        {
          "internalType": "uint256",
          "name": "firstReleasePC",
          "type": "uint256"
        },
        {
          "internalType": "uint256",
          "name": "eachCycleDuration",
          "type": "uint256"
        },
        {
          "internalType": "uint8",
          "name": "eachCyclePC",
          "type": "uint8"
        }
      ],
      "stateMutability": "view",
      "type": "function"
    },
    {
      "inputs": [],
      "name": "extraTokens",
      "outputs": [
        {
          "internalType": "uint256",
          "name": "",
          "type": "uint256"
        }
      ],
      "stateMutability": "view",
      "type": "function"
    },
    {
      "inputs": [],
      "name": "finalizingTime",
      "outputs": [
        {
          "internalType": "uint256",
          "name": "",
          "type": "uint256"
        }
      ],
      "stateMutability": "view",
      "type": "function"
    },
    {
      "inputs": [],
      "name": "generalInfo",
      "outputs": [
        {
          "internalType": "string",
          "name": "logoURL",
          "type": "string"
        },
        {
          "internalType": "string",
          "name": "websiteURL",
          "type": "string"
        },
        {
          "internalType": "string",
          "name": "twitterURL",
          "type": "string"
        },
        {
          "internalType": "string",
          "name": "telegramURL",
          "type": "string"
        },
        {
          "internalType": "string",
          "name": "discordURL",
          "type": "string"
        },
        {
          "internalType": "string",
          "name": "description",
          "type": "string"
        }
      ],
      "stateMutability": "view",
      "type": "function"
    },
    {
      "inputs": [],
      "name": "master",
      "outputs": [
        {
          "internalType": "address",
          "name": "",
          "type": "address"
        }
      ],
      "stateMutability": "view",
      "type": "function"
    },
    {
      "inputs": [
        {
          "internalType": "address",
          "name": "",
          "type": "address"
        }
      ],
      "name": "participant",
      "outputs": [
        {
          "internalType": "uint256",
          "name": "value",
          "type": "uint256"
        },
        {
          "internalType": "uint256",
          "name": "tokens",
          "type": "uint256"
        }
      ],
      "stateMutability": "view",
      "type": "function"
    },
    {
      "inputs": [],
      "name": "participationCriteria",
      "outputs": [
        {
          "internalType": "enum LaunchPadLib.PresaleType",
          "name": "saleType",
          "type": "uint8"
        },
        {
          "internalType": "string",
          "name": "criteriaTokenAddress",
          "type": "string"
        },
        {
          "internalType": "uint256",
          "name": "minCriteriaTokens",
          "type": "uint256"
        },
        {
          "internalType": "uint256",
          "name": "presaleRate",
          "type": "uint256"
        },
        {
          "internalType": "uint8",
          "name": "liquidity",
          "type": "uint8"
        },
        {
          "internalType": "uint256",
          "name": "hardCap",
          "type": "uint256"
        },
        {
          "internalType": "uint256",
          "name": "softCap",
          "type": "uint256"
        },
        {
          "internalType": "uint256",
          "name": "minBuy",
          "type": "uint256"
        },
        {
          "internalType": "uint256",
          "name": "maxBuy",
          "type": "uint256"
        },
        {
          "internalType": "enum LaunchPadLib.RefundType",
          "name": "refundType",
          "type": "uint8"
        }
      ],
      "stateMutability": "view",
      "type": "function"
    },
    {
      "inputs": [],
      "name": "presaleCounts",
      "outputs": [
        {
          "internalType": "uint256",
          "name": "accumulatedBalance",
          "type": "uint256"
        },
        {
          "internalType": "uint256",
          "name": "contributors",
          "type": "uint256"
        },
        {
          "internalType": "uint256",
          "name": "claimsCount",
          "type": "uint256"
        }
      ],
      "stateMutability": "view",
      "type": "function"
    },
    {
      "inputs": [],
      "name": "presaleInfo",
      "outputs": [
        {
          "internalType": "uint256",
          "name": "id",
          "type": "uint256"
        },
        {
          "internalType": "address",
          "name": "presaleOwner",
          "type": "address"
        },
        {
          "internalType": "enum LaunchPadLib.PreSaleStatus",
          "name": "preSaleStatus",
          "type": "uint8"
        }
      ],
      "stateMutability": "view",
      "type": "function"
    },
    {
      "inputs": [],
      "name": "presaleTimes",
      "outputs": [
        {
          "internalType": "uint256",
          "name": "startedAt",
          "type": "uint256"
        },
        {
          "internalType": "uint256",
          "name": "expiredAt",
          "type": "uint256"
        },
        {
          "internalType": "uint256",
          "name": "lpLockupDuration",
          "type": "uint256"
        }
      ],
      "stateMutability": "view",
      "type": "function"
    },
    {
      "inputs": [],
      "name": "salesFeeInPercent",
      "outputs": [
        {
          "internalType": "uint8",
          "name": "",
          "type": "uint8"
        }
      ],
      "stateMutability": "view",
      "type": "function"
    },
    {
      "inputs": [],
      "name": "teamVesting",
      "outputs": [
        {
          "internalType": "bool",
          "name": "isEnabled",
          "type": "bool"
        },
        {
          "internalType": "uint256",
          "name": "vestingTokens",
          "type": "uint256"
        },
        {
          "internalType": "uint256",
          "name": "firstReleaseTime",
          "type": "uint256"
        },
        {
          "internalType": "uint256",
          "name": "firstReleasePC",
          "type": "uint256"
        },
        {
          "internalType": "uint256",
          "name": "eachCycleDuration",
          "type": "uint256"
        },
        {
          "internalType": "uint8",
          "name": "eachCyclePC",
          "type": "uint8"
        }
      ],
      "stateMutability": "view",
      "type": "function"
    },
    {
      "inputs": [
        {
          "internalType": "uint256",
          "name": "",
          "type": "uint256"
        }
      ],
      "name": "teamVestingRecord",
      "outputs": [
        {
          "internalType": "uint256",
          "name": "cycle",
          "type": "uint256"
        },
        {
          "internalType": "uint256",
          "name": "releaseTime",
          "type": "uint256"
        },
        {
          "internalType": "uint256",
          "name": "tokensPC",
          "type": "uint256"
        },
        {
          "internalType": "uint256",
          "name": "percentageToRelease",
          "type": "uint256"
        },
        {
          "internalType": "enum Presale.ReleaseStatus",
          "name": "releaseStatus",
          "type": "uint8"
        }
      ],
      "stateMutability": "view",
      "type": "function"
    },
    {
      "inputs": [],
      "name": "temaVestingCycles",
      "outputs": [
        {
          "internalType": "uint256",
          "name": "",
          "type": "uint256"
        }
      ],
      "stateMutability": "view",
      "type": "function"
    },
    {
      "inputs": [],
      "name": "tokenInfo",
      "outputs": [
        {
          "internalType": "address",
          "name": "tokenAddress",
          "type": "address"
        },
        {
          "internalType": "uint8",
          "name": "decimals",
          "type": "uint8"
        }
      ],
      "stateMutability": "view",
      "type": "function"
    },
    {
      "inputs": [],
      "name": "uniswapV2Router02",
      "outputs": [
        {
          "internalType": "contract IUniswapV2Router02",
          "name": "",
          "type": "address"
        }
      ],
      "stateMutability": "view",
      "type": "function"
    }
  ],
  "bytecode": "0x60a060405260006027556000602b553480156200001b57600080fd5b5060405162001d7538038062001d758339810160408190526200003e9162000d0f565b33606090811b60805260408051918201815260008083526020808401829052928201819052601181905560128190556013558a51600180548d8501516001600160a01b039384166001600160a81b031992831617600160a01b60ff9092168202179092558c516002908155948d0151600380546001600160a01b03198116929095169182178155948e01518e96959094909392161790836004811115620000e957620000e962000fee565b0217905550508751600480548a9350909190829060ff1916600183600281111562000118576200011862000fee565b021790555060208281015180516200013792600185019201906200081f565b506040820151600282015560608201516003820155608082015160048201805460ff90921660ff1992831617905560a0830151600583015560c0830151600683015560e083015160078301556101008301516008830155610120830151600983018054919290911660018381811115620001b557620001b562000fee565b0217905550508651600e5550602080870151600f556040808801516010558651601b805491151560ff1992831617905587830151601c5587820151601d55606080890151601e805460ff9283169085161790558851601f805491151591851691909117905588850151855592880151602155870151602255608087015160235560a0870151602480549190931691161790558351805185926014926200026292849291909101906200081f565b5060208281015180516200027d92600185019201906200081f565b50604082015180516200029b9160028401916020909101906200081f565b5060608201518051620002b99160038401916020909101906200081f565b5060808201518051620002d79160048401916020909101906200081f565b5060a08201518051620002f59160058401916020909101906200081f565b5050600080546001600160a01b038416610100026001600160a81b031990911660ff861617179055508451156200033157620003318562000353565b835115620003445762000344846200053e565b5050505050505050506200101a565b602080820151604080516080810182526000808252818501818152606493830184815260608401868152928052602690965291517f673668fde1539921a3231470503848f53fc614c057a2345bc3a2f36758a6d3ac5590517f673668fde1539921a3231470503848f53fc614c057a2345bc3a2f36758a6d3ad5592517f673668fde1539921a3231470503848f53fc614c057a2345bc3a2f36758a6d3ae5591517f673668fde1539921a3231470503848f53fc614c057a2345bc3a2f36758a6d3af5581811015620005395760006200042c828462000f63565b9050836060015160ff168362000443919062000f1e565b602755600060015b6027548111620004f55760006200046482603c62000f41565b876040015162000475919062000f41565b60408051608081018252848152602080820184815282840189815260608d8101805160ff90811692870192835260008b815260269096529690942094518555915160018501555160028401555160039092019190915551919250620004dc91168462000f03565b9250508080620004ec9062000fba565b9150506200044b565b50600062000504828662000f63565b905080602660006027548152602001908152602001600020600301600082825462000530919062000f03565b90915550505050505b505050565b60608101516040820151606491906000906200055c90603c62000f41565b90506040518060a00160405280600081526020018281526020018481526020018381526020016000600181111562000598576200059862000fee565b905260008052602a602090815281517f25a1a901705ed15d5376e82511cff743d9474883c82d145cebcc7811e0424a9c908155908201517f25a1a901705ed15d5376e82511cff743d9474883c82d145cebcc7811e0424a9d5560408201517f25a1a901705ed15d5376e82511cff743d9474883c82d145cebcc7811e0424a9e5560608201517f25a1a901705ed15d5376e82511cff743d9474883c82d145cebcc7811e0424a9f5560808201517f25a1a901705ed15d5376e82511cff743d9474883c82d145cebcc7811e0424aa0805460ff19166001838181111562000681576200068162000fee565b0217905550505082821015620008195760006200069f838562000f63565b90508460a0015160ff1684620006b6919062000f1e565b602b55600060015b602b548111620007d5576000620006d782603c62000f41565b8860800151620006e8919062000f41565b620006f4908662000f03565b90506040518060a001604052808381526020018281526020018581526020018960a0015160ff1681526020016000600181111562000736576200073662000fee565b815250602a60008481526020019081526020016000206000820151816000015560208201518160010155604082015181600201556060820151816003015560808201518160040160006101000a81548160ff02191690836001811115620007a157620007a162000fee565b0217905550505060a0880151620007bc9060ff168462000f03565b9250508080620007cc9062000fba565b915050620006be565b506000620007e4828762000f63565b905080602a6000602b548152602001908152602001600020600301600082825462000810919062000f03565b90915550505050505b50505050565b8280546200082d9062000f7d565b90600052602060002090601f0160209004810192826200085157600085556200089c565b82601f106200086c57805160ff19168380011785556200089c565b828001600101855582156200089c579182015b828111156200089c5782518255916020019190600101906200087f565b50620008aa929150620008ae565b5090565b5b80821115620008aa5760008155600101620008af565b80516001600160a01b0381168114620008dd57600080fd5b919050565b80518015158114620008dd57600080fd5b805160038110620008dd57600080fd5b805160028110620008dd57600080fd5b600082601f8301126200092557600080fd5b81516001600160401b0381111562000941576200094162001004565b602062000957601f8301601f1916820162000ed0565b82815285828487010111156200096c57600080fd5b60005b838110156200098c5785810183015182820184015282016200096f565b838111156200099e5760008385840101525b5095945050505050565b600060808284031215620009bb57600080fd5b604051608081016001600160401b0381118282101715620009e057620009e062001004565b604052905080620009f183620008e2565b8152602083015160208201526040830151604082015262000a156060840162000cfd565b60608201525092915050565b600060c0828403121562000a3457600080fd5b62000a3e62000e35565b82519091506001600160401b038082111562000a5957600080fd5b62000a678583860162000913565b8352602084015191508082111562000a7e57600080fd5b62000a8c8583860162000913565b6020840152604084015191508082111562000aa657600080fd5b62000ab48583860162000913565b6040840152606084015191508082111562000ace57600080fd5b62000adc8583860162000913565b6060840152608084015191508082111562000af657600080fd5b62000b048583860162000913565b608084015260a084015191508082111562000b1e57600080fd5b5062000b2d8482850162000913565b60a08301525092915050565b6000610140828403121562000b4d57600080fd5b62000b5762000e60565b905062000b6482620008f3565b815260208201516001600160401b0381111562000b8057600080fd5b62000b8e8482850162000913565b602083015250604082015160408201526060820151606082015262000bb66080830162000cfd565b608082015260a082015160a082015260c082015160c082015260e082015160e082015261010080830151818301525061012062000bf581840162000903565b9082015292915050565b60006060828403121562000c1257600080fd5b62000c1c62000e86565b90508151815262000c3060208301620008c5565b602082015260408201516005811062000c4857600080fd5b604082015292915050565b60006060828403121562000c6657600080fd5b62000c7062000e86565b905081518152602082015160208201526040820151604082015292915050565b600060c0828403121562000ca357600080fd5b62000cad62000e35565b905062000cba82620008e2565b81526020820151602082015260408201516040820152606082015160608201526080820151608082015262000cf260a0830162000cfd565b60a082015292915050565b805160ff81168114620008dd57600080fd5b6000806000806000806000806000898b036102c081121562000d3057600080fd5b604081121562000d3f57600080fd5b5062000d4a62000eab565b62000d558b620008c5565b815262000d6560208c0162000cfd565b6020820152985062000d7b8b60408c0162000bff565b60a08b01519098506001600160401b038082111562000d9957600080fd5b62000da78d838e0162000b39565b985062000db88d60c08e0162000c53565b975062000dca8d6101208e01620009a8565b965062000ddc8d6101a08e0162000c90565b95506102608c015191508082111562000df457600080fd5b5062000e038c828d0162000a21565b93505062000e156102808b0162000cfd565b915062000e266102a08b01620008c5565b90509295985092959850929598565b60405160c081016001600160401b038111828210171562000e5a5762000e5a62001004565b60405290565b60405161014081016001600160401b038111828210171562000e5a5762000e5a62001004565b604051606081016001600160401b038111828210171562000e5a5762000e5a62001004565b604080519081016001600160401b038111828210171562000e5a5762000e5a62001004565b604051601f8201601f191681016001600160401b038111828210171562000efb5762000efb62001004565b604052919050565b6000821982111562000f195762000f1962000fd8565b500190565b60008262000f3c57634e487b7160e01b600052601260045260246000fd5b500490565b600081600019048311821515161562000f5e5762000f5e62000fd8565b500290565b60008282101562000f785762000f7862000fd8565b500390565b600181811c9082168062000f9257607f821691505b6020821081141562000fb457634e487b7160e01b600052602260045260246000fd5b50919050565b600060001982141562000fd15762000fd162000fd8565b5060010190565b634e487b7160e01b600052601160045260246000fd5b634e487b7160e01b600052602160045260246000fd5b634e487b7160e01b600052604160045260246000fd5b60805160601c610d3c6200103960003960006104e30152610d3c6000f3fe6080604052600436106101045760003560e01c80637781c35e116100a0578063bf9e306311610064578063bf9e306314610470578063da15309a1461048f578063dc5744ad146104a5578063ee97f7f3146104d1578063ff3a31411461050557600080fd5b80637781c35e1461033357806378caf754146103495780639e8f4d65146103975780639fa6f2f9146103f9578063a7c6402c1461043357600080fd5b806312949b5a1461010957806325a6c5451461011e5780632605b3c71461014e5780632edf0869146101975780632fff7af5146101d65780634d7459e0146101fa578063564e1cc414610225578063619f3d6c146102835780636addb663146102e6575b600080fd5b61011c610117366004610ad9565b61051b565b005b34801561012a57600080fd5b5061013361067b565b60405161014596959493929190610bb9565b60405180910390f35b34801561015a57600080fd5b50610182610169366004610aa9565b6025602052600090815260409020805460019091015482565b60408051928352602083019190915201610145565b3480156101a357600080fd5b506002546003546101c791906001600160a01b03811690600160a01b900460ff1683565b60405161014593929190610c3b565b3480156101e257600080fd5b506101ec602b5481565b604051908152602001610145565b34801561020657600080fd5b5061020f6109d3565b6040516101459a99989796959493929190610b3f565b34801561023157600080fd5b50610272610240366004610ad9565b602a60205260009081526040902080546001820154600283015460038401546004909401549293919290919060ff1685565b604051610145959493929190610c6f565b34801561028f57600080fd5b50601f546020546021546022546023546024546102b49560ff90811695949392911686565b6040805196151587526020870195909552938501929092526060840152608083015260ff1660a082015260c001610145565b3480156102f257600080fd5b50600154610312906001600160a01b03811690600160a01b900460ff1682565b604080516001600160a01b03909316835260ff909116602083015201610145565b34801561033f57600080fd5b506101ec60285481565b34801561035557600080fd5b50601b54601c54601d54601e546103729360ff9081169392911684565b60408051941515855260208501939093529183015260ff166060820152608001610145565b3480156103a357600080fd5b506103d96103b2366004610ad9565b60266020526000908152604090208054600182015460028301546003909301549192909184565b604080519485526020850193909352918301526060820152608001610145565b34801561040557600080fd5b5060115460125460135461041892919083565b60408051938452602084019290925290820152606001610145565b34801561043f57600080fd5b506000546104589061010090046001600160a01b031681565b6040516001600160a01b039091168152602001610145565b34801561047c57600080fd5b50600e54600f5460105461041892919083565b34801561049b57600080fd5b506101ec601a5481565b3480156104b157600080fd5b506000546104bf9060ff1681565b60405160ff9091168152602001610145565b3480156104dd57600080fd5b506104587f000000000000000000000000000000000000000000000000000000000000000081565b34801561051157600080fd5b506101ec60275481565b600e544210156105805760405162461bcd60e51b815260206004820152602560248201527f50726573616c65206861736e277420626567696e207965742e20706c65617365604482015264081dd85a5d60da1b60648201526084015b60405180910390fd5b600f5442106105d15760405162461bcd60e51b815260206004820152601e60248201527f50726573616c65206973206f7665722e20547279206e6578742074696d6500006044820152606401610577565b6000600354600160a01b900460ff1660048111156105f1576105f1610ce0565b141561060b576003805460ff60a01b1916600160a01b1790555b6001600354600160a01b900460ff16600481111561062b5761062b610ce0565b146106785760405162461bcd60e51b815260206004820152601a60248201527f50726573616c65206973206e6f7420696e2070726f67726573730000000000006044820152606401610577565b50565b60148054819061068a90610ca5565b80601f01602080910402602001604051908101604052809291908181526020018280546106b690610ca5565b80156107035780601f106106d857610100808354040283529160200191610703565b820191906000526020600020905b8154815290600101906020018083116106e657829003601f168201915b50505050509080600101805461071890610ca5565b80601f016020809104026020016040519081016040528092919081815260200182805461074490610ca5565b80156107915780601f1061076657610100808354040283529160200191610791565b820191906000526020600020905b81548152906001019060200180831161077457829003601f168201915b5050505050908060020180546107a690610ca5565b80601f01602080910402602001604051908101604052809291908181526020018280546107d290610ca5565b801561081f5780601f106107f45761010080835404028352916020019161081f565b820191906000526020600020905b81548152906001019060200180831161080257829003601f168201915b50505050509080600301805461083490610ca5565b80601f016020809104026020016040519081016040528092919081815260200182805461086090610ca5565b80156108ad5780601f10610882576101008083540402835291602001916108ad565b820191906000526020600020905b81548152906001019060200180831161089057829003601f168201915b5050505050908060040180546108c290610ca5565b80601f01602080910402602001604051908101604052809291908181526020018280546108ee90610ca5565b801561093b5780601f106109105761010080835404028352916020019161093b565b820191906000526020600020905b81548152906001019060200180831161091e57829003601f168201915b50505050509080600501805461095090610ca5565b80601f016020809104026020016040519081016040528092919081815260200182805461097c90610ca5565b80156109c95780601f1061099e576101008083540402835291602001916109c9565b820191906000526020600020905b8154815290600101906020018083116109ac57829003601f168201915b5050505050905086565b600480546005805460ff90921692916109eb90610ca5565b80601f0160208091040260200160405190810160405280929190818152602001828054610a1790610ca5565b8015610a645780601f10610a3957610100808354040283529160200191610a64565b820191906000526020600020905b815481529060010190602001808311610a4757829003601f168201915b5050505060028301546003840154600485015460058601546006870154600788015460088901546009909901549798959794965060ff9384169592949193909291168a565b600060208284031215610abb57600080fd5b81356001600160a01b0381168114610ad257600080fd5b9392505050565b600060208284031215610aeb57600080fd5b5035919050565b6000815180845260005b81811015610b1857602081850181015186830182015201610afc565b81811115610b2a576000602083870101525b50601f01601f19169290920160200192915050565b600061014060038d10610b5457610b54610ce0565b8c8352806020840152610b698184018d610af2565b91505089604083015288606083015260ff881660808301528660a08301528560c08301528460e083015283610100830152610ba383610cf6565b826101208301529b9a5050505050505050505050565b60c081526000610bcc60c0830189610af2565b8281036020840152610bde8189610af2565b90508281036040840152610bf28188610af2565b90508281036060840152610c068187610af2565b90508281036080840152610c1a8186610af2565b905082810360a0840152610c2e8185610af2565b9998505050505050505050565b8381526001600160a01b03831660208201526060810160058310610c6157610c61610ce0565b826040830152949350505050565b600060a082019050868252856020830152846040830152836060830152610c9583610cf6565b8260808301529695505050505050565b600181811c90821680610cb957607f821691505b60208210811415610cda57634e487b7160e01b600052602260045260246000fd5b50919050565b634e487b7160e01b600052602160045260246000fd5b6002811061067857610678610ce056fea2646970667358221220ea4b2a80818d7ce928383f91b3fa4b96860f1e49a8bfe078c6da9102fa763a6664736f6c63430008070033",
  "linkReferences": {},
  "deployedLinkReferences": {}
}