{
  "_format": "hh-sol-artifact-1",
  "contractName": "LokcerFactory",
  "sourceName": "contracts/Locker/LokcerFactory.sol",
  "abi": [
    {
      "anonymous": false,
      "inputs": [
        {
          "indexed": false,
          "internalType": "uint256",
          "name": "id",
          "type": "uint256"
        },
        {
          "indexed": false,
          "internalType": "address",
          "name": "owner",
          "type": "address"
        },
        {
          "indexed": false,
          "internalType": "address",
          "name": "token",
          "type": "address"
        },
        {
          "indexed": false,
          "internalType": "uint256",
          "name": "numOfTokens",
          "type": "uint256"
        },
        {
          "indexed": false,
          "internalType": "uint256",
          "name": "unlockTime",
          "type": "uint256"
        }
      ],
      "name": "Locked",
      "type": "event"
    },
    {
      "anonymous": false,
      "inputs": [
        {
          "indexed": true,
          "internalType": "address",
          "name": "previousOwner",
          "type": "address"
        },
        {
          "indexed": true,
          "internalType": "address",
          "name": "newOwner",
          "type": "address"
        }
      ],
      "name": "OwnershipTransferred",
      "type": "event"
    },
    {
      "anonymous": false,
      "inputs": [
        {
          "indexed": false,
          "internalType": "uint256",
          "name": "id",
          "type": "uint256"
        },
        {
          "indexed": false,
          "internalType": "address",
          "name": "owner",
          "type": "address"
        },
        {
          "indexed": false,
          "internalType": "address",
          "name": "token",
          "type": "address"
        },
        {
          "indexed": false,
          "internalType": "uint256",
          "name": "numOfTokens",
          "type": "uint256"
        }
      ],
      "name": "Unlocked",
      "type": "event"
    },
    {
      "inputs": [
        {
          "internalType": "uint256",
          "name": "_id",
          "type": "uint256"
        },
        {
          "internalType": "uint256",
          "name": "_numOfTokens",
          "type": "uint256"
        }
      ],
      "name": "addTokenstoALocker",
      "outputs": [],
      "stateMutability": "payable",
      "type": "function"
    },
    {
      "inputs": [
        {
          "internalType": "enum LokcerFactory.Type",
          "name": "_type",
          "type": "uint8"
        },
        {
          "internalType": "address",
          "name": "_owner",
          "type": "address"
        },
        {
          "internalType": "contract IERC20",
          "name": "_token",
          "type": "address"
        },
        {
          "internalType": "uint256",
          "name": "_numOfTokens",
          "type": "uint256"
        },
        {
          "internalType": "uint256",
          "name": "_unlockTime",
          "type": "uint256"
        }
      ],
      "name": "createLcoker",
      "outputs": [
        {
          "internalType": "uint256",
          "name": "",
          "type": "uint256"
        }
      ],
      "stateMutability": "payable",
      "type": "function"
    },
    {
      "inputs": [
        {
          "internalType": "address",
          "name": "_tokenAddress",
          "type": "address"
        }
      ],
      "name": "getLockersListbyToken",
      "outputs": [
        {
          "internalType": "uint256[]",
          "name": "",
          "type": "uint256[]"
        }
      ],
      "stateMutability": "view",
      "type": "function"
    },
    {
      "inputs": [
        {
          "internalType": "address",
          "name": "_userAddress",
          "type": "address"
        }
      ],
      "name": "getLockersListbyUser",
      "outputs": [
        {
          "internalType": "uint256[]",
          "name": "",
          "type": "uint256[]"
        }
      ],
      "stateMutability": "view",
      "type": "function"
    },
    {
      "inputs": [
        {
          "internalType": "uint256",
          "name": "_id",
          "type": "uint256"
        },
        {
          "internalType": "uint256",
          "name": "_additionTime",
          "type": "uint256"
        }
      ],
      "name": "increaseLocktime",
      "outputs": [],
      "stateMutability": "payable",
      "type": "function"
    },
    {
      "inputs": [],
      "name": "launchpadAddress",
      "outputs": [
        {
          "internalType": "address",
          "name": "",
          "type": "address"
        }
      ],
      "stateMutability": "view",
      "type": "function"
    },
    {
      "inputs": [],
      "name": "lockerCount",
      "outputs": [
        {
          "internalType": "uint256",
          "name": "",
          "type": "uint256"
        }
      ],
      "stateMutability": "view",
      "type": "function"
    },
    {
      "inputs": [],
      "name": "lockerFee",
      "outputs": [
        {
          "internalType": "uint256",
          "name": "",
          "type": "uint256"
        }
      ],
      "stateMutability": "view",
      "type": "function"
    },
    {
      "inputs": [
        {
          "internalType": "uint256",
          "name": "",
          "type": "uint256"
        }
      ],
      "name": "lockerInfo",
      "outputs": [
        {
          "internalType": "uint256",
          "name": "id",
          "type": "uint256"
        },
        {
          "internalType": "enum LokcerFactory.Type",
          "name": "_type",
          "type": "uint8"
        },
        {
          "internalType": "address",
          "name": "owner",
          "type": "address"
        },
        {
          "internalType": "contract IERC20",
          "name": "token",
          "type": "address"
        },
        {
          "internalType": "contract Locker",
          "name": "locker",
          "type": "address"
        },
        {
          "internalType": "uint256",
          "name": "numOfTokens",
          "type": "uint256"
        },
        {
          "internalType": "uint256",
          "name": "lockTime",
          "type": "uint256"
        },
        {
          "internalType": "uint256",
          "name": "unlockTime",
          "type": "uint256"
        },
        {
          "internalType": "enum LokcerFactory.Status",
          "name": "status",
          "type": "uint8"
        }
      ],
      "stateMutability": "view",
      "type": "function"
    },
    {
      "inputs": [],
      "name": "owner",
      "outputs": [
        {
          "internalType": "address",
          "name": "",
          "type": "address"
        }
      ],
      "stateMutability": "view",
      "type": "function"
    },
    {
      "inputs": [],
      "name": "renounceOwnership",
      "outputs": [],
      "stateMutability": "nonpayable",
      "type": "function"
    },
    {
      "inputs": [
        {
          "internalType": "address",
          "name": "_launchpadAddress",
          "type": "address"
        }
      ],
      "name": "setLaunchPadAddress",
      "outputs": [],
      "stateMutability": "nonpayable",
      "type": "function"
    },
    {
      "inputs": [
        {
          "internalType": "address",
          "name": "newOwner",
          "type": "address"
        }
      ],
      "name": "transferOwnership",
      "outputs": [],
      "stateMutability": "nonpayable",
      "type": "function"
    },
    {
      "inputs": [
        {
          "internalType": "uint256",
          "name": "_id",
          "type": "uint256"
        },
        {
          "internalType": "uint256",
          "name": "_numOfTokens",
          "type": "uint256"
        }
      ],
      "name": "unlockTokens",
      "outputs": [],
      "stateMutability": "nonpayable",
      "type": "function"
    },
    {
      "inputs": [
        {
          "internalType": "uint256",
          "name": "_lockerFee",
          "type": "uint256"
        },
        {
          "internalType": "uint256",
          "name": "_updatingFee",
          "type": "uint256"
        }
      ],
      "name": "updateFees",
      "outputs": [],
      "stateMutability": "nonpayable",
      "type": "function"
    },
    {
      "inputs": [],
      "name": "updateLokcerFee",
      "outputs": [
        {
          "internalType": "uint256",
          "name": "",
          "type": "uint256"
        }
      ],
      "stateMutability": "view",
      "type": "function"
    },
    {
      "inputs": [],
      "name": "withdrawFunds",
      "outputs": [],
      "stateMutability": "nonpayable",
      "type": "function"
    },
    {
      "stateMutability": "payable",
      "type": "receive"
    }
  ],
  "bytecode": "0x608060405267016345785d8a000060025566b1a2bc2ec5000060035534801561002757600080fd5b5061003133610036565b610086565b600080546001600160a01b038381166001600160a01b0319831681178455604051919092169283917f8be0079c531659141344cd1fd0a4f28419497f9722a3daafe3b4186f6b6457e09190a35050565b611cab806100956000396000f3fe608060405260043610620001175760003560e01c80637fb0b30911620000a1578063e20aa5df116200006c578063e20aa5df1462000347578063eb99651b146200035f578063ed0831301462000376578063f2fde38b146200038d578063fdfcad8614620003b257600080fd5b80637fb0b30914620002545780638da5cb5b14620002e8578063b226aca21462000308578063ccd96eb6146200032f57600080fd5b80634aae03d411620000e25780634aae03d414620001c557806361a696d614620002005780636db794371462000217578063715018a6146200023c57600080fd5b8063092eeb13146200012457806324600fc314620001615780633190cbf8146200017b5780634471729514620001a057600080fd5b366200011f57005b600080fd5b3480156200013157600080fd5b506200014962000143366004620015b2565b620003d7565b60405162000158919062001691565b60405180910390f35b3480156200016e57600080fd5b506200017962000445565b005b3480156200018857600080fd5b50620001796200019a3660046200166f565b620004ff565b348015620001ad57600080fd5b5062000179620001bf366004620015b2565b62000838565b348015620001d257600080fd5b50600454620001e7906001600160a01b031681565b6040516001600160a01b03909116815260200162000158565b62000179620002113660046200166f565b62000887565b3480156200022457600080fd5b5062000179620002363660046200166f565b62000c4b565b3480156200024957600080fd5b506200017962000c83565b3480156200026157600080fd5b50620002d16200027336600462001656565b600560208190526000918252604090912080546001820154600283015460038401546004850154958501546006860154600790960154949660ff808616976101009096046001600160a01b0390811697958116969416949193911689565b604051620001589998979695949392919062001768565b348015620002f557600080fd5b506000546001600160a01b0316620001e7565b3480156200031557600080fd5b506200032060035481565b60405190815260200162000158565b3480156200033c57600080fd5b506200032060015481565b3480156200035457600080fd5b506200032060025481565b62000179620003703660046200166f565b62000cbe565b6200032062000387366004620015f3565b62000fea565b3480156200039a57600080fd5b5062000179620003ac366004620015b2565b62001423565b348015620003bf57600080fd5b5062000149620003d1366004620015b2565b620014c5565b6001600160a01b0381166000908152600660209081526040918290208054835181840281018401909452808452606093928301828280156200043957602002820191906000526020600020905b81548152602001906001019080831162000424575b50505050509050919050565b6000546001600160a01b031633146200047b5760405162461bcd60e51b81526004016200047290620016fc565b60405180910390fd5b4780620004c15760405162461bcd60e51b81526020600482015260136024820152724e6f7468696e6720746f20776974686472617760681b604482015260640162000472565b600080546040516001600160a01b039091169183156108fc02918491818181858888f19350505050158015620004fb573d6000803e3d6000fd5b5050565b60008281526005602052604090205482906200052f5760405162461bcd60e51b81526004016200047290620016d7565b600081815260056020526040902060060154421015620005865760405162461bcd60e51b81526020600482015260116024820152702737ba103ab73637b1b5b2b2103cb2ba1760791b604482015260640162000472565b60008381526005602052604090206001015483906001600160a01b03610100909104163314620005ca5760405162461bcd60e51b8152600401620004729062001731565b60008481526005602090815260408083208151610120810190925280548252600180820154929391929184019160ff16908111156200061957634e487b7160e01b600052602160045260246000fd5b60018111156200063957634e487b7160e01b600052602160045260246000fd5b81526001828101546001600160a01b0361010090910481166020840152600284015481166040840152600384015416606083015260048301546080830152600583015460a0830152600683015460c0830152600783015460e09092019160ff1690811115620006b857634e487b7160e01b600052602160045260246000fd5b6001811115620006d857634e487b7160e01b600052602160045260246000fd5b815250509050838160a001511015620007345760405162461bcd60e51b815260206004820152601d60248201527f4e6f7420656e6f75676820746f6b656e7320746f207769746864726177000000604482015260640162000472565b6080810151604051637c40532560e01b8152600481018690526001600160a01b0390911690637c40532590602401600060405180830381600087803b1580156200077d57600080fd5b505af115801562000792573d6000803e3d6000fd5b50505060a0820151620007a791508562001531565b6000868152600560205260409020600401819055620007dd576000858152600560205260409020600701805460ff191660011790555b606081810151604080518881523360208201526001600160a01b039092168282015291810186905290517ff0d7c30a27ebad52fb56830c599bf0535e86a95f4fc57fa7ec7b058b6e86aa589181900360800190a15050505050565b6000546001600160a01b03163314620008655760405162461bcd60e51b81526004016200047290620016fc565b600480546001600160a01b0319166001600160a01b0392909216919091179055565b6000828152600560205260409020548290620008b75760405162461bcd60e51b81526004016200047290620016d7565b6000818152600560205260409020600601544210620009195760405162461bcd60e51b815260206004820152601c60248201527f546865206c6f636b657220686173206265656e20657870697265642e00000000604482015260640162000472565b60008381526005602052604090206001015483906001600160a01b036101009091041633146200095d5760405162461bcd60e51b8152600401620004729062001731565b600354341015620009b15760405162461bcd60e51b815260206004820152601b60248201527f506c656173652070617920746865207570646174696e67206665650000000000604482015260640162000472565b6000831162000a035760405162461bcd60e51b815260206004820152601f60248201527f546f6b656e732073686f756c64206265206d6f7265207468616e207a65726f00604482015260640162000472565b60008481526005602090815260408083208151610120810190925280548252600180820154929391929184019160ff169081111562000a5257634e487b7160e01b600052602160045260246000fd5b600181111562000a7257634e487b7160e01b600052602160045260246000fd5b81526001828101546001600160a01b0361010090910481166020840152600284015481166040840152600384015416606083015260048301546080830152600583015460a0830152600683015460c0830152600783015460e09092019160ff169081111562000af157634e487b7160e01b600052602160045260246000fd5b600181111562000b1157634e487b7160e01b600052602160045260246000fd5b90525060608101519091506001600160a01b03166323b872dd3360808401516040516001600160e01b031960e085901b1681526001600160a01b0392831660048201529116602482015260448101879052606401602060405180830381600087803b15801562000b8057600080fd5b505af115801562000b95573d6000803e3d6000fd5b505050506040513d601f19601f8201168201806040525081019062000bbb9190620015d1565b50608081015160405163efda3cc560e01b8152600481018690526001600160a01b039091169063efda3cc590602401600060405180830381600087803b15801562000c0557600080fd5b505af115801562000c1a573d6000803e3d6000fd5b50505060a082015162000c2f91508562001546565b6000958652600560205260409095206004019490945550505050565b6000546001600160a01b0316331462000c785760405162461bcd60e51b81526004016200047290620016fc565b600291909155600355565b6000546001600160a01b0316331462000cb05760405162461bcd60e51b81526004016200047290620016fc565b62000cbc600062001554565b565b600082815260056020526040902054829062000cee5760405162461bcd60e51b81526004016200047290620016d7565b600081815260056020526040902060060154421062000d505760405162461bcd60e51b815260206004820152601c60248201527f546865206c6f636b657220686173206265656e20657870697265642e00000000604482015260640162000472565b60008381526005602052604090206001015483906001600160a01b0361010090910416331462000d945760405162461bcd60e51b8152600401620004729062001731565b60035434101562000de85760405162461bcd60e51b815260206004820152601b60248201527f706c656173652070617920746865207570646174696e67206665650000000000604482015260640162000472565b6000831162000e495760405162461bcd60e51b815260206004820152602660248201527f4164646974696f6e2074696d652073686f756c64206265206d6f7265207468616044820152656e207a65726f60d01b606482015260840162000472565b60008481526005602090815260408083208151610120810190925280548252600180820154929391929184019160ff169081111562000e9857634e487b7160e01b600052602160045260246000fd5b600181111562000eb857634e487b7160e01b600052602160045260246000fd5b81526001828101546001600160a01b0361010090910481166020840152600284015481166040840152600384015416606083015260048301546080830152600583015460a0830152600683015460c0830152600783015460e09092019160ff169081111562000f3757634e487b7160e01b600052602160045260246000fd5b600181111562000f5757634e487b7160e01b600052602160045260246000fd5b9052506080810151604051633074ff6360e11b8152600481018790529192506001600160a01b0316906360e9fec690602401600060405180830381600087803b15801562000fa457600080fd5b505af115801562000fb9573d6000803e3d6000fd5b50505060e082015162000fce91508562001546565b6000958652600560205260409095206006019490945550505050565b600080620010006000546001600160a01b031690565b6001600160a01b0316336001600160a01b031614806200102a57506004546001600160a01b031633145b9050806200107b576002543410156200107b5760405162461bcd60e51b8152602060048201526012602482015271506c6561736520706179207468652066656560701b604482015260640162000472565b60008311620010cd5760405162461bcd60e51b815260206004820181905260248201527f54686520756e6c6f636b2074696d652073686f756c6420696e20667574757265604482015260640162000472565b60018054906000620010df836200180b565b9190505550600060015487878787604051620010fb90620015a4565b9485526001600160a01b0393841660208601529290911660408401526060830152608082015260a001604051809103906000f08015801562001141573d6000803e3d6000fd5b5090506001600160a01b0386166323b872dd336040516001600160e01b031960e084901b1681526001600160a01b039182166004820152908416602482015260448101889052606401602060405180830381600087803b158015620011a557600080fd5b505af1158015620011ba573d6000803e3d6000fd5b505050506040513d601f19601f82011682018060405250810190620011e09190620015d1565b5060405180610120016040528060015481526020018960018111156200121657634e487b7160e01b600052602160045260246000fd5b81526001600160a01b03808a166020830152888116604083015283166060820152608081018790524260a082015260c0810186905260e001600090526001805460009081526005602090815260409091208351815590830151818301805492939192909160ff19909116908381811115620012a157634e487b7160e01b600052602160045260246000fd5b02179055506040820151600180830180546001600160a01b03938416610100908102610100600160a81b03199092169190911790915560608501516002850180549185166001600160a01b031992831617905560808601516003860180549190951691161790925560a0840151600484015560c0840151600584015560e08401516006840155908301516007830180549192909160ff19169083818111156200135a57634e487b7160e01b600052602160045260246000fd5b0217905550905050600760006200136e3390565b6001600160a01b03908116825260208083019390935260409182016000908120600180548254808301845592845286842090920191909155918a1680825260068552838220835481548086018355918452928690200191909155905482519081523393810193909352828201526060820187905260808201869052517f1cb39d6ecc8f823fa6183785ee795ddcb2873e92effbff9b9a377ef7610356769181900360a00190a150506001549695505050505050565b6000546001600160a01b03163314620014505760405162461bcd60e51b81526004016200047290620016fc565b6001600160a01b038116620014b75760405162461bcd60e51b815260206004820152602660248201527f4f776e61626c653a206e6577206f776e657220697320746865207a65726f206160448201526564647265737360d01b606482015260840162000472565b620014c28162001554565b50565b6001600160a01b038116600090815260076020908152604091829020805483518184028101840190945280845260609392830182828015620004395760200282019190600052602060002090815481526020019060010190808311620004245750505050509050919050565b60006200153f8284620017f1565b9392505050565b60006200153f8284620017d6565b600080546001600160a01b038381166001600160a01b0319831681178455604051919092169283917f8be0079c531659141344cd1fd0a4f28419497f9722a3daafe3b4186f6b6457e09190a35050565b610401806200187583390190565b600060208284031215620015c4578081fd5b81356200153f816200185e565b600060208284031215620015e3578081fd5b815180151581146200153f578182fd5b600080600080600060a086880312156200160b578081fd5b8535600281106200161a578182fd5b945060208601356200162c816200185e565b935060408601356200163e816200185e565b94979396509394606081013594506080013592915050565b60006020828403121562001668578081fd5b5035919050565b6000806040838503121562001682578182fd5b50508035926020909101359150565b6020808252825182820181905260009190848201906040850190845b81811015620016cb57835183529284019291840191600101620016ad565b50909695505050505050565b6020808252600b908201526a24b73b30b634b21024a21760a91b604082015260600190565b6020808252818101527f4f776e61626c653a2063616c6c6572206973206e6f7420746865206f776e6572604082015260600190565b6020808252601d908201527f4f6e6c79206c6f636b6572206f6e77657220697320616c6c6f7765642e000000604082015260600190565b89815261012081016200177b8a6200183f565b602082018a90526001600160a01b03898116604084015288811660608401528716608083015260a0820186905260c0820185905260e08201849052620017c1836200183f565b826101008301529a9950505050505050505050565b60008219821115620017ec57620017ec62001829565b500190565b60008282101562001806576200180662001829565b500390565b600060001982141562001822576200182262001829565b5060010190565b634e487b7160e01b600052601160045260246000fd5b60028110620014c257634e487b7160e01b600052602160045260246000fd5b6001600160a01b0381168114620014c257600080fdfe608060405234801561001057600080fd5b5060405161040138038061040183398101604081905261002f916100b1565b600080546001600160a01b031990811633179091556040805160c0810182528781526001600160a01b03968716602082018190529590961690860181905260608601849052426080870181905260a09096018390526001969096556002805482169094179093556003805490931690941790915560045560055560065561011c565b600080600080600060a086880312156100c8578081fd5b8551945060208601516100da81610104565b60408701519094506100eb81610104565b6060870151608090970151959894975095949392505050565b6001600160a01b038116811461011957600080fd5b50565b6102d68061012b6000396000f3fe608060405234801561001057600080fd5b50600436106100415760003560e01c806360e9fec6146100465780637c4053251461005b578063efda3cc51461006e575b600080fd5b61005961005436600461020c565b610081565b005b61005961006936600461020c565b6100c7565b61005961007c36600461020c565b610190565b6000546001600160a01b031633146100b45760405162461bcd60e51b81526004016100ab90610224565b60405180910390fd5b6006546100c190826101cd565b60065550565b6000546001600160a01b031633146100f15760405162461bcd60e51b81526004016100ab90610224565b6004546100fe90826101e0565b600490815560035460025460405163a9059cbb60e01b81526001600160a01b039182169381019390935260248301849052169063a9059cbb90604401602060405180830381600087803b15801561015457600080fd5b505af1158015610168573d6000803e3d6000fd5b505050506040513d601f19601f8201168201806040525081019061018c91906101ec565b5050565b6000546001600160a01b031633146101ba5760405162461bcd60e51b81526004016100ab90610224565b6004546101c790826101cd565b60045550565b60006101d9828461025b565b9392505050565b60006101d98284610273565b6000602082840312156101fd578081fd5b815180151581146101d9578182fd5b60006020828403121561021d578081fd5b5035919050565b6020808252601f908201527f4f6e6c79206d617374657220697320616c6c6f77656420746f2063616c6c2e00604082015260600190565b6000821982111561026e5761026e61028a565b500190565b6000828210156102855761028561028a565b500390565b634e487b7160e01b600052601160045260246000fdfea2646970667358221220a5e646bccbc801945e91f2f948ea27915c66b27e9cfcd19eccb5291117f47f2564736f6c63430008040033a26469706673582212207047e6648416ec8a1ecfd7f2e8580a2e6f76e255f3de8556bdc6fa4cca155df464736f6c63430008040033",
  "linkReferences": {},
  "deployedLinkReferences": {}
}